{
	"contracts/BlastPandas.sol": {
		"BlastPandas": {
			"abi": [
				{
					"inputs": [
						{
							"internalType": "string",
							"name": "baseURI",
							"type": "string"
						}
					],
					"stateMutability": "nonpayable",
					"type": "constructor"
				},
				{
					"inputs": [],
					"name": "ERC721EnumerableForbiddenBatchMint",
					"type": "error"
				},
				{
					"inputs": [
						{
							"internalType": "address",
							"name": "sender",
							"type": "address"
						},
						{
							"internalType": "uint256",
							"name": "tokenId",
							"type": "uint256"
						},
						{
							"internalType": "address",
							"name": "owner",
							"type": "address"
						}
					],
					"name": "ERC721IncorrectOwner",
					"type": "error"
				},
				{
					"inputs": [
						{
							"internalType": "address",
							"name": "operator",
							"type": "address"
						},
						{
							"internalType": "uint256",
							"name": "tokenId",
							"type": "uint256"
						}
					],
					"name": "ERC721InsufficientApproval",
					"type": "error"
				},
				{
					"inputs": [
						{
							"internalType": "address",
							"name": "approver",
							"type": "address"
						}
					],
					"name": "ERC721InvalidApprover",
					"type": "error"
				},
				{
					"inputs": [
						{
							"internalType": "address",
							"name": "operator",
							"type": "address"
						}
					],
					"name": "ERC721InvalidOperator",
					"type": "error"
				},
				{
					"inputs": [
						{
							"internalType": "address",
							"name": "owner",
							"type": "address"
						}
					],
					"name": "ERC721InvalidOwner",
					"type": "error"
				},
				{
					"inputs": [
						{
							"internalType": "address",
							"name": "receiver",
							"type": "address"
						}
					],
					"name": "ERC721InvalidReceiver",
					"type": "error"
				},
				{
					"inputs": [
						{
							"internalType": "address",
							"name": "sender",
							"type": "address"
						}
					],
					"name": "ERC721InvalidSender",
					"type": "error"
				},
				{
					"inputs": [
						{
							"internalType": "uint256",
							"name": "tokenId",
							"type": "uint256"
						}
					],
					"name": "ERC721NonexistentToken",
					"type": "error"
				},
				{
					"inputs": [
						{
							"internalType": "address",
							"name": "owner",
							"type": "address"
						},
						{
							"internalType": "uint256",
							"name": "index",
							"type": "uint256"
						}
					],
					"name": "ERC721OutOfBoundsIndex",
					"type": "error"
				},
				{
					"inputs": [],
					"name": "EnforcedPause",
					"type": "error"
				},
				{
					"inputs": [],
					"name": "ExpectedPause",
					"type": "error"
				},
				{
					"inputs": [
						{
							"internalType": "address",
							"name": "owner",
							"type": "address"
						}
					],
					"name": "OwnableInvalidOwner",
					"type": "error"
				},
				{
					"inputs": [
						{
							"internalType": "address",
							"name": "account",
							"type": "address"
						}
					],
					"name": "OwnableUnauthorizedAccount",
					"type": "error"
				},
				{
					"anonymous": false,
					"inputs": [
						{
							"indexed": true,
							"internalType": "address",
							"name": "owner",
							"type": "address"
						},
						{
							"indexed": true,
							"internalType": "address",
							"name": "approved",
							"type": "address"
						},
						{
							"indexed": true,
							"internalType": "uint256",
							"name": "tokenId",
							"type": "uint256"
						}
					],
					"name": "Approval",
					"type": "event"
				},
				{
					"anonymous": false,
					"inputs": [
						{
							"indexed": true,
							"internalType": "address",
							"name": "owner",
							"type": "address"
						},
						{
							"indexed": true,
							"internalType": "address",
							"name": "operator",
							"type": "address"
						},
						{
							"indexed": false,
							"internalType": "bool",
							"name": "approved",
							"type": "bool"
						}
					],
					"name": "ApprovalForAll",
					"type": "event"
				},
				{
					"anonymous": false,
					"inputs": [
						{
							"indexed": true,
							"internalType": "uint256",
							"name": "id",
							"type": "uint256"
						}
					],
					"name": "CreatePanda",
					"type": "event"
				},
				{
					"anonymous": false,
					"inputs": [
						{
							"indexed": true,
							"internalType": "address",
							"name": "previousOwner",
							"type": "address"
						},
						{
							"indexed": true,
							"internalType": "address",
							"name": "newOwner",
							"type": "address"
						}
					],
					"name": "OwnershipTransferred",
					"type": "event"
				},
				{
					"anonymous": false,
					"inputs": [
						{
							"indexed": false,
							"internalType": "address",
							"name": "account",
							"type": "address"
						}
					],
					"name": "Paused",
					"type": "event"
				},
				{
					"anonymous": false,
					"inputs": [
						{
							"indexed": true,
							"internalType": "address",
							"name": "from",
							"type": "address"
						},
						{
							"indexed": true,
							"internalType": "address",
							"name": "to",
							"type": "address"
						},
						{
							"indexed": true,
							"internalType": "uint256",
							"name": "tokenId",
							"type": "uint256"
						}
					],
					"name": "Transfer",
					"type": "event"
				},
				{
					"anonymous": false,
					"inputs": [
						{
							"indexed": false,
							"internalType": "address",
							"name": "account",
							"type": "address"
						}
					],
					"name": "Unpaused",
					"type": "event"
				},
				{
					"inputs": [],
					"name": "MAX_ELEMENTS",
					"outputs": [
						{
							"internalType": "uint256",
							"name": "",
							"type": "uint256"
						}
					],
					"stateMutability": "view",
					"type": "function"
				},
				{
					"inputs": [
						{
							"internalType": "address",
							"name": "to",
							"type": "address"
						},
						{
							"internalType": "uint256",
							"name": "tokenId",
							"type": "uint256"
						}
					],
					"name": "approve",
					"outputs": [],
					"stateMutability": "nonpayable",
					"type": "function"
				},
				{
					"inputs": [
						{
							"internalType": "address",
							"name": "owner",
							"type": "address"
						}
					],
					"name": "balanceOf",
					"outputs": [
						{
							"internalType": "uint256",
							"name": "",
							"type": "uint256"
						}
					],
					"stateMutability": "view",
					"type": "function"
				},
				{
					"inputs": [],
					"name": "baseTokenURI",
					"outputs": [
						{
							"internalType": "string",
							"name": "",
							"type": "string"
						}
					],
					"stateMutability": "view",
					"type": "function"
				},
				{
					"inputs": [
						{
							"internalType": "uint256",
							"name": "tokenId",
							"type": "uint256"
						}
					],
					"name": "burn",
					"outputs": [],
					"stateMutability": "nonpayable",
					"type": "function"
				},
				{
					"inputs": [
						{
							"internalType": "uint256",
							"name": "tokenId",
							"type": "uint256"
						}
					],
					"name": "getApproved",
					"outputs": [
						{
							"internalType": "address",
							"name": "",
							"type": "address"
						}
					],
					"stateMutability": "view",
					"type": "function"
				},
				{
					"inputs": [],
					"name": "getPrice",
					"outputs": [
						{
							"internalType": "uint256",
							"name": "",
							"type": "uint256"
						}
					],
					"stateMutability": "view",
					"type": "function"
				},
				{
					"inputs": [
						{
							"internalType": "address",
							"name": "owner",
							"type": "address"
						},
						{
							"internalType": "address",
							"name": "operator",
							"type": "address"
						}
					],
					"name": "isApprovedForAll",
					"outputs": [
						{
							"internalType": "bool",
							"name": "",
							"type": "bool"
						}
					],
					"stateMutability": "view",
					"type": "function"
				},
				{
					"inputs": [
						{
							"internalType": "address",
							"name": "_to",
							"type": "address"
						}
					],
					"name": "mint",
					"outputs": [],
					"stateMutability": "payable",
					"type": "function"
				},
				{
					"inputs": [],
					"name": "name",
					"outputs": [
						{
							"internalType": "string",
							"name": "",
							"type": "string"
						}
					],
					"stateMutability": "view",
					"type": "function"
				},
				{
					"inputs": [],
					"name": "owner",
					"outputs": [
						{
							"internalType": "address",
							"name": "",
							"type": "address"
						}
					],
					"stateMutability": "view",
					"type": "function"
				},
				{
					"inputs": [
						{
							"internalType": "uint256",
							"name": "tokenId",
							"type": "uint256"
						}
					],
					"name": "ownerOf",
					"outputs": [
						{
							"internalType": "address",
							"name": "",
							"type": "address"
						}
					],
					"stateMutability": "view",
					"type": "function"
				},
				{
					"inputs": [
						{
							"internalType": "bool",
							"name": "val",
							"type": "bool"
						}
					],
					"name": "pause",
					"outputs": [],
					"stateMutability": "nonpayable",
					"type": "function"
				},
				{
					"inputs": [],
					"name": "pause",
					"outputs": [],
					"stateMutability": "nonpayable",
					"type": "function"
				},
				{
					"inputs": [],
					"name": "paused",
					"outputs": [
						{
							"internalType": "bool",
							"name": "",
							"type": "bool"
						}
					],
					"stateMutability": "view",
					"type": "function"
				},
				{
					"inputs": [],
					"name": "price",
					"outputs": [
						{
							"internalType": "uint256",
							"name": "",
							"type": "uint256"
						}
					],
					"stateMutability": "view",
					"type": "function"
				},
				{
					"inputs": [],
					"name": "renounceOwnership",
					"outputs": [],
					"stateMutability": "nonpayable",
					"type": "function"
				},
				{
					"inputs": [
						{
							"internalType": "address",
							"name": "to",
							"type": "address"
						},
						{
							"internalType": "uint256",
							"name": "tokenId",
							"type": "uint256"
						}
					],
					"name": "safeMint",
					"outputs": [],
					"stateMutability": "nonpayable",
					"type": "function"
				},
				{
					"inputs": [
						{
							"internalType": "address",
							"name": "from",
							"type": "address"
						},
						{
							"internalType": "address",
							"name": "to",
							"type": "address"
						},
						{
							"internalType": "uint256",
							"name": "tokenId",
							"type": "uint256"
						}
					],
					"name": "safeTransferFrom",
					"outputs": [],
					"stateMutability": "nonpayable",
					"type": "function"
				},
				{
					"inputs": [
						{
							"internalType": "address",
							"name": "from",
							"type": "address"
						},
						{
							"internalType": "address",
							"name": "to",
							"type": "address"
						},
						{
							"internalType": "uint256",
							"name": "tokenId",
							"type": "uint256"
						},
						{
							"internalType": "bytes",
							"name": "data",
							"type": "bytes"
						}
					],
					"name": "safeTransferFrom",
					"outputs": [],
					"stateMutability": "nonpayable",
					"type": "function"
				},
				{
					"inputs": [
						{
							"internalType": "address",
							"name": "operator",
							"type": "address"
						},
						{
							"internalType": "bool",
							"name": "approved",
							"type": "bool"
						}
					],
					"name": "setApprovalForAll",
					"outputs": [],
					"stateMutability": "nonpayable",
					"type": "function"
				},
				{
					"inputs": [
						{
							"internalType": "string",
							"name": "baseURI",
							"type": "string"
						}
					],
					"name": "setBaseURI",
					"outputs": [],
					"stateMutability": "nonpayable",
					"type": "function"
				},
				{
					"inputs": [
						{
							"internalType": "uint256",
							"name": "newPrice",
							"type": "uint256"
						}
					],
					"name": "setPrice",
					"outputs": [],
					"stateMutability": "nonpayable",
					"type": "function"
				},
				{
					"inputs": [
						{
							"internalType": "bytes4",
							"name": "interfaceId",
							"type": "bytes4"
						}
					],
					"name": "supportsInterface",
					"outputs": [
						{
							"internalType": "bool",
							"name": "",
							"type": "bool"
						}
					],
					"stateMutability": "view",
					"type": "function"
				},
				{
					"inputs": [],
					"name": "symbol",
					"outputs": [
						{
							"internalType": "string",
							"name": "",
							"type": "string"
						}
					],
					"stateMutability": "view",
					"type": "function"
				},
				{
					"inputs": [
						{
							"internalType": "uint256",
							"name": "index",
							"type": "uint256"
						}
					],
					"name": "tokenByIndex",
					"outputs": [
						{
							"internalType": "uint256",
							"name": "",
							"type": "uint256"
						}
					],
					"stateMutability": "view",
					"type": "function"
				},
				{
					"inputs": [
						{
							"internalType": "address",
							"name": "owner",
							"type": "address"
						},
						{
							"internalType": "uint256",
							"name": "index",
							"type": "uint256"
						}
					],
					"name": "tokenOfOwnerByIndex",
					"outputs": [
						{
							"internalType": "uint256",
							"name": "",
							"type": "uint256"
						}
					],
					"stateMutability": "view",
					"type": "function"
				},
				{
					"inputs": [
						{
							"internalType": "uint256",
							"name": "tokenId",
							"type": "uint256"
						}
					],
					"name": "tokenURI",
					"outputs": [
						{
							"internalType": "string",
							"name": "",
							"type": "string"
						}
					],
					"stateMutability": "view",
					"type": "function"
				},
				{
					"inputs": [],
					"name": "totalMint",
					"outputs": [
						{
							"internalType": "uint256",
							"name": "",
							"type": "uint256"
						}
					],
					"stateMutability": "view",
					"type": "function"
				},
				{
					"inputs": [],
					"name": "totalSupply",
					"outputs": [
						{
							"internalType": "uint256",
							"name": "",
							"type": "uint256"
						}
					],
					"stateMutability": "view",
					"type": "function"
				},
				{
					"inputs": [
						{
							"internalType": "address",
							"name": "from",
							"type": "address"
						},
						{
							"internalType": "address",
							"name": "to",
							"type": "address"
						},
						{
							"internalType": "uint256",
							"name": "tokenId",
							"type": "uint256"
						}
					],
					"name": "transferFrom",
					"outputs": [],
					"stateMutability": "nonpayable",
					"type": "function"
				},
				{
					"inputs": [
						{
							"internalType": "address",
							"name": "newOwner",
							"type": "address"
						}
					],
					"name": "transferOwnership",
					"outputs": [],
					"stateMutability": "nonpayable",
					"type": "function"
				},
				{
					"inputs": [],
					"name": "unpause",
					"outputs": [],
					"stateMutability": "nonpayable",
					"type": "function"
				},
				{
					"inputs": [
						{
							"internalType": "address",
							"name": "_owner",
							"type": "address"
						}
					],
					"name": "walletOfOwner",
					"outputs": [
						{
							"internalType": "uint256[]",
							"name": "",
							"type": "uint256[]"
						}
					],
					"stateMutability": "view",
					"type": "function"
				},
				{
					"inputs": [],
					"name": "withdrawAll",
					"outputs": [],
					"stateMutability": "payable",
					"type": "function"
				}
			],
			"devdoc": {
				"errors": {
					"ERC721EnumerableForbiddenBatchMint()": [
						{
							"details": "Batch mint is not allowed."
						}
					],
					"ERC721IncorrectOwner(address,uint256,address)": [
						{
							"details": "Indicates an error related to the ownership over a particular token. Used in transfers.",
							"params": {
								"owner": "Address of the current owner of a token.",
								"sender": "Address whose tokens are being transferred.",
								"tokenId": "Identifier number of a token."
							}
						}
					],
					"ERC721InsufficientApproval(address,uint256)": [
						{
							"details": "Indicates a failure with the `operator`s approval. Used in transfers.",
							"params": {
								"operator": "Address that may be allowed to operate on tokens without being their owner.",
								"tokenId": "Identifier number of a token."
							}
						}
					],
					"ERC721InvalidApprover(address)": [
						{
							"details": "Indicates a failure with the `approver` of a token to be approved. Used in approvals.",
							"params": {
								"approver": "Address initiating an approval operation."
							}
						}
					],
					"ERC721InvalidOperator(address)": [
						{
							"details": "Indicates a failure with the `operator` to be approved. Used in approvals.",
							"params": {
								"operator": "Address that may be allowed to operate on tokens without being their owner."
							}
						}
					],
					"ERC721InvalidOwner(address)": [
						{
							"details": "Indicates that an address can't be an owner. For example, `address(0)` is a forbidden owner in EIP-20. Used in balance queries.",
							"params": {
								"owner": "Address of the current owner of a token."
							}
						}
					],
					"ERC721InvalidReceiver(address)": [
						{
							"details": "Indicates a failure with the token `receiver`. Used in transfers.",
							"params": {
								"receiver": "Address to which tokens are being transferred."
							}
						}
					],
					"ERC721InvalidSender(address)": [
						{
							"details": "Indicates a failure with the token `sender`. Used in transfers.",
							"params": {
								"sender": "Address whose tokens are being transferred."
							}
						}
					],
					"ERC721NonexistentToken(uint256)": [
						{
							"details": "Indicates a `tokenId` whose `owner` is the zero address.",
							"params": {
								"tokenId": "Identifier number of a token."
							}
						}
					],
					"ERC721OutOfBoundsIndex(address,uint256)": [
						{
							"details": "An `owner`'s token query was out of bounds for `index`. NOTE: The owner being `address(0)` indicates a global out of bounds index."
						}
					],
					"EnforcedPause()": [
						{
							"details": "The operation failed because the contract is paused."
						}
					],
					"ExpectedPause()": [
						{
							"details": "The operation failed because the contract is not paused."
						}
					],
					"OwnableInvalidOwner(address)": [
						{
							"details": "The owner is not a valid owner account. (eg. `address(0)`)"
						}
					],
					"OwnableUnauthorizedAccount(address)": [
						{
							"details": "The caller account is not authorized to perform an operation."
						}
					]
				},
				"events": {
					"Approval(address,address,uint256)": {
						"details": "Emitted when `owner` enables `approved` to manage the `tokenId` token."
					},
					"ApprovalForAll(address,address,bool)": {
						"details": "Emitted when `owner` enables or disables (`approved`) `operator` to manage all of its assets."
					},
					"Paused(address)": {
						"details": "Emitted when the pause is triggered by `account`."
					},
					"Transfer(address,address,uint256)": {
						"details": "Emitted when `tokenId` token is transferred from `from` to `to`."
					},
					"Unpaused(address)": {
						"details": "Emitted when the pause is lifted by `account`."
					}
				},
				"kind": "dev",
				"methods": {
					"approve(address,uint256)": {
						"details": "See {IERC721-approve}."
					},
					"balanceOf(address)": {
						"details": "See {IERC721-balanceOf}."
					},
					"burn(uint256)": {
						"details": "Burns `tokenId`. See {ERC721-_burn}. Requirements: - The caller must own `tokenId` or be an approved operator."
					},
					"getApproved(uint256)": {
						"details": "See {IERC721-getApproved}."
					},
					"isApprovedForAll(address,address)": {
						"details": "See {IERC721-isApprovedForAll}."
					},
					"name()": {
						"details": "See {IERC721Metadata-name}."
					},
					"owner()": {
						"details": "Returns the address of the current owner."
					},
					"ownerOf(uint256)": {
						"details": "See {IERC721-ownerOf}."
					},
					"paused()": {
						"details": "Returns true if the contract is paused, and false otherwise."
					},
					"renounceOwnership()": {
						"details": "Leaves the contract without owner. It will not be possible to call `onlyOwner` functions. Can only be called by the current owner. NOTE: Renouncing ownership will leave the contract without an owner, thereby disabling any functionality that is only available to the owner."
					},
					"safeTransferFrom(address,address,uint256)": {
						"details": "See {IERC721-safeTransferFrom}."
					},
					"safeTransferFrom(address,address,uint256,bytes)": {
						"details": "See {IERC721-safeTransferFrom}."
					},
					"setApprovalForAll(address,bool)": {
						"details": "See {IERC721-setApprovalForAll}."
					},
					"symbol()": {
						"details": "See {IERC721Metadata-symbol}."
					},
					"tokenByIndex(uint256)": {
						"details": "See {IERC721Enumerable-tokenByIndex}."
					},
					"tokenOfOwnerByIndex(address,uint256)": {
						"details": "See {IERC721Enumerable-tokenOfOwnerByIndex}."
					},
					"tokenURI(uint256)": {
						"details": "See {IERC721Metadata-tokenURI}."
					},
					"totalSupply()": {
						"details": "See {IERC721Enumerable-totalSupply}."
					},
					"transferFrom(address,address,uint256)": {
						"details": "See {IERC721-transferFrom}."
					},
					"transferOwnership(address)": {
						"details": "Transfers ownership of the contract to a new account (`newOwner`). Can only be called by the current owner."
					}
				},
				"version": 1
			},
			"evm": {
				"assembly": "    /* \"contracts/BlastPandas.sol\":514:4013  contract BlastPandas is ERC721Enumerable, Ownable, ERC721Burnable, ERC721Pausable {... */\n  mstore(0x40, 0x80)\n    /* \"contracts/BlastPandas.sol\":826:827  0 */\n  0x00\n    /* \"contracts/BlastPandas.sol\":803:827  uint256 public price = 0 */\n  0x0d\n  sstore\n    /* \"contracts/BlastPandas.sol\":877:1037  constructor(string memory baseURI)... */\n  callvalue\n  dup1\n  iszero\n  tag_1\n  jumpi\n  0x00\n  dup1\n  revert\ntag_1:\n  pop\n  mload(0x40)\n  sub(codesize, bytecodeSize)\n  dup1\n  bytecodeSize\n  dup4\n  codecopy\n  dup2\n  add\n  0x40\n  dup2\n  swap1\n  mstore\n  tag_2\n  swap2\n  tag_3\n  jump\t// in\ntag_2:\n    /* \"@openzeppelin/contracts/utils/Context.sol\":735:745  msg.sender */\n  caller\n    /* \"@openzeppelin/contracts/token/ERC721/ERC721.sol\":1381:1494  constructor(string memory name_, string memory symbol_) {... */\n  mload(0x40)\n  dup1\n  0x40\n  add\n  0x40\n  mstore\n  dup1\n  0x0c\n  dup2\n  mstore\n  0x20\n  add\n  shl(0xa0, 0x426c6173742050616e646173)\n  dup2\n  mstore\n  pop\n  mload(0x40)\n  dup1\n  0x40\n  add\n  0x40\n  mstore\n  dup1\n  0x03\n  dup2\n  mstore\n  0x20\n  add\n  shl(0xea, 0x141391)\n  dup2\n  mstore\n  pop\n    /* \"@openzeppelin/contracts/token/ERC721/ERC721.sol\":1455:1460  name_ */\n  dup2\n    /* \"@openzeppelin/contracts/token/ERC721/ERC721.sol\":1447:1452  _name */\n  0x00\n    /* \"@openzeppelin/contracts/token/ERC721/ERC721.sol\":1447:1460  _name = name_ */\n  swap1\n  dup2\n  tag_11\n  swap2\n  swap1\n  tag_12\n  jump\t// in\ntag_11:\n  pop\n    /* \"@openzeppelin/contracts/token/ERC721/ERC721.sol\":1470:1477  _symbol */\n  0x01\n    /* \"@openzeppelin/contracts/token/ERC721/ERC721.sol\":1470:1487  _symbol = symbol_ */\n  tag_13\n    /* \"@openzeppelin/contracts/token/ERC721/ERC721.sol\":1480:1487  symbol_ */\n  dup3\n    /* \"@openzeppelin/contracts/token/ERC721/ERC721.sol\":1470:1477  _symbol */\n  dup3\n    /* \"@openzeppelin/contracts/token/ERC721/ERC721.sol\":1470:1487  _symbol = symbol_ */\n  tag_12\n  jump\t// in\ntag_13:\n  pop\n  pop\n  pop\n  sub(shl(0xa0, 0x01), 0x01)\n    /* \"@openzeppelin/contracts/access/Ownable.sol\":1273:1299  initialOwner == address(0) */\n  dup2\n  and\n    /* \"@openzeppelin/contracts/access/Ownable.sol\":1269:1364  if (initialOwner == address(0)) {... */\n  tag_15\n  jumpi\n    /* \"@openzeppelin/contracts/access/Ownable.sol\":1322:1353  OwnableInvalidOwner(address(0)) */\n  mload(0x40)\n  shl(0xe0, 0x1e4fbdf7)\n  dup2\n  mstore\n    /* \"@openzeppelin/contracts/access/Ownable.sol\":1350:1351  0 */\n  0x00\n    /* \"@openzeppelin/contracts/access/Ownable.sol\":1322:1353  OwnableInvalidOwner(address(0)) */\n  0x04\n  dup3\n  add\n    /* \"#utility.yul\":3894:3945   */\n  mstore\n    /* \"#utility.yul\":3867:3885   */\n  0x24\n  add\n    /* \"@openzeppelin/contracts/access/Ownable.sol\":1322:1353  OwnableInvalidOwner(address(0)) */\ntag_16:\n  mload(0x40)\n  dup1\n  swap2\n  sub\n  swap1\n  revert\n    /* \"@openzeppelin/contracts/access/Ownable.sol\":1269:1364  if (initialOwner == address(0)) {... */\ntag_15:\n    /* \"@openzeppelin/contracts/access/Ownable.sol\":1373:1405  _transferOwnership(initialOwner) */\n  tag_18\n    /* \"@openzeppelin/contracts/access/Ownable.sol\":1392:1404  initialOwner */\n  dup2\n    /* \"@openzeppelin/contracts/access/Ownable.sol\":1373:1391  _transferOwnership */\n  tag_19\n    /* \"@openzeppelin/contracts/access/Ownable.sol\":1373:1405  _transferOwnership(initialOwner) */\n  jump\t// in\ntag_18:\n  pop\n    /* \"@openzeppelin/contracts/utils/Pausable.sol\":1231:1238  _paused */\n  0x0a\n    /* \"@openzeppelin/contracts/utils/Pausable.sol\":1231:1246  _paused = false */\n  dup1\n  sload\n  not(shl(0xa0, 0xff))\n  and\n  swap1\n  sstore\n    /* \"contracts/BlastPandas.sol\":994:1013  setBaseURI(baseURI) */\n  tag_22\n    /* \"contracts/BlastPandas.sol\":1005:1012  baseURI */\n  dup2\n    /* \"contracts/BlastPandas.sol\":994:1004  setBaseURI */\n  tag_23\n    /* \"contracts/BlastPandas.sol\":994:1013  setBaseURI(baseURI) */\n  jump\t// in\ntag_22:\n    /* \"contracts/BlastPandas.sol\":1023:1030  pause() */\n  tag_24\n    /* \"contracts/BlastPandas.sol\":1023:1028  pause */\n  tag_25\n    /* \"contracts/BlastPandas.sol\":1023:1030  pause() */\n  jump\t// in\ntag_24:\n    /* \"contracts/BlastPandas.sol\":877:1037  constructor(string memory baseURI)... */\n  pop\n    /* \"contracts/BlastPandas.sol\":514:4013  contract BlastPandas is ERC721Enumerable, Ownable, ERC721Burnable, ERC721Pausable {... */\n  jump(tag_63)\n    /* \"@openzeppelin/contracts/access/Ownable.sol\":2912:3099  function _transferOwnership(address newOwner) internal virtual {... */\ntag_19:\n    /* \"@openzeppelin/contracts/access/Ownable.sol\":3004:3010  _owner */\n  0x0a\n  dup1\n  sload\n  sub(shl(0xa0, 0x01), 0x01)\n    /* \"@openzeppelin/contracts/access/Ownable.sol\":3020:3037  _owner = newOwner */\n  dup4\n  dup2\n  and\n  not(sub(shl(0xa0, 0x01), 0x01))\n  dup4\n  and\n  dup2\n  or\n  swap1\n  swap4\n  sstore\n    /* \"@openzeppelin/contracts/access/Ownable.sol\":3052:3092  OwnershipTransferred(oldOwner, newOwner) */\n  mload(0x40)\n    /* \"@openzeppelin/contracts/access/Ownable.sol\":3004:3010  _owner */\n  swap2\n  and\n  swap2\n    /* \"@openzeppelin/contracts/access/Ownable.sol\":3020:3037  _owner = newOwner */\n  swap1\n    /* \"@openzeppelin/contracts/access/Ownable.sol\":3004:3010  _owner */\n  dup3\n  swap1\n    /* \"@openzeppelin/contracts/access/Ownable.sol\":3052:3092  OwnershipTransferred(oldOwner, newOwner) */\n  0x8be0079c531659141344cd1fd0a4f28419497f9722a3daafe3b4186f6b6457e0\n  swap1\n    /* \"@openzeppelin/contracts/access/Ownable.sol\":2985:3001  address oldOwner */\n  0x00\n  swap1\n    /* \"@openzeppelin/contracts/access/Ownable.sol\":3052:3092  OwnershipTransferred(oldOwner, newOwner) */\n  log3\n    /* \"@openzeppelin/contracts/access/Ownable.sol\":2975:3099  {... */\n  pop\n    /* \"@openzeppelin/contracts/access/Ownable.sol\":2912:3099  function _transferOwnership(address newOwner) internal virtual {... */\n  pop\n  jump\t// out\n    /* \"contracts/BlastPandas.sol\":2153:2252  function setBaseURI(string memory baseURI) public onlyOwner {... */\ntag_23:\n    /* \"@openzeppelin/contracts/access/Ownable.sol\":1531:1544  _checkOwner() */\n  tag_30\n    /* \"@openzeppelin/contracts/access/Ownable.sol\":1531:1542  _checkOwner */\n  tag_31\n    /* \"@openzeppelin/contracts/access/Ownable.sol\":1531:1544  _checkOwner() */\n  jump\t// in\ntag_30:\n    /* \"contracts/BlastPandas.sol\":2223:2235  baseTokenURI */\n  0x0c\n    /* \"contracts/BlastPandas.sol\":2223:2245  baseTokenURI = baseURI */\n  tag_33\n    /* \"contracts/BlastPandas.sol\":2238:2245  baseURI */\n  dup3\n    /* \"contracts/BlastPandas.sol\":2223:2235  baseTokenURI */\n  dup3\n    /* \"contracts/BlastPandas.sol\":2223:2245  baseTokenURI = baseURI */\n  tag_12\n  jump\t// in\ntag_33:\n  pop\n    /* \"contracts/BlastPandas.sol\":2153:2252  function setBaseURI(string memory baseURI) public onlyOwner {... */\n  pop\n  jump\t// out\n    /* \"contracts/BlastPandas.sol\":3124:3183  function pause() public onlyOwner {... */\ntag_25:\n    /* \"@openzeppelin/contracts/access/Ownable.sol\":1531:1544  _checkOwner() */\n  tag_35\n    /* \"@openzeppelin/contracts/access/Ownable.sol\":1531:1542  _checkOwner */\n  tag_31\n    /* \"@openzeppelin/contracts/access/Ownable.sol\":1531:1544  _checkOwner() */\n  jump\t// in\ntag_35:\n    /* \"contracts/BlastPandas.sol\":3168:3176  _pause() */\n  tag_37\n    /* \"contracts/BlastPandas.sol\":3168:3174  _pause */\n  tag_38\n    /* \"contracts/BlastPandas.sol\":3168:3176  _pause() */\n  jump\t// in\ntag_37:\n    /* \"contracts/BlastPandas.sol\":3124:3183  function pause() public onlyOwner {... */\n  jump\t// out\n    /* \"@openzeppelin/contracts/access/Ownable.sol\":1796:1958  function _checkOwner() internal view virtual {... */\ntag_31:\n    /* \"@openzeppelin/contracts/access/Ownable.sol\":1710:1716  _owner */\n  and(sub(shl(0xa0, 0x01), 0x01), sload(0x0a))\n    /* \"@openzeppelin/contracts/utils/Context.sol\":735:745  msg.sender */\n  caller\n    /* \"@openzeppelin/contracts/access/Ownable.sol\":1855:1878  owner() != _msgSender() */\n  eq\n    /* \"@openzeppelin/contracts/access/Ownable.sol\":1851:1952  if (owner() != _msgSender()) {... */\n  tag_37\n  jumpi\n    /* \"@openzeppelin/contracts/access/Ownable.sol\":1901:1941  OwnableUnauthorizedAccount(_msgSender()) */\n  mload(0x40)\n  shl(0xe0, 0x118cdaa7)\n  dup2\n  mstore\n    /* \"@openzeppelin/contracts/utils/Context.sol\":735:745  msg.sender */\n  caller\n    /* \"@openzeppelin/contracts/access/Ownable.sol\":1901:1941  OwnableUnauthorizedAccount(_msgSender()) */\n  0x04\n  dup3\n  add\n    /* \"#utility.yul\":3894:3945   */\n  mstore\n    /* \"#utility.yul\":3867:3885   */\n  0x24\n  add\n    /* \"@openzeppelin/contracts/access/Ownable.sol\":1901:1941  OwnableUnauthorizedAccount(_msgSender()) */\n  tag_16\n    /* \"#utility.yul\":3748:3951   */\n  jump\n    /* \"@openzeppelin/contracts/utils/Pausable.sol\":2463:2578  function _pause() internal virtual whenNotPaused {... */\ntag_38:\n    /* \"@openzeppelin/contracts/utils/Pausable.sol\":1474:1493  _requireNotPaused() */\n  tag_47\n    /* \"@openzeppelin/contracts/utils/Pausable.sol\":1474:1491  _requireNotPaused */\n  tag_48\n    /* \"@openzeppelin/contracts/utils/Pausable.sol\":1474:1493  _requireNotPaused() */\n  jump\t// in\ntag_47:\n    /* \"@openzeppelin/contracts/utils/Pausable.sol\":2522:2529  _paused */\n  0x0a\n    /* \"@openzeppelin/contracts/utils/Pausable.sol\":2522:2536  _paused = true */\n  dup1\n  sload\n  not(shl(0xa0, 0xff))\n  and\n  shl(0xa0, 0x01)\n  or\n  swap1\n  sstore\n    /* \"@openzeppelin/contracts/utils/Pausable.sol\":2551:2571  Paused(_msgSender()) */\n  0x62e78cea01bee320cd4e420270b5ea74000d11b0c9f74754ebdbfc544b05a258\n    /* \"@openzeppelin/contracts/utils/Pausable.sol\":2558:2570  _msgSender() */\n  tag_50\n    /* \"@openzeppelin/contracts/utils/Context.sol\":735:745  msg.sender */\n  caller\n  swap1\n    /* \"@openzeppelin/contracts/utils/Context.sol\":656:752  function _msgSender() internal view virtual returns (address) {... */\n  jump\n    /* \"@openzeppelin/contracts/utils/Pausable.sol\":2558:2570  _msgSender() */\ntag_50:\n    /* \"@openzeppelin/contracts/utils/Pausable.sol\":2551:2571  Paused(_msgSender()) */\n  mload(0x40)\n  sub(shl(0xa0, 0x01), 0x01)\n    /* \"#utility.yul\":3912:3944   */\n  swap1\n  swap2\n  and\n    /* \"#utility.yul\":3894:3945   */\n  dup2\n  mstore\n    /* \"#utility.yul\":3882:3884   */\n  0x20\n    /* \"#utility.yul\":3867:3885   */\n  add\n    /* \"@openzeppelin/contracts/utils/Pausable.sol\":2551:2571  Paused(_msgSender()) */\n  mload(0x40)\n  dup1\n  swap2\n  sub\n  swap1\n  log1\n    /* \"@openzeppelin/contracts/utils/Pausable.sol\":2463:2578  function _pause() internal virtual whenNotPaused {... */\n  jump\t// out\n    /* \"@openzeppelin/contracts/utils/Pausable.sol\":2002:2130  function _requireNotPaused() internal view virtual {... */\ntag_48:\n    /* \"@openzeppelin/contracts/utils/Pausable.sol\":2067:2075  paused() */\n  tag_54\n    /* \"@openzeppelin/contracts/utils/Pausable.sol\":1920:1927  _paused */\n  sload(0x0a)\n  shl(0xa0, 0x01)\n  swap1\n  div\n  0xff\n  and\n  swap1\n    /* \"@openzeppelin/contracts/utils/Pausable.sol\":1850:1934  function paused() public view virtual returns (bool) {... */\n  jump\n    /* \"@openzeppelin/contracts/utils/Pausable.sol\":2067:2075  paused() */\ntag_54:\n    /* \"@openzeppelin/contracts/utils/Pausable.sol\":2063:2124  if (paused()) {... */\n  iszero\n  tag_37\n  jumpi\n    /* \"@openzeppelin/contracts/utils/Pausable.sol\":2098:2113  EnforcedPause() */\n  mload(0x40)\n  shl(0xe0, 0xd93c0665)\n  dup2\n  mstore\n  0x04\n  add\n  mload(0x40)\n  dup1\n  swap2\n  sub\n  swap1\n  revert\n    /* \"#utility.yul\":14:141   */\ntag_58:\n    /* \"#utility.yul\":75:85   */\n  0x4e487b71\n    /* \"#utility.yul\":70:73   */\n  0xe0\n    /* \"#utility.yul\":66:86   */\n  shl\n    /* \"#utility.yul\":63:64   */\n  0x00\n    /* \"#utility.yul\":56:87   */\n  mstore\n    /* \"#utility.yul\":106:110   */\n  0x41\n    /* \"#utility.yul\":103:104   */\n  0x04\n    /* \"#utility.yul\":96:111   */\n  mstore\n    /* \"#utility.yul\":130:134   */\n  0x24\n    /* \"#utility.yul\":127:128   */\n  0x00\n    /* \"#utility.yul\":120:135   */\n  revert\n    /* \"#utility.yul\":146:1188   */\ntag_3:\n    /* \"#utility.yul\":226:232   */\n  0x00\n    /* \"#utility.yul\":257:259   */\n  0x20\n    /* \"#utility.yul\":300:302   */\n  dup1\n    /* \"#utility.yul\":288:297   */\n  dup4\n    /* \"#utility.yul\":279:286   */\n  dup6\n    /* \"#utility.yul\":275:298   */\n  sub\n    /* \"#utility.yul\":271:303   */\n  slt\n    /* \"#utility.yul\":268:320   */\n  iszero\n  tag_66\n  jumpi\n    /* \"#utility.yul\":316:317   */\n  0x00\n    /* \"#utility.yul\":313:314   */\n  dup1\n    /* \"#utility.yul\":306:318   */\n  revert\n    /* \"#utility.yul\":268:320   */\ntag_66:\n    /* \"#utility.yul\":343:359   */\n  dup3\n  mload\n  sub(shl(0x40, 0x01), 0x01)\n    /* \"#utility.yul\":408:422   */\n  dup1\n  dup3\n  gt\n    /* \"#utility.yul\":405:439   */\n  iszero\n  tag_67\n  jumpi\n    /* \"#utility.yul\":435:436   */\n  0x00\n    /* \"#utility.yul\":432:433   */\n  dup1\n    /* \"#utility.yul\":425:437   */\n  revert\n    /* \"#utility.yul\":405:439   */\ntag_67:\n    /* \"#utility.yul\":473:479   */\n  dup2\n    /* \"#utility.yul\":462:471   */\n  dup6\n    /* \"#utility.yul\":458:480   */\n  add\n    /* \"#utility.yul\":448:480   */\n  swap2\n  pop\n    /* \"#utility.yul\":518:525   */\n  dup6\n    /* \"#utility.yul\":511:515   */\n  0x1f\n    /* \"#utility.yul\":507:509   */\n  dup4\n    /* \"#utility.yul\":503:516   */\n  add\n    /* \"#utility.yul\":499:526   */\n  slt\n    /* \"#utility.yul\":489:544   */\n  tag_68\n  jumpi\n    /* \"#utility.yul\":540:541   */\n  0x00\n    /* \"#utility.yul\":537:538   */\n  dup1\n    /* \"#utility.yul\":530:542   */\n  revert\n    /* \"#utility.yul\":489:544   */\ntag_68:\n    /* \"#utility.yul\":569:571   */\n  dup2\n    /* \"#utility.yul\":563:572   */\n  mload\n    /* \"#utility.yul\":591:593   */\n  dup2\n    /* \"#utility.yul\":587:589   */\n  dup2\n    /* \"#utility.yul\":584:594   */\n  gt\n    /* \"#utility.yul\":581:617   */\n  iszero\n  tag_70\n  jumpi\n    /* \"#utility.yul\":597:615   */\n  tag_70\n  tag_58\n  jump\t// in\ntag_70:\n    /* \"#utility.yul\":672:674   */\n  0x40\n    /* \"#utility.yul\":666:675   */\n  mload\n    /* \"#utility.yul\":640:642   */\n  0x1f\n    /* \"#utility.yul\":726:739   */\n  dup3\n  add\n  not(0x1f)\n    /* \"#utility.yul\":722:744   */\n  swap1\n  dup2\n  and\n    /* \"#utility.yul\":746:748   */\n  0x3f\n    /* \"#utility.yul\":718:749   */\n  add\n    /* \"#utility.yul\":714:754   */\n  and\n    /* \"#utility.yul\":702:755   */\n  dup2\n  add\n  swap1\n    /* \"#utility.yul\":770:788   */\n  dup4\n  dup3\n  gt\n    /* \"#utility.yul\":790:812   */\n  dup2\n  dup4\n  lt\n    /* \"#utility.yul\":767:813   */\n  or\n    /* \"#utility.yul\":764:836   */\n  iszero\n  tag_72\n  jumpi\n    /* \"#utility.yul\":816:834   */\n  tag_72\n  tag_58\n  jump\t// in\ntag_72:\n    /* \"#utility.yul\":856:866   */\n  dup2\n    /* \"#utility.yul\":852:854   */\n  0x40\n    /* \"#utility.yul\":845:867   */\n  mstore\n    /* \"#utility.yul\":891:893   */\n  dup3\n    /* \"#utility.yul\":883:889   */\n  dup2\n    /* \"#utility.yul\":876:894   */\n  mstore\n    /* \"#utility.yul\":931:938   */\n  dup9\n    /* \"#utility.yul\":926:928   */\n  dup7\n    /* \"#utility.yul\":921:923   */\n  dup5\n    /* \"#utility.yul\":917:919   */\n  dup8\n    /* \"#utility.yul\":913:924   */\n  add\n    /* \"#utility.yul\":909:929   */\n  add\n    /* \"#utility.yul\":906:939   */\n  gt\n    /* \"#utility.yul\":903:956   */\n  iszero\n  tag_73\n  jumpi\n    /* \"#utility.yul\":952:953   */\n  0x00\n    /* \"#utility.yul\":949:950   */\n  dup1\n    /* \"#utility.yul\":942:954   */\n  revert\n    /* \"#utility.yul\":903:956   */\ntag_73:\n    /* \"#utility.yul\":974:975   */\n  0x00\n    /* \"#utility.yul\":965:975   */\n  swap4\n  pop\n    /* \"#utility.yul\":984:1113   */\ntag_74:\n    /* \"#utility.yul\":998:1000   */\n  dup3\n    /* \"#utility.yul\":995:996   */\n  dup5\n    /* \"#utility.yul\":992:1001   */\n  lt\n    /* \"#utility.yul\":984:1113   */\n  iszero\n  tag_76\n  jumpi\n    /* \"#utility.yul\":1086:1096   */\n  dup5\n  dup5\n  add\n    /* \"#utility.yul\":1082:1101   */\n  dup7\n  add\n    /* \"#utility.yul\":1076:1102   */\n  mload\n    /* \"#utility.yul\":1055:1069   */\n  dup2\n  dup6\n  add\n    /* \"#utility.yul\":1051:1074   */\n  dup8\n  add\n    /* \"#utility.yul\":1044:1103   */\n  mstore\n    /* \"#utility.yul\":1009:1019   */\n  swap3\n  dup6\n  add\n  swap3\n    /* \"#utility.yul\":984:1113   */\n  jump(tag_74)\ntag_76:\n    /* \"#utility.yul\":1155:1156   */\n  0x00\n    /* \"#utility.yul\":1150:1152   */\n  dup7\n    /* \"#utility.yul\":1145:1147   */\n  dup5\n    /* \"#utility.yul\":1137:1143   */\n  dup4\n    /* \"#utility.yul\":1133:1148   */\n  add\n    /* \"#utility.yul\":1129:1153   */\n  add\n    /* \"#utility.yul\":1122:1157   */\n  mstore\n    /* \"#utility.yul\":1176:1182   */\n  dup1\n    /* \"#utility.yul\":1166:1182   */\n  swap7\n  pop\n  pop\n  pop\n  pop\n  pop\n  pop\n  pop\n    /* \"#utility.yul\":146:1188   */\n  swap3\n  swap2\n  pop\n  pop\n  jump\t// out\n    /* \"#utility.yul\":1193:1573   */\ntag_59:\n    /* \"#utility.yul\":1272:1273   */\n  0x01\n    /* \"#utility.yul\":1268:1280   */\n  dup2\n  dup2\n  shr\n  swap1\n    /* \"#utility.yul\":1315:1327   */\n  dup3\n  and\n  dup1\n    /* \"#utility.yul\":1336:1397   */\n  tag_78\n  jumpi\n    /* \"#utility.yul\":1390:1394   */\n  0x7f\n    /* \"#utility.yul\":1382:1388   */\n  dup3\n    /* \"#utility.yul\":1378:1395   */\n  and\n    /* \"#utility.yul\":1368:1395   */\n  swap2\n  pop\n    /* \"#utility.yul\":1336:1397   */\ntag_78:\n    /* \"#utility.yul\":1443:1445   */\n  0x20\n    /* \"#utility.yul\":1435:1441   */\n  dup3\n    /* \"#utility.yul\":1432:1446   */\n  lt\n    /* \"#utility.yul\":1412:1430   */\n  dup2\n    /* \"#utility.yul\":1409:1447   */\n  sub\n    /* \"#utility.yul\":1406:1567   */\n  tag_79\n  jumpi\n    /* \"#utility.yul\":1489:1499   */\n  0x4e487b71\n    /* \"#utility.yul\":1484:1487   */\n  0xe0\n    /* \"#utility.yul\":1480:1500   */\n  shl\n    /* \"#utility.yul\":1477:1478   */\n  0x00\n    /* \"#utility.yul\":1470:1501   */\n  mstore\n    /* \"#utility.yul\":1524:1528   */\n  0x22\n    /* \"#utility.yul\":1521:1522   */\n  0x04\n    /* \"#utility.yul\":1514:1529   */\n  mstore\n    /* \"#utility.yul\":1552:1556   */\n  0x24\n    /* \"#utility.yul\":1549:1550   */\n  0x00\n    /* \"#utility.yul\":1542:1557   */\n  revert\n    /* \"#utility.yul\":1406:1567   */\ntag_79:\n  pop\n    /* \"#utility.yul\":1193:1573   */\n  swap2\n  swap1\n  pop\n  jump\t// out\n    /* \"#utility.yul\":1704:2222   */\ntag_61:\n    /* \"#utility.yul\":1806:1808   */\n  0x1f\n    /* \"#utility.yul\":1801:1804   */\n  dup3\n    /* \"#utility.yul\":1798:1809   */\n  gt\n    /* \"#utility.yul\":1795:2216   */\n  iszero\n  tag_82\n  jumpi\n    /* \"#utility.yul\":1842:1847   */\n  dup1\n    /* \"#utility.yul\":1839:1840   */\n  0x00\n    /* \"#utility.yul\":1832:1848   */\n  mstore\n    /* \"#utility.yul\":1886:1890   */\n  0x20\n    /* \"#utility.yul\":1883:1884   */\n  0x00\n    /* \"#utility.yul\":1873:1891   */\n  keccak256\n    /* \"#utility.yul\":1956:1958   */\n  0x1f\n    /* \"#utility.yul\":1944:1954   */\n  dup5\n    /* \"#utility.yul\":1940:1959   */\n  add\n    /* \"#utility.yul\":1937:1938   */\n  0x05\n    /* \"#utility.yul\":1933:1960   */\n  shr\n    /* \"#utility.yul\":1927:1931   */\n  dup2\n    /* \"#utility.yul\":1923:1961   */\n  add\n    /* \"#utility.yul\":1992:1996   */\n  0x20\n    /* \"#utility.yul\":1980:1990   */\n  dup6\n    /* \"#utility.yul\":1977:1997   */\n  lt\n    /* \"#utility.yul\":1974:2021   */\n  iszero\n  tag_83\n  jumpi\n  pop\n    /* \"#utility.yul\":2015:2019   */\n  dup1\n    /* \"#utility.yul\":1974:2021   */\ntag_83:\n    /* \"#utility.yul\":2070:2072   */\n  0x1f\n    /* \"#utility.yul\":2065:2068   */\n  dup5\n    /* \"#utility.yul\":2061:2073   */\n  add\n    /* \"#utility.yul\":2058:2059   */\n  0x05\n    /* \"#utility.yul\":2054:2074   */\n  shr\n    /* \"#utility.yul\":2048:2052   */\n  dup3\n    /* \"#utility.yul\":2044:2075   */\n  add\n    /* \"#utility.yul\":2034:2075   */\n  swap2\n  pop\n    /* \"#utility.yul\":2125:2206   */\ntag_84:\n    /* \"#utility.yul\":2143:2145   */\n  dup2\n    /* \"#utility.yul\":2136:2141   */\n  dup2\n    /* \"#utility.yul\":2133:2146   */\n  lt\n    /* \"#utility.yul\":2125:2206   */\n  iszero\n  tag_86\n  jumpi\n    /* \"#utility.yul\":2202:2203   */\n  0x00\n    /* \"#utility.yul\":2188:2204   */\n  dup2\n  sstore\n    /* \"#utility.yul\":2169:2170   */\n  0x01\n    /* \"#utility.yul\":2158:2171   */\n  add\n    /* \"#utility.yul\":2125:2206   */\n  jump(tag_84)\ntag_86:\n    /* \"#utility.yul\":2129:2132   */\n  pop\n  pop\n    /* \"#utility.yul\":1795:2216   */\ntag_82:\n    /* \"#utility.yul\":1704:2222   */\n  pop\n  pop\n  pop\n  jump\t// out\n    /* \"#utility.yul\":2398:3743   */\ntag_12:\n    /* \"#utility.yul\":2518:2528   */\n  dup2\n  mload\n  sub(shl(0x40, 0x01), 0x01)\n    /* \"#utility.yul\":2540:2570   */\n  dup2\n  gt\n    /* \"#utility.yul\":2537:2593   */\n  iszero\n  tag_90\n  jumpi\n    /* \"#utility.yul\":2573:2591   */\n  tag_90\n  tag_58\n  jump\t// in\ntag_90:\n    /* \"#utility.yul\":2602:2699   */\n  tag_91\n    /* \"#utility.yul\":2692:2698   */\n  dup2\n    /* \"#utility.yul\":2652:2690   */\n  tag_92\n    /* \"#utility.yul\":2684:2688   */\n  dup5\n    /* \"#utility.yul\":2678:2689   */\n  sload\n    /* \"#utility.yul\":2652:2690   */\n  tag_59\n  jump\t// in\ntag_92:\n    /* \"#utility.yul\":2646:2650   */\n  dup5\n    /* \"#utility.yul\":2602:2699   */\n  tag_61\n  jump\t// in\ntag_91:\n    /* \"#utility.yul\":2754:2758   */\n  0x20\n  dup1\n    /* \"#utility.yul\":2811:2813   */\n  0x1f\n    /* \"#utility.yul\":2800:2814   */\n  dup4\n  gt\n    /* \"#utility.yul\":2828:2829   */\n  0x01\n    /* \"#utility.yul\":2823:3486   */\n  dup2\n  eq\n  tag_94\n  jumpi\n    /* \"#utility.yul\":3530:3531   */\n  0x00\n    /* \"#utility.yul\":3547:3553   */\n  dup5\n    /* \"#utility.yul\":3544:3633   */\n  iszero\n  tag_95\n  jumpi\n  pop\n    /* \"#utility.yul\":3599:3618   */\n  dup6\n  dup4\n  add\n    /* \"#utility.yul\":3593:3619   */\n  mload\n    /* \"#utility.yul\":3544:3633   */\ntag_95:\n  not(0x00)\n    /* \"#utility.yul\":2355:2356   */\n  0x03\n    /* \"#utility.yul\":2351:2362   */\n  dup7\n  swap1\n  shl\n    /* \"#utility.yul\":2347:2371   */\n  shr\n    /* \"#utility.yul\":2343:2372   */\n  not\n    /* \"#utility.yul\":2333:2373   */\n  and\n    /* \"#utility.yul\":2379:2380   */\n  0x01\n    /* \"#utility.yul\":2375:2386   */\n  dup6\n  swap1\n  shl\n    /* \"#utility.yul\":2330:2387   */\n  or\n    /* \"#utility.yul\":3646:3727   */\n  dup6\n  sstore\n    /* \"#utility.yul\":2793:3737   */\n  jump(tag_93)\n    /* \"#utility.yul\":2823:3486   */\ntag_94:\n    /* \"#utility.yul\":1651:1652   */\n  0x00\n    /* \"#utility.yul\":1644:1658   */\n  dup6\n  dup2\n  mstore\n    /* \"#utility.yul\":1688:1692   */\n  0x20\n    /* \"#utility.yul\":1675:1693   */\n  dup2\n  keccak256\n  not(0x1f)\n    /* \"#utility.yul\":2859:2879   */\n  dup7\n  and\n  swap2\n    /* \"#utility.yul\":2977:3213   */\ntag_98:\n    /* \"#utility.yul\":2991:2998   */\n  dup3\n    /* \"#utility.yul\":2988:2989   */\n  dup2\n    /* \"#utility.yul\":2985:2999   */\n  lt\n    /* \"#utility.yul\":2977:3213   */\n  iszero\n  tag_100\n  jumpi\n    /* \"#utility.yul\":3080:3099   */\n  dup9\n  dup7\n  add\n    /* \"#utility.yul\":3074:3100   */\n  mload\n    /* \"#utility.yul\":3059:3101   */\n  dup3\n  sstore\n    /* \"#utility.yul\":3172:3199   */\n  swap5\n  dup5\n  add\n  swap5\n    /* \"#utility.yul\":3140:3141   */\n  0x01\n    /* \"#utility.yul\":3128:3142   */\n  swap1\n  swap2\n  add\n  swap1\n    /* \"#utility.yul\":3007:3026   */\n  dup5\n  add\n    /* \"#utility.yul\":2977:3213   */\n  jump(tag_98)\ntag_100:\n    /* \"#utility.yul\":2981:2984   */\n  pop\n    /* \"#utility.yul\":3241:3247   */\n  dup6\n    /* \"#utility.yul\":3232:3239   */\n  dup3\n    /* \"#utility.yul\":3229:3248   */\n  lt\n    /* \"#utility.yul\":3226:3427   */\n  iszero\n  tag_101\n  jumpi\n    /* \"#utility.yul\":3302:3321   */\n  dup8\n  dup6\n  add\n    /* \"#utility.yul\":3296:3322   */\n  mload\n  not(0x00)\n    /* \"#utility.yul\":3385:3386   */\n  0x03\n    /* \"#utility.yul\":3381:3395   */\n  dup9\n  swap1\n  shl\n    /* \"#utility.yul\":3397:3400   */\n  0xf8\n    /* \"#utility.yul\":3377:3401   */\n  and\n    /* \"#utility.yul\":3373:3410   */\n  shr\n    /* \"#utility.yul\":3369:3411   */\n  not\n    /* \"#utility.yul\":3354:3412   */\n  and\n    /* \"#utility.yul\":3339:3413   */\n  dup2\n  sstore\n    /* \"#utility.yul\":3226:3427   */\ntag_101:\n  pop\n  pop\n    /* \"#utility.yul\":3473:3474   */\n  0x01\n    /* \"#utility.yul\":3464:3470   */\n  dup5\n    /* \"#utility.yul\":3461:3462   */\n  0x01\n    /* \"#utility.yul\":3457:3471   */\n  shl\n    /* \"#utility.yul\":3453:3475   */\n  add\n    /* \"#utility.yul\":3447:3451   */\n  dup6\n    /* \"#utility.yul\":3440:3476   */\n  sstore\n    /* \"#utility.yul\":2793:3737   */\ntag_93:\n  pop\n  pop\n  pop\n  pop\n    /* \"#utility.yul\":2398:3743   */\n  pop\n  pop\n  jump\t// out\n    /* \"#utility.yul\":3748:3951   */\ntag_63:\n    /* \"contracts/BlastPandas.sol\":514:4013  contract BlastPandas is ERC721Enumerable, Ownable, ERC721Burnable, ERC721Pausable {... */\n  dataSize(sub_0)\n  dup1\n  dataOffset(sub_0)\n  0x00\n  codecopy\n  0x00\n  return\nstop\n\nsub_0: assembly {\n        /* \"contracts/BlastPandas.sol\":514:4013  contract BlastPandas is ERC721Enumerable, Ownable, ERC721Burnable, ERC721Pausable {... */\n      mstore(0x40, 0x80)\n      jumpi(tag_1, lt(calldatasize, 0x04))\n      shr(0xe0, calldataload(0x00))\n      dup1\n      0x6352211e\n      gt\n      tag_37\n      jumpi\n      dup1\n      0x98d5fdca\n      gt\n      tag_38\n      jumpi\n      dup1\n      0xb88d4fde\n      gt\n      tag_39\n      jumpi\n      dup1\n      0xb88d4fde\n      eq\n      tag_32\n      jumpi\n      dup1\n      0xc87b56dd\n      eq\n      tag_33\n      jumpi\n      dup1\n      0xd547cfb7\n      eq\n      tag_34\n      jumpi\n      dup1\n      0xe985e9c5\n      eq\n      tag_35\n      jumpi\n      dup1\n      0xf2fde38b\n      eq\n      tag_36\n      jumpi\n      0x00\n      dup1\n      revert\n    tag_39:\n      dup1\n      0x98d5fdca\n      eq\n      tag_28\n      jumpi\n      dup1\n      0xa035b1fe\n      eq\n      tag_29\n      jumpi\n      dup1\n      0xa1448194\n      eq\n      tag_30\n      jumpi\n      dup1\n      0xa22cb465\n      eq\n      tag_31\n      jumpi\n      0x00\n      dup1\n      revert\n    tag_38:\n      dup1\n      0x8456cb59\n      gt\n      tag_40\n      jumpi\n      dup1\n      0x8456cb59\n      eq\n      tag_23\n      jumpi\n      dup1\n      0x853828b6\n      eq\n      tag_24\n      jumpi\n      dup1\n      0x8da5cb5b\n      eq\n      tag_25\n      jumpi\n      dup1\n      0x91b7f5ed\n      eq\n      tag_26\n      jumpi\n      dup1\n      0x95d89b41\n      eq\n      tag_27\n      jumpi\n      0x00\n      dup1\n      revert\n    tag_40:\n      dup1\n      0x6352211e\n      eq\n      tag_19\n      jumpi\n      dup1\n      0x6a627842\n      eq\n      tag_20\n      jumpi\n      dup1\n      0x70a08231\n      eq\n      tag_21\n      jumpi\n      dup1\n      0x715018a6\n      eq\n      tag_22\n      jumpi\n      0x00\n      dup1\n      revert\n    tag_37:\n      dup1\n      0x3502a716\n      gt\n      tag_41\n      jumpi\n      dup1\n      0x438b6300\n      gt\n      tag_42\n      jumpi\n      dup1\n      0x438b6300\n      eq\n      tag_14\n      jumpi\n      dup1\n      0x4f6ccce7\n      eq\n      tag_15\n      jumpi\n      dup1\n      0x55f804b3\n      eq\n      tag_16\n      jumpi\n      dup1\n      0x59a7715a\n      eq\n      tag_17\n      jumpi\n      dup1\n      0x5c975abb\n      eq\n      tag_18\n      jumpi\n      0x00\n      dup1\n      revert\n    tag_42:\n      dup1\n      0x3502a716\n      eq\n      tag_10\n      jumpi\n      dup1\n      0x3f4ba83a\n      eq\n      tag_11\n      jumpi\n      dup1\n      0x42842e0e\n      eq\n      tag_12\n      jumpi\n      dup1\n      0x42966c68\n      eq\n      tag_13\n      jumpi\n      0x00\n      dup1\n      revert\n    tag_41:\n      dup1\n      0x095ea7b3\n      gt\n      tag_43\n      jumpi\n      dup1\n      0x095ea7b3\n      eq\n      tag_6\n      jumpi\n      dup1\n      0x18160ddd\n      eq\n      tag_7\n      jumpi\n      dup1\n      0x23b872dd\n      eq\n      tag_8\n      jumpi\n      dup1\n      0x2f745c59\n      eq\n      tag_9\n      jumpi\n      0x00\n      dup1\n      revert\n    tag_43:\n      dup1\n      0x01ffc9a7\n      eq\n      tag_2\n      jumpi\n      dup1\n      0x02329a29\n      eq\n      tag_3\n      jumpi\n      dup1\n      0x06fdde03\n      eq\n      tag_4\n      jumpi\n      dup1\n      0x081812fc\n      eq\n      tag_5\n      jumpi\n    tag_1:\n      0x00\n      dup1\n      revert\n        /* \"contracts/BlastPandas.sol\":3854:4011  function supportsInterface(bytes4 interfaceId) ... */\n    tag_2:\n      callvalue\n      dup1\n      iszero\n      tag_44\n      jumpi\n      0x00\n      dup1\n      revert\n    tag_44:\n      pop\n      tag_45\n      tag_46\n      calldatasize\n      0x04\n      tag_47\n      jump\t// in\n    tag_46:\n      pop\n        /* \"contracts/BlastPandas.sol\":3985:3989  bool */\n      0x00\n      swap1\n        /* \"contracts/BlastPandas.sol\":3854:4011  function supportsInterface(bytes4 interfaceId) ... */\n      jump\n    tag_45:\n      mload(0x40)\n        /* \"#utility.yul\":565:579   */\n      swap1\n      iszero\n        /* \"#utility.yul\":558:580   */\n      iszero\n        /* \"#utility.yul\":540:581   */\n      dup2\n      mstore\n        /* \"#utility.yul\":528:530   */\n      0x20\n        /* \"#utility.yul\":513:531   */\n      add\n        /* \"contracts/BlastPandas.sol\":3854:4011  function supportsInterface(bytes4 interfaceId) ... */\n    tag_49:\n      mload(0x40)\n      dup1\n      swap2\n      sub\n      swap1\n      return\n        /* \"contracts/BlastPandas.sol\":2608:2756  function pause(bool val) public onlyOwner {... */\n    tag_3:\n      callvalue\n      dup1\n      iszero\n      tag_51\n      jumpi\n      0x00\n      dup1\n      revert\n    tag_51:\n      pop\n      tag_52\n      tag_53\n      calldatasize\n      0x04\n      tag_54\n      jump\t// in\n    tag_53:\n      tag_55\n      jump\t// in\n    tag_52:\n      stop\n        /* \"@openzeppelin/contracts/token/ERC721/ERC721.sol\":2365:2454  function name() public view virtual returns (string memory) {... */\n    tag_4:\n      callvalue\n      dup1\n      iszero\n      tag_56\n      jumpi\n      0x00\n      dup1\n      revert\n    tag_56:\n      pop\n      tag_57\n      tag_58\n      jump\t// in\n    tag_57:\n      mload(0x40)\n      tag_49\n      swap2\n      swap1\n      tag_60\n      jump\t// in\n        /* \"@openzeppelin/contracts/token/ERC721/ERC721.sol\":3497:3651  function getApproved(uint256 tokenId) public view virtual returns (address) {... */\n    tag_5:\n      callvalue\n      dup1\n      iszero\n      tag_61\n      jumpi\n      0x00\n      dup1\n      revert\n    tag_61:\n      pop\n      tag_62\n      tag_63\n      calldatasize\n      0x04\n      tag_64\n      jump\t// in\n    tag_63:\n      tag_65\n      jump\t// in\n    tag_62:\n      mload(0x40)\n      sub(shl(0xa0, 0x01), 0x01)\n        /* \"#utility.yul\":2047:2079   */\n      swap1\n      swap2\n      and\n        /* \"#utility.yul\":2029:2080   */\n      dup2\n      mstore\n        /* \"#utility.yul\":2017:2019   */\n      0x20\n        /* \"#utility.yul\":2002:2020   */\n      add\n        /* \"@openzeppelin/contracts/token/ERC721/ERC721.sol\":3497:3651  function getApproved(uint256 tokenId) public view virtual returns (address) {... */\n      tag_49\n        /* \"#utility.yul\":1883:2086   */\n      jump\n        /* \"@openzeppelin/contracts/token/ERC721/ERC721.sol\":3323:3436  function approve(address to, uint256 tokenId) public virtual {... */\n    tag_6:\n      callvalue\n      dup1\n      iszero\n      tag_68\n      jumpi\n      0x00\n      dup1\n      revert\n    tag_68:\n      pop\n      tag_52\n      tag_70\n      calldatasize\n      0x04\n      tag_71\n      jump\t// in\n    tag_70:\n      tag_72\n      jump\t// in\n        /* \"@openzeppelin/contracts/token/ERC721/extensions/ERC721Enumerable.sol\":2062:2164  function totalSupply() public view virtual returns (uint256) {... */\n    tag_7:\n      callvalue\n      dup1\n      iszero\n      tag_73\n      jumpi\n      0x00\n      dup1\n      revert\n    tag_73:\n      pop\n        /* \"@openzeppelin/contracts/token/ERC721/extensions/ERC721Enumerable.sol\":2140:2150  _allTokens */\n      0x08\n        /* \"@openzeppelin/contracts/token/ERC721/extensions/ERC721Enumerable.sol\":2140:2157  _allTokens.length */\n      sload\n        /* \"@openzeppelin/contracts/token/ERC721/extensions/ERC721Enumerable.sol\":2062:2164  function totalSupply() public view virtual returns (uint256) {... */\n    tag_74:\n      mload(0x40)\n        /* \"#utility.yul\":2674:2699   */\n      swap1\n      dup2\n      mstore\n        /* \"#utility.yul\":2662:2664   */\n      0x20\n        /* \"#utility.yul\":2647:2665   */\n      add\n        /* \"@openzeppelin/contracts/token/ERC721/extensions/ERC721Enumerable.sol\":2062:2164  function totalSupply() public view virtual returns (uint256) {... */\n      tag_49\n        /* \"#utility.yul\":2528:2705   */\n      jump\n        /* \"@openzeppelin/contracts/token/ERC721/ERC721.sol\":4143:4721  function transferFrom(address from, address to, uint256 tokenId) public virtual {... */\n    tag_8:\n      callvalue\n      dup1\n      iszero\n      tag_78\n      jumpi\n      0x00\n      dup1\n      revert\n    tag_78:\n      pop\n      tag_52\n      tag_80\n      calldatasize\n      0x04\n      tag_81\n      jump\t// in\n    tag_80:\n      tag_82\n      jump\t// in\n        /* \"@openzeppelin/contracts/token/ERC721/extensions/ERC721Enumerable.sol\":1736:1991  function tokenOfOwnerByIndex(address owner, uint256 index) public view virtual returns (uint256) {... */\n    tag_9:\n      callvalue\n      dup1\n      iszero\n      tag_83\n      jumpi\n      0x00\n      dup1\n      revert\n    tag_83:\n      pop\n      tag_74\n      tag_85\n      calldatasize\n      0x04\n      tag_71\n      jump\t// in\n    tag_85:\n      tag_86\n      jump\t// in\n        /* \"contracts/BlastPandas.sol\":723:765  uint256 public constant MAX_ELEMENTS = 100 */\n    tag_10:\n      callvalue\n      dup1\n      iszero\n      tag_88\n      jumpi\n      0x00\n      dup1\n      revert\n    tag_88:\n      pop\n      tag_74\n        /* \"contracts/BlastPandas.sol\":762:765  100 */\n      0x64\n        /* \"contracts/BlastPandas.sol\":723:765  uint256 public constant MAX_ELEMENTS = 100 */\n      dup2\n      jump\n        /* \"contracts/BlastPandas.sol\":3189:3252  function unpause() public onlyOwner {... */\n    tag_11:\n      callvalue\n      dup1\n      iszero\n      tag_92\n      jumpi\n      0x00\n      dup1\n      revert\n    tag_92:\n      pop\n      tag_52\n      tag_94\n      jump\t// in\n        /* \"@openzeppelin/contracts/token/ERC721/ERC721.sol\":4787:4919  function safeTransferFrom(address from, address to, uint256 tokenId) public {... */\n    tag_12:\n      callvalue\n      dup1\n      iszero\n      tag_95\n      jumpi\n      0x00\n      dup1\n      revert\n    tag_95:\n      pop\n      tag_52\n      tag_97\n      calldatasize\n      0x04\n      tag_81\n      jump\t// in\n    tag_97:\n      tag_98\n      jump\t// in\n        /* \"@openzeppelin/contracts/token/ERC721/extensions/ERC721Burnable.sol\":561:875  function burn(uint256 tokenId) public virtual {... */\n    tag_13:\n      callvalue\n      dup1\n      iszero\n      tag_99\n      jumpi\n      0x00\n      dup1\n      revert\n    tag_99:\n      pop\n      tag_52\n      tag_101\n      calldatasize\n      0x04\n      tag_64\n      jump\t// in\n    tag_101:\n      tag_102\n      jump\t// in\n        /* \"contracts/BlastPandas.sol\":2258:2602  function walletOfOwner(address _owner) external view returns (uint256[] memory) {... */\n    tag_14:\n      callvalue\n      dup1\n      iszero\n      tag_103\n      jumpi\n      0x00\n      dup1\n      revert\n    tag_103:\n      pop\n      tag_104\n      tag_105\n      calldatasize\n      0x04\n      tag_106\n      jump\t// in\n    tag_105:\n      tag_107\n      jump\t// in\n    tag_104:\n      mload(0x40)\n      tag_49\n      swap2\n      swap1\n      tag_109\n      jump\t// in\n        /* \"@openzeppelin/contracts/token/ERC721/extensions/ERC721Enumerable.sol\":2236:2462  function tokenByIndex(uint256 index) public view virtual returns (uint256) {... */\n    tag_15:\n      callvalue\n      dup1\n      iszero\n      tag_110\n      jumpi\n      0x00\n      dup1\n      revert\n    tag_110:\n      pop\n      tag_74\n      tag_112\n      calldatasize\n      0x04\n      tag_64\n      jump\t// in\n    tag_112:\n      tag_113\n      jump\t// in\n        /* \"contracts/BlastPandas.sol\":2153:2252  function setBaseURI(string memory baseURI) public onlyOwner {... */\n    tag_16:\n      callvalue\n      dup1\n      iszero\n      tag_115\n      jumpi\n      0x00\n      dup1\n      revert\n    tag_115:\n      pop\n      tag_52\n      tag_117\n      calldatasize\n      0x04\n      tag_118\n      jump\t// in\n    tag_117:\n      tag_119\n      jump\t// in\n        /* \"contracts/BlastPandas.sol\":1357:1446  function totalMint() public view returns (uint256) {... */\n    tag_17:\n      callvalue\n      dup1\n      iszero\n      tag_120\n      jumpi\n      0x00\n      dup1\n      revert\n    tag_120:\n      pop\n      tag_74\n      tag_122\n      jump\t// in\n        /* \"@openzeppelin/contracts/utils/Pausable.sol\":1850:1934  function paused() public view virtual returns (bool) {... */\n    tag_18:\n      callvalue\n      dup1\n      iszero\n      tag_124\n      jumpi\n      0x00\n      dup1\n      revert\n    tag_124:\n      pop\n        /* \"@openzeppelin/contracts/utils/Pausable.sol\":1920:1927  _paused */\n      sload(0x0a)\n      shl(0xa0, 0x01)\n      swap1\n      div\n      0xff\n      and\n        /* \"@openzeppelin/contracts/utils/Pausable.sol\":1850:1934  function paused() public view virtual returns (bool) {... */\n      jump(tag_45)\n        /* \"@openzeppelin/contracts/token/ERC721/ERC721.sol\":2185:2303  function ownerOf(uint256 tokenId) public view virtual returns (address) {... */\n    tag_19:\n      callvalue\n      dup1\n      iszero\n      tag_128\n      jumpi\n      0x00\n      dup1\n      revert\n    tag_128:\n      pop\n      tag_62\n      tag_130\n      calldatasize\n      0x04\n      tag_64\n      jump\t// in\n    tag_130:\n      tag_131\n      jump\t// in\n        /* \"contracts/BlastPandas.sol\":1452:1666  function mint(address _to) public payable saleIsOpen {... */\n    tag_20:\n      tag_52\n      tag_134\n      calldatasize\n      0x04\n      tag_106\n      jump\t// in\n    tag_134:\n      tag_135\n      jump\t// in\n        /* \"@openzeppelin/contracts/token/ERC721/ERC721.sol\":1920:2128  function balanceOf(address owner) public view virtual returns (uint256) {... */\n    tag_21:\n      callvalue\n      dup1\n      iszero\n      tag_136\n      jumpi\n      0x00\n      dup1\n      revert\n    tag_136:\n      pop\n      tag_74\n      tag_138\n      calldatasize\n      0x04\n      tag_106\n      jump\t// in\n    tag_138:\n      tag_139\n      jump\t// in\n        /* \"@openzeppelin/contracts/access/Ownable.sol\":2293:2394  function renounceOwnership() public virtual onlyOwner {... */\n    tag_22:\n      callvalue\n      dup1\n      iszero\n      tag_141\n      jumpi\n      0x00\n      dup1\n      revert\n    tag_141:\n      pop\n      tag_52\n      tag_143\n      jump\t// in\n        /* \"contracts/BlastPandas.sol\":3124:3183  function pause() public onlyOwner {... */\n    tag_23:\n      callvalue\n      dup1\n      iszero\n      tag_144\n      jumpi\n      0x00\n      dup1\n      revert\n    tag_144:\n      pop\n      tag_52\n      tag_146\n      jump\t// in\n        /* \"contracts/BlastPandas.sol\":2762:2934  function withdrawAll() public payable onlyOwner {... */\n    tag_24:\n      tag_52\n      tag_148\n      jump\t// in\n        /* \"@openzeppelin/contracts/access/Ownable.sol\":1638:1723  function owner() public view virtual returns (address) {... */\n    tag_25:\n      callvalue\n      dup1\n      iszero\n      tag_149\n      jumpi\n      0x00\n      dup1\n      revert\n    tag_149:\n      pop\n        /* \"@openzeppelin/contracts/access/Ownable.sol\":1710:1716  _owner */\n      and(sub(shl(0xa0, 0x01), 0x01), sload(0x0a))\n        /* \"@openzeppelin/contracts/access/Ownable.sol\":1638:1723  function owner() public view virtual returns (address) {... */\n      jump(tag_62)\n        /* \"contracts/BlastPandas.sol\":1944:2030  function setPrice(uint256 newPrice) public onlyOwner {... */\n    tag_26:\n      callvalue\n      dup1\n      iszero\n      tag_153\n      jumpi\n      0x00\n      dup1\n      revert\n    tag_153:\n      pop\n      tag_52\n      tag_155\n      calldatasize\n      0x04\n      tag_64\n      jump\t// in\n    tag_155:\n      tag_156\n      jump\t// in\n        /* \"@openzeppelin/contracts/token/ERC721/ERC721.sol\":2518:2611  function symbol() public view virtual returns (string memory) {... */\n    tag_27:\n      callvalue\n      dup1\n      iszero\n      tag_157\n      jumpi\n      0x00\n      dup1\n      revert\n    tag_157:\n      pop\n      tag_57\n      tag_159\n      jump\t// in\n        /* \"contracts/BlastPandas.sol\":1859:1938  function getPrice() public view returns (uint256) {... */\n    tag_28:\n      callvalue\n      dup1\n      iszero\n      tag_161\n      jumpi\n      0x00\n      dup1\n      revert\n    tag_161:\n      pop\n        /* \"contracts/BlastPandas.sol\":1926:1931  price */\n      sload(0x0d)\n        /* \"contracts/BlastPandas.sol\":1859:1938  function getPrice() public view returns (uint256) {... */\n      jump(tag_74)\n        /* \"contracts/BlastPandas.sol\":803:827  uint256 public price = 0 */\n    tag_29:\n      callvalue\n      dup1\n      iszero\n      tag_165\n      jumpi\n      0x00\n      dup1\n      revert\n    tag_165:\n      pop\n      tag_74\n      sload(0x0d)\n      dup2\n      jump\n        /* \"contracts/BlastPandas.sol\":3258:3361  function safeMint(address to, uint256 tokenId) public onlyOwner {... */\n    tag_30:\n      callvalue\n      dup1\n      iszero\n      tag_169\n      jumpi\n      0x00\n      dup1\n      revert\n    tag_169:\n      pop\n      tag_52\n      tag_171\n      calldatasize\n      0x04\n      tag_71\n      jump\t// in\n    tag_171:\n      tag_172\n      jump\t// in\n        /* \"@openzeppelin/contracts/token/ERC721/ERC721.sol\":3718:3862  function setApprovalForAll(address operator, bool approved) public virtual {... */\n    tag_31:\n      callvalue\n      dup1\n      iszero\n      tag_173\n      jumpi\n      0x00\n      dup1\n      revert\n    tag_173:\n      pop\n      tag_52\n      tag_175\n      calldatasize\n      0x04\n      tag_176\n      jump\t// in\n    tag_175:\n      tag_177\n      jump\t// in\n        /* \"@openzeppelin/contracts/token/ERC721/ERC721.sol\":4985:5193  function safeTransferFrom(address from, address to, uint256 tokenId, bytes memory data) public virtual {... */\n    tag_32:\n      callvalue\n      dup1\n      iszero\n      tag_178\n      jumpi\n      0x00\n      dup1\n      revert\n    tag_178:\n      pop\n      tag_52\n      tag_180\n      calldatasize\n      0x04\n      tag_181\n      jump\t// in\n    tag_180:\n      tag_182\n      jump\t// in\n        /* \"@openzeppelin/contracts/token/ERC721/ERC721.sol\":2677:2932  function tokenURI(uint256 tokenId) public view virtual returns (string memory) {... */\n    tag_33:\n      callvalue\n      dup1\n      iszero\n      tag_183\n      jumpi\n      0x00\n      dup1\n      revert\n    tag_183:\n      pop\n      tag_57\n      tag_185\n      calldatasize\n      0x04\n      tag_64\n      jump\t// in\n    tag_185:\n      tag_186\n      jump\t// in\n        /* \"contracts/BlastPandas.sol\":771:797  string public baseTokenURI */\n    tag_34:\n      callvalue\n      dup1\n      iszero\n      tag_188\n      jumpi\n      0x00\n      dup1\n      revert\n    tag_188:\n      pop\n      tag_57\n      tag_190\n      jump\t// in\n        /* \"@openzeppelin/contracts/token/ERC721/ERC721.sol\":3928:4081  function isApprovedForAll(address owner, address operator) public view virtual returns (bool) {... */\n    tag_35:\n      callvalue\n      dup1\n      iszero\n      tag_192\n      jumpi\n      0x00\n      dup1\n      revert\n    tag_192:\n      pop\n      tag_45\n      tag_194\n      calldatasize\n      0x04\n      tag_195\n      jump\t// in\n    tag_194:\n      tag_196\n      jump\t// in\n        /* \"@openzeppelin/contracts/access/Ownable.sol\":2543:2758  function transferOwnership(address newOwner) public virtual onlyOwner {... */\n    tag_36:\n      callvalue\n      dup1\n      iszero\n      tag_198\n      jumpi\n      0x00\n      dup1\n      revert\n    tag_198:\n      pop\n      tag_52\n      tag_200\n      calldatasize\n      0x04\n      tag_106\n      jump\t// in\n    tag_200:\n      tag_201\n      jump\t// in\n        /* \"contracts/BlastPandas.sol\":2608:2756  function pause(bool val) public onlyOwner {... */\n    tag_55:\n        /* \"@openzeppelin/contracts/access/Ownable.sol\":1531:1544  _checkOwner() */\n      tag_204\n        /* \"@openzeppelin/contracts/access/Ownable.sol\":1531:1542  _checkOwner */\n      tag_205\n        /* \"@openzeppelin/contracts/access/Ownable.sol\":1531:1544  _checkOwner() */\n      jump\t// in\n    tag_204:\n        /* \"contracts/BlastPandas.sol\":2664:2675  val == true */\n      dup1\n      iszero\n      iszero\n        /* \"contracts/BlastPandas.sol\":2671:2675  true */\n      0x01\n        /* \"contracts/BlastPandas.sol\":2664:2675  val == true */\n      sub\n        /* \"contracts/BlastPandas.sol\":2660:2730  if (val == true) {... */\n      tag_207\n      jumpi\n        /* \"contracts/BlastPandas.sol\":2691:2699  _pause() */\n      tag_208\n        /* \"contracts/BlastPandas.sol\":2691:2697  _pause */\n      tag_209\n        /* \"contracts/BlastPandas.sol\":2691:2699  _pause() */\n      jump\t// in\n    tag_208:\n        /* \"contracts/BlastPandas.sol\":2608:2756  function pause(bool val) public onlyOwner {... */\n      pop\n      jump\t// out\n        /* \"contracts/BlastPandas.sol\":2660:2730  if (val == true) {... */\n    tag_207:\n        /* \"contracts/BlastPandas.sol\":2739:2749  _unpause() */\n      tag_208\n        /* \"contracts/BlastPandas.sol\":2739:2747  _unpause */\n      tag_211\n        /* \"contracts/BlastPandas.sol\":2739:2749  _unpause() */\n      jump\t// in\n        /* \"@openzeppelin/contracts/token/ERC721/ERC721.sol\":2365:2454  function name() public view virtual returns (string memory) {... */\n    tag_58:\n        /* \"@openzeppelin/contracts/token/ERC721/ERC721.sol\":2410:2423  string memory */\n      0x60\n        /* \"@openzeppelin/contracts/token/ERC721/ERC721.sol\":2442:2447  _name */\n      0x00\n        /* \"@openzeppelin/contracts/token/ERC721/ERC721.sol\":2435:2447  return _name */\n      dup1\n      sload\n      tag_213\n      swap1\n      tag_214\n      jump\t// in\n    tag_213:\n      dup1\n      0x1f\n      add\n      0x20\n      dup1\n      swap2\n      div\n      mul\n      0x20\n      add\n      mload(0x40)\n      swap1\n      dup2\n      add\n      0x40\n      mstore\n      dup1\n      swap3\n      swap2\n      swap1\n      dup2\n      dup2\n      mstore\n      0x20\n      add\n      dup3\n      dup1\n      sload\n      tag_215\n      swap1\n      tag_214\n      jump\t// in\n    tag_215:\n      dup1\n      iszero\n      tag_216\n      jumpi\n      dup1\n      0x1f\n      lt\n      tag_217\n      jumpi\n      0x0100\n      dup1\n      dup4\n      sload\n      div\n      mul\n      dup4\n      mstore\n      swap2\n      0x20\n      add\n      swap2\n      jump(tag_216)\n    tag_217:\n      dup3\n      add\n      swap2\n      swap1\n      0x00\n      mstore\n      keccak256(0x00, 0x20)\n      swap1\n    tag_218:\n      dup2\n      sload\n      dup2\n      mstore\n      swap1\n      0x01\n      add\n      swap1\n      0x20\n      add\n      dup1\n      dup4\n      gt\n      tag_218\n      jumpi\n      dup3\n      swap1\n      sub\n      0x1f\n      and\n      dup3\n      add\n      swap2\n    tag_216:\n      pop\n      pop\n      pop\n      pop\n      pop\n      swap1\n      pop\n        /* \"@openzeppelin/contracts/token/ERC721/ERC721.sol\":2365:2454  function name() public view virtual returns (string memory) {... */\n      swap1\n      jump\t// out\n        /* \"@openzeppelin/contracts/token/ERC721/ERC721.sol\":3497:3651  function getApproved(uint256 tokenId) public view virtual returns (address) {... */\n    tag_65:\n        /* \"@openzeppelin/contracts/token/ERC721/ERC721.sol\":3564:3571  address */\n      0x00\n        /* \"@openzeppelin/contracts/token/ERC721/ERC721.sol\":3583:3605  _requireOwned(tokenId) */\n      tag_220\n        /* \"@openzeppelin/contracts/token/ERC721/ERC721.sol\":3597:3604  tokenId */\n      dup3\n        /* \"@openzeppelin/contracts/token/ERC721/ERC721.sol\":3583:3596  _requireOwned */\n      tag_221\n        /* \"@openzeppelin/contracts/token/ERC721/ERC721.sol\":3583:3605  _requireOwned(tokenId) */\n      jump\t// in\n    tag_220:\n      pop\n        /* \"@openzeppelin/contracts/token/ERC721/ERC721.sol\":6008:6015  address */\n      0x00\n        /* \"@openzeppelin/contracts/token/ERC721/ERC721.sol\":6034:6058  _tokenApprovals[tokenId] */\n      dup3\n      dup2\n      mstore\n        /* \"@openzeppelin/contracts/token/ERC721/ERC721.sol\":6034:6049  _tokenApprovals */\n      0x04\n        /* \"@openzeppelin/contracts/token/ERC721/ERC721.sol\":6034:6058  _tokenApprovals[tokenId] */\n      0x20\n      mstore\n      0x40\n      swap1\n      keccak256\n      sload\n      sub(shl(0xa0, 0x01), 0x01)\n      and\n        /* \"@openzeppelin/contracts/token/ERC721/ERC721.sol\":3623:3644  _getApproved(tokenId) */\n    tag_222:\n        /* \"@openzeppelin/contracts/token/ERC721/ERC721.sol\":3616:3644  return _getApproved(tokenId) */\n      swap3\n        /* \"@openzeppelin/contracts/token/ERC721/ERC721.sol\":3497:3651  function getApproved(uint256 tokenId) public view virtual returns (address) {... */\n      swap2\n      pop\n      pop\n      jump\t// out\n        /* \"@openzeppelin/contracts/token/ERC721/ERC721.sol\":3323:3436  function approve(address to, uint256 tokenId) public virtual {... */\n    tag_72:\n        /* \"@openzeppelin/contracts/token/ERC721/ERC721.sol\":3394:3429  _approve(to, tokenId, _msgSender()) */\n      tag_225\n        /* \"@openzeppelin/contracts/token/ERC721/ERC721.sol\":3403:3405  to */\n      dup3\n        /* \"@openzeppelin/contracts/token/ERC721/ERC721.sol\":3407:3414  tokenId */\n      dup3\n        /* \"@openzeppelin/contracts/utils/Context.sol\":735:745  msg.sender */\n      caller\n        /* \"@openzeppelin/contracts/token/ERC721/ERC721.sol\":3394:3402  _approve */\n      tag_228\n        /* \"@openzeppelin/contracts/token/ERC721/ERC721.sol\":3394:3429  _approve(to, tokenId, _msgSender()) */\n      jump\t// in\n    tag_225:\n        /* \"@openzeppelin/contracts/token/ERC721/ERC721.sol\":3323:3436  function approve(address to, uint256 tokenId) public virtual {... */\n      pop\n      pop\n      jump\t// out\n        /* \"@openzeppelin/contracts/token/ERC721/ERC721.sol\":4143:4721  function transferFrom(address from, address to, uint256 tokenId) public virtual {... */\n    tag_82:\n      sub(shl(0xa0, 0x01), 0x01)\n        /* \"@openzeppelin/contracts/token/ERC721/ERC721.sol\":4237:4253  to == address(0) */\n      dup3\n      and\n        /* \"@openzeppelin/contracts/token/ERC721/ERC721.sol\":4233:4320  if (to == address(0)) {... */\n      tag_231\n      jumpi\n        /* \"@openzeppelin/contracts/token/ERC721/ERC721.sol\":4276:4309  ERC721InvalidReceiver(address(0)) */\n      mload(0x40)\n      shl(0xe1, 0x32505749)\n      dup2\n      mstore\n        /* \"@openzeppelin/contracts/token/ERC721/ERC721.sol\":4306:4307  0 */\n      0x00\n        /* \"@openzeppelin/contracts/token/ERC721/ERC721.sol\":4276:4309  ERC721InvalidReceiver(address(0)) */\n      0x04\n      dup3\n      add\n        /* \"#utility.yul\":2029:2080   */\n      mstore\n        /* \"#utility.yul\":2002:2020   */\n      0x24\n      add\n        /* \"@openzeppelin/contracts/token/ERC721/ERC721.sol\":4276:4309  ERC721InvalidReceiver(address(0)) */\n    tag_232:\n      mload(0x40)\n      dup1\n      swap2\n      sub\n      swap1\n      revert\n        /* \"@openzeppelin/contracts/token/ERC721/ERC721.sol\":4233:4320  if (to == address(0)) {... */\n    tag_231:\n        /* \"@openzeppelin/contracts/token/ERC721/ERC721.sol\":4538:4559  address previousOwner */\n      0x00\n        /* \"@openzeppelin/contracts/token/ERC721/ERC721.sol\":4562:4596  _update(to, tokenId, _msgSender()) */\n      tag_233\n        /* \"@openzeppelin/contracts/token/ERC721/ERC721.sol\":4570:4572  to */\n      dup4\n        /* \"@openzeppelin/contracts/token/ERC721/ERC721.sol\":4574:4581  tokenId */\n      dup4\n        /* \"@openzeppelin/contracts/utils/Context.sol\":735:745  msg.sender */\n      caller\n        /* \"@openzeppelin/contracts/token/ERC721/ERC721.sol\":4562:4569  _update */\n      tag_235\n        /* \"@openzeppelin/contracts/token/ERC721/ERC721.sol\":4562:4596  _update(to, tokenId, _msgSender()) */\n      jump\t// in\n    tag_233:\n        /* \"@openzeppelin/contracts/token/ERC721/ERC721.sol\":4538:4596  address previousOwner = _update(to, tokenId, _msgSender()) */\n      swap1\n      pop\n        /* \"@openzeppelin/contracts/token/ERC721/ERC721.sol\":4627:4631  from */\n      dup4\n      sub(shl(0xa0, 0x01), 0x01)\n        /* \"@openzeppelin/contracts/token/ERC721/ERC721.sol\":4610:4631  previousOwner != from */\n      and\n        /* \"@openzeppelin/contracts/token/ERC721/ERC721.sol\":4610:4623  previousOwner */\n      dup2\n      sub(shl(0xa0, 0x01), 0x01)\n        /* \"@openzeppelin/contracts/token/ERC721/ERC721.sol\":4610:4631  previousOwner != from */\n      and\n      eq\n        /* \"@openzeppelin/contracts/token/ERC721/ERC721.sol\":4606:4715  if (previousOwner != from) {... */\n      tag_236\n      jumpi\n        /* \"@openzeppelin/contracts/token/ERC721/ERC721.sol\":4654:4704  ERC721IncorrectOwner(from, tokenId, previousOwner) */\n      mload(0x40)\n      shl(0xe0, 0x64283d7b)\n      dup2\n      mstore\n      sub(shl(0xa0, 0x01), 0x01)\n        /* \"#utility.yul\":6935:6950   */\n      dup1\n      dup7\n      and\n        /* \"@openzeppelin/contracts/token/ERC721/ERC721.sol\":4654:4704  ERC721IncorrectOwner(from, tokenId, previousOwner) */\n      0x04\n      dup4\n      add\n        /* \"#utility.yul\":6917:6951   */\n      mstore\n        /* \"#utility.yul\":6967:6985   */\n      0x24\n      dup3\n      add\n        /* \"#utility.yul\":6960:6994   */\n      dup5\n      swap1\n      mstore\n        /* \"#utility.yul\":7030:7045   */\n      dup3\n      and\n        /* \"#utility.yul\":7010:7028   */\n      0x44\n      dup3\n      add\n        /* \"#utility.yul\":7003:7046   */\n      mstore\n        /* \"#utility.yul\":6852:6870   */\n      0x64\n      add\n        /* \"@openzeppelin/contracts/token/ERC721/ERC721.sol\":4654:4704  ERC721IncorrectOwner(from, tokenId, previousOwner) */\n      tag_232\n        /* \"#utility.yul\":6677:7052   */\n      jump\n        /* \"@openzeppelin/contracts/token/ERC721/ERC721.sol\":4606:4715  if (previousOwner != from) {... */\n    tag_236:\n        /* \"@openzeppelin/contracts/token/ERC721/ERC721.sol\":4223:4721  {... */\n      pop\n        /* \"@openzeppelin/contracts/token/ERC721/ERC721.sol\":4143:4721  function transferFrom(address from, address to, uint256 tokenId) public virtual {... */\n      pop\n      pop\n      pop\n      jump\t// out\n        /* \"@openzeppelin/contracts/token/ERC721/extensions/ERC721Enumerable.sol\":1736:1991  function tokenOfOwnerByIndex(address owner, uint256 index) public view virtual returns (uint256) {... */\n    tag_86:\n        /* \"@openzeppelin/contracts/token/ERC721/extensions/ERC721Enumerable.sol\":1824:1831  uint256 */\n      0x00\n        /* \"@openzeppelin/contracts/token/ERC721/extensions/ERC721Enumerable.sol\":1856:1872  balanceOf(owner) */\n      tag_240\n        /* \"@openzeppelin/contracts/token/ERC721/extensions/ERC721Enumerable.sol\":1866:1871  owner */\n      dup4\n        /* \"@openzeppelin/contracts/token/ERC721/extensions/ERC721Enumerable.sol\":1856:1865  balanceOf */\n      tag_139\n        /* \"@openzeppelin/contracts/token/ERC721/extensions/ERC721Enumerable.sol\":1856:1872  balanceOf(owner) */\n      jump\t// in\n    tag_240:\n        /* \"@openzeppelin/contracts/token/ERC721/extensions/ERC721Enumerable.sol\":1847:1852  index */\n      dup3\n        /* \"@openzeppelin/contracts/token/ERC721/extensions/ERC721Enumerable.sol\":1847:1872  index >= balanceOf(owner) */\n      lt\n        /* \"@openzeppelin/contracts/token/ERC721/extensions/ERC721Enumerable.sol\":1843:1942  if (index >= balanceOf(owner)) {... */\n      tag_241\n      jumpi\n        /* \"@openzeppelin/contracts/token/ERC721/extensions/ERC721Enumerable.sol\":1895:1931  ERC721OutOfBoundsIndex(owner, index) */\n      mload(0x40)\n      shl(0xe2, 0x295f44f7)\n      dup2\n      mstore\n      sub(shl(0xa0, 0x01), 0x01)\n        /* \"#utility.yul\":7249:7281   */\n      dup5\n      and\n        /* \"@openzeppelin/contracts/token/ERC721/extensions/ERC721Enumerable.sol\":1895:1931  ERC721OutOfBoundsIndex(owner, index) */\n      0x04\n      dup3\n      add\n        /* \"#utility.yul\":7231:7282   */\n      mstore\n        /* \"#utility.yul\":7298:7316   */\n      0x24\n      dup2\n      add\n        /* \"#utility.yul\":7291:7325   */\n      dup4\n      swap1\n      mstore\n        /* \"#utility.yul\":7204:7222   */\n      0x44\n      add\n        /* \"@openzeppelin/contracts/token/ERC721/extensions/ERC721Enumerable.sol\":1895:1931  ERC721OutOfBoundsIndex(owner, index) */\n      tag_232\n        /* \"#utility.yul\":7057:7331   */\n      jump\n        /* \"@openzeppelin/contracts/token/ERC721/extensions/ERC721Enumerable.sol\":1843:1942  if (index >= balanceOf(owner)) {... */\n    tag_241:\n      pop\n      sub(shl(0xa0, 0x01), 0x01)\n        /* \"@openzeppelin/contracts/token/ERC721/extensions/ERC721Enumerable.sol\":1958:1977  _ownedTokens[owner] */\n      swap2\n      swap1\n      swap2\n      and\n      0x00\n      swap1\n      dup2\n      mstore\n        /* \"@openzeppelin/contracts/token/ERC721/extensions/ERC721Enumerable.sol\":1958:1970  _ownedTokens */\n      0x06\n        /* \"@openzeppelin/contracts/token/ERC721/extensions/ERC721Enumerable.sol\":1958:1977  _ownedTokens[owner] */\n      0x20\n      swap1\n      dup2\n      mstore\n      0x40\n      dup1\n      dup4\n      keccak256\n        /* \"@openzeppelin/contracts/token/ERC721/extensions/ERC721Enumerable.sol\":1958:1984  _ownedTokens[owner][index] */\n      swap4\n      dup4\n      mstore\n      swap3\n      swap1\n      mstore\n      keccak256\n      sload\n      swap1\n        /* \"@openzeppelin/contracts/token/ERC721/extensions/ERC721Enumerable.sol\":1736:1991  function tokenOfOwnerByIndex(address owner, uint256 index) public view virtual returns (uint256) {... */\n      jump\t// out\n        /* \"contracts/BlastPandas.sol\":3189:3252  function unpause() public onlyOwner {... */\n    tag_94:\n        /* \"@openzeppelin/contracts/access/Ownable.sol\":1531:1544  _checkOwner() */\n      tag_245\n        /* \"@openzeppelin/contracts/access/Ownable.sol\":1531:1542  _checkOwner */\n      tag_205\n        /* \"@openzeppelin/contracts/access/Ownable.sol\":1531:1544  _checkOwner() */\n      jump\t// in\n    tag_245:\n        /* \"contracts/BlastPandas.sol\":3235:3245  _unpause() */\n      tag_247\n        /* \"contracts/BlastPandas.sol\":3235:3243  _unpause */\n      tag_211\n        /* \"contracts/BlastPandas.sol\":3235:3245  _unpause() */\n      jump\t// in\n    tag_247:\n        /* \"contracts/BlastPandas.sol\":3189:3252  function unpause() public onlyOwner {... */\n      jump\t// out\n        /* \"@openzeppelin/contracts/token/ERC721/ERC721.sol\":4787:4919  function safeTransferFrom(address from, address to, uint256 tokenId) public {... */\n    tag_98:\n        /* \"@openzeppelin/contracts/token/ERC721/ERC721.sol\":4873:4912  safeTransferFrom(from, to, tokenId, \"\") */\n      tag_249\n        /* \"@openzeppelin/contracts/token/ERC721/ERC721.sol\":4890:4894  from */\n      dup4\n        /* \"@openzeppelin/contracts/token/ERC721/ERC721.sol\":4896:4898  to */\n      dup4\n        /* \"@openzeppelin/contracts/token/ERC721/ERC721.sol\":4900:4907  tokenId */\n      dup4\n        /* \"@openzeppelin/contracts/token/ERC721/ERC721.sol\":4873:4912  safeTransferFrom(from, to, tokenId, \"\") */\n      mload(0x40)\n      dup1\n      0x20\n      add\n      0x40\n      mstore\n      dup1\n      0x00\n      dup2\n      mstore\n      pop\n        /* \"@openzeppelin/contracts/token/ERC721/ERC721.sol\":4873:4889  safeTransferFrom */\n      tag_182\n        /* \"@openzeppelin/contracts/token/ERC721/ERC721.sol\":4873:4912  safeTransferFrom(from, to, tokenId, \"\") */\n      jump\t// in\n    tag_249:\n        /* \"@openzeppelin/contracts/token/ERC721/ERC721.sol\":4787:4919  function safeTransferFrom(address from, address to, uint256 tokenId) public {... */\n      pop\n      pop\n      pop\n      jump\t// out\n        /* \"@openzeppelin/contracts/token/ERC721/extensions/ERC721Burnable.sol\":561:875  function burn(uint256 tokenId) public virtual {... */\n    tag_102:\n        /* \"@openzeppelin/contracts/token/ERC721/extensions/ERC721Burnable.sol\":826:868  _update(address(0), tokenId, _msgSender()) */\n      tag_225\n        /* \"@openzeppelin/contracts/token/ERC721/extensions/ERC721Burnable.sol\":842:843  0 */\n      0x00\n        /* \"@openzeppelin/contracts/token/ERC721/extensions/ERC721Burnable.sol\":846:853  tokenId */\n      dup3\n        /* \"@openzeppelin/contracts/utils/Context.sol\":735:745  msg.sender */\n      caller\n        /* \"@openzeppelin/contracts/token/ERC721/ERC721.sol\":4562:4569  _update */\n      tag_235\n        /* \"@openzeppelin/contracts/token/ERC721/ERC721.sol\":4562:4596  _update(to, tokenId, _msgSender()) */\n      jump\t// in\n        /* \"contracts/BlastPandas.sol\":2258:2602  function walletOfOwner(address _owner) external view returns (uint256[] memory) {... */\n    tag_107:\n        /* \"contracts/BlastPandas.sol\":2320:2336  uint256[] memory */\n      0x60\n        /* \"contracts/BlastPandas.sol\":2348:2366  uint256 tokenCount */\n      0x00\n        /* \"contracts/BlastPandas.sol\":2369:2386  balanceOf(_owner) */\n      tag_254\n        /* \"contracts/BlastPandas.sol\":2379:2385  _owner */\n      dup4\n        /* \"contracts/BlastPandas.sol\":2369:2378  balanceOf */\n      tag_139\n        /* \"contracts/BlastPandas.sol\":2369:2386  balanceOf(_owner) */\n      jump\t// in\n    tag_254:\n        /* \"contracts/BlastPandas.sol\":2348:2386  uint256 tokenCount = balanceOf(_owner) */\n      swap1\n      pop\n        /* \"contracts/BlastPandas.sol\":2397:2422  uint256[] memory tokensId */\n      0x00\n        /* \"contracts/BlastPandas.sol\":2439:2449  tokenCount */\n      dup2\n        /* \"contracts/BlastPandas.sol\":2425:2450  new uint256[](tokenCount) */\n      0xffffffffffffffff\n      dup2\n      gt\n      iszero\n      tag_256\n      jumpi\n      tag_256\n      tag_257\n      jump\t// in\n    tag_256:\n      mload(0x40)\n      swap1\n      dup1\n      dup3\n      mstore\n      dup1\n      0x20\n      mul\n      0x20\n      add\n      dup3\n      add\n      0x40\n      mstore\n      dup1\n      iszero\n      tag_258\n      jumpi\n      dup2\n      0x20\n      add\n      0x20\n      dup3\n      mul\n      dup1\n      calldatasize\n      dup4\n      calldatacopy\n      add\n      swap1\n      pop\n    tag_258:\n      pop\n        /* \"contracts/BlastPandas.sol\":2397:2450  uint256[] memory tokensId = new uint256[](tokenCount) */\n      swap1\n      pop\n        /* \"contracts/BlastPandas.sol\":2465:2474  uint256 i */\n      0x00\n        /* \"contracts/BlastPandas.sol\":2460:2570  for (uint256 i = 0; i < tokenCount; i++) {... */\n    tag_259:\n        /* \"contracts/BlastPandas.sol\":2484:2494  tokenCount */\n      dup3\n        /* \"contracts/BlastPandas.sol\":2480:2481  i */\n      dup2\n        /* \"contracts/BlastPandas.sol\":2480:2494  i < tokenCount */\n      lt\n        /* \"contracts/BlastPandas.sol\":2460:2570  for (uint256 i = 0; i < tokenCount; i++) {... */\n      iszero\n      tag_260\n      jumpi\n        /* \"contracts/BlastPandas.sol\":2529:2559  tokenOfOwnerByIndex(_owner, i) */\n      tag_262\n        /* \"contracts/BlastPandas.sol\":2549:2555  _owner */\n      dup6\n        /* \"contracts/BlastPandas.sol\":2557:2558  i */\n      dup3\n        /* \"contracts/BlastPandas.sol\":2529:2548  tokenOfOwnerByIndex */\n      tag_86\n        /* \"contracts/BlastPandas.sol\":2529:2559  tokenOfOwnerByIndex(_owner, i) */\n      jump\t// in\n    tag_262:\n        /* \"contracts/BlastPandas.sol\":2515:2523  tokensId */\n      dup3\n        /* \"contracts/BlastPandas.sol\":2524:2525  i */\n      dup3\n        /* \"contracts/BlastPandas.sol\":2515:2526  tokensId[i] */\n      dup2\n      mload\n      dup2\n      lt\n      tag_264\n      jumpi\n      tag_264\n      tag_265\n      jump\t// in\n    tag_264:\n      0x20\n      swap1\n      dup2\n      mul\n      swap2\n      swap1\n      swap2\n      add\n      add\n        /* \"contracts/BlastPandas.sol\":2515:2559  tokensId[i] = tokenOfOwnerByIndex(_owner, i) */\n      mstore\n        /* \"contracts/BlastPandas.sol\":2496:2499  i++ */\n      0x01\n      add\n        /* \"contracts/BlastPandas.sol\":2460:2570  for (uint256 i = 0; i < tokenCount; i++) {... */\n      jump(tag_259)\n    tag_260:\n      pop\n        /* \"contracts/BlastPandas.sol\":2587:2595  tokensId */\n      swap4\n        /* \"contracts/BlastPandas.sol\":2258:2602  function walletOfOwner(address _owner) external view returns (uint256[] memory) {... */\n      swap3\n      pop\n      pop\n      pop\n      jump\t// out\n        /* \"@openzeppelin/contracts/token/ERC721/extensions/ERC721Enumerable.sol\":2236:2462  function tokenByIndex(uint256 index) public view virtual returns (uint256) {... */\n    tag_113:\n        /* \"@openzeppelin/contracts/token/ERC721/extensions/ERC721Enumerable.sol\":2302:2309  uint256 */\n      0x00\n        /* \"@openzeppelin/contracts/token/ERC721/extensions/ERC721Enumerable.sol\":2334:2347  totalSupply() */\n      tag_267\n        /* \"@openzeppelin/contracts/token/ERC721/extensions/ERC721Enumerable.sol\":2140:2150  _allTokens */\n      0x08\n        /* \"@openzeppelin/contracts/token/ERC721/extensions/ERC721Enumerable.sol\":2140:2157  _allTokens.length */\n      sload\n      swap1\n        /* \"@openzeppelin/contracts/token/ERC721/extensions/ERC721Enumerable.sol\":2062:2164  function totalSupply() public view virtual returns (uint256) {... */\n      jump\n        /* \"@openzeppelin/contracts/token/ERC721/extensions/ERC721Enumerable.sol\":2334:2347  totalSupply() */\n    tag_267:\n        /* \"@openzeppelin/contracts/token/ERC721/extensions/ERC721Enumerable.sol\":2325:2330  index */\n      dup3\n        /* \"@openzeppelin/contracts/token/ERC721/extensions/ERC721Enumerable.sol\":2325:2347  index >= totalSupply() */\n      lt\n        /* \"@openzeppelin/contracts/token/ERC721/extensions/ERC721Enumerable.sol\":2321:2422  if (index >= totalSupply()) {... */\n      tag_268\n      jumpi\n        /* \"@openzeppelin/contracts/token/ERC721/extensions/ERC721Enumerable.sol\":2370:2411  ERC721OutOfBoundsIndex(address(0), index) */\n      mload(0x40)\n      shl(0xe2, 0x295f44f7)\n      dup2\n      mstore\n        /* \"@openzeppelin/contracts/token/ERC721/extensions/ERC721Enumerable.sol\":2401:2402  0 */\n      0x00\n        /* \"@openzeppelin/contracts/token/ERC721/extensions/ERC721Enumerable.sol\":2370:2411  ERC721OutOfBoundsIndex(address(0), index) */\n      0x04\n      dup3\n      add\n        /* \"#utility.yul\":7231:7282   */\n      mstore\n        /* \"#utility.yul\":7298:7316   */\n      0x24\n      dup2\n      add\n        /* \"#utility.yul\":7291:7325   */\n      dup4\n      swap1\n      mstore\n        /* \"#utility.yul\":7204:7222   */\n      0x44\n      add\n        /* \"@openzeppelin/contracts/token/ERC721/extensions/ERC721Enumerable.sol\":2370:2411  ERC721OutOfBoundsIndex(address(0), index) */\n      tag_232\n        /* \"#utility.yul\":7057:7331   */\n      jump\n        /* \"@openzeppelin/contracts/token/ERC721/extensions/ERC721Enumerable.sol\":2321:2422  if (index >= totalSupply()) {... */\n    tag_268:\n        /* \"@openzeppelin/contracts/token/ERC721/extensions/ERC721Enumerable.sol\":2438:2448  _allTokens */\n      0x08\n        /* \"@openzeppelin/contracts/token/ERC721/extensions/ERC721Enumerable.sol\":2449:2454  index */\n      dup3\n        /* \"@openzeppelin/contracts/token/ERC721/extensions/ERC721Enumerable.sol\":2438:2455  _allTokens[index] */\n      dup2\n      sload\n      dup2\n      lt\n      tag_271\n      jumpi\n      tag_271\n      tag_265\n      jump\t// in\n    tag_271:\n      swap1\n      0x00\n      mstore\n      keccak256(0x00, 0x20)\n      add\n      sload\n        /* \"@openzeppelin/contracts/token/ERC721/extensions/ERC721Enumerable.sol\":2431:2455  return _allTokens[index] */\n      swap1\n      pop\n        /* \"@openzeppelin/contracts/token/ERC721/extensions/ERC721Enumerable.sol\":2236:2462  function tokenByIndex(uint256 index) public view virtual returns (uint256) {... */\n      swap2\n      swap1\n      pop\n      jump\t// out\n        /* \"contracts/BlastPandas.sol\":2153:2252  function setBaseURI(string memory baseURI) public onlyOwner {... */\n    tag_119:\n        /* \"@openzeppelin/contracts/access/Ownable.sol\":1531:1544  _checkOwner() */\n      tag_274\n        /* \"@openzeppelin/contracts/access/Ownable.sol\":1531:1542  _checkOwner */\n      tag_205\n        /* \"@openzeppelin/contracts/access/Ownable.sol\":1531:1544  _checkOwner() */\n      jump\t// in\n    tag_274:\n        /* \"contracts/BlastPandas.sol\":2223:2235  baseTokenURI */\n      0x0c\n        /* \"contracts/BlastPandas.sol\":2223:2245  baseTokenURI = baseURI */\n      tag_225\n        /* \"contracts/BlastPandas.sol\":2238:2245  baseURI */\n      dup3\n        /* \"contracts/BlastPandas.sol\":2223:2235  baseTokenURI */\n      dup3\n        /* \"contracts/BlastPandas.sol\":2223:2245  baseTokenURI = baseURI */\n      tag_277\n      jump\t// in\n        /* \"contracts/BlastPandas.sol\":1357:1446  function totalMint() public view returns (uint256) {... */\n    tag_122:\n        /* \"contracts/BlastPandas.sol\":1399:1406  uint256 */\n      0x00\n        /* \"contracts/BlastPandas.sol\":1425:1439  _totalSupply() */\n      tag_279\n        /* \"contracts/BlastPandas.sol\":1425:1437  _totalSupply */\n      tag_280\n        /* \"contracts/BlastPandas.sol\":1425:1439  _totalSupply() */\n      jump\t// in\n    tag_279:\n        /* \"contracts/BlastPandas.sol\":1418:1439  return _totalSupply() */\n      swap1\n      pop\n        /* \"contracts/BlastPandas.sol\":1357:1446  function totalMint() public view returns (uint256) {... */\n      swap1\n      jump\t// out\n        /* \"@openzeppelin/contracts/token/ERC721/ERC721.sol\":2185:2303  function ownerOf(uint256 tokenId) public view virtual returns (address) {... */\n    tag_131:\n        /* \"@openzeppelin/contracts/token/ERC721/ERC721.sol\":2248:2255  address */\n      0x00\n        /* \"@openzeppelin/contracts/token/ERC721/ERC721.sol\":2274:2296  _requireOwned(tokenId) */\n      tag_222\n        /* \"@openzeppelin/contracts/token/ERC721/ERC721.sol\":2288:2295  tokenId */\n      dup3\n        /* \"@openzeppelin/contracts/token/ERC721/ERC721.sol\":2274:2287  _requireOwned */\n      tag_221\n        /* \"@openzeppelin/contracts/token/ERC721/ERC721.sol\":2274:2296  _requireOwned(tokenId) */\n      jump\t// in\n        /* \"contracts/BlastPandas.sol\":1452:1666  function mint(address _to) public payable saleIsOpen {... */\n    tag_135:\n        /* \"contracts/BlastPandas.sol\":762:765  100 */\n      0x64\n        /* \"contracts/BlastPandas.sol\":1081:1095  _totalSupply() */\n      tag_285\n        /* \"contracts/BlastPandas.sol\":1081:1093  _totalSupply */\n      tag_280\n        /* \"contracts/BlastPandas.sol\":1081:1095  _totalSupply() */\n      jump\t// in\n    tag_285:\n        /* \"contracts/BlastPandas.sol\":1081:1111  _totalSupply() <= MAX_ELEMENTS */\n      gt\n      iszero\n        /* \"contracts/BlastPandas.sol\":1073:1124  require(_totalSupply() <= MAX_ELEMENTS, \"Sale end\") */\n      tag_286\n      jumpi\n      mload(0x40)\n      shl(0xe5, 0x461bcd)\n      dup2\n      mstore\n        /* \"#utility.yul\":9840:9842   */\n      0x20\n        /* \"contracts/BlastPandas.sol\":1073:1124  require(_totalSupply() <= MAX_ELEMENTS, \"Sale end\") */\n      0x04\n      dup3\n      add\n        /* \"#utility.yul\":9822:9843   */\n      mstore\n        /* \"#utility.yul\":9879:9880   */\n      0x08\n        /* \"#utility.yul\":9859:9877   */\n      0x24\n      dup3\n      add\n        /* \"#utility.yul\":9852:9881   */\n      mstore\n      shl(0xc2, 0x14d85b1948195b99)\n        /* \"#utility.yul\":9897:9915   */\n      0x44\n      dup3\n      add\n        /* \"#utility.yul\":9890:9928   */\n      mstore\n        /* \"#utility.yul\":9945:9963   */\n      0x64\n      add\n        /* \"contracts/BlastPandas.sol\":1073:1124  require(_totalSupply() <= MAX_ELEMENTS, \"Sale end\") */\n      tag_232\n        /* \"#utility.yul\":9638:9969   */\n      jump\n        /* \"contracts/BlastPandas.sol\":1073:1124  require(_totalSupply() <= MAX_ELEMENTS, \"Sale end\") */\n    tag_286:\n        /* \"@openzeppelin/contracts/access/Ownable.sol\":1710:1716  _owner */\n      and(sub(shl(0xa0, 0x01), 0x01), sload(0x0a))\n        /* \"@openzeppelin/contracts/utils/Context.sol\":735:745  msg.sender */\n      caller\n        /* \"contracts/BlastPandas.sol\":1138:1161  _msgSender() != owner() */\n      eq\n        /* \"contracts/BlastPandas.sol\":1134:1226  if (_msgSender() != owner()) {... */\n      tag_293\n      jumpi\n        /* \"@openzeppelin/contracts/utils/Pausable.sol\":1920:1927  _paused */\n      sload(0x0a)\n      shl(0xa0, 0x01)\n      swap1\n      div\n      0xff\n      and\n        /* \"contracts/BlastPandas.sol\":1185:1194  !paused() */\n      iszero\n        /* \"contracts/BlastPandas.sol\":1177:1215  require(!paused(), \"Pausable: paused\") */\n      tag_293\n      jumpi\n      mload(0x40)\n      shl(0xe5, 0x461bcd)\n      dup2\n      mstore\n        /* \"#utility.yul\":10176:10178   */\n      0x20\n        /* \"contracts/BlastPandas.sol\":1177:1215  require(!paused(), \"Pausable: paused\") */\n      0x04\n      dup3\n      add\n        /* \"#utility.yul\":10158:10179   */\n      mstore\n        /* \"#utility.yul\":10215:10217   */\n      0x10\n        /* \"#utility.yul\":10195:10213   */\n      0x24\n      dup3\n      add\n        /* \"#utility.yul\":10188:10218   */\n      mstore\n      shl(0x82, 0x14185d5cd8589b194e881c185d5cd959)\n        /* \"#utility.yul\":10234:10252   */\n      0x44\n      dup3\n      add\n        /* \"#utility.yul\":10227:10273   */\n      mstore\n        /* \"#utility.yul\":10290:10308   */\n      0x64\n      add\n        /* \"contracts/BlastPandas.sol\":1177:1215  require(!paused(), \"Pausable: paused\") */\n      tag_232\n        /* \"#utility.yul\":9974:10314   */\n      jump\n        /* \"contracts/BlastPandas.sol\":1177:1215  require(!paused(), \"Pausable: paused\") */\n    tag_293:\n        /* \"contracts/BlastPandas.sol\":762:765  100 */\n      0x64\n        /* \"contracts/BlastPandas.sol\":1523:1537  _totalSupply() */\n      tag_297\n        /* \"contracts/BlastPandas.sol\":1523:1535  _totalSupply */\n      tag_280\n        /* \"contracts/BlastPandas.sol\":1523:1537  _totalSupply() */\n      jump\t// in\n    tag_297:\n        /* \"contracts/BlastPandas.sol\":1523:1553  _totalSupply() <= MAX_ELEMENTS */\n      gt\n      iszero\n        /* \"contracts/BlastPandas.sol\":1515:1566  require(_totalSupply() <= MAX_ELEMENTS, \"Sale end\") */\n      tag_298\n      jumpi\n      mload(0x40)\n      shl(0xe5, 0x461bcd)\n      dup2\n      mstore\n        /* \"#utility.yul\":9840:9842   */\n      0x20\n        /* \"contracts/BlastPandas.sol\":1515:1566  require(_totalSupply() <= MAX_ELEMENTS, \"Sale end\") */\n      0x04\n      dup3\n      add\n        /* \"#utility.yul\":9822:9843   */\n      mstore\n        /* \"#utility.yul\":9879:9880   */\n      0x08\n        /* \"#utility.yul\":9859:9877   */\n      0x24\n      dup3\n      add\n        /* \"#utility.yul\":9852:9881   */\n      mstore\n      shl(0xc2, 0x14d85b1948195b99)\n        /* \"#utility.yul\":9897:9915   */\n      0x44\n      dup3\n      add\n        /* \"#utility.yul\":9890:9928   */\n      mstore\n        /* \"#utility.yul\":9945:9963   */\n      0x64\n      add\n        /* \"contracts/BlastPandas.sol\":1515:1566  require(_totalSupply() <= MAX_ELEMENTS, \"Sale end\") */\n      tag_232\n        /* \"#utility.yul\":9638:9969   */\n      jump\n        /* \"contracts/BlastPandas.sol\":1515:1566  require(_totalSupply() <= MAX_ELEMENTS, \"Sale end\") */\n    tag_298:\n        /* \"contracts/BlastPandas.sol\":1926:1931  price */\n      sload(0x0d)\n        /* \"contracts/BlastPandas.sol\":1584:1593  msg.value */\n      callvalue\n        /* \"contracts/BlastPandas.sol\":1584:1607  msg.value >= getPrice() */\n      lt\n      iszero\n        /* \"contracts/BlastPandas.sol\":1576:1629  require(msg.value >= getPrice(), \"Value below price\") */\n      tag_301\n      jumpi\n      mload(0x40)\n      shl(0xe5, 0x461bcd)\n      dup2\n      mstore\n        /* \"#utility.yul\":10521:10523   */\n      0x20\n        /* \"contracts/BlastPandas.sol\":1576:1629  require(msg.value >= getPrice(), \"Value below price\") */\n      0x04\n      dup3\n      add\n        /* \"#utility.yul\":10503:10524   */\n      mstore\n        /* \"#utility.yul\":10560:10562   */\n      0x11\n        /* \"#utility.yul\":10540:10558   */\n      0x24\n      dup3\n      add\n        /* \"#utility.yul\":10533:10563   */\n      mstore\n      shl(0x78, 0x56616c75652062656c6f77207072696365)\n        /* \"#utility.yul\":10579:10597   */\n      0x44\n      dup3\n      add\n        /* \"#utility.yul\":10572:10619   */\n      mstore\n        /* \"#utility.yul\":10636:10654   */\n      0x64\n      add\n        /* \"contracts/BlastPandas.sol\":1576:1629  require(msg.value >= getPrice(), \"Value below price\") */\n      tag_232\n        /* \"#utility.yul\":10319:10660   */\n      jump\n        /* \"contracts/BlastPandas.sol\":1576:1629  require(msg.value >= getPrice(), \"Value below price\") */\n    tag_301:\n        /* \"contracts/BlastPandas.sol\":1640:1659  _mintAnElement(_to) */\n      tag_208\n        /* \"contracts/BlastPandas.sol\":1655:1658  _to */\n      dup2\n        /* \"contracts/BlastPandas.sol\":1640:1654  _mintAnElement */\n      tag_305\n        /* \"contracts/BlastPandas.sol\":1640:1659  _mintAnElement(_to) */\n      jump\t// in\n        /* \"@openzeppelin/contracts/token/ERC721/ERC721.sol\":1920:2128  function balanceOf(address owner) public view virtual returns (uint256) {... */\n    tag_139:\n        /* \"@openzeppelin/contracts/token/ERC721/ERC721.sol\":1983:1990  uint256 */\n      0x00\n      sub(shl(0xa0, 0x01), 0x01)\n        /* \"@openzeppelin/contracts/token/ERC721/ERC721.sol\":2006:2025  owner == address(0) */\n      dup3\n      and\n        /* \"@openzeppelin/contracts/token/ERC721/ERC721.sol\":2002:2089  if (owner == address(0)) {... */\n      tag_307\n      jumpi\n        /* \"@openzeppelin/contracts/token/ERC721/ERC721.sol\":2048:2078  ERC721InvalidOwner(address(0)) */\n      mload(0x40)\n      shl(0xe2, 0x22718ad9)\n      dup2\n      mstore\n        /* \"@openzeppelin/contracts/token/ERC721/ERC721.sol\":2075:2076  0 */\n      0x00\n        /* \"@openzeppelin/contracts/token/ERC721/ERC721.sol\":2048:2078  ERC721InvalidOwner(address(0)) */\n      0x04\n      dup3\n      add\n        /* \"#utility.yul\":2029:2080   */\n      mstore\n        /* \"#utility.yul\":2002:2020   */\n      0x24\n      add\n        /* \"@openzeppelin/contracts/token/ERC721/ERC721.sol\":2048:2078  ERC721InvalidOwner(address(0)) */\n      tag_232\n        /* \"#utility.yul\":1883:2086   */\n      jump\n        /* \"@openzeppelin/contracts/token/ERC721/ERC721.sol\":2002:2089  if (owner == address(0)) {... */\n    tag_307:\n      pop\n      sub(shl(0xa0, 0x01), 0x01)\n        /* \"@openzeppelin/contracts/token/ERC721/ERC721.sol\":2105:2121  _balances[owner] */\n      and\n      0x00\n      swap1\n      dup2\n      mstore\n        /* \"@openzeppelin/contracts/token/ERC721/ERC721.sol\":2105:2114  _balances */\n      0x03\n        /* \"@openzeppelin/contracts/token/ERC721/ERC721.sol\":2105:2121  _balances[owner] */\n      0x20\n      mstore\n      0x40\n      swap1\n      keccak256\n      sload\n      swap1\n        /* \"@openzeppelin/contracts/token/ERC721/ERC721.sol\":1920:2128  function balanceOf(address owner) public view virtual returns (uint256) {... */\n      jump\t// out\n        /* \"@openzeppelin/contracts/access/Ownable.sol\":2293:2394  function renounceOwnership() public virtual onlyOwner {... */\n    tag_143:\n        /* \"@openzeppelin/contracts/access/Ownable.sol\":1531:1544  _checkOwner() */\n      tag_310\n        /* \"@openzeppelin/contracts/access/Ownable.sol\":1531:1542  _checkOwner */\n      tag_205\n        /* \"@openzeppelin/contracts/access/Ownable.sol\":1531:1544  _checkOwner() */\n      jump\t// in\n    tag_310:\n        /* \"@openzeppelin/contracts/access/Ownable.sol\":2357:2387  _transferOwnership(address(0)) */\n      tag_247\n        /* \"@openzeppelin/contracts/access/Ownable.sol\":2384:2385  0 */\n      0x00\n        /* \"@openzeppelin/contracts/access/Ownable.sol\":2357:2375  _transferOwnership */\n      tag_313\n        /* \"@openzeppelin/contracts/access/Ownable.sol\":2357:2387  _transferOwnership(address(0)) */\n      jump\t// in\n        /* \"contracts/BlastPandas.sol\":3124:3183  function pause() public onlyOwner {... */\n    tag_146:\n        /* \"@openzeppelin/contracts/access/Ownable.sol\":1531:1544  _checkOwner() */\n      tag_315\n        /* \"@openzeppelin/contracts/access/Ownable.sol\":1531:1542  _checkOwner */\n      tag_205\n        /* \"@openzeppelin/contracts/access/Ownable.sol\":1531:1544  _checkOwner() */\n      jump\t// in\n    tag_315:\n        /* \"contracts/BlastPandas.sol\":3168:3176  _pause() */\n      tag_247\n        /* \"contracts/BlastPandas.sol\":3168:3174  _pause */\n      tag_209\n        /* \"contracts/BlastPandas.sol\":3168:3176  _pause() */\n      jump\t// in\n        /* \"contracts/BlastPandas.sol\":2762:2934  function withdrawAll() public payable onlyOwner {... */\n    tag_148:\n        /* \"@openzeppelin/contracts/access/Ownable.sol\":1531:1544  _checkOwner() */\n      tag_319\n        /* \"@openzeppelin/contracts/access/Ownable.sol\":1531:1542  _checkOwner */\n      tag_205\n        /* \"@openzeppelin/contracts/access/Ownable.sol\":1531:1544  _checkOwner() */\n      jump\t// in\n    tag_319:\n        /* \"contracts/BlastPandas.sol\":2838:2859  address(this).balance */\n      selfbalance\n        /* \"contracts/BlastPandas.sol\":2877:2888  balance > 0 */\n      dup1\n        /* \"contracts/BlastPandas.sol\":2869:2889  require(balance > 0) */\n      tag_321\n      jumpi\n      0x00\n      dup1\n      revert\n    tag_321:\n        /* \"contracts/BlastPandas.sol\":2899:2927  _widthdraw(owner(), balance) */\n      tag_208\n        /* \"contracts/BlastPandas.sol\":2910:2917  owner() */\n      tag_323\n        /* \"@openzeppelin/contracts/access/Ownable.sol\":1710:1716  _owner */\n      and(sub(shl(0xa0, 0x01), 0x01), sload(0x0a))\n      swap1\n        /* \"@openzeppelin/contracts/access/Ownable.sol\":1638:1723  function owner() public view virtual returns (address) {... */\n      jump\n        /* \"contracts/BlastPandas.sol\":2910:2917  owner() */\n    tag_323:\n        /* \"contracts/BlastPandas.sol\":2919:2926  balance */\n      dup3\n        /* \"contracts/BlastPandas.sol\":2899:2909  _widthdraw */\n      tag_324\n        /* \"contracts/BlastPandas.sol\":2899:2927  _widthdraw(owner(), balance) */\n      jump\t// in\n        /* \"contracts/BlastPandas.sol\":1944:2030  function setPrice(uint256 newPrice) public onlyOwner {... */\n    tag_156:\n        /* \"@openzeppelin/contracts/access/Ownable.sol\":1531:1544  _checkOwner() */\n      tag_327\n        /* \"@openzeppelin/contracts/access/Ownable.sol\":1531:1542  _checkOwner */\n      tag_205\n        /* \"@openzeppelin/contracts/access/Ownable.sol\":1531:1544  _checkOwner() */\n      jump\t// in\n    tag_327:\n        /* \"contracts/BlastPandas.sol\":2007:2012  price */\n      0x0d\n        /* \"contracts/BlastPandas.sol\":2007:2023  price = newPrice */\n      sstore\n        /* \"contracts/BlastPandas.sol\":1944:2030  function setPrice(uint256 newPrice) public onlyOwner {... */\n      jump\t// out\n        /* \"@openzeppelin/contracts/token/ERC721/ERC721.sol\":2518:2611  function symbol() public view virtual returns (string memory) {... */\n    tag_159:\n        /* \"@openzeppelin/contracts/token/ERC721/ERC721.sol\":2565:2578  string memory */\n      0x60\n        /* \"@openzeppelin/contracts/token/ERC721/ERC721.sol\":2597:2604  _symbol */\n      0x01\n        /* \"@openzeppelin/contracts/token/ERC721/ERC721.sol\":2590:2604  return _symbol */\n      dup1\n      sload\n      tag_213\n      swap1\n      tag_214\n      jump\t// in\n        /* \"contracts/BlastPandas.sol\":3258:3361  function safeMint(address to, uint256 tokenId) public onlyOwner {... */\n    tag_172:\n        /* \"@openzeppelin/contracts/access/Ownable.sol\":1531:1544  _checkOwner() */\n      tag_337\n        /* \"@openzeppelin/contracts/access/Ownable.sol\":1531:1542  _checkOwner */\n      tag_205\n        /* \"@openzeppelin/contracts/access/Ownable.sol\":1531:1544  _checkOwner() */\n      jump\t// in\n    tag_337:\n        /* \"contracts/BlastPandas.sol\":3332:3354  _safeMint(to, tokenId) */\n      tag_225\n        /* \"contracts/BlastPandas.sol\":3342:3344  to */\n      dup3\n        /* \"contracts/BlastPandas.sol\":3346:3353  tokenId */\n      dup3\n        /* \"contracts/BlastPandas.sol\":3332:3341  _safeMint */\n      tag_340\n        /* \"contracts/BlastPandas.sol\":3332:3354  _safeMint(to, tokenId) */\n      jump\t// in\n        /* \"@openzeppelin/contracts/token/ERC721/ERC721.sol\":3718:3862  function setApprovalForAll(address operator, bool approved) public virtual {... */\n    tag_177:\n        /* \"@openzeppelin/contracts/token/ERC721/ERC721.sol\":3803:3855  _setApprovalForAll(_msgSender(), operator, approved) */\n      tag_225\n        /* \"@openzeppelin/contracts/utils/Context.sol\":735:745  msg.sender */\n      caller\n        /* \"@openzeppelin/contracts/token/ERC721/ERC721.sol\":3836:3844  operator */\n      dup4\n        /* \"@openzeppelin/contracts/token/ERC721/ERC721.sol\":3846:3854  approved */\n      dup4\n        /* \"@openzeppelin/contracts/token/ERC721/ERC721.sol\":3803:3821  _setApprovalForAll */\n      tag_344\n        /* \"@openzeppelin/contracts/token/ERC721/ERC721.sol\":3803:3855  _setApprovalForAll(_msgSender(), operator, approved) */\n      jump\t// in\n        /* \"@openzeppelin/contracts/token/ERC721/ERC721.sol\":4985:5193  function safeTransferFrom(address from, address to, uint256 tokenId, bytes memory data) public virtual {... */\n    tag_182:\n        /* \"@openzeppelin/contracts/token/ERC721/ERC721.sol\":5098:5129  transferFrom(from, to, tokenId) */\n      tag_346\n        /* \"@openzeppelin/contracts/token/ERC721/ERC721.sol\":5111:5115  from */\n      dup5\n        /* \"@openzeppelin/contracts/token/ERC721/ERC721.sol\":5117:5119  to */\n      dup5\n        /* \"@openzeppelin/contracts/token/ERC721/ERC721.sol\":5121:5128  tokenId */\n      dup5\n        /* \"@openzeppelin/contracts/token/ERC721/ERC721.sol\":5098:5110  transferFrom */\n      tag_82\n        /* \"@openzeppelin/contracts/token/ERC721/ERC721.sol\":5098:5129  transferFrom(from, to, tokenId) */\n      jump\t// in\n    tag_346:\n        /* \"@openzeppelin/contracts/token/ERC721/ERC721.sol\":5139:5186  _checkOnERC721Received(from, to, tokenId, data) */\n      tag_236\n        /* \"@openzeppelin/contracts/token/ERC721/ERC721.sol\":5162:5166  from */\n      dup5\n        /* \"@openzeppelin/contracts/token/ERC721/ERC721.sol\":5168:5170  to */\n      dup5\n        /* \"@openzeppelin/contracts/token/ERC721/ERC721.sol\":5172:5179  tokenId */\n      dup5\n        /* \"@openzeppelin/contracts/token/ERC721/ERC721.sol\":5181:5185  data */\n      dup5\n        /* \"@openzeppelin/contracts/token/ERC721/ERC721.sol\":5139:5161  _checkOnERC721Received */\n      tag_348\n        /* \"@openzeppelin/contracts/token/ERC721/ERC721.sol\":5139:5186  _checkOnERC721Received(from, to, tokenId, data) */\n      jump\t// in\n        /* \"@openzeppelin/contracts/token/ERC721/ERC721.sol\":2677:2932  function tokenURI(uint256 tokenId) public view virtual returns (string memory) {... */\n    tag_186:\n        /* \"@openzeppelin/contracts/token/ERC721/ERC721.sol\":2741:2754  string memory */\n      0x60\n        /* \"@openzeppelin/contracts/token/ERC721/ERC721.sol\":2766:2788  _requireOwned(tokenId) */\n      tag_350\n        /* \"@openzeppelin/contracts/token/ERC721/ERC721.sol\":2780:2787  tokenId */\n      dup3\n        /* \"@openzeppelin/contracts/token/ERC721/ERC721.sol\":2766:2779  _requireOwned */\n      tag_221\n        /* \"@openzeppelin/contracts/token/ERC721/ERC721.sol\":2766:2788  _requireOwned(tokenId) */\n      jump\t// in\n    tag_350:\n      pop\n        /* \"@openzeppelin/contracts/token/ERC721/ERC721.sol\":2799:2820  string memory baseURI */\n      0x00\n        /* \"@openzeppelin/contracts/token/ERC721/ERC721.sol\":2823:2833  _baseURI() */\n      tag_351\n        /* \"@openzeppelin/contracts/token/ERC721/ERC721.sol\":2823:2831  _baseURI */\n      tag_352\n        /* \"@openzeppelin/contracts/token/ERC721/ERC721.sol\":2823:2833  _baseURI() */\n      jump\t// in\n    tag_351:\n        /* \"@openzeppelin/contracts/token/ERC721/ERC721.sol\":2799:2833  string memory baseURI = _baseURI() */\n      swap1\n      pop\n        /* \"@openzeppelin/contracts/token/ERC721/ERC721.sol\":2874:2875  0 */\n      0x00\n        /* \"@openzeppelin/contracts/token/ERC721/ERC721.sol\":2856:2863  baseURI */\n      dup2\n        /* \"@openzeppelin/contracts/token/ERC721/ERC721.sol\":2850:2871  bytes(baseURI).length */\n      mload\n        /* \"@openzeppelin/contracts/token/ERC721/ERC721.sol\":2850:2875  bytes(baseURI).length > 0 */\n      gt\n        /* \"@openzeppelin/contracts/token/ERC721/ERC721.sol\":2850:2925  bytes(baseURI).length > 0 ? string.concat(baseURI, tokenId.toString()) : \"\" */\n      tag_353\n      jumpi\n      mload(0x40)\n      dup1\n      0x20\n      add\n      0x40\n      mstore\n      dup1\n      0x00\n      dup2\n      mstore\n      pop\n      jump(tag_354)\n    tag_353:\n        /* \"@openzeppelin/contracts/token/ERC721/ERC721.sol\":2892:2899  baseURI */\n      dup1\n        /* \"@openzeppelin/contracts/token/ERC721/ERC721.sol\":2901:2919  tokenId.toString() */\n      tag_355\n        /* \"@openzeppelin/contracts/token/ERC721/ERC721.sol\":2901:2908  tokenId */\n      dup5\n        /* \"@openzeppelin/contracts/token/ERC721/ERC721.sol\":2901:2917  tokenId.toString */\n      tag_356\n        /* \"@openzeppelin/contracts/token/ERC721/ERC721.sol\":2901:2919  tokenId.toString() */\n      jump\t// in\n    tag_355:\n        /* \"@openzeppelin/contracts/token/ERC721/ERC721.sol\":2878:2920  string.concat(baseURI, tokenId.toString()) */\n      add(0x20, mload(0x40))\n      tag_357\n      swap3\n      swap2\n      swap1\n      tag_358\n      jump\t// in\n    tag_357:\n      mload(0x40)\n      0x20\n      dup2\n      dup4\n      sub\n      sub\n      dup2\n      mstore\n      swap1\n      0x40\n      mstore\n        /* \"@openzeppelin/contracts/token/ERC721/ERC721.sol\":2850:2925  bytes(baseURI).length > 0 ? string.concat(baseURI, tokenId.toString()) : \"\" */\n    tag_354:\n        /* \"@openzeppelin/contracts/token/ERC721/ERC721.sol\":2843:2925  return bytes(baseURI).length > 0 ? string.concat(baseURI, tokenId.toString()) : \"\" */\n      swap4\n        /* \"@openzeppelin/contracts/token/ERC721/ERC721.sol\":2677:2932  function tokenURI(uint256 tokenId) public view virtual returns (string memory) {... */\n      swap3\n      pop\n      pop\n      pop\n      jump\t// out\n        /* \"contracts/BlastPandas.sol\":771:797  string public baseTokenURI */\n    tag_190:\n      0x0c\n      dup1\n      sload\n      tag_359\n      swap1\n      tag_214\n      jump\t// in\n    tag_359:\n      dup1\n      0x1f\n      add\n      0x20\n      dup1\n      swap2\n      div\n      mul\n      0x20\n      add\n      mload(0x40)\n      swap1\n      dup2\n      add\n      0x40\n      mstore\n      dup1\n      swap3\n      swap2\n      swap1\n      dup2\n      dup2\n      mstore\n      0x20\n      add\n      dup3\n      dup1\n      sload\n      tag_360\n      swap1\n      tag_214\n      jump\t// in\n    tag_360:\n      dup1\n      iszero\n      tag_361\n      jumpi\n      dup1\n      0x1f\n      lt\n      tag_362\n      jumpi\n      0x0100\n      dup1\n      dup4\n      sload\n      div\n      mul\n      dup4\n      mstore\n      swap2\n      0x20\n      add\n      swap2\n      jump(tag_361)\n    tag_362:\n      dup3\n      add\n      swap2\n      swap1\n      0x00\n      mstore\n      keccak256(0x00, 0x20)\n      swap1\n    tag_363:\n      dup2\n      sload\n      dup2\n      mstore\n      swap1\n      0x01\n      add\n      swap1\n      0x20\n      add\n      dup1\n      dup4\n      gt\n      tag_363\n      jumpi\n      dup3\n      swap1\n      sub\n      0x1f\n      and\n      dup3\n      add\n      swap2\n    tag_361:\n      pop\n      pop\n      pop\n      pop\n      pop\n      dup2\n      jump\t// out\n        /* \"@openzeppelin/contracts/token/ERC721/ERC721.sol\":3928:4081  function isApprovedForAll(address owner, address operator) public view virtual returns (bool) {... */\n    tag_196:\n      sub(shl(0xa0, 0x01), 0x01)\n        /* \"@openzeppelin/contracts/token/ERC721/ERC721.sol\":4039:4064  _operatorApprovals[owner] */\n      swap2\n      dup3\n      and\n        /* \"@openzeppelin/contracts/token/ERC721/ERC721.sol\":4016:4020  bool */\n      0x00\n        /* \"@openzeppelin/contracts/token/ERC721/ERC721.sol\":4039:4064  _operatorApprovals[owner] */\n      swap1\n      dup2\n      mstore\n        /* \"@openzeppelin/contracts/token/ERC721/ERC721.sol\":4039:4057  _operatorApprovals */\n      0x05\n        /* \"@openzeppelin/contracts/token/ERC721/ERC721.sol\":4039:4064  _operatorApprovals[owner] */\n      0x20\n      swap1\n      dup2\n      mstore\n      0x40\n      dup1\n      dup4\n      keccak256\n        /* \"@openzeppelin/contracts/token/ERC721/ERC721.sol\":4039:4074  _operatorApprovals[owner][operator] */\n      swap4\n      swap1\n      swap5\n      and\n      dup3\n      mstore\n      swap2\n      swap1\n      swap2\n      mstore\n      keccak256\n      sload\n      0xff\n      and\n      swap1\n        /* \"@openzeppelin/contracts/token/ERC721/ERC721.sol\":3928:4081  function isApprovedForAll(address owner, address operator) public view virtual returns (bool) {... */\n      jump\t// out\n        /* \"@openzeppelin/contracts/access/Ownable.sol\":2543:2758  function transferOwnership(address newOwner) public virtual onlyOwner {... */\n    tag_201:\n        /* \"@openzeppelin/contracts/access/Ownable.sol\":1531:1544  _checkOwner() */\n      tag_366\n        /* \"@openzeppelin/contracts/access/Ownable.sol\":1531:1542  _checkOwner */\n      tag_205\n        /* \"@openzeppelin/contracts/access/Ownable.sol\":1531:1544  _checkOwner() */\n      jump\t// in\n    tag_366:\n      sub(shl(0xa0, 0x01), 0x01)\n        /* \"@openzeppelin/contracts/access/Ownable.sol\":2627:2649  newOwner == address(0) */\n      dup2\n      and\n        /* \"@openzeppelin/contracts/access/Ownable.sol\":2623:2714  if (newOwner == address(0)) {... */\n      tag_368\n      jumpi\n        /* \"@openzeppelin/contracts/access/Ownable.sol\":2672:2703  OwnableInvalidOwner(address(0)) */\n      mload(0x40)\n      shl(0xe0, 0x1e4fbdf7)\n      dup2\n      mstore\n        /* \"@openzeppelin/contracts/access/Ownable.sol\":2700:2701  0 */\n      0x00\n        /* \"@openzeppelin/contracts/access/Ownable.sol\":2672:2703  OwnableInvalidOwner(address(0)) */\n      0x04\n      dup3\n      add\n        /* \"#utility.yul\":2029:2080   */\n      mstore\n        /* \"#utility.yul\":2002:2020   */\n      0x24\n      add\n        /* \"@openzeppelin/contracts/access/Ownable.sol\":2672:2703  OwnableInvalidOwner(address(0)) */\n      tag_232\n        /* \"#utility.yul\":1883:2086   */\n      jump\n        /* \"@openzeppelin/contracts/access/Ownable.sol\":2623:2714  if (newOwner == address(0)) {... */\n    tag_368:\n        /* \"@openzeppelin/contracts/access/Ownable.sol\":2723:2751  _transferOwnership(newOwner) */\n      tag_208\n        /* \"@openzeppelin/contracts/access/Ownable.sol\":2742:2750  newOwner */\n      dup2\n        /* \"@openzeppelin/contracts/access/Ownable.sol\":2723:2741  _transferOwnership */\n      tag_313\n        /* \"@openzeppelin/contracts/access/Ownable.sol\":2723:2751  _transferOwnership(newOwner) */\n      jump\t// in\n        /* \"@openzeppelin/contracts/access/Ownable.sol\":1796:1958  function _checkOwner() internal view virtual {... */\n    tag_205:\n        /* \"@openzeppelin/contracts/access/Ownable.sol\":1710:1716  _owner */\n      and(sub(shl(0xa0, 0x01), 0x01), sload(0x0a))\n        /* \"@openzeppelin/contracts/utils/Context.sol\":735:745  msg.sender */\n      caller\n        /* \"@openzeppelin/contracts/access/Ownable.sol\":1855:1878  owner() != _msgSender() */\n      eq\n        /* \"@openzeppelin/contracts/access/Ownable.sol\":1851:1952  if (owner() != _msgSender()) {... */\n      tag_247\n      jumpi\n        /* \"@openzeppelin/contracts/access/Ownable.sol\":1901:1941  OwnableUnauthorizedAccount(_msgSender()) */\n      mload(0x40)\n      shl(0xe0, 0x118cdaa7)\n      dup2\n      mstore\n        /* \"@openzeppelin/contracts/utils/Context.sol\":735:745  msg.sender */\n      caller\n        /* \"@openzeppelin/contracts/access/Ownable.sol\":1901:1941  OwnableUnauthorizedAccount(_msgSender()) */\n      0x04\n      dup3\n      add\n        /* \"#utility.yul\":2029:2080   */\n      mstore\n        /* \"#utility.yul\":2002:2020   */\n      0x24\n      add\n        /* \"@openzeppelin/contracts/access/Ownable.sol\":1901:1941  OwnableUnauthorizedAccount(_msgSender()) */\n      tag_232\n        /* \"#utility.yul\":1883:2086   */\n      jump\n        /* \"@openzeppelin/contracts/utils/Pausable.sol\":2463:2578  function _pause() internal virtual whenNotPaused {... */\n    tag_209:\n        /* \"@openzeppelin/contracts/utils/Pausable.sol\":1474:1493  _requireNotPaused() */\n      tag_378\n        /* \"@openzeppelin/contracts/utils/Pausable.sol\":1474:1491  _requireNotPaused */\n      tag_379\n        /* \"@openzeppelin/contracts/utils/Pausable.sol\":1474:1493  _requireNotPaused() */\n      jump\t// in\n    tag_378:\n        /* \"@openzeppelin/contracts/utils/Pausable.sol\":2522:2529  _paused */\n      0x0a\n        /* \"@openzeppelin/contracts/utils/Pausable.sol\":2522:2536  _paused = true */\n      dup1\n      sload\n      not(shl(0xa0, 0xff))\n      and\n      shl(0xa0, 0x01)\n      or\n      swap1\n      sstore\n        /* \"@openzeppelin/contracts/utils/Pausable.sol\":2551:2571  Paused(_msgSender()) */\n      0x62e78cea01bee320cd4e420270b5ea74000d11b0c9f74754ebdbfc544b05a258\n        /* \"@openzeppelin/contracts/utils/Pausable.sol\":2558:2570  _msgSender() */\n      tag_381\n        /* \"@openzeppelin/contracts/utils/Context.sol\":735:745  msg.sender */\n      caller\n      swap1\n        /* \"@openzeppelin/contracts/utils/Context.sol\":656:752  function _msgSender() internal view virtual returns (address) {... */\n      jump\n        /* \"@openzeppelin/contracts/utils/Pausable.sol\":2558:2570  _msgSender() */\n    tag_381:\n        /* \"@openzeppelin/contracts/utils/Pausable.sol\":2551:2571  Paused(_msgSender()) */\n      mload(0x40)\n      sub(shl(0xa0, 0x01), 0x01)\n        /* \"#utility.yul\":2047:2079   */\n      swap1\n      swap2\n      and\n        /* \"#utility.yul\":2029:2080   */\n      dup2\n      mstore\n        /* \"#utility.yul\":2017:2019   */\n      0x20\n        /* \"#utility.yul\":2002:2020   */\n      add\n        /* \"@openzeppelin/contracts/utils/Pausable.sol\":2551:2571  Paused(_msgSender()) */\n      mload(0x40)\n      dup1\n      swap2\n      sub\n      swap1\n      log1\n        /* \"@openzeppelin/contracts/utils/Pausable.sol\":2463:2578  function _pause() internal virtual whenNotPaused {... */\n      jump\t// out\n        /* \"@openzeppelin/contracts/utils/Pausable.sol\":2710:2827  function _unpause() internal virtual whenPaused {... */\n    tag_211:\n        /* \"@openzeppelin/contracts/utils/Pausable.sol\":1721:1737  _requirePaused() */\n      tag_384\n        /* \"@openzeppelin/contracts/utils/Pausable.sol\":1721:1735  _requirePaused */\n      tag_385\n        /* \"@openzeppelin/contracts/utils/Pausable.sol\":1721:1737  _requirePaused() */\n      jump\t// in\n    tag_384:\n        /* \"@openzeppelin/contracts/utils/Pausable.sol\":2768:2775  _paused */\n      0x0a\n        /* \"@openzeppelin/contracts/utils/Pausable.sol\":2768:2783  _paused = false */\n      dup1\n      sload\n      not(shl(0xa0, 0xff))\n      and\n      swap1\n      sstore\n        /* \"@openzeppelin/contracts/utils/Pausable.sol\":2798:2820  Unpaused(_msgSender()) */\n      0x5db9ee0a495bf2e6ff9c91a7834c1ba4fdd244a5e8aa4e537bd38aeae4b073aa\n        /* \"@openzeppelin/contracts/utils/Context.sol\":735:745  msg.sender */\n      caller\n        /* \"@openzeppelin/contracts/utils/Pausable.sol\":2807:2819  _msgSender() */\n      tag_381\n        /* \"@openzeppelin/contracts/utils/Context.sol\":656:752  function _msgSender() internal view virtual returns (address) {... */\n      jump\n        /* \"@openzeppelin/contracts/token/ERC721/ERC721.sol\":16138:16379  function _requireOwned(uint256 tokenId) internal view returns (address) {... */\n    tag_221:\n        /* \"@openzeppelin/contracts/token/ERC721/ERC721.sol\":16201:16208  address */\n      0x00\n        /* \"@openzeppelin/contracts/token/ERC721/ERC721.sol\":5799:5815  _owners[tokenId] */\n      dup2\n      dup2\n      mstore\n        /* \"@openzeppelin/contracts/token/ERC721/ERC721.sol\":5799:5806  _owners */\n      0x02\n        /* \"@openzeppelin/contracts/token/ERC721/ERC721.sol\":5799:5815  _owners[tokenId] */\n      0x20\n      mstore\n      0x40\n      dup2\n      keccak256\n      sload\n      sub(shl(0xa0, 0x01), 0x01)\n      and\n      dup1\n        /* \"@openzeppelin/contracts/token/ERC721/ERC721.sol\":16263:16351  if (owner == address(0)) {... */\n      tag_222\n      jumpi\n        /* \"@openzeppelin/contracts/token/ERC721/ERC721.sol\":16309:16340  ERC721NonexistentToken(tokenId) */\n      mload(0x40)\n      shl(0xe0, 0x7e273289)\n      dup2\n      mstore\n      0x04\n      dup2\n      add\n        /* \"#utility.yul\":2674:2699   */\n      dup5\n      swap1\n      mstore\n        /* \"#utility.yul\":2647:2665   */\n      0x24\n      add\n        /* \"@openzeppelin/contracts/token/ERC721/ERC721.sol\":16309:16340  ERC721NonexistentToken(tokenId) */\n      tag_232\n        /* \"#utility.yul\":2528:2705   */\n      jump\n        /* \"@openzeppelin/contracts/token/ERC721/ERC721.sol\":14418:14538  function _approve(address to, uint256 tokenId, address auth) internal {... */\n    tag_228:\n        /* \"@openzeppelin/contracts/token/ERC721/ERC721.sol\":14498:14531  _approve(to, tokenId, auth, true) */\n      tag_249\n        /* \"@openzeppelin/contracts/token/ERC721/ERC721.sol\":14507:14509  to */\n      dup4\n        /* \"@openzeppelin/contracts/token/ERC721/ERC721.sol\":14511:14518  tokenId */\n      dup4\n        /* \"@openzeppelin/contracts/token/ERC721/ERC721.sol\":14520:14524  auth */\n      dup4\n        /* \"@openzeppelin/contracts/token/ERC721/ERC721.sol\":14526:14530  true */\n      0x01\n        /* \"@openzeppelin/contracts/token/ERC721/ERC721.sol\":14498:14506  _approve */\n      tag_398\n        /* \"@openzeppelin/contracts/token/ERC721/ERC721.sol\":14498:14531  _approve(to, tokenId, auth, true) */\n      jump\t// in\n        /* \"contracts/BlastPandas.sol\":3435:3657  function _update(address to, uint256 tokenId, address auth)... */\n    tag_235:\n        /* \"contracts/BlastPandas.sol\":3588:3595  address */\n      0x00\n        /* \"contracts/BlastPandas.sol\":3618:3650  super._update(to, tokenId, auth) */\n      tag_400\n        /* \"contracts/BlastPandas.sol\":3632:3634  to */\n      dup5\n        /* \"contracts/BlastPandas.sol\":3636:3643  tokenId */\n      dup5\n        /* \"contracts/BlastPandas.sol\":3645:3649  auth */\n      dup5\n        /* \"contracts/BlastPandas.sol\":3618:3631  super._update */\n      tag_401\n        /* \"contracts/BlastPandas.sol\":3618:3650  super._update(to, tokenId, auth) */\n      jump\t// in\n    tag_400:\n        /* \"contracts/BlastPandas.sol\":3611:3650  return super._update(to, tokenId, auth) */\n      swap5\n        /* \"contracts/BlastPandas.sol\":3435:3657  function _update(address to, uint256 tokenId, address auth)... */\n      swap4\n      pop\n      pop\n      pop\n      pop\n      jump\t// out\n        /* \"contracts/BlastPandas.sol\":1249:1351  function _totalSupply() internal view returns (uint) {... */\n    tag_280:\n        /* \"contracts/BlastPandas.sol\":1296:1300  uint */\n      0x00\n        /* \"contracts/BlastPandas.sol\":1319:1344  _tokenIdTracker.current() */\n      tag_279\n        /* \"contracts/BlastPandas.sol\":1319:1334  _tokenIdTracker */\n      0x0b\n        /* \"@openzeppelin/contracts/utils/Counters.sol\":918:932  counter._value */\n      sload\n      swap1\n        /* \"@openzeppelin/contracts/utils/Counters.sol\":827:939  function current(Counter storage counter) internal view returns (uint256) {... */\n      jump\n        /* \"contracts/BlastPandas.sol\":1672:1853  function _mintAnElement(address _to) private {... */\n    tag_305:\n        /* \"contracts/BlastPandas.sol\":1727:1734  uint id */\n      0x00\n        /* \"contracts/BlastPandas.sol\":1737:1751  _totalSupply() */\n      tag_406\n        /* \"contracts/BlastPandas.sol\":1737:1749  _totalSupply */\n      tag_280\n        /* \"contracts/BlastPandas.sol\":1737:1751  _totalSupply() */\n      jump\t// in\n    tag_406:\n        /* \"contracts/BlastPandas.sol\":1727:1751  uint id = _totalSupply() */\n      swap1\n      pop\n        /* \"contracts/BlastPandas.sol\":1761:1788  _tokenIdTracker.increment() */\n      tag_407\n        /* \"contracts/BlastPandas.sol\":1761:1776  _tokenIdTracker */\n      0x0b\n        /* \"@openzeppelin/contracts/utils/Counters.sol\":1032:1051  counter._value += 1 */\n      dup1\n      sload\n        /* \"@openzeppelin/contracts/utils/Counters.sol\":1050:1051  1 */\n      0x01\n        /* \"@openzeppelin/contracts/utils/Counters.sol\":1032:1051  counter._value += 1 */\n      add\n      swap1\n      sstore\n        /* \"@openzeppelin/contracts/utils/Counters.sol\":945:1068  function increment(Counter storage counter) internal {... */\n      jump\n        /* \"contracts/BlastPandas.sol\":1761:1788  _tokenIdTracker.increment() */\n    tag_407:\n        /* \"contracts/BlastPandas.sol\":1798:1816  _safeMint(_to, id) */\n      tag_409\n        /* \"contracts/BlastPandas.sol\":1808:1811  _to */\n      dup3\n        /* \"contracts/BlastPandas.sol\":1813:1815  id */\n      dup3\n        /* \"contracts/BlastPandas.sol\":1798:1807  _safeMint */\n      tag_340\n        /* \"contracts/BlastPandas.sol\":1798:1816  _safeMint(_to, id) */\n      jump\t// in\n    tag_409:\n        /* \"contracts/BlastPandas.sol\":1831:1846  CreatePanda(id) */\n      mload(0x40)\n        /* \"contracts/BlastPandas.sol\":1843:1845  id */\n      dup2\n      swap1\n        /* \"contracts/BlastPandas.sol\":1831:1846  CreatePanda(id) */\n      0x4a31f5e942beb8b597b502856d8cfb28aa9a92c5619db46a50366af439563693\n      swap1\n      0x00\n      swap1\n      log2\n        /* \"contracts/BlastPandas.sol\":1717:1853  {... */\n      pop\n        /* \"contracts/BlastPandas.sol\":1672:1853  function _mintAnElement(address _to) private {... */\n      pop\n      jump\t// out\n        /* \"@openzeppelin/contracts/access/Ownable.sol\":2912:3099  function _transferOwnership(address newOwner) internal virtual {... */\n    tag_313:\n        /* \"@openzeppelin/contracts/access/Ownable.sol\":3004:3010  _owner */\n      0x0a\n      dup1\n      sload\n      sub(shl(0xa0, 0x01), 0x01)\n        /* \"@openzeppelin/contracts/access/Ownable.sol\":3020:3037  _owner = newOwner */\n      dup4\n      dup2\n      and\n      not(sub(shl(0xa0, 0x01), 0x01))\n      dup4\n      and\n      dup2\n      or\n      swap1\n      swap4\n      sstore\n        /* \"@openzeppelin/contracts/access/Ownable.sol\":3052:3092  OwnershipTransferred(oldOwner, newOwner) */\n      mload(0x40)\n        /* \"@openzeppelin/contracts/access/Ownable.sol\":3004:3010  _owner */\n      swap2\n      and\n      swap2\n        /* \"@openzeppelin/contracts/access/Ownable.sol\":3020:3037  _owner = newOwner */\n      swap1\n        /* \"@openzeppelin/contracts/access/Ownable.sol\":3004:3010  _owner */\n      dup3\n      swap1\n        /* \"@openzeppelin/contracts/access/Ownable.sol\":3052:3092  OwnershipTransferred(oldOwner, newOwner) */\n      0x8be0079c531659141344cd1fd0a4f28419497f9722a3daafe3b4186f6b6457e0\n      swap1\n        /* \"@openzeppelin/contracts/access/Ownable.sol\":2985:3001  address oldOwner */\n      0x00\n      swap1\n        /* \"@openzeppelin/contracts/access/Ownable.sol\":3052:3092  OwnershipTransferred(oldOwner, newOwner) */\n      log3\n        /* \"@openzeppelin/contracts/access/Ownable.sol\":2975:3099  {... */\n      pop\n        /* \"@openzeppelin/contracts/access/Ownable.sol\":2912:3099  function _transferOwnership(address newOwner) internal virtual {... */\n      pop\n      jump\t// out\n        /* \"contracts/BlastPandas.sol\":2940:3118  function _widthdraw(address _address, uint256 _amount) private {... */\n    tag_324:\n        /* \"contracts/BlastPandas.sol\":3014:3026  bool success */\n      0x00\n        /* \"contracts/BlastPandas.sol\":3032:3040  _address */\n      dup3\n      sub(shl(0xa0, 0x01), 0x01)\n        /* \"contracts/BlastPandas.sol\":3032:3045  _address.call */\n      and\n        /* \"contracts/BlastPandas.sol\":3053:3060  _amount */\n      dup3\n        /* \"contracts/BlastPandas.sol\":3032:3065  _address.call{value: _amount}(\"\") */\n      mload(0x40)\n      0x00\n      mload(0x40)\n      dup1\n      dup4\n      sub\n      dup2\n      dup6\n      dup8\n      gas\n      call\n      swap3\n      pop\n      pop\n      pop\n      returndatasize\n      dup1\n      0x00\n      dup2\n      eq\n      tag_416\n      jumpi\n      mload(0x40)\n      swap2\n      pop\n      and(add(returndatasize, 0x3f), not(0x1f))\n      dup3\n      add\n      0x40\n      mstore\n      returndatasize\n      dup3\n      mstore\n      returndatasize\n      0x00\n      0x20\n      dup5\n      add\n      returndatacopy\n      jump(tag_415)\n    tag_416:\n      0x60\n      swap2\n      pop\n    tag_415:\n      pop\n        /* \"contracts/BlastPandas.sol\":3013:3065  (bool success, ) = _address.call{value: _amount}(\"\") */\n      pop\n      swap1\n      pop\n        /* \"contracts/BlastPandas.sol\":3083:3090  success */\n      dup1\n        /* \"contracts/BlastPandas.sol\":3075:3111  require(success, \"Transfer failed.\") */\n      tag_249\n      jumpi\n      mload(0x40)\n      shl(0xe5, 0x461bcd)\n      dup2\n      mstore\n        /* \"#utility.yul\":11578:11580   */\n      0x20\n        /* \"contracts/BlastPandas.sol\":3075:3111  require(success, \"Transfer failed.\") */\n      0x04\n      dup3\n      add\n        /* \"#utility.yul\":11560:11581   */\n      mstore\n        /* \"#utility.yul\":11617:11619   */\n      0x10\n        /* \"#utility.yul\":11597:11615   */\n      0x24\n      dup3\n      add\n        /* \"#utility.yul\":11590:11620   */\n      mstore\n      shl(0x81, 0x2a3930b739b332b9103330b4b632b217)\n        /* \"#utility.yul\":11636:11654   */\n      0x44\n      dup3\n      add\n        /* \"#utility.yul\":11629:11675   */\n      mstore\n        /* \"#utility.yul\":11692:11710   */\n      0x64\n      add\n        /* \"contracts/BlastPandas.sol\":3075:3111  require(success, \"Transfer failed.\") */\n      tag_232\n        /* \"#utility.yul\":11376:11716   */\n      jump\n        /* \"@openzeppelin/contracts/token/ERC721/ERC721.sol\":10633:10733  function _safeMint(address to, uint256 tokenId) internal {... */\n    tag_340:\n        /* \"@openzeppelin/contracts/token/ERC721/ERC721.sol\":10700:10726  _safeMint(to, tokenId, \"\") */\n      tag_225\n        /* \"@openzeppelin/contracts/token/ERC721/ERC721.sol\":10710:10712  to */\n      dup3\n        /* \"@openzeppelin/contracts/token/ERC721/ERC721.sol\":10714:10721  tokenId */\n      dup3\n        /* \"@openzeppelin/contracts/token/ERC721/ERC721.sol\":10700:10726  _safeMint(to, tokenId, \"\") */\n      mload(0x40)\n      dup1\n      0x20\n      add\n      0x40\n      mstore\n      dup1\n      0x00\n      dup2\n      mstore\n      pop\n        /* \"@openzeppelin/contracts/token/ERC721/ERC721.sol\":10700:10709  _safeMint */\n      tag_422\n        /* \"@openzeppelin/contracts/token/ERC721/ERC721.sol\":10700:10726  _safeMint(to, tokenId, \"\") */\n      jump\t// in\n        /* \"@openzeppelin/contracts/token/ERC721/ERC721.sol\":15591:15903  function _setApprovalForAll(address owner, address operator, bool approved) internal virtual {... */\n    tag_344:\n      sub(shl(0xa0, 0x01), 0x01)\n        /* \"@openzeppelin/contracts/token/ERC721/ERC721.sol\":15698:15720  operator == address(0) */\n      dup3\n      and\n        /* \"@openzeppelin/contracts/token/ERC721/ERC721.sol\":15694:15785  if (operator == address(0)) {... */\n      tag_424\n      jumpi\n        /* \"@openzeppelin/contracts/token/ERC721/ERC721.sol\":15743:15774  ERC721InvalidOperator(operator) */\n      mload(0x40)\n      shl(0xe3, 0x0b611743)\n      dup2\n      mstore\n      sub(shl(0xa0, 0x01), 0x01)\n        /* \"#utility.yul\":2047:2079   */\n      dup4\n      and\n        /* \"@openzeppelin/contracts/token/ERC721/ERC721.sol\":15743:15774  ERC721InvalidOperator(operator) */\n      0x04\n      dup3\n      add\n        /* \"#utility.yul\":2029:2080   */\n      mstore\n        /* \"#utility.yul\":2002:2020   */\n      0x24\n      add\n        /* \"@openzeppelin/contracts/token/ERC721/ERC721.sol\":15743:15774  ERC721InvalidOperator(operator) */\n      tag_232\n        /* \"#utility.yul\":1883:2086   */\n      jump\n        /* \"@openzeppelin/contracts/token/ERC721/ERC721.sol\":15694:15785  if (operator == address(0)) {... */\n    tag_424:\n      sub(shl(0xa0, 0x01), 0x01)\n        /* \"@openzeppelin/contracts/token/ERC721/ERC721.sol\":15794:15819  _operatorApprovals[owner] */\n      dup4\n      dup2\n      and\n      0x00\n      dup2\n      dup2\n      mstore\n        /* \"@openzeppelin/contracts/token/ERC721/ERC721.sol\":15794:15812  _operatorApprovals */\n      0x05\n        /* \"@openzeppelin/contracts/token/ERC721/ERC721.sol\":15794:15819  _operatorApprovals[owner] */\n      0x20\n      swap1\n      dup2\n      mstore\n      0x40\n      dup1\n      dup4\n      keccak256\n        /* \"@openzeppelin/contracts/token/ERC721/ERC721.sol\":15794:15829  _operatorApprovals[owner][operator] */\n      swap5\n      dup8\n      and\n      dup1\n      dup5\n      mstore\n      swap5\n      dup3\n      mstore\n      swap2\n      dup3\n      swap1\n      keccak256\n        /* \"@openzeppelin/contracts/token/ERC721/ERC721.sol\":15794:15840  _operatorApprovals[owner][operator] = approved */\n      dup1\n      sload\n      not(0xff)\n      and\n      dup7\n      iszero\n      iszero\n      swap1\n      dup2\n      or\n      swap1\n      swap2\n      sstore\n        /* \"@openzeppelin/contracts/token/ERC721/ERC721.sol\":15855:15896  ApprovalForAll(owner, operator, approved) */\n      swap2\n      mload\n        /* \"#utility.yul\":540:581   */\n      swap2\n      dup3\n      mstore\n        /* \"@openzeppelin/contracts/token/ERC721/ERC721.sol\":15855:15896  ApprovalForAll(owner, operator, approved) */\n      0x17307eab39ab6107e8899845ad3d59bd9653f200f220920489ca2b5937696c31\n      swap2\n        /* \"#utility.yul\":513:531   */\n      add\n        /* \"@openzeppelin/contracts/token/ERC721/ERC721.sol\":15855:15896  ApprovalForAll(owner, operator, approved) */\n      mload(0x40)\n      dup1\n      swap2\n      sub\n      swap1\n      log3\n        /* \"@openzeppelin/contracts/token/ERC721/ERC721.sol\":15591:15903  function _setApprovalForAll(address owner, address operator, bool approved) internal virtual {... */\n      pop\n      pop\n      pop\n      jump\t// out\n        /* \"@openzeppelin/contracts/token/ERC721/ERC721.sol\":16918:17700  function _checkOnERC721Received(address from, address to, uint256 tokenId, bytes memory data) private {... */\n    tag_348:\n      sub(shl(0xa0, 0x01), 0x01)\n        /* \"@openzeppelin/contracts/token/ERC721/ERC721.sol\":17034:17048  to.code.length */\n      dup4\n      and\n      extcodesize\n        /* \"@openzeppelin/contracts/token/ERC721/ERC721.sol\":17034:17052  to.code.length > 0 */\n      iszero\n        /* \"@openzeppelin/contracts/token/ERC721/ERC721.sol\":17030:17694  if (to.code.length > 0) {... */\n      tag_236\n      jumpi\n        /* \"@openzeppelin/contracts/token/ERC721/ERC721.sol\":17072:17143  IERC721Receiver(to).onERC721Received(_msgSender(), from, tokenId, data) */\n      mload(0x40)\n      shl(0xe1, 0x0a85bd01)\n      dup2\n      mstore\n      sub(shl(0xa0, 0x01), 0x01)\n        /* \"@openzeppelin/contracts/token/ERC721/ERC721.sol\":17072:17108  IERC721Receiver(to).onERC721Received */\n      dup5\n      and\n      swap1\n      0x150b7a02\n      swap1\n        /* \"@openzeppelin/contracts/token/ERC721/ERC721.sol\":17072:17143  IERC721Receiver(to).onERC721Received(_msgSender(), from, tokenId, data) */\n      tag_430\n      swap1\n        /* \"@openzeppelin/contracts/utils/Context.sol\":735:745  msg.sender */\n      caller\n      swap1\n        /* \"@openzeppelin/contracts/token/ERC721/ERC721.sol\":17123:17127  from */\n      dup9\n      swap1\n        /* \"@openzeppelin/contracts/token/ERC721/ERC721.sol\":17129:17136  tokenId */\n      dup8\n      swap1\n        /* \"@openzeppelin/contracts/token/ERC721/ERC721.sol\":17138:17142  data */\n      dup8\n      swap1\n        /* \"@openzeppelin/contracts/token/ERC721/ERC721.sol\":17072:17143  IERC721Receiver(to).onERC721Received(_msgSender(), from, tokenId, data) */\n      0x04\n      add\n      tag_431\n      jump\t// in\n    tag_430:\n      0x20\n      mload(0x40)\n      dup1\n      dup4\n      sub\n      dup2\n      0x00\n      dup8\n      gas\n      call\n      swap3\n      pop\n      pop\n      pop\n      dup1\n      iszero\n      tag_432\n      jumpi\n      pop\n      0x40\n      dup1\n      mload\n      0x1f\n      returndatasize\n      swap1\n      dup2\n      add\n      not(0x1f)\n      and\n      dup3\n      add\n      swap1\n      swap3\n      mstore\n      tag_433\n      swap2\n      dup2\n      add\n      swap1\n      tag_434\n      jump\t// in\n    tag_433:\n      0x01\n    tag_432:\n        /* \"@openzeppelin/contracts/token/ERC721/ERC721.sol\":17068:17684  try IERC721Receiver(to).onERC721Received(_msgSender(), from, tokenId, data) returns (bytes4 retval) {... */\n      tag_435\n      jumpi\n      returndatasize\n      dup1\n      dup1\n      iszero\n      tag_440\n      jumpi\n      mload(0x40)\n      swap2\n      pop\n      and(add(returndatasize, 0x3f), not(0x1f))\n      dup3\n      add\n      0x40\n      mstore\n      returndatasize\n      dup3\n      mstore\n      returndatasize\n      0x00\n      0x20\n      dup5\n      add\n      returndatacopy\n      jump(tag_439)\n    tag_440:\n      0x60\n      swap2\n      pop\n    tag_439:\n      pop\n        /* \"@openzeppelin/contracts/token/ERC721/ERC721.sol\":17381:17387  reason */\n      dup1\n        /* \"@openzeppelin/contracts/token/ERC721/ERC721.sol\":17381:17394  reason.length */\n      mload\n        /* \"@openzeppelin/contracts/token/ERC721/ERC721.sol\":17398:17399  0 */\n      0x00\n        /* \"@openzeppelin/contracts/token/ERC721/ERC721.sol\":17381:17399  reason.length == 0 */\n      sub\n        /* \"@openzeppelin/contracts/token/ERC721/ERC721.sol\":17377:17670  if (reason.length == 0) {... */\n      tag_441\n      jumpi\n        /* \"@openzeppelin/contracts/token/ERC721/ERC721.sol\":17430:17455  ERC721InvalidReceiver(to) */\n      mload(0x40)\n      shl(0xe1, 0x32505749)\n      dup2\n      mstore\n      sub(shl(0xa0, 0x01), 0x01)\n        /* \"#utility.yul\":2047:2079   */\n      dup6\n      and\n        /* \"@openzeppelin/contracts/token/ERC721/ERC721.sol\":17430:17455  ERC721InvalidReceiver(to) */\n      0x04\n      dup3\n      add\n        /* \"#utility.yul\":2029:2080   */\n      mstore\n        /* \"#utility.yul\":2002:2020   */\n      0x24\n      add\n        /* \"@openzeppelin/contracts/token/ERC721/ERC721.sol\":17430:17455  ERC721InvalidReceiver(to) */\n      tag_232\n        /* \"#utility.yul\":1883:2086   */\n      jump\n        /* \"@openzeppelin/contracts/token/ERC721/ERC721.sol\":17377:17670  if (reason.length == 0) {... */\n    tag_441:\n        /* \"@openzeppelin/contracts/token/ERC721/ERC721.sol\":17622:17628  reason */\n      dup1\n        /* \"@openzeppelin/contracts/token/ERC721/ERC721.sol\":17616:17629  mload(reason) */\n      mload\n        /* \"@openzeppelin/contracts/token/ERC721/ERC721.sol\":17607:17613  reason */\n      dup2\n        /* \"@openzeppelin/contracts/token/ERC721/ERC721.sol\":17603:17605  32 */\n      0x20\n        /* \"@openzeppelin/contracts/token/ERC721/ERC721.sol\":17599:17614  add(32, reason) */\n      add\n        /* \"@openzeppelin/contracts/token/ERC721/ERC721.sol\":17592:17630  revert(add(32, reason), mload(reason)) */\n      revert\n        /* \"@openzeppelin/contracts/token/ERC721/ERC721.sol\":17068:17684  try IERC721Receiver(to).onERC721Received(_msgSender(), from, tokenId, data) returns (bytes4 retval) {... */\n    tag_435:\n      not(sub(shl(0xe0, 0x01), 0x01))\n        /* \"@openzeppelin/contracts/token/ERC721/ERC721.sol\":17190:17241  retval != IERC721Receiver.onERC721Received.selector */\n      dup2\n      and\n      shl(0xe1, 0x0a85bd01)\n      eq\n        /* \"@openzeppelin/contracts/token/ERC721/ERC721.sol\":17186:17316  if (retval != IERC721Receiver.onERC721Received.selector) {... */\n      tag_445\n      jumpi\n        /* \"@openzeppelin/contracts/token/ERC721/ERC721.sol\":17272:17297  ERC721InvalidReceiver(to) */\n      mload(0x40)\n      shl(0xe1, 0x32505749)\n      dup2\n      mstore\n      sub(shl(0xa0, 0x01), 0x01)\n        /* \"#utility.yul\":2047:2079   */\n      dup6\n      and\n        /* \"@openzeppelin/contracts/token/ERC721/ERC721.sol\":17272:17297  ERC721InvalidReceiver(to) */\n      0x04\n      dup3\n      add\n        /* \"#utility.yul\":2029:2080   */\n      mstore\n        /* \"#utility.yul\":2002:2020   */\n      0x24\n      add\n        /* \"@openzeppelin/contracts/token/ERC721/ERC721.sol\":17272:17297  ERC721InvalidReceiver(to) */\n      tag_232\n        /* \"#utility.yul\":1883:2086   */\n      jump\n        /* \"@openzeppelin/contracts/token/ERC721/ERC721.sol\":17186:17316  if (retval != IERC721Receiver.onERC721Received.selector) {... */\n    tag_445:\n        /* \"@openzeppelin/contracts/token/ERC721/ERC721.sol\":17144:17330  returns (bytes4 retval) {... */\n      pop\n        /* \"@openzeppelin/contracts/token/ERC721/ERC721.sol\":16918:17700  function _checkOnERC721Received(address from, address to, uint256 tokenId, bytes memory data) private {... */\n      pop\n      pop\n      pop\n      pop\n      jump\t// out\n        /* \"contracts/BlastPandas.sol\":2036:2147  function _baseURI() internal view virtual override returns (string memory) {... */\n    tag_352:\n        /* \"contracts/BlastPandas.sol\":2096:2109  string memory */\n      0x60\n        /* \"contracts/BlastPandas.sol\":2128:2140  baseTokenURI */\n      0x0c\n        /* \"contracts/BlastPandas.sol\":2121:2140  return baseTokenURI */\n      dup1\n      sload\n      tag_213\n      swap1\n      tag_214\n      jump\t// in\n        /* \"@openzeppelin/contracts/utils/Strings.sol\":637:1335  function toString(uint256 value) internal pure returns (string memory) {... */\n    tag_356:\n        /* \"@openzeppelin/contracts/utils/Strings.sol\":693:706  string memory */\n      0x60\n        /* \"@openzeppelin/contracts/utils/Strings.sol\":742:756  uint256 length */\n      0x00\n        /* \"@openzeppelin/contracts/utils/Strings.sol\":759:776  Math.log10(value) */\n      tag_454\n        /* \"@openzeppelin/contracts/utils/Strings.sol\":770:775  value */\n      dup4\n        /* \"@openzeppelin/contracts/utils/Strings.sol\":759:769  Math.log10 */\n      tag_455\n        /* \"@openzeppelin/contracts/utils/Strings.sol\":759:776  Math.log10(value) */\n      jump\t// in\n    tag_454:\n        /* \"@openzeppelin/contracts/utils/Strings.sol\":779:780  1 */\n      0x01\n        /* \"@openzeppelin/contracts/utils/Strings.sol\":759:780  Math.log10(value) + 1 */\n      add\n        /* \"@openzeppelin/contracts/utils/Strings.sol\":742:780  uint256 length = Math.log10(value) + 1 */\n      swap1\n      pop\n        /* \"@openzeppelin/contracts/utils/Strings.sol\":794:814  string memory buffer */\n      0x00\n        /* \"@openzeppelin/contracts/utils/Strings.sol\":828:834  length */\n      dup2\n        /* \"@openzeppelin/contracts/utils/Strings.sol\":817:835  new string(length) */\n      0xffffffffffffffff\n      dup2\n      gt\n      iszero\n      tag_457\n      jumpi\n      tag_457\n      tag_257\n      jump\t// in\n    tag_457:\n      mload(0x40)\n      swap1\n      dup1\n      dup3\n      mstore\n      dup1\n      0x1f\n      add\n      not(0x1f)\n      and\n      0x20\n      add\n      dup3\n      add\n      0x40\n      mstore\n      dup1\n      iszero\n      tag_458\n      jumpi\n      0x20\n      dup3\n      add\n      dup2\n      dup1\n      calldatasize\n      dup4\n      calldatacopy\n      add\n      swap1\n      pop\n    tag_458:\n      pop\n        /* \"@openzeppelin/contracts/utils/Strings.sol\":794:835  string memory buffer = new string(length) */\n      swap1\n      pop\n        /* \"@openzeppelin/contracts/utils/Strings.sol\":955:983  add(buffer, add(32, length)) */\n      dup2\n      dup2\n      add\n        /* \"@openzeppelin/contracts/utils/Strings.sol\":971:973  32 */\n      0x20\n        /* \"@openzeppelin/contracts/utils/Strings.sol\":955:983  add(buffer, add(32, length)) */\n      add\n        /* \"@openzeppelin/contracts/utils/Strings.sol\":1010:1292  while (true) {... */\n    tag_459:\n      not(0x00)\n        /* \"@openzeppelin/contracts/utils/Strings.sol\":1041:1046  ptr-- */\n      add\n      shl(0x81, 0x181899199a1a9b1b9c1cb0b131b232b3)\n        /* \"@openzeppelin/contracts/utils/Strings.sol\":1175:1177  10 */\n      0x0a\n        /* \"@openzeppelin/contracts/utils/Strings.sol\":1164:1178  mod(value, 10) */\n      dup7\n      mod\n        /* \"@openzeppelin/contracts/utils/Strings.sol\":1159:1191  byte(mod(value, 10), HEX_DIGITS) */\n      byte\n        /* \"@openzeppelin/contracts/utils/Strings.sol\":1041:1046  ptr-- */\n      dup2\n        /* \"@openzeppelin/contracts/utils/Strings.sol\":1146:1192  mstore8(ptr, byte(mod(value, 10), HEX_DIGITS)) */\n      mstore8\n        /* \"@openzeppelin/contracts/utils/Strings.sol\":1236:1238  10 */\n      0x0a\n        /* \"@openzeppelin/contracts/utils/Strings.sol\":1227:1238  value /= 10 */\n      dup6\n      div\n      swap5\n      pop\n        /* \"@openzeppelin/contracts/utils/Strings.sol\":1256:1277  if (value == 0) break */\n      dup5\n        /* \"@openzeppelin/contracts/utils/Strings.sol\":1010:1292  while (true) {... */\n      tag_459\n        /* \"@openzeppelin/contracts/utils/Strings.sol\":1256:1277  if (value == 0) break */\n      jumpi\n      pop\n        /* \"@openzeppelin/contracts/utils/Strings.sol\":1312:1318  buffer */\n      swap4\n        /* \"@openzeppelin/contracts/utils/Strings.sol\":637:1335  function toString(uint256 value) internal pure returns (string memory) {... */\n      swap3\n      pop\n      pop\n      pop\n      jump\t// out\n        /* \"@openzeppelin/contracts/utils/Pausable.sol\":2002:2130  function _requireNotPaused() internal view virtual {... */\n    tag_379:\n        /* \"@openzeppelin/contracts/utils/Pausable.sol\":1920:1927  _paused */\n      sload(0x0a)\n      shl(0xa0, 0x01)\n      swap1\n      div\n      0xff\n      and\n        /* \"@openzeppelin/contracts/utils/Pausable.sol\":2063:2124  if (paused()) {... */\n      iszero\n      tag_247\n      jumpi\n        /* \"@openzeppelin/contracts/utils/Pausable.sol\":2098:2113  EnforcedPause() */\n      mload(0x40)\n      shl(0xe0, 0xd93c0665)\n      dup2\n      mstore\n      0x04\n      add\n      mload(0x40)\n      dup1\n      swap2\n      sub\n      swap1\n      revert\n        /* \"@openzeppelin/contracts/utils/Pausable.sol\":2202:2328  function _requirePaused() internal view virtual {... */\n    tag_385:\n        /* \"@openzeppelin/contracts/utils/Pausable.sol\":1920:1927  _paused */\n      sload(0x0a)\n      shl(0xa0, 0x01)\n      swap1\n      div\n      0xff\n      and\n        /* \"@openzeppelin/contracts/utils/Pausable.sol\":2260:2322  if (!paused()) {... */\n      tag_247\n      jumpi\n        /* \"@openzeppelin/contracts/utils/Pausable.sol\":2296:2311  ExpectedPause() */\n      mload(0x40)\n      shl(0xe0, 0x8dfc202b)\n      dup2\n      mstore\n      0x04\n      add\n      mload(0x40)\n      dup1\n      swap2\n      sub\n      swap1\n      revert\n        /* \"@openzeppelin/contracts/token/ERC721/ERC721.sol\":14720:15382  function _approve(address to, uint256 tokenId, address auth, bool emitEvent) internal virtual {... */\n    tag_398:\n        /* \"@openzeppelin/contracts/token/ERC721/ERC721.sol\":14880:14889  emitEvent */\n      dup1\n        /* \"@openzeppelin/contracts/token/ERC721/ERC721.sol\":14880:14911  emitEvent || auth != address(0) */\n      dup1\n      tag_473\n      jumpi\n      pop\n      sub(shl(0xa0, 0x01), 0x01)\n        /* \"@openzeppelin/contracts/token/ERC721/ERC721.sol\":14893:14911  auth != address(0) */\n      dup3\n      and\n      iszero\n      iszero\n        /* \"@openzeppelin/contracts/token/ERC721/ERC721.sol\":14880:14911  emitEvent || auth != address(0) */\n    tag_473:\n        /* \"@openzeppelin/contracts/token/ERC721/ERC721.sol\":14876:15336  if (emitEvent || auth != address(0)) {... */\n      iszero\n      tag_474\n      jumpi\n        /* \"@openzeppelin/contracts/token/ERC721/ERC721.sol\":14927:14940  address owner */\n      0x00\n        /* \"@openzeppelin/contracts/token/ERC721/ERC721.sol\":14943:14965  _requireOwned(tokenId) */\n      tag_475\n        /* \"@openzeppelin/contracts/token/ERC721/ERC721.sol\":14957:14964  tokenId */\n      dup5\n        /* \"@openzeppelin/contracts/token/ERC721/ERC721.sol\":14943:14956  _requireOwned */\n      tag_221\n        /* \"@openzeppelin/contracts/token/ERC721/ERC721.sol\":14943:14965  _requireOwned(tokenId) */\n      jump\t// in\n    tag_475:\n        /* \"@openzeppelin/contracts/token/ERC721/ERC721.sol\":14927:14965  address owner = _requireOwned(tokenId) */\n      swap1\n      pop\n      sub(shl(0xa0, 0x01), 0x01)\n        /* \"@openzeppelin/contracts/token/ERC721/ERC721.sol\":15093:15111  auth != address(0) */\n      dup4\n      and\n      iszero\n      dup1\n      iszero\n      swap1\n        /* \"@openzeppelin/contracts/token/ERC721/ERC721.sol\":15093:15128  auth != address(0) && owner != auth */\n      tag_476\n      jumpi\n      pop\n        /* \"@openzeppelin/contracts/token/ERC721/ERC721.sol\":15124:15128  auth */\n      dup3\n      sub(shl(0xa0, 0x01), 0x01)\n        /* \"@openzeppelin/contracts/token/ERC721/ERC721.sol\":15115:15128  owner != auth */\n      and\n        /* \"@openzeppelin/contracts/token/ERC721/ERC721.sol\":15115:15120  owner */\n      dup2\n      sub(shl(0xa0, 0x01), 0x01)\n        /* \"@openzeppelin/contracts/token/ERC721/ERC721.sol\":15115:15128  owner != auth */\n      and\n      eq\n      iszero\n        /* \"@openzeppelin/contracts/token/ERC721/ERC721.sol\":15093:15128  auth != address(0) && owner != auth */\n    tag_476:\n        /* \"@openzeppelin/contracts/token/ERC721/ERC721.sol\":15093:15162  auth != address(0) && owner != auth && !isApprovedForAll(owner, auth) */\n      dup1\n      iszero\n      tag_477\n      jumpi\n      pop\n        /* \"@openzeppelin/contracts/token/ERC721/ERC721.sol\":15133:15162  isApprovedForAll(owner, auth) */\n      tag_478\n        /* \"@openzeppelin/contracts/token/ERC721/ERC721.sol\":15150:15155  owner */\n      dup2\n        /* \"@openzeppelin/contracts/token/ERC721/ERC721.sol\":15157:15161  auth */\n      dup5\n        /* \"@openzeppelin/contracts/token/ERC721/ERC721.sol\":15133:15149  isApprovedForAll */\n      tag_196\n        /* \"@openzeppelin/contracts/token/ERC721/ERC721.sol\":15133:15162  isApprovedForAll(owner, auth) */\n      jump\t// in\n    tag_478:\n        /* \"@openzeppelin/contracts/token/ERC721/ERC721.sol\":15132:15162  !isApprovedForAll(owner, auth) */\n      iszero\n        /* \"@openzeppelin/contracts/token/ERC721/ERC721.sol\":15093:15162  auth != address(0) && owner != auth && !isApprovedForAll(owner, auth) */\n    tag_477:\n        /* \"@openzeppelin/contracts/token/ERC721/ERC721.sol\":15089:15231  if (auth != address(0) && owner != auth && !isApprovedForAll(owner, auth)) {... */\n      iszero\n      tag_479\n      jumpi\n        /* \"@openzeppelin/contracts/token/ERC721/ERC721.sol\":15189:15216  ERC721InvalidApprover(auth) */\n      mload(0x40)\n      shl(0xe0, 0xa9fbf51f)\n      dup2\n      mstore\n      sub(shl(0xa0, 0x01), 0x01)\n        /* \"#utility.yul\":2047:2079   */\n      dup5\n      and\n        /* \"@openzeppelin/contracts/token/ERC721/ERC721.sol\":15189:15216  ERC721InvalidApprover(auth) */\n      0x04\n      dup3\n      add\n        /* \"#utility.yul\":2029:2080   */\n      mstore\n        /* \"#utility.yul\":2002:2020   */\n      0x24\n      add\n        /* \"@openzeppelin/contracts/token/ERC721/ERC721.sol\":15189:15216  ERC721InvalidApprover(auth) */\n      tag_232\n        /* \"#utility.yul\":1883:2086   */\n      jump\n        /* \"@openzeppelin/contracts/token/ERC721/ERC721.sol\":15089:15231  if (auth != address(0) && owner != auth && !isApprovedForAll(owner, auth)) {... */\n    tag_479:\n        /* \"@openzeppelin/contracts/token/ERC721/ERC721.sol\":15249:15258  emitEvent */\n      dup2\n        /* \"@openzeppelin/contracts/token/ERC721/ERC721.sol\":15245:15326  if (emitEvent) {... */\n      iszero\n      tag_481\n      jumpi\n        /* \"@openzeppelin/contracts/token/ERC721/ERC721.sol\":15303:15310  tokenId */\n      dup4\n        /* \"@openzeppelin/contracts/token/ERC721/ERC721.sol\":15299:15301  to */\n      dup6\n      sub(shl(0xa0, 0x01), 0x01)\n        /* \"@openzeppelin/contracts/token/ERC721/ERC721.sol\":15283:15311  Approval(owner, to, tokenId) */\n      and\n        /* \"@openzeppelin/contracts/token/ERC721/ERC721.sol\":15292:15297  owner */\n      dup3\n      sub(shl(0xa0, 0x01), 0x01)\n        /* \"@openzeppelin/contracts/token/ERC721/ERC721.sol\":15283:15311  Approval(owner, to, tokenId) */\n      and\n      0x8c5be1e5ebec7d5bd14f71427d1e84f3dd0314c0f7b2291e5b200ac8c7c3b925\n      mload(0x40)\n      mload(0x40)\n      dup1\n      swap2\n      sub\n      swap1\n      log4\n        /* \"@openzeppelin/contracts/token/ERC721/ERC721.sol\":15245:15326  if (emitEvent) {... */\n    tag_481:\n        /* \"@openzeppelin/contracts/token/ERC721/ERC721.sol\":14913:15336  {... */\n      pop\n        /* \"@openzeppelin/contracts/token/ERC721/ERC721.sol\":14876:15336  if (emitEvent || auth != address(0)) {... */\n    tag_474:\n      pop\n      pop\n        /* \"@openzeppelin/contracts/token/ERC721/ERC721.sol\":15346:15370  _tokenApprovals[tokenId] */\n      0x00\n      swap1\n      dup2\n      mstore\n        /* \"@openzeppelin/contracts/token/ERC721/ERC721.sol\":15346:15361  _tokenApprovals */\n      0x04\n        /* \"@openzeppelin/contracts/token/ERC721/ERC721.sol\":15346:15370  _tokenApprovals[tokenId] */\n      0x20\n      mstore\n      0x40\n      swap1\n      keccak256\n        /* \"@openzeppelin/contracts/token/ERC721/ERC721.sol\":15346:15375  _tokenApprovals[tokenId] = to */\n      dup1\n      sload\n      not(sub(shl(0xa0, 0x01), 0x01))\n      and\n      sub(shl(0xa0, 0x01), 0x01)\n      swap3\n      swap1\n      swap3\n      and\n      swap2\n      swap1\n      swap2\n      or\n      swap1\n      sstore\n        /* \"@openzeppelin/contracts/token/ERC721/ERC721.sol\":14720:15382  function _approve(address to, uint256 tokenId, address auth, bool emitEvent) internal virtual {... */\n      jump\t// out\n        /* \"@openzeppelin/contracts/token/ERC721/extensions/ERC721Pausable.sol\":1120:1324  function _update(... */\n    tag_401:\n        /* \"@openzeppelin/contracts/token/ERC721/extensions/ERC721Pausable.sol\":1259:1266  address */\n      0x00\n        /* \"@openzeppelin/contracts/utils/Pausable.sol\":1474:1493  _requireNotPaused() */\n      tag_483\n        /* \"@openzeppelin/contracts/utils/Pausable.sol\":1474:1491  _requireNotPaused */\n      tag_379\n        /* \"@openzeppelin/contracts/utils/Pausable.sol\":1474:1493  _requireNotPaused() */\n      jump\t// in\n    tag_483:\n        /* \"@openzeppelin/contracts/token/ERC721/extensions/ERC721Pausable.sol\":1285:1317  super._update(to, tokenId, auth) */\n      tag_400\n        /* \"@openzeppelin/contracts/token/ERC721/extensions/ERC721Pausable.sol\":1299:1301  to */\n      dup5\n        /* \"@openzeppelin/contracts/token/ERC721/extensions/ERC721Pausable.sol\":1303:1310  tokenId */\n      dup5\n        /* \"@openzeppelin/contracts/token/ERC721/extensions/ERC721Pausable.sol\":1312:1316  auth */\n      dup5\n        /* \"@openzeppelin/contracts/token/ERC721/extensions/ERC721Pausable.sol\":1285:1298  super._update */\n      tag_486\n        /* \"@openzeppelin/contracts/token/ERC721/extensions/ERC721Pausable.sol\":1285:1317  super._update(to, tokenId, auth) */\n      jump\t// in\n        /* \"@openzeppelin/contracts/token/ERC721/ERC721.sol\":10954:11136  function _safeMint(address to, uint256 tokenId, bytes memory data) internal virtual {... */\n    tag_422:\n        /* \"@openzeppelin/contracts/token/ERC721/ERC721.sol\":11048:11066  _mint(to, tokenId) */\n      tag_490\n        /* \"@openzeppelin/contracts/token/ERC721/ERC721.sol\":11054:11056  to */\n      dup4\n        /* \"@openzeppelin/contracts/token/ERC721/ERC721.sol\":11058:11065  tokenId */\n      dup4\n        /* \"@openzeppelin/contracts/token/ERC721/ERC721.sol\":11048:11053  _mint */\n      tag_491\n        /* \"@openzeppelin/contracts/token/ERC721/ERC721.sol\":11048:11066  _mint(to, tokenId) */\n      jump\t// in\n    tag_490:\n        /* \"@openzeppelin/contracts/token/ERC721/ERC721.sol\":11076:11129  _checkOnERC721Received(address(0), to, tokenId, data) */\n      tag_249\n        /* \"@openzeppelin/contracts/token/ERC721/ERC721.sol\":11107:11108  0 */\n      0x00\n        /* \"@openzeppelin/contracts/token/ERC721/ERC721.sol\":11111:11113  to */\n      dup5\n        /* \"@openzeppelin/contracts/token/ERC721/ERC721.sol\":11115:11122  tokenId */\n      dup5\n        /* \"@openzeppelin/contracts/token/ERC721/ERC721.sol\":11124:11128  data */\n      dup5\n        /* \"@openzeppelin/contracts/token/ERC721/ERC721.sol\":11076:11098  _checkOnERC721Received */\n      tag_348\n        /* \"@openzeppelin/contracts/token/ERC721/ERC721.sol\":11076:11129  _checkOnERC721Received(address(0), to, tokenId, data) */\n      jump\t// in\n        /* \"@openzeppelin/contracts/utils/math/Math.sol\":12214:13130  function log10(uint256 value) internal pure returns (uint256) {... */\n    tag_455:\n        /* \"@openzeppelin/contracts/utils/math/Math.sol\":12267:12274  uint256 */\n      0x00\n      dup1\n      shl(0x40, 0x184f03e93ff9f4daa797ed6e38ed64bf6a1f01)\n        /* \"@openzeppelin/contracts/utils/math/Math.sol\":12342:12359  value >= 10 ** 64 */\n      dup4\n      lt\n        /* \"@openzeppelin/contracts/utils/math/Math.sol\":12338:12441  if (value >= 10 ** 64) {... */\n      tag_494\n      jumpi\n      shl(0x40, 0x184f03e93ff9f4daa797ed6e38ed64bf6a1f01)\n        /* \"@openzeppelin/contracts/utils/math/Math.sol\":12379:12396  value /= 10 ** 64 */\n      dup4\n      div\n      swap3\n      pop\n        /* \"@openzeppelin/contracts/utils/math/Math.sol\":12424:12426  64 */\n      0x40\n        /* \"@openzeppelin/contracts/utils/math/Math.sol\":12414:12426  result += 64 */\n      add\n        /* \"@openzeppelin/contracts/utils/math/Math.sol\":12338:12441  if (value >= 10 ** 64) {... */\n    tag_494:\n        /* \"@openzeppelin/contracts/utils/math/Math.sol\":12467:12475  10 ** 32 */\n      0x04ee2d6d415b85acef8100000000\n        /* \"@openzeppelin/contracts/utils/math/Math.sol\":12458:12463  value */\n      dup4\n        /* \"@openzeppelin/contracts/utils/math/Math.sol\":12458:12475  value >= 10 ** 32 */\n      lt\n        /* \"@openzeppelin/contracts/utils/math/Math.sol\":12454:12557  if (value >= 10 ** 32) {... */\n      tag_497\n      jumpi\n        /* \"@openzeppelin/contracts/utils/math/Math.sol\":12504:12512  10 ** 32 */\n      0x04ee2d6d415b85acef8100000000\n        /* \"@openzeppelin/contracts/utils/math/Math.sol\":12495:12512  value /= 10 ** 32 */\n      dup4\n      div\n      swap3\n      pop\n        /* \"@openzeppelin/contracts/utils/math/Math.sol\":12540:12542  32 */\n      0x20\n        /* \"@openzeppelin/contracts/utils/math/Math.sol\":12530:12542  result += 32 */\n      add\n        /* \"@openzeppelin/contracts/utils/math/Math.sol\":12454:12557  if (value >= 10 ** 32) {... */\n    tag_497:\n        /* \"@openzeppelin/contracts/utils/math/Math.sol\":12583:12591  10 ** 16 */\n      0x2386f26fc10000\n        /* \"@openzeppelin/contracts/utils/math/Math.sol\":12574:12579  value */\n      dup4\n        /* \"@openzeppelin/contracts/utils/math/Math.sol\":12574:12591  value >= 10 ** 16 */\n      lt\n        /* \"@openzeppelin/contracts/utils/math/Math.sol\":12570:12673  if (value >= 10 ** 16) {... */\n      tag_500\n      jumpi\n        /* \"@openzeppelin/contracts/utils/math/Math.sol\":12620:12628  10 ** 16 */\n      0x2386f26fc10000\n        /* \"@openzeppelin/contracts/utils/math/Math.sol\":12611:12628  value /= 10 ** 16 */\n      dup4\n      div\n      swap3\n      pop\n        /* \"@openzeppelin/contracts/utils/math/Math.sol\":12656:12658  16 */\n      0x10\n        /* \"@openzeppelin/contracts/utils/math/Math.sol\":12646:12658  result += 16 */\n      add\n        /* \"@openzeppelin/contracts/utils/math/Math.sol\":12570:12673  if (value >= 10 ** 16) {... */\n    tag_500:\n        /* \"@openzeppelin/contracts/utils/math/Math.sol\":12699:12706  10 ** 8 */\n      0x05f5e100\n        /* \"@openzeppelin/contracts/utils/math/Math.sol\":12690:12695  value */\n      dup4\n        /* \"@openzeppelin/contracts/utils/math/Math.sol\":12690:12706  value >= 10 ** 8 */\n      lt\n        /* \"@openzeppelin/contracts/utils/math/Math.sol\":12686:12786  if (value >= 10 ** 8) {... */\n      tag_503\n      jumpi\n        /* \"@openzeppelin/contracts/utils/math/Math.sol\":12735:12742  10 ** 8 */\n      0x05f5e100\n        /* \"@openzeppelin/contracts/utils/math/Math.sol\":12726:12742  value /= 10 ** 8 */\n      dup4\n      div\n      swap3\n      pop\n        /* \"@openzeppelin/contracts/utils/math/Math.sol\":12770:12771  8 */\n      0x08\n        /* \"@openzeppelin/contracts/utils/math/Math.sol\":12760:12771  result += 8 */\n      add\n        /* \"@openzeppelin/contracts/utils/math/Math.sol\":12686:12786  if (value >= 10 ** 8) {... */\n    tag_503:\n        /* \"@openzeppelin/contracts/utils/math/Math.sol\":12812:12819  10 ** 4 */\n      0x2710\n        /* \"@openzeppelin/contracts/utils/math/Math.sol\":12803:12808  value */\n      dup4\n        /* \"@openzeppelin/contracts/utils/math/Math.sol\":12803:12819  value >= 10 ** 4 */\n      lt\n        /* \"@openzeppelin/contracts/utils/math/Math.sol\":12799:12899  if (value >= 10 ** 4) {... */\n      tag_506\n      jumpi\n        /* \"@openzeppelin/contracts/utils/math/Math.sol\":12848:12855  10 ** 4 */\n      0x2710\n        /* \"@openzeppelin/contracts/utils/math/Math.sol\":12839:12855  value /= 10 ** 4 */\n      dup4\n      div\n      swap3\n      pop\n        /* \"@openzeppelin/contracts/utils/math/Math.sol\":12883:12884  4 */\n      0x04\n        /* \"@openzeppelin/contracts/utils/math/Math.sol\":12873:12884  result += 4 */\n      add\n        /* \"@openzeppelin/contracts/utils/math/Math.sol\":12799:12899  if (value >= 10 ** 4) {... */\n    tag_506:\n        /* \"@openzeppelin/contracts/utils/math/Math.sol\":12925:12932  10 ** 2 */\n      0x64\n        /* \"@openzeppelin/contracts/utils/math/Math.sol\":12916:12921  value */\n      dup4\n        /* \"@openzeppelin/contracts/utils/math/Math.sol\":12916:12932  value >= 10 ** 2 */\n      lt\n        /* \"@openzeppelin/contracts/utils/math/Math.sol\":12912:13012  if (value >= 10 ** 2) {... */\n      tag_509\n      jumpi\n        /* \"@openzeppelin/contracts/utils/math/Math.sol\":12961:12968  10 ** 2 */\n      0x64\n        /* \"@openzeppelin/contracts/utils/math/Math.sol\":12952:12968  value /= 10 ** 2 */\n      dup4\n      div\n      swap3\n      pop\n        /* \"@openzeppelin/contracts/utils/math/Math.sol\":12996:12997  2 */\n      0x02\n        /* \"@openzeppelin/contracts/utils/math/Math.sol\":12986:12997  result += 2 */\n      add\n        /* \"@openzeppelin/contracts/utils/math/Math.sol\":12912:13012  if (value >= 10 ** 2) {... */\n    tag_509:\n        /* \"@openzeppelin/contracts/utils/math/Math.sol\":13038:13045  10 ** 1 */\n      0x0a\n        /* \"@openzeppelin/contracts/utils/math/Math.sol\":13029:13034  value */\n      dup4\n        /* \"@openzeppelin/contracts/utils/math/Math.sol\":13029:13045  value >= 10 ** 1 */\n      lt\n        /* \"@openzeppelin/contracts/utils/math/Math.sol\":13025:13091  if (value >= 10 ** 1) {... */\n      tag_222\n      jumpi\n        /* \"@openzeppelin/contracts/utils/math/Math.sol\":13075:13076  1 */\n      0x01\n        /* \"@openzeppelin/contracts/utils/math/Math.sol\":13065:13076  result += 1 */\n      add\n        /* \"@openzeppelin/contracts/utils/math/Math.sol\":13117:13123  result */\n      swap3\n        /* \"@openzeppelin/contracts/utils/math/Math.sol\":12214:13130  function log10(uint256 value) internal pure returns (uint256) {... */\n      swap2\n      pop\n      pop\n      jump\t// out\n        /* \"@openzeppelin/contracts/token/ERC721/extensions/ERC721Enumerable.sol\":2518:3143  function _update(address to, uint256 tokenId, address auth) internal virtual override returns (address) {... */\n    tag_486:\n        /* \"@openzeppelin/contracts/token/ERC721/extensions/ERC721Enumerable.sol\":2613:2620  address */\n      0x00\n        /* \"@openzeppelin/contracts/token/ERC721/extensions/ERC721Enumerable.sol\":2632:2653  address previousOwner */\n      dup1\n        /* \"@openzeppelin/contracts/token/ERC721/extensions/ERC721Enumerable.sol\":2656:2688  super._update(to, tokenId, auth) */\n      tag_514\n        /* \"@openzeppelin/contracts/token/ERC721/extensions/ERC721Enumerable.sol\":2670:2672  to */\n      dup6\n        /* \"@openzeppelin/contracts/token/ERC721/extensions/ERC721Enumerable.sol\":2674:2681  tokenId */\n      dup6\n        /* \"@openzeppelin/contracts/token/ERC721/extensions/ERC721Enumerable.sol\":2683:2687  auth */\n      dup6\n        /* \"@openzeppelin/contracts/token/ERC721/extensions/ERC721Enumerable.sol\":2656:2669  super._update */\n      tag_515\n        /* \"@openzeppelin/contracts/token/ERC721/extensions/ERC721Enumerable.sol\":2656:2688  super._update(to, tokenId, auth) */\n      jump\t// in\n    tag_514:\n        /* \"@openzeppelin/contracts/token/ERC721/extensions/ERC721Enumerable.sol\":2632:2688  address previousOwner = super._update(to, tokenId, auth) */\n      swap1\n      pop\n      sub(shl(0xa0, 0x01), 0x01)\n        /* \"@openzeppelin/contracts/token/ERC721/extensions/ERC721Enumerable.sol\":2703:2730  previousOwner == address(0) */\n      dup2\n      and\n        /* \"@openzeppelin/contracts/token/ERC721/extensions/ERC721Enumerable.sol\":2699:2909  if (previousOwner == address(0)) {... */\n      tag_516\n      jumpi\n        /* \"@openzeppelin/contracts/token/ERC721/extensions/ERC721Enumerable.sol\":2746:2786  _addTokenToAllTokensEnumeration(tokenId) */\n      tag_517\n        /* \"@openzeppelin/contracts/token/ERC721/extensions/ERC721Enumerable.sol\":2778:2785  tokenId */\n      dup5\n        /* \"@openzeppelin/contracts/token/ERC721/extensions/ERC721Enumerable.sol\":3949:3959  _allTokens */\n      0x08\n        /* \"@openzeppelin/contracts/token/ERC721/extensions/ERC721Enumerable.sol\":3949:3966  _allTokens.length */\n      dup1\n      sload\n        /* \"@openzeppelin/contracts/token/ERC721/extensions/ERC721Enumerable.sol\":3922:3946  _allTokensIndex[tokenId] */\n      0x00\n      dup4\n      dup2\n      mstore\n        /* \"@openzeppelin/contracts/token/ERC721/extensions/ERC721Enumerable.sol\":3922:3937  _allTokensIndex */\n      0x09\n        /* \"@openzeppelin/contracts/token/ERC721/extensions/ERC721Enumerable.sol\":3922:3946  _allTokensIndex[tokenId] */\n      0x20\n      mstore\n      0x40\n      dup2\n      keccak256\n        /* \"@openzeppelin/contracts/token/ERC721/extensions/ERC721Enumerable.sol\":3922:3966  _allTokensIndex[tokenId] = _allTokens.length */\n      dup3\n      swap1\n      sstore\n        /* \"@openzeppelin/contracts/token/ERC721/extensions/ERC721Enumerable.sol\":3976:4000  _allTokens.push(tokenId) */\n      0x01\n      dup3\n      add\n      dup4\n      sstore\n      swap2\n      swap1\n      swap2\n      mstore\n      0xf3f7a9fe364faab93b216da50a3214154f22a0a2b415b23a84c8169e8b636ee3\n      add\n      sstore\n        /* \"@openzeppelin/contracts/token/ERC721/extensions/ERC721Enumerable.sol\":3846:4007  function _addTokenToAllTokensEnumeration(uint256 tokenId) private {... */\n      jump\n        /* \"@openzeppelin/contracts/token/ERC721/extensions/ERC721Enumerable.sol\":2746:2786  _addTokenToAllTokensEnumeration(tokenId) */\n    tag_517:\n        /* \"@openzeppelin/contracts/token/ERC721/extensions/ERC721Enumerable.sol\":2699:2909  if (previousOwner == address(0)) {... */\n      jump(tag_521)\n    tag_516:\n        /* \"@openzeppelin/contracts/token/ERC721/extensions/ERC721Enumerable.sol\":2824:2826  to */\n      dup5\n      sub(shl(0xa0, 0x01), 0x01)\n        /* \"@openzeppelin/contracts/token/ERC721/extensions/ERC721Enumerable.sol\":2807:2826  previousOwner != to */\n      and\n        /* \"@openzeppelin/contracts/token/ERC721/extensions/ERC721Enumerable.sol\":2807:2820  previousOwner */\n      dup2\n      sub(shl(0xa0, 0x01), 0x01)\n        /* \"@openzeppelin/contracts/token/ERC721/extensions/ERC721Enumerable.sol\":2807:2826  previousOwner != to */\n      and\n      eq\n        /* \"@openzeppelin/contracts/token/ERC721/extensions/ERC721Enumerable.sol\":2803:2909  if (previousOwner != to) {... */\n      tag_521\n      jumpi\n        /* \"@openzeppelin/contracts/token/ERC721/extensions/ERC721Enumerable.sol\":2842:2898  _removeTokenFromOwnerEnumeration(previousOwner, tokenId) */\n      tag_521\n        /* \"@openzeppelin/contracts/token/ERC721/extensions/ERC721Enumerable.sol\":2875:2888  previousOwner */\n      dup2\n        /* \"@openzeppelin/contracts/token/ERC721/extensions/ERC721Enumerable.sol\":2890:2897  tokenId */\n      dup6\n        /* \"@openzeppelin/contracts/token/ERC721/extensions/ERC721Enumerable.sol\":2842:2874  _removeTokenFromOwnerEnumeration */\n      tag_522\n        /* \"@openzeppelin/contracts/token/ERC721/extensions/ERC721Enumerable.sol\":2842:2898  _removeTokenFromOwnerEnumeration(previousOwner, tokenId) */\n      jump\t// in\n    tag_521:\n      sub(shl(0xa0, 0x01), 0x01)\n        /* \"@openzeppelin/contracts/token/ERC721/extensions/ERC721Enumerable.sol\":2922:2938  to == address(0) */\n      dup6\n      and\n        /* \"@openzeppelin/contracts/token/ERC721/extensions/ERC721Enumerable.sol\":2918:3106  if (to == address(0)) {... */\n      tag_523\n      jumpi\n        /* \"@openzeppelin/contracts/token/ERC721/extensions/ERC721Enumerable.sol\":2954:2999  _removeTokenFromAllTokensEnumeration(tokenId) */\n      tag_524\n        /* \"@openzeppelin/contracts/token/ERC721/extensions/ERC721Enumerable.sol\":2991:2998  tokenId */\n      dup5\n        /* \"@openzeppelin/contracts/token/ERC721/extensions/ERC721Enumerable.sol\":2954:2990  _removeTokenFromAllTokensEnumeration */\n      tag_525\n        /* \"@openzeppelin/contracts/token/ERC721/extensions/ERC721Enumerable.sol\":2954:2999  _removeTokenFromAllTokensEnumeration(tokenId) */\n      jump\t// in\n    tag_524:\n        /* \"@openzeppelin/contracts/token/ERC721/extensions/ERC721Enumerable.sol\":2918:3106  if (to == address(0)) {... */\n      jump(tag_400)\n    tag_523:\n        /* \"@openzeppelin/contracts/token/ERC721/extensions/ERC721Enumerable.sol\":3037:3039  to */\n      dup5\n      sub(shl(0xa0, 0x01), 0x01)\n        /* \"@openzeppelin/contracts/token/ERC721/extensions/ERC721Enumerable.sol\":3020:3039  previousOwner != to */\n      and\n        /* \"@openzeppelin/contracts/token/ERC721/extensions/ERC721Enumerable.sol\":3020:3033  previousOwner */\n      dup2\n      sub(shl(0xa0, 0x01), 0x01)\n        /* \"@openzeppelin/contracts/token/ERC721/extensions/ERC721Enumerable.sol\":3020:3039  previousOwner != to */\n      and\n      eq\n        /* \"@openzeppelin/contracts/token/ERC721/extensions/ERC721Enumerable.sol\":3016:3106  if (previousOwner != to) {... */\n      tag_400\n      jumpi\n        /* \"@openzeppelin/contracts/token/ERC721/extensions/ERC721Enumerable.sol\":3055:3095  _addTokenToOwnerEnumeration(to, tokenId) */\n      tag_400\n        /* \"@openzeppelin/contracts/token/ERC721/extensions/ERC721Enumerable.sol\":3083:3085  to */\n      dup6\n        /* \"@openzeppelin/contracts/token/ERC721/extensions/ERC721Enumerable.sol\":3087:3094  tokenId */\n      dup6\n        /* \"@openzeppelin/contracts/token/ERC721/extensions/ERC721Enumerable.sol\":3055:3082  _addTokenToOwnerEnumeration */\n      tag_529\n        /* \"@openzeppelin/contracts/token/ERC721/extensions/ERC721Enumerable.sol\":3055:3095  _addTokenToOwnerEnumeration(to, tokenId) */\n      jump\t// in\n        /* \"@openzeppelin/contracts/token/ERC721/ERC721.sol\":9955:10282  function _mint(address to, uint256 tokenId) internal {... */\n    tag_491:\n      sub(shl(0xa0, 0x01), 0x01)\n        /* \"@openzeppelin/contracts/token/ERC721/ERC721.sol\":10022:10038  to == address(0) */\n      dup3\n      and\n        /* \"@openzeppelin/contracts/token/ERC721/ERC721.sol\":10018:10105  if (to == address(0)) {... */\n      tag_531\n      jumpi\n        /* \"@openzeppelin/contracts/token/ERC721/ERC721.sol\":10061:10094  ERC721InvalidReceiver(address(0)) */\n      mload(0x40)\n      shl(0xe1, 0x32505749)\n      dup2\n      mstore\n        /* \"@openzeppelin/contracts/token/ERC721/ERC721.sol\":10091:10092  0 */\n      0x00\n        /* \"@openzeppelin/contracts/token/ERC721/ERC721.sol\":10061:10094  ERC721InvalidReceiver(address(0)) */\n      0x04\n      dup3\n      add\n        /* \"#utility.yul\":2029:2080   */\n      mstore\n        /* \"#utility.yul\":2002:2020   */\n      0x24\n      add\n        /* \"@openzeppelin/contracts/token/ERC721/ERC721.sol\":10061:10094  ERC721InvalidReceiver(address(0)) */\n      tag_232\n        /* \"#utility.yul\":1883:2086   */\n      jump\n        /* \"@openzeppelin/contracts/token/ERC721/ERC721.sol\":10018:10105  if (to == address(0)) {... */\n    tag_531:\n        /* \"@openzeppelin/contracts/token/ERC721/ERC721.sol\":10114:10135  address previousOwner */\n      0x00\n        /* \"@openzeppelin/contracts/token/ERC721/ERC721.sol\":10138:10170  _update(to, tokenId, address(0)) */\n      tag_533\n        /* \"@openzeppelin/contracts/token/ERC721/ERC721.sol\":10146:10148  to */\n      dup4\n        /* \"@openzeppelin/contracts/token/ERC721/ERC721.sol\":10150:10157  tokenId */\n      dup4\n        /* \"@openzeppelin/contracts/token/ERC721/ERC721.sol\":10167:10168  0 */\n      0x00\n        /* \"@openzeppelin/contracts/token/ERC721/ERC721.sol\":10138:10145  _update */\n      tag_235\n        /* \"@openzeppelin/contracts/token/ERC721/ERC721.sol\":10138:10170  _update(to, tokenId, address(0)) */\n      jump\t// in\n    tag_533:\n        /* \"@openzeppelin/contracts/token/ERC721/ERC721.sol\":10114:10170  address previousOwner = _update(to, tokenId, address(0)) */\n      swap1\n      pop\n      sub(shl(0xa0, 0x01), 0x01)\n        /* \"@openzeppelin/contracts/token/ERC721/ERC721.sol\":10184:10211  previousOwner != address(0) */\n      dup2\n      and\n      iszero\n        /* \"@openzeppelin/contracts/token/ERC721/ERC721.sol\":10180:10276  if (previousOwner != address(0)) {... */\n      tag_249\n      jumpi\n        /* \"@openzeppelin/contracts/token/ERC721/ERC721.sol\":10234:10265  ERC721InvalidSender(address(0)) */\n      mload(0x40)\n      shl(0xe1, 0x39e35637)\n      dup2\n      mstore\n        /* \"@openzeppelin/contracts/token/ERC721/ERC721.sol\":10262:10263  0 */\n      0x00\n        /* \"@openzeppelin/contracts/token/ERC721/ERC721.sol\":10234:10265  ERC721InvalidSender(address(0)) */\n      0x04\n      dup3\n      add\n        /* \"#utility.yul\":2029:2080   */\n      mstore\n        /* \"#utility.yul\":2002:2020   */\n      0x24\n      add\n        /* \"@openzeppelin/contracts/token/ERC721/ERC721.sol\":10234:10265  ERC721InvalidSender(address(0)) */\n      tag_232\n        /* \"#utility.yul\":1883:2086   */\n      jump\n        /* \"@openzeppelin/contracts/token/ERC721/ERC721.sol\":8838:9633  function _update(address to, uint256 tokenId, address auth) internal virtual returns (address) {... */\n    tag_515:\n        /* \"@openzeppelin/contracts/token/ERC721/ERC721.sol\":8924:8931  address */\n      0x00\n        /* \"@openzeppelin/contracts/token/ERC721/ERC721.sol\":5799:5815  _owners[tokenId] */\n      dup3\n      dup2\n      mstore\n        /* \"@openzeppelin/contracts/token/ERC721/ERC721.sol\":5799:5806  _owners */\n      0x02\n        /* \"@openzeppelin/contracts/token/ERC721/ERC721.sol\":5799:5815  _owners[tokenId] */\n      0x20\n      mstore\n      0x40\n      dup2\n      keccak256\n      sload\n      sub(shl(0xa0, 0x01), 0x01)\n      swap1\n      dup2\n      and\n      swap1\n        /* \"@openzeppelin/contracts/token/ERC721/ERC721.sol\":9035:9053  auth != address(0) */\n      dup4\n      and\n      iszero\n        /* \"@openzeppelin/contracts/token/ERC721/ERC721.sol\":9031:9117  if (auth != address(0)) {... */\n      tag_539\n      jumpi\n        /* \"@openzeppelin/contracts/token/ERC721/ERC721.sol\":9069:9106  _checkAuthorized(from, auth, tokenId) */\n      tag_539\n        /* \"@openzeppelin/contracts/token/ERC721/ERC721.sol\":9086:9090  from */\n      dup2\n        /* \"@openzeppelin/contracts/token/ERC721/ERC721.sol\":9092:9096  auth */\n      dup5\n        /* \"@openzeppelin/contracts/token/ERC721/ERC721.sol\":9098:9105  tokenId */\n      dup7\n        /* \"@openzeppelin/contracts/token/ERC721/ERC721.sol\":9069:9085  _checkAuthorized */\n      tag_540\n        /* \"@openzeppelin/contracts/token/ERC721/ERC721.sol\":9069:9106  _checkAuthorized(from, auth, tokenId) */\n      jump\t// in\n    tag_539:\n      sub(shl(0xa0, 0x01), 0x01)\n        /* \"@openzeppelin/contracts/token/ERC721/ERC721.sol\":9161:9179  from != address(0) */\n      dup2\n      and\n      iszero\n        /* \"@openzeppelin/contracts/token/ERC721/ERC721.sol\":9157:9413  if (from != address(0)) {... */\n      tag_541\n      jumpi\n        /* \"@openzeppelin/contracts/token/ERC721/ERC721.sol\":9277:9325  _approve(address(0), tokenId, address(0), false) */\n      tag_542\n        /* \"@openzeppelin/contracts/token/ERC721/ERC721.sol\":9294:9295  0 */\n      0x00\n        /* \"@openzeppelin/contracts/token/ERC721/ERC721.sol\":9298:9305  tokenId */\n      dup6\n        /* \"@openzeppelin/contracts/token/ERC721/ERC721.sol\":9315:9316  0 */\n      0x00\n        /* \"@openzeppelin/contracts/token/ERC721/ERC721.sol\":9319:9324  false */\n      dup1\n        /* \"@openzeppelin/contracts/token/ERC721/ERC721.sol\":9277:9285  _approve */\n      tag_398\n        /* \"@openzeppelin/contracts/token/ERC721/ERC721.sol\":9277:9325  _approve(address(0), tokenId, address(0), false) */\n      jump\t// in\n    tag_542:\n      sub(shl(0xa0, 0x01), 0x01)\n        /* \"@openzeppelin/contracts/token/ERC721/ERC721.sol\":9368:9383  _balances[from] */\n      dup2\n      and\n      0x00\n      swap1\n      dup2\n      mstore\n        /* \"@openzeppelin/contracts/token/ERC721/ERC721.sol\":9368:9377  _balances */\n      0x03\n        /* \"@openzeppelin/contracts/token/ERC721/ERC721.sol\":9368:9383  _balances[from] */\n      0x20\n      mstore\n      0x40\n      swap1\n      keccak256\n        /* \"@openzeppelin/contracts/token/ERC721/ERC721.sol\":9368:9388  _balances[from] -= 1 */\n      dup1\n      sload\n      not(0x00)\n      add\n      swap1\n      sstore\n        /* \"@openzeppelin/contracts/token/ERC721/ERC721.sol\":9157:9413  if (from != address(0)) {... */\n    tag_541:\n      sub(shl(0xa0, 0x01), 0x01)\n        /* \"@openzeppelin/contracts/token/ERC721/ERC721.sol\":9427:9443  to != address(0) */\n      dup6\n      and\n      iszero\n        /* \"@openzeppelin/contracts/token/ERC721/ERC721.sol\":9423:9530  if (to != address(0)) {... */\n      tag_543\n      jumpi\n      sub(shl(0xa0, 0x01), 0x01)\n        /* \"@openzeppelin/contracts/token/ERC721/ERC721.sol\":9487:9500  _balances[to] */\n      dup6\n      and\n      0x00\n      swap1\n      dup2\n      mstore\n        /* \"@openzeppelin/contracts/token/ERC721/ERC721.sol\":9487:9496  _balances */\n      0x03\n        /* \"@openzeppelin/contracts/token/ERC721/ERC721.sol\":9487:9500  _balances[to] */\n      0x20\n      mstore\n      0x40\n      swap1\n      keccak256\n        /* \"@openzeppelin/contracts/token/ERC721/ERC721.sol\":9487:9505  _balances[to] += 1 */\n      dup1\n      sload\n        /* \"@openzeppelin/contracts/token/ERC721/ERC721.sol\":9504:9505  1 */\n      0x01\n        /* \"@openzeppelin/contracts/token/ERC721/ERC721.sol\":9487:9505  _balances[to] += 1 */\n      add\n      swap1\n      sstore\n        /* \"@openzeppelin/contracts/token/ERC721/ERC721.sol\":9423:9530  if (to != address(0)) {... */\n    tag_543:\n        /* \"@openzeppelin/contracts/token/ERC721/ERC721.sol\":9540:9556  _owners[tokenId] */\n      0x00\n      dup5\n      dup2\n      mstore\n        /* \"@openzeppelin/contracts/token/ERC721/ERC721.sol\":9540:9547  _owners */\n      0x02\n        /* \"@openzeppelin/contracts/token/ERC721/ERC721.sol\":9540:9556  _owners[tokenId] */\n      0x20\n      mstore\n      0x40\n      dup1\n      dup3\n      keccak256\n        /* \"@openzeppelin/contracts/token/ERC721/ERC721.sol\":9540:9561  _owners[tokenId] = to */\n      dup1\n      sload\n      not(sub(shl(0xa0, 0x01), 0x01))\n      and\n      sub(shl(0xa0, 0x01), 0x01)\n      dup10\n      dup2\n      and\n      swap2\n      dup3\n      or\n      swap1\n      swap3\n      sstore\n        /* \"@openzeppelin/contracts/token/ERC721/ERC721.sol\":9577:9604  Transfer(from, to, tokenId) */\n      swap2\n      mload\n        /* \"@openzeppelin/contracts/token/ERC721/ERC721.sol\":9540:9556  _owners[tokenId] */\n      dup8\n      swap4\n        /* \"@openzeppelin/contracts/token/ERC721/ERC721.sol\":9577:9604  Transfer(from, to, tokenId) */\n      swap2\n      dup6\n      and\n      swap2\n      0xddf252ad1be2c89b69c2b068fc378daa952ba7f163c4a11628f55a4df523b3ef\n      swap2\n      log4\n        /* \"@openzeppelin/contracts/token/ERC721/ERC721.sol\":9622:9626  from */\n      swap5\n        /* \"@openzeppelin/contracts/token/ERC721/ERC721.sol\":8838:9633  function _update(address to, uint256 tokenId, address auth) internal virtual returns (address) {... */\n      swap4\n      pop\n      pop\n      pop\n      pop\n      jump\t// out\n        /* \"@openzeppelin/contracts/token/ERC721/extensions/ERC721Enumerable.sol\":4624:5583  function _removeTokenFromOwnerEnumeration(address from, uint256 tokenId) private {... */\n    tag_522:\n        /* \"@openzeppelin/contracts/token/ERC721/extensions/ERC721Enumerable.sol\":4886:4908  uint256 lastTokenIndex */\n      0x00\n        /* \"@openzeppelin/contracts/token/ERC721/extensions/ERC721Enumerable.sol\":4911:4926  balanceOf(from) */\n      tag_547\n        /* \"@openzeppelin/contracts/token/ERC721/extensions/ERC721Enumerable.sol\":4921:4925  from */\n      dup4\n        /* \"@openzeppelin/contracts/token/ERC721/extensions/ERC721Enumerable.sol\":4911:4920  balanceOf */\n      tag_139\n        /* \"@openzeppelin/contracts/token/ERC721/extensions/ERC721Enumerable.sol\":4911:4926  balanceOf(from) */\n      jump\t// in\n    tag_547:\n        /* \"@openzeppelin/contracts/token/ERC721/extensions/ERC721Enumerable.sol\":4936:4954  uint256 tokenIndex */\n      0x00\n        /* \"@openzeppelin/contracts/token/ERC721/extensions/ERC721Enumerable.sol\":4957:4983  _ownedTokensIndex[tokenId] */\n      dup4\n      dup2\n      mstore\n        /* \"@openzeppelin/contracts/token/ERC721/extensions/ERC721Enumerable.sol\":4957:4974  _ownedTokensIndex */\n      0x07\n        /* \"@openzeppelin/contracts/token/ERC721/extensions/ERC721Enumerable.sol\":4957:4983  _ownedTokensIndex[tokenId] */\n      0x20\n      mstore\n      0x40\n      swap1\n      keccak256\n      sload\n        /* \"@openzeppelin/contracts/token/ERC721/extensions/ERC721Enumerable.sol\":4886:4926  uint256 lastTokenIndex = balanceOf(from) */\n      swap1\n      swap2\n      pop\n        /* \"@openzeppelin/contracts/token/ERC721/extensions/ERC721Enumerable.sol\":5087:5115  tokenIndex != lastTokenIndex */\n      dup1\n      dup3\n      eq\n        /* \"@openzeppelin/contracts/token/ERC721/extensions/ERC721Enumerable.sol\":5083:5406  if (tokenIndex != lastTokenIndex) {... */\n      tag_548\n      jumpi\n      sub(shl(0xa0, 0x01), 0x01)\n        /* \"@openzeppelin/contracts/token/ERC721/extensions/ERC721Enumerable.sol\":5153:5171  _ownedTokens[from] */\n      dup5\n      and\n        /* \"@openzeppelin/contracts/token/ERC721/extensions/ERC721Enumerable.sol\":5131:5150  uint256 lastTokenId */\n      0x00\n        /* \"@openzeppelin/contracts/token/ERC721/extensions/ERC721Enumerable.sol\":5153:5171  _ownedTokens[from] */\n      swap1\n      dup2\n      mstore\n        /* \"@openzeppelin/contracts/token/ERC721/extensions/ERC721Enumerable.sol\":5153:5165  _ownedTokens */\n      0x06\n        /* \"@openzeppelin/contracts/token/ERC721/extensions/ERC721Enumerable.sol\":5153:5171  _ownedTokens[from] */\n      0x20\n      swap1\n      dup2\n      mstore\n      0x40\n      dup1\n      dup4\n      keccak256\n        /* \"@openzeppelin/contracts/token/ERC721/extensions/ERC721Enumerable.sol\":5153:5187  _ownedTokens[from][lastTokenIndex] */\n      dup6\n      dup5\n      mstore\n      dup3\n      mstore\n      dup1\n      dup4\n      keccak256\n      sload\n        /* \"@openzeppelin/contracts/token/ERC721/extensions/ERC721Enumerable.sol\":5202:5232  _ownedTokens[from][tokenIndex] */\n      dup5\n      dup5\n      mstore\n      dup2\n      dup5\n      keccak256\n        /* \"@openzeppelin/contracts/token/ERC721/extensions/ERC721Enumerable.sol\":5202:5246  _ownedTokens[from][tokenIndex] = lastTokenId */\n      dup2\n      swap1\n      sstore\n        /* \"@openzeppelin/contracts/token/ERC721/extensions/ERC721Enumerable.sol\":5318:5348  _ownedTokensIndex[lastTokenId] */\n      dup4\n      mstore\n        /* \"@openzeppelin/contracts/token/ERC721/extensions/ERC721Enumerable.sol\":5318:5335  _ownedTokensIndex */\n      0x07\n        /* \"@openzeppelin/contracts/token/ERC721/extensions/ERC721Enumerable.sol\":5318:5348  _ownedTokensIndex[lastTokenId] */\n      swap1\n      swap2\n      mstore\n      swap1\n      keccak256\n        /* \"@openzeppelin/contracts/token/ERC721/extensions/ERC721Enumerable.sol\":5318:5361  _ownedTokensIndex[lastTokenId] = tokenIndex */\n      dup2\n      swap1\n      sstore\n        /* \"@openzeppelin/contracts/token/ERC721/extensions/ERC721Enumerable.sol\":5083:5406  if (tokenIndex != lastTokenIndex) {... */\n    tag_548:\n      pop\n        /* \"@openzeppelin/contracts/token/ERC721/extensions/ERC721Enumerable.sol\":5499:5525  _ownedTokensIndex[tokenId] */\n      0x00\n      swap2\n      dup3\n      mstore\n        /* \"@openzeppelin/contracts/token/ERC721/extensions/ERC721Enumerable.sol\":5499:5516  _ownedTokensIndex */\n      0x07\n        /* \"@openzeppelin/contracts/token/ERC721/extensions/ERC721Enumerable.sol\":5499:5525  _ownedTokensIndex[tokenId] */\n      0x20\n      swap1\n      dup2\n      mstore\n      0x40\n      dup1\n      dup5\n      keccak256\n        /* \"@openzeppelin/contracts/token/ERC721/extensions/ERC721Enumerable.sol\":5492:5525  delete _ownedTokensIndex[tokenId] */\n      dup5\n      swap1\n      sstore\n      sub(shl(0xa0, 0x01), 0x01)\n        /* \"@openzeppelin/contracts/token/ERC721/extensions/ERC721Enumerable.sol\":5542:5560  _ownedTokens[from] */\n      swap1\n      swap5\n      and\n      dup4\n      mstore\n        /* \"@openzeppelin/contracts/token/ERC721/extensions/ERC721Enumerable.sol\":5542:5554  _ownedTokens */\n      0x06\n        /* \"@openzeppelin/contracts/token/ERC721/extensions/ERC721Enumerable.sol\":5542:5560  _ownedTokens[from] */\n      dup2\n      mstore\n      dup4\n      dup4\n      keccak256\n        /* \"@openzeppelin/contracts/token/ERC721/extensions/ERC721Enumerable.sol\":5542:5576  _ownedTokens[from][lastTokenIndex] */\n      swap2\n      dup4\n      mstore\n      mstore\n      swap1\n      dup2\n      keccak256\n        /* \"@openzeppelin/contracts/token/ERC721/extensions/ERC721Enumerable.sol\":5535:5576  delete _ownedTokens[from][lastTokenIndex] */\n      sstore\n        /* \"@openzeppelin/contracts/token/ERC721/extensions/ERC721Enumerable.sol\":4624:5583  function _removeTokenFromOwnerEnumeration(address from, uint256 tokenId) private {... */\n      jump\t// out\n        /* \"@openzeppelin/contracts/token/ERC721/extensions/ERC721Enumerable.sol\":5871:6932  function _removeTokenFromAllTokensEnumeration(uint256 tokenId) private {... */\n    tag_525:\n        /* \"@openzeppelin/contracts/token/ERC721/extensions/ERC721Enumerable.sol\":6145:6155  _allTokens */\n      0x08\n        /* \"@openzeppelin/contracts/token/ERC721/extensions/ERC721Enumerable.sol\":6145:6162  _allTokens.length */\n      sload\n        /* \"@openzeppelin/contracts/token/ERC721/extensions/ERC721Enumerable.sol\":6120:6142  uint256 lastTokenIndex */\n      0x00\n      swap1\n        /* \"@openzeppelin/contracts/token/ERC721/extensions/ERC721Enumerable.sol\":6145:6166  _allTokens.length - 1 */\n      tag_550\n      swap1\n        /* \"@openzeppelin/contracts/token/ERC721/extensions/ERC721Enumerable.sol\":6165:6166  1 */\n      0x01\n      swap1\n        /* \"@openzeppelin/contracts/token/ERC721/extensions/ERC721Enumerable.sol\":6145:6166  _allTokens.length - 1 */\n      tag_551\n      jump\t// in\n    tag_550:\n        /* \"@openzeppelin/contracts/token/ERC721/extensions/ERC721Enumerable.sol\":6176:6194  uint256 tokenIndex */\n      0x00\n        /* \"@openzeppelin/contracts/token/ERC721/extensions/ERC721Enumerable.sol\":6197:6221  _allTokensIndex[tokenId] */\n      dup4\n      dup2\n      mstore\n        /* \"@openzeppelin/contracts/token/ERC721/extensions/ERC721Enumerable.sol\":6197:6212  _allTokensIndex */\n      0x09\n        /* \"@openzeppelin/contracts/token/ERC721/extensions/ERC721Enumerable.sol\":6197:6221  _allTokensIndex[tokenId] */\n      0x20\n      mstore\n      0x40\n      dup2\n      keccak256\n      sload\n        /* \"@openzeppelin/contracts/token/ERC721/extensions/ERC721Enumerable.sol\":6565:6575  _allTokens */\n      0x08\n        /* \"@openzeppelin/contracts/token/ERC721/extensions/ERC721Enumerable.sol\":6565:6591  _allTokens[lastTokenIndex] */\n      dup1\n      sload\n        /* \"@openzeppelin/contracts/token/ERC721/extensions/ERC721Enumerable.sol\":6120:6166  uint256 lastTokenIndex = _allTokens.length - 1 */\n      swap4\n      swap5\n      pop\n        /* \"@openzeppelin/contracts/token/ERC721/extensions/ERC721Enumerable.sol\":6197:6221  _allTokensIndex[tokenId] */\n      swap1\n      swap3\n        /* \"@openzeppelin/contracts/token/ERC721/extensions/ERC721Enumerable.sol\":6120:6166  uint256 lastTokenIndex = _allTokens.length - 1 */\n      dup5\n      swap1\n        /* \"@openzeppelin/contracts/token/ERC721/extensions/ERC721Enumerable.sol\":6565:6591  _allTokens[lastTokenIndex] */\n      dup2\n      lt\n      tag_553\n      jumpi\n      tag_553\n      tag_265\n      jump\t// in\n    tag_553:\n      swap1\n      0x00\n      mstore\n      keccak256(0x00, 0x20)\n      add\n      sload\n        /* \"@openzeppelin/contracts/token/ERC721/extensions/ERC721Enumerable.sol\":6543:6591  uint256 lastTokenId = _allTokens[lastTokenIndex] */\n      swap1\n      pop\n        /* \"@openzeppelin/contracts/token/ERC721/extensions/ERC721Enumerable.sol\":6627:6638  lastTokenId */\n      dup1\n        /* \"@openzeppelin/contracts/token/ERC721/extensions/ERC721Enumerable.sol\":6602:6612  _allTokens */\n      0x08\n        /* \"@openzeppelin/contracts/token/ERC721/extensions/ERC721Enumerable.sol\":6613:6623  tokenIndex */\n      dup4\n        /* \"@openzeppelin/contracts/token/ERC721/extensions/ERC721Enumerable.sol\":6602:6624  _allTokens[tokenIndex] */\n      dup2\n      sload\n      dup2\n      lt\n      tag_556\n      jumpi\n      tag_556\n      tag_265\n      jump\t// in\n    tag_556:\n      0x00\n      swap2\n      dup3\n      mstore\n      0x20\n      dup1\n      dup4\n      keccak256\n      swap1\n      swap2\n      add\n        /* \"@openzeppelin/contracts/token/ERC721/extensions/ERC721Enumerable.sol\":6602:6638  _allTokens[tokenIndex] = lastTokenId */\n      swap3\n      swap1\n      swap3\n      sstore\n        /* \"@openzeppelin/contracts/token/ERC721/extensions/ERC721Enumerable.sol\":6706:6734  _allTokensIndex[lastTokenId] */\n      dup3\n      dup2\n      mstore\n        /* \"@openzeppelin/contracts/token/ERC721/extensions/ERC721Enumerable.sol\":6706:6721  _allTokensIndex */\n      0x09\n        /* \"@openzeppelin/contracts/token/ERC721/extensions/ERC721Enumerable.sol\":6706:6734  _allTokensIndex[lastTokenId] */\n      swap1\n      swap2\n      mstore\n      0x40\n      dup1\n      dup3\n      keccak256\n        /* \"@openzeppelin/contracts/token/ERC721/extensions/ERC721Enumerable.sol\":6706:6747  _allTokensIndex[lastTokenId] = tokenIndex */\n      dup5\n      swap1\n      sstore\n        /* \"@openzeppelin/contracts/token/ERC721/extensions/ERC721Enumerable.sol\":6875:6899  _allTokensIndex[tokenId] */\n      dup6\n      dup3\n      mstore\n      dup2\n      keccak256\n        /* \"@openzeppelin/contracts/token/ERC721/extensions/ERC721Enumerable.sol\":6868:6899  delete _allTokensIndex[tokenId] */\n      sstore\n        /* \"@openzeppelin/contracts/token/ERC721/extensions/ERC721Enumerable.sol\":6909:6919  _allTokens */\n      0x08\n        /* \"@openzeppelin/contracts/token/ERC721/extensions/ERC721Enumerable.sol\":6909:6925  _allTokens.pop() */\n      dup1\n      sload\n      dup1\n      tag_559\n      jumpi\n      tag_559\n      tag_560\n      jump\t// in\n    tag_559:\n      0x01\n      swap1\n      sub\n      dup2\n      dup2\n      swap1\n      0x00\n      mstore\n      keccak256(0x00, 0x20)\n      add\n      0x00\n      swap1\n      sstore\n      swap1\n      sstore\n        /* \"@openzeppelin/contracts/token/ERC721/extensions/ERC721Enumerable.sol\":5942:6932  {... */\n      pop\n      pop\n      pop\n        /* \"@openzeppelin/contracts/token/ERC721/extensions/ERC721Enumerable.sol\":5871:6932  function _removeTokenFromAllTokensEnumeration(uint256 tokenId) private {... */\n      pop\n      jump\t// out\n        /* \"@openzeppelin/contracts/token/ERC721/extensions/ERC721Enumerable.sol\":3437:3651  function _addTokenToOwnerEnumeration(address to, uint256 tokenId) private {... */\n    tag_529:\n        /* \"@openzeppelin/contracts/token/ERC721/extensions/ERC721Enumerable.sol\":3521:3535  uint256 length */\n      0x00\n        /* \"@openzeppelin/contracts/token/ERC721/extensions/ERC721Enumerable.sol\":3554:3555  1 */\n      0x01\n        /* \"@openzeppelin/contracts/token/ERC721/extensions/ERC721Enumerable.sol\":3538:3551  balanceOf(to) */\n      tag_563\n        /* \"@openzeppelin/contracts/token/ERC721/extensions/ERC721Enumerable.sol\":3548:3550  to */\n      dup5\n        /* \"@openzeppelin/contracts/token/ERC721/extensions/ERC721Enumerable.sol\":3538:3547  balanceOf */\n      tag_139\n        /* \"@openzeppelin/contracts/token/ERC721/extensions/ERC721Enumerable.sol\":3538:3551  balanceOf(to) */\n      jump\t// in\n    tag_563:\n        /* \"@openzeppelin/contracts/token/ERC721/extensions/ERC721Enumerable.sol\":3538:3555  balanceOf(to) - 1 */\n      tag_564\n      swap2\n      swap1\n      tag_551\n      jump\t// in\n    tag_564:\n      sub(shl(0xa0, 0x01), 0x01)\n        /* \"@openzeppelin/contracts/token/ERC721/extensions/ERC721Enumerable.sol\":3565:3581  _ownedTokens[to] */\n      swap1\n      swap4\n      and\n      0x00\n      swap1\n      dup2\n      mstore\n        /* \"@openzeppelin/contracts/token/ERC721/extensions/ERC721Enumerable.sol\":3565:3577  _ownedTokens */\n      0x06\n        /* \"@openzeppelin/contracts/token/ERC721/extensions/ERC721Enumerable.sol\":3565:3581  _ownedTokens[to] */\n      0x20\n      swap1\n      dup2\n      mstore\n      0x40\n      dup1\n      dup4\n      keccak256\n        /* \"@openzeppelin/contracts/token/ERC721/extensions/ERC721Enumerable.sol\":3565:3589  _ownedTokens[to][length] */\n      dup7\n      dup5\n      mstore\n      dup3\n      mstore\n      dup1\n      dup4\n      keccak256\n        /* \"@openzeppelin/contracts/token/ERC721/extensions/ERC721Enumerable.sol\":3565:3599  _ownedTokens[to][length] = tokenId */\n      dup6\n      swap1\n      sstore\n        /* \"@openzeppelin/contracts/token/ERC721/extensions/ERC721Enumerable.sol\":3609:3635  _ownedTokensIndex[tokenId] */\n      swap4\n      dup3\n      mstore\n        /* \"@openzeppelin/contracts/token/ERC721/extensions/ERC721Enumerable.sol\":3609:3626  _ownedTokensIndex */\n      0x07\n        /* \"@openzeppelin/contracts/token/ERC721/extensions/ERC721Enumerable.sol\":3609:3635  _ownedTokensIndex[tokenId] */\n      swap1\n      mstore\n      swap2\n      swap1\n      swap2\n      keccak256\n        /* \"@openzeppelin/contracts/token/ERC721/extensions/ERC721Enumerable.sol\":3609:3644  _ownedTokensIndex[tokenId] = length */\n      swap2\n      swap1\n      swap2\n      sstore\n      pop\n        /* \"@openzeppelin/contracts/token/ERC721/extensions/ERC721Enumerable.sol\":3437:3651  function _addTokenToOwnerEnumeration(address to, uint256 tokenId) private {... */\n      jump\t// out\n        /* \"@openzeppelin/contracts/token/ERC721/ERC721.sol\":7082:7450  function _checkAuthorized(address owner, address spender, uint256 tokenId) internal view virtual {... */\n    tag_540:\n        /* \"@openzeppelin/contracts/token/ERC721/ERC721.sol\":7194:7232  _isAuthorized(owner, spender, tokenId) */\n      tag_566\n        /* \"@openzeppelin/contracts/token/ERC721/ERC721.sol\":7208:7213  owner */\n      dup4\n        /* \"@openzeppelin/contracts/token/ERC721/ERC721.sol\":7215:7222  spender */\n      dup4\n        /* \"@openzeppelin/contracts/token/ERC721/ERC721.sol\":7224:7231  tokenId */\n      dup4\n        /* \"@openzeppelin/contracts/token/ERC721/ERC721.sol\":7194:7207  _isAuthorized */\n      tag_567\n        /* \"@openzeppelin/contracts/token/ERC721/ERC721.sol\":7194:7232  _isAuthorized(owner, spender, tokenId) */\n      jump\t// in\n    tag_566:\n        /* \"@openzeppelin/contracts/token/ERC721/ERC721.sol\":7189:7444  if (!_isAuthorized(owner, spender, tokenId)) {... */\n      tag_249\n      jumpi\n      sub(shl(0xa0, 0x01), 0x01)\n        /* \"@openzeppelin/contracts/token/ERC721/ERC721.sol\":7252:7271  owner == address(0) */\n      dup4\n      and\n        /* \"@openzeppelin/contracts/token/ERC721/ERC721.sol\":7248:7434  if (owner == address(0)) {... */\n      tag_569\n      jumpi\n        /* \"@openzeppelin/contracts/token/ERC721/ERC721.sol\":7298:7329  ERC721NonexistentToken(tokenId) */\n      mload(0x40)\n      shl(0xe0, 0x7e273289)\n      dup2\n      mstore\n      0x04\n      dup2\n      add\n        /* \"#utility.yul\":2674:2699   */\n      dup3\n      swap1\n      mstore\n        /* \"#utility.yul\":2647:2665   */\n      0x24\n      add\n        /* \"@openzeppelin/contracts/token/ERC721/ERC721.sol\":7298:7329  ERC721NonexistentToken(tokenId) */\n      tag_232\n        /* \"#utility.yul\":2528:2705   */\n      jump\n        /* \"@openzeppelin/contracts/token/ERC721/ERC721.sol\":7248:7434  if (owner == address(0)) {... */\n    tag_569:\n        /* \"@openzeppelin/contracts/token/ERC721/ERC721.sol\":7375:7419  ERC721InsufficientApproval(spender, tokenId) */\n      mload(0x40)\n      shl(0xe0, 0x177e802f)\n      dup2\n      mstore\n      sub(shl(0xa0, 0x01), 0x01)\n        /* \"#utility.yul\":7249:7281   */\n      dup4\n      and\n        /* \"@openzeppelin/contracts/token/ERC721/ERC721.sol\":7375:7419  ERC721InsufficientApproval(spender, tokenId) */\n      0x04\n      dup3\n      add\n        /* \"#utility.yul\":7231:7282   */\n      mstore\n        /* \"#utility.yul\":7298:7316   */\n      0x24\n      dup2\n      add\n        /* \"#utility.yul\":7291:7325   */\n      dup3\n      swap1\n      mstore\n        /* \"#utility.yul\":7204:7222   */\n      0x44\n      add\n        /* \"@openzeppelin/contracts/token/ERC721/ERC721.sol\":7375:7419  ERC721InsufficientApproval(spender, tokenId) */\n      tag_232\n        /* \"#utility.yul\":7057:7331   */\n      jump\n        /* \"@openzeppelin/contracts/token/ERC721/ERC721.sol\":6376:6648  function _isAuthorized(address owner, address spender, uint256 tokenId) internal view virtual returns (bool) {... */\n    tag_567:\n        /* \"@openzeppelin/contracts/token/ERC721/ERC721.sol\":6479:6483  bool */\n      0x00\n      sub(shl(0xa0, 0x01), 0x01)\n        /* \"@openzeppelin/contracts/token/ERC721/ERC721.sol\":6514:6535  spender != address(0) */\n      dup4\n      and\n      iszero\n      dup1\n      iszero\n      swap1\n        /* \"@openzeppelin/contracts/token/ERC721/ERC721.sol\":6514:6641  spender != address(0) &&... */\n      tag_400\n      jumpi\n      pop\n        /* \"@openzeppelin/contracts/token/ERC721/ERC721.sol\":6561:6568  spender */\n      dup3\n      sub(shl(0xa0, 0x01), 0x01)\n        /* \"@openzeppelin/contracts/token/ERC721/ERC721.sol\":6552:6568  owner == spender */\n      and\n        /* \"@openzeppelin/contracts/token/ERC721/ERC721.sol\":6552:6557  owner */\n      dup5\n      sub(shl(0xa0, 0x01), 0x01)\n        /* \"@openzeppelin/contracts/token/ERC721/ERC721.sol\":6552:6568  owner == spender */\n      and\n      eq\n        /* \"@openzeppelin/contracts/token/ERC721/ERC721.sol\":6552:6604  owner == spender || isApprovedForAll(owner, spender) */\n      dup1\n      tag_576\n      jumpi\n      pop\n        /* \"@openzeppelin/contracts/token/ERC721/ERC721.sol\":6572:6604  isApprovedForAll(owner, spender) */\n      tag_576\n        /* \"@openzeppelin/contracts/token/ERC721/ERC721.sol\":6589:6594  owner */\n      dup5\n        /* \"@openzeppelin/contracts/token/ERC721/ERC721.sol\":6596:6603  spender */\n      dup5\n        /* \"@openzeppelin/contracts/token/ERC721/ERC721.sol\":6572:6588  isApprovedForAll */\n      tag_196\n        /* \"@openzeppelin/contracts/token/ERC721/ERC721.sol\":6572:6604  isApprovedForAll(owner, spender) */\n      jump\t// in\n    tag_576:\n        /* \"@openzeppelin/contracts/token/ERC721/ERC721.sol\":6552:6640  owner == spender || isApprovedForAll(owner, spender) || _getApproved(tokenId) == spender */\n      dup1\n      tag_400\n      jumpi\n      pop\n      pop\n        /* \"@openzeppelin/contracts/token/ERC721/ERC721.sol\":6008:6015  address */\n      0x00\n        /* \"@openzeppelin/contracts/token/ERC721/ERC721.sol\":6034:6058  _tokenApprovals[tokenId] */\n      swap1\n      dup2\n      mstore\n        /* \"@openzeppelin/contracts/token/ERC721/ERC721.sol\":6034:6049  _tokenApprovals */\n      0x04\n        /* \"@openzeppelin/contracts/token/ERC721/ERC721.sol\":6034:6058  _tokenApprovals[tokenId] */\n      0x20\n      mstore\n      0x40\n      swap1\n      keccak256\n      sload\n      sub(shl(0xa0, 0x01), 0x01)\n      swap1\n      dup2\n      and\n        /* \"@openzeppelin/contracts/token/ERC721/ERC721.sol\":6608:6640  _getApproved(tokenId) == spender */\n      swap2\n      and\n      eq\n      swap2\n      swap1\n      pop\n        /* \"@openzeppelin/contracts/token/ERC721/ERC721.sol\":6376:6648  function _isAuthorized(address owner, address spender, uint256 tokenId) internal view virtual returns (bool) {... */\n      jump\t// out\n        /* \"#utility.yul\":14:145   */\n    tag_579:\n      not(sub(shl(0xe0, 0x01), 0x01))\n        /* \"#utility.yul\":88:120   */\n      dup2\n      and\n        /* \"#utility.yul\":78:121   */\n      dup2\n      eq\n        /* \"#utility.yul\":68:139   */\n      tag_208\n      jumpi\n        /* \"#utility.yul\":135:136   */\n      0x00\n        /* \"#utility.yul\":132:133   */\n      dup1\n        /* \"#utility.yul\":125:137   */\n      revert\n        /* \"#utility.yul\":150:395   */\n    tag_47:\n        /* \"#utility.yul\":208:214   */\n      0x00\n        /* \"#utility.yul\":261:263   */\n      0x20\n        /* \"#utility.yul\":249:258   */\n      dup3\n        /* \"#utility.yul\":240:247   */\n      dup5\n        /* \"#utility.yul\":236:259   */\n      sub\n        /* \"#utility.yul\":232:264   */\n      slt\n        /* \"#utility.yul\":229:281   */\n      iszero\n      tag_592\n      jumpi\n        /* \"#utility.yul\":277:278   */\n      0x00\n        /* \"#utility.yul\":274:275   */\n      dup1\n        /* \"#utility.yul\":267:279   */\n      revert\n        /* \"#utility.yul\":229:281   */\n    tag_592:\n        /* \"#utility.yul\":316:325   */\n      dup2\n        /* \"#utility.yul\":303:326   */\n      calldataload\n        /* \"#utility.yul\":335:365   */\n      tag_354\n        /* \"#utility.yul\":359:364   */\n      dup2\n        /* \"#utility.yul\":335:365   */\n      tag_579\n      jump\t// in\n        /* \"#utility.yul\":592:752   */\n    tag_580:\n        /* \"#utility.yul\":657:677   */\n      dup1\n      calldataload\n        /* \"#utility.yul\":713:726   */\n      dup1\n      iszero\n        /* \"#utility.yul\":706:727   */\n      iszero\n        /* \"#utility.yul\":696:728   */\n      dup2\n      eq\n        /* \"#utility.yul\":686:746   */\n      tag_596\n      jumpi\n        /* \"#utility.yul\":742:743   */\n      0x00\n        /* \"#utility.yul\":739:740   */\n      dup1\n        /* \"#utility.yul\":732:744   */\n      revert\n        /* \"#utility.yul\":686:746   */\n    tag_596:\n        /* \"#utility.yul\":592:752   */\n      swap2\n      swap1\n      pop\n      jump\t// out\n        /* \"#utility.yul\":757:937   */\n    tag_54:\n        /* \"#utility.yul\":813:819   */\n      0x00\n        /* \"#utility.yul\":866:868   */\n      0x20\n        /* \"#utility.yul\":854:863   */\n      dup3\n        /* \"#utility.yul\":845:852   */\n      dup5\n        /* \"#utility.yul\":841:864   */\n      sub\n        /* \"#utility.yul\":837:869   */\n      slt\n        /* \"#utility.yul\":834:886   */\n      iszero\n      tag_598\n      jumpi\n        /* \"#utility.yul\":882:883   */\n      0x00\n        /* \"#utility.yul\":879:880   */\n      dup1\n        /* \"#utility.yul\":872:884   */\n      revert\n        /* \"#utility.yul\":834:886   */\n    tag_598:\n        /* \"#utility.yul\":905:931   */\n      tag_354\n        /* \"#utility.yul\":921:930   */\n      dup3\n        /* \"#utility.yul\":905:931   */\n      tag_580\n      jump\t// in\n        /* \"#utility.yul\":942:1192   */\n    tag_581:\n        /* \"#utility.yul\":1027:1028   */\n      0x00\n        /* \"#utility.yul\":1037:1150   */\n    tag_601:\n        /* \"#utility.yul\":1051:1057   */\n      dup4\n        /* \"#utility.yul\":1048:1049   */\n      dup2\n        /* \"#utility.yul\":1045:1058   */\n      lt\n        /* \"#utility.yul\":1037:1150   */\n      iszero\n      tag_603\n      jumpi\n        /* \"#utility.yul\":1127:1138   */\n      dup2\n      dup2\n      add\n        /* \"#utility.yul\":1121:1139   */\n      mload\n        /* \"#utility.yul\":1108:1119   */\n      dup4\n      dup3\n      add\n        /* \"#utility.yul\":1101:1140   */\n      mstore\n        /* \"#utility.yul\":1073:1075   */\n      0x20\n        /* \"#utility.yul\":1066:1076   */\n      add\n        /* \"#utility.yul\":1037:1150   */\n      jump(tag_601)\n    tag_603:\n      pop\n      pop\n        /* \"#utility.yul\":1184:1185   */\n      0x00\n        /* \"#utility.yul\":1166:1182   */\n      swap2\n      add\n        /* \"#utility.yul\":1159:1186   */\n      mstore\n        /* \"#utility.yul\":942:1192   */\n      jump\t// out\n        /* \"#utility.yul\":1197:1468   */\n    tag_582:\n        /* \"#utility.yul\":1239:1242   */\n      0x00\n        /* \"#utility.yul\":1277:1282   */\n      dup2\n        /* \"#utility.yul\":1271:1283   */\n      mload\n        /* \"#utility.yul\":1304:1310   */\n      dup1\n        /* \"#utility.yul\":1299:1302   */\n      dup5\n        /* \"#utility.yul\":1292:1311   */\n      mstore\n        /* \"#utility.yul\":1320:1396   */\n      tag_605\n        /* \"#utility.yul\":1389:1395   */\n      dup2\n        /* \"#utility.yul\":1382:1386   */\n      0x20\n        /* \"#utility.yul\":1377:1380   */\n      dup7\n        /* \"#utility.yul\":1373:1387   */\n      add\n        /* \"#utility.yul\":1366:1370   */\n      0x20\n        /* \"#utility.yul\":1359:1364   */\n      dup7\n        /* \"#utility.yul\":1355:1371   */\n      add\n        /* \"#utility.yul\":1320:1396   */\n      tag_581\n      jump\t// in\n    tag_605:\n        /* \"#utility.yul\":1450:1452   */\n      0x1f\n        /* \"#utility.yul\":1429:1444   */\n      add\n      not(0x1f)\n        /* \"#utility.yul\":1425:1454   */\n      and\n        /* \"#utility.yul\":1416:1455   */\n      swap3\n      swap1\n      swap3\n      add\n        /* \"#utility.yul\":1457:1461   */\n      0x20\n        /* \"#utility.yul\":1412:1462   */\n      add\n      swap3\n        /* \"#utility.yul\":1197:1468   */\n      swap2\n      pop\n      pop\n      jump\t// out\n        /* \"#utility.yul\":1473:1693   */\n    tag_60:\n        /* \"#utility.yul\":1622:1624   */\n      0x20\n        /* \"#utility.yul\":1611:1620   */\n      dup2\n        /* \"#utility.yul\":1604:1625   */\n      mstore\n        /* \"#utility.yul\":1585:1589   */\n      0x00\n        /* \"#utility.yul\":1642:1687   */\n      tag_354\n        /* \"#utility.yul\":1683:1685   */\n      0x20\n        /* \"#utility.yul\":1672:1681   */\n      dup4\n        /* \"#utility.yul\":1668:1686   */\n      add\n        /* \"#utility.yul\":1660:1666   */\n      dup5\n        /* \"#utility.yul\":1642:1687   */\n      tag_582\n      jump\t// in\n        /* \"#utility.yul\":1698:1878   */\n    tag_64:\n        /* \"#utility.yul\":1757:1763   */\n      0x00\n        /* \"#utility.yul\":1810:1812   */\n      0x20\n        /* \"#utility.yul\":1798:1807   */\n      dup3\n        /* \"#utility.yul\":1789:1796   */\n      dup5\n        /* \"#utility.yul\":1785:1808   */\n      sub\n        /* \"#utility.yul\":1781:1813   */\n      slt\n        /* \"#utility.yul\":1778:1830   */\n      iszero\n      tag_609\n      jumpi\n        /* \"#utility.yul\":1826:1827   */\n      0x00\n        /* \"#utility.yul\":1823:1824   */\n      dup1\n        /* \"#utility.yul\":1816:1828   */\n      revert\n        /* \"#utility.yul\":1778:1830   */\n    tag_609:\n      pop\n        /* \"#utility.yul\":1849:1872   */\n      calldataload\n      swap2\n        /* \"#utility.yul\":1698:1878   */\n      swap1\n      pop\n      jump\t// out\n        /* \"#utility.yul\":2091:2264   */\n    tag_583:\n        /* \"#utility.yul\":2159:2179   */\n      dup1\n      calldataload\n      sub(shl(0xa0, 0x01), 0x01)\n        /* \"#utility.yul\":2208:2239   */\n      dup2\n      and\n        /* \"#utility.yul\":2198:2240   */\n      dup2\n      eq\n        /* \"#utility.yul\":2188:2258   */\n      tag_596\n      jumpi\n        /* \"#utility.yul\":2254:2255   */\n      0x00\n        /* \"#utility.yul\":2251:2252   */\n      dup1\n        /* \"#utility.yul\":2244:2256   */\n      revert\n        /* \"#utility.yul\":2269:2523   */\n    tag_71:\n        /* \"#utility.yul\":2337:2343   */\n      0x00\n        /* \"#utility.yul\":2345:2351   */\n      dup1\n        /* \"#utility.yul\":2398:2400   */\n      0x40\n        /* \"#utility.yul\":2386:2395   */\n      dup4\n        /* \"#utility.yul\":2377:2384   */\n      dup6\n        /* \"#utility.yul\":2373:2396   */\n      sub\n        /* \"#utility.yul\":2369:2401   */\n      slt\n        /* \"#utility.yul\":2366:2418   */\n      iszero\n      tag_614\n      jumpi\n        /* \"#utility.yul\":2414:2415   */\n      0x00\n        /* \"#utility.yul\":2411:2412   */\n      dup1\n        /* \"#utility.yul\":2404:2416   */\n      revert\n        /* \"#utility.yul\":2366:2418   */\n    tag_614:\n        /* \"#utility.yul\":2437:2466   */\n      tag_615\n        /* \"#utility.yul\":2456:2465   */\n      dup4\n        /* \"#utility.yul\":2437:2466   */\n      tag_583\n      jump\t// in\n    tag_615:\n        /* \"#utility.yul\":2427:2466   */\n      swap5\n        /* \"#utility.yul\":2513:2515   */\n      0x20\n        /* \"#utility.yul\":2498:2516   */\n      swap4\n      swap1\n      swap4\n      add\n        /* \"#utility.yul\":2485:2517   */\n      calldataload\n      swap4\n      pop\n      pop\n      pop\n        /* \"#utility.yul\":2269:2523   */\n      jump\t// out\n        /* \"#utility.yul\":2710:3038   */\n    tag_81:\n        /* \"#utility.yul\":2787:2793   */\n      0x00\n        /* \"#utility.yul\":2795:2801   */\n      dup1\n        /* \"#utility.yul\":2803:2809   */\n      0x00\n        /* \"#utility.yul\":2856:2858   */\n      0x60\n        /* \"#utility.yul\":2844:2853   */\n      dup5\n        /* \"#utility.yul\":2835:2842   */\n      dup7\n        /* \"#utility.yul\":2831:2854   */\n      sub\n        /* \"#utility.yul\":2827:2859   */\n      slt\n        /* \"#utility.yul\":2824:2876   */\n      iszero\n      tag_618\n      jumpi\n        /* \"#utility.yul\":2872:2873   */\n      0x00\n        /* \"#utility.yul\":2869:2870   */\n      dup1\n        /* \"#utility.yul\":2862:2874   */\n      revert\n        /* \"#utility.yul\":2824:2876   */\n    tag_618:\n        /* \"#utility.yul\":2895:2924   */\n      tag_619\n        /* \"#utility.yul\":2914:2923   */\n      dup5\n        /* \"#utility.yul\":2895:2924   */\n      tag_583\n      jump\t// in\n    tag_619:\n        /* \"#utility.yul\":2885:2924   */\n      swap3\n      pop\n        /* \"#utility.yul\":2943:2981   */\n      tag_620\n        /* \"#utility.yul\":2977:2979   */\n      0x20\n        /* \"#utility.yul\":2966:2975   */\n      dup6\n        /* \"#utility.yul\":2962:2980   */\n      add\n        /* \"#utility.yul\":2943:2981   */\n      tag_583\n      jump\t// in\n    tag_620:\n        /* \"#utility.yul\":2933:2981   */\n      swap2\n      pop\n        /* \"#utility.yul\":3028:3030   */\n      0x40\n        /* \"#utility.yul\":3017:3026   */\n      dup5\n        /* \"#utility.yul\":3013:3031   */\n      add\n        /* \"#utility.yul\":3000:3032   */\n      calldataload\n        /* \"#utility.yul\":2990:3032   */\n      swap1\n      pop\n        /* \"#utility.yul\":2710:3038   */\n      swap3\n      pop\n      swap3\n      pop\n      swap3\n      jump\t// out\n        /* \"#utility.yul\":3043:3229   */\n    tag_106:\n        /* \"#utility.yul\":3102:3108   */\n      0x00\n        /* \"#utility.yul\":3155:3157   */\n      0x20\n        /* \"#utility.yul\":3143:3152   */\n      dup3\n        /* \"#utility.yul\":3134:3141   */\n      dup5\n        /* \"#utility.yul\":3130:3153   */\n      sub\n        /* \"#utility.yul\":3126:3158   */\n      slt\n        /* \"#utility.yul\":3123:3175   */\n      iszero\n      tag_622\n      jumpi\n        /* \"#utility.yul\":3171:3172   */\n      0x00\n        /* \"#utility.yul\":3168:3169   */\n      dup1\n        /* \"#utility.yul\":3161:3173   */\n      revert\n        /* \"#utility.yul\":3123:3175   */\n    tag_622:\n        /* \"#utility.yul\":3194:3223   */\n      tag_354\n        /* \"#utility.yul\":3213:3222   */\n      dup3\n        /* \"#utility.yul\":3194:3223   */\n      tag_583\n      jump\t// in\n        /* \"#utility.yul\":3234:3866   */\n    tag_109:\n        /* \"#utility.yul\":3405:3407   */\n      0x20\n        /* \"#utility.yul\":3457:3478   */\n      dup1\n      dup3\n      mstore\n        /* \"#utility.yul\":3527:3540   */\n      dup3\n      mload\n        /* \"#utility.yul\":3430:3448   */\n      dup3\n      dup3\n      add\n        /* \"#utility.yul\":3549:3571   */\n      dup2\n      swap1\n      mstore\n        /* \"#utility.yul\":3376:3380   */\n      0x00\n      swap2\n        /* \"#utility.yul\":3405:3407   */\n      swap1\n        /* \"#utility.yul\":3628:3643   */\n      dup5\n      dup3\n      add\n      swap1\n        /* \"#utility.yul\":3602:3604   */\n      0x40\n        /* \"#utility.yul\":3587:3605   */\n      dup6\n      add\n      swap1\n        /* \"#utility.yul\":3376:3380   */\n      dup5\n        /* \"#utility.yul\":3671:3840   */\n    tag_625:\n        /* \"#utility.yul\":3685:3691   */\n      dup2\n        /* \"#utility.yul\":3682:3683   */\n      dup2\n        /* \"#utility.yul\":3679:3692   */\n      lt\n        /* \"#utility.yul\":3671:3840   */\n      iszero\n      tag_627\n      jumpi\n        /* \"#utility.yul\":3746:3759   */\n      dup4\n      mload\n        /* \"#utility.yul\":3734:3760   */\n      dup4\n      mstore\n        /* \"#utility.yul\":3815:3830   */\n      swap3\n      dup5\n      add\n      swap3\n        /* \"#utility.yul\":3780:3792   */\n      swap2\n      dup5\n      add\n      swap2\n        /* \"#utility.yul\":3707:3708   */\n      0x01\n        /* \"#utility.yul\":3700:3709   */\n      add\n        /* \"#utility.yul\":3671:3840   */\n      jump(tag_625)\n    tag_627:\n      pop\n        /* \"#utility.yul\":3857:3860   */\n      swap1\n      swap7\n        /* \"#utility.yul\":3234:3866   */\n      swap6\n      pop\n      pop\n      pop\n      pop\n      pop\n      pop\n      jump\t// out\n        /* \"#utility.yul\":3871:3998   */\n    tag_257:\n        /* \"#utility.yul\":3932:3942   */\n      0x4e487b71\n        /* \"#utility.yul\":3927:3930   */\n      0xe0\n        /* \"#utility.yul\":3923:3943   */\n      shl\n        /* \"#utility.yul\":3920:3921   */\n      0x00\n        /* \"#utility.yul\":3913:3944   */\n      mstore\n        /* \"#utility.yul\":3963:3967   */\n      0x41\n        /* \"#utility.yul\":3960:3961   */\n      0x04\n        /* \"#utility.yul\":3953:3968   */\n      mstore\n        /* \"#utility.yul\":3987:3991   */\n      0x24\n        /* \"#utility.yul\":3984:3985   */\n      0x00\n        /* \"#utility.yul\":3977:3992   */\n      revert\n        /* \"#utility.yul\":4003:4635   */\n    tag_584:\n        /* \"#utility.yul\":4068:4073   */\n      0x00\n        /* \"#utility.yul\":4098:4116   */\n      0xffffffffffffffff\n        /* \"#utility.yul\":4139:4141   */\n      dup1\n        /* \"#utility.yul\":4131:4137   */\n      dup5\n        /* \"#utility.yul\":4128:4142   */\n      gt\n        /* \"#utility.yul\":4125:4165   */\n      iszero\n      tag_631\n      jumpi\n        /* \"#utility.yul\":4145:4163   */\n      tag_631\n      tag_257\n      jump\t// in\n    tag_631:\n        /* \"#utility.yul\":4220:4222   */\n      0x40\n        /* \"#utility.yul\":4214:4223   */\n      mload\n        /* \"#utility.yul\":4188:4190   */\n      0x1f\n        /* \"#utility.yul\":4274:4289   */\n      dup6\n      add\n      not(0x1f)\n        /* \"#utility.yul\":4270:4294   */\n      swap1\n      dup2\n      and\n        /* \"#utility.yul\":4296:4298   */\n      0x3f\n        /* \"#utility.yul\":4266:4299   */\n      add\n        /* \"#utility.yul\":4262:4304   */\n      and\n        /* \"#utility.yul\":4250:4305   */\n      dup2\n      add\n      swap1\n        /* \"#utility.yul\":4320:4338   */\n      dup3\n      dup3\n      gt\n        /* \"#utility.yul\":4340:4362   */\n      dup2\n      dup4\n      lt\n        /* \"#utility.yul\":4317:4363   */\n      or\n        /* \"#utility.yul\":4314:4386   */\n      iszero\n      tag_633\n      jumpi\n        /* \"#utility.yul\":4366:4384   */\n      tag_633\n      tag_257\n      jump\t// in\n    tag_633:\n        /* \"#utility.yul\":4406:4416   */\n      dup2\n        /* \"#utility.yul\":4402:4404   */\n      0x40\n        /* \"#utility.yul\":4395:4417   */\n      mstore\n        /* \"#utility.yul\":4435:4441   */\n      dup1\n        /* \"#utility.yul\":4426:4441   */\n      swap4\n      pop\n        /* \"#utility.yul\":4465:4471   */\n      dup6\n        /* \"#utility.yul\":4457:4463   */\n      dup2\n        /* \"#utility.yul\":4450:4472   */\n      mstore\n        /* \"#utility.yul\":4505:4508   */\n      dup7\n        /* \"#utility.yul\":4496:4502   */\n      dup7\n        /* \"#utility.yul\":4491:4494   */\n      dup7\n        /* \"#utility.yul\":4487:4503   */\n      add\n        /* \"#utility.yul\":4484:4509   */\n      gt\n        /* \"#utility.yul\":4481:4526   */\n      iszero\n      tag_634\n      jumpi\n        /* \"#utility.yul\":4522:4523   */\n      0x00\n        /* \"#utility.yul\":4519:4520   */\n      dup1\n        /* \"#utility.yul\":4512:4524   */\n      revert\n        /* \"#utility.yul\":4481:4526   */\n    tag_634:\n        /* \"#utility.yul\":4572:4578   */\n      dup6\n        /* \"#utility.yul\":4567:4570   */\n      dup6\n        /* \"#utility.yul\":4560:4564   */\n      0x20\n        /* \"#utility.yul\":4552:4558   */\n      dup4\n        /* \"#utility.yul\":4548:4565   */\n      add\n        /* \"#utility.yul\":4535:4579   */\n      calldatacopy\n        /* \"#utility.yul\":4627:4628   */\n      0x00\n        /* \"#utility.yul\":4620:4624   */\n      0x20\n        /* \"#utility.yul\":4611:4617   */\n      dup8\n        /* \"#utility.yul\":4603:4609   */\n      dup4\n        /* \"#utility.yul\":4599:4618   */\n      add\n        /* \"#utility.yul\":4595:4625   */\n      add\n        /* \"#utility.yul\":4588:4629   */\n      mstore\n      pop\n      pop\n      pop\n        /* \"#utility.yul\":4003:4635   */\n      swap4\n      swap3\n      pop\n      pop\n      pop\n      jump\t// out\n        /* \"#utility.yul\":4640:5091   */\n    tag_118:\n        /* \"#utility.yul\":4709:4715   */\n      0x00\n        /* \"#utility.yul\":4762:4764   */\n      0x20\n        /* \"#utility.yul\":4750:4759   */\n      dup3\n        /* \"#utility.yul\":4741:4748   */\n      dup5\n        /* \"#utility.yul\":4737:4760   */\n      sub\n        /* \"#utility.yul\":4733:4765   */\n      slt\n        /* \"#utility.yul\":4730:4782   */\n      iszero\n      tag_636\n      jumpi\n        /* \"#utility.yul\":4778:4779   */\n      0x00\n        /* \"#utility.yul\":4775:4776   */\n      dup1\n        /* \"#utility.yul\":4768:4780   */\n      revert\n        /* \"#utility.yul\":4730:4782   */\n    tag_636:\n        /* \"#utility.yul\":4818:4827   */\n      dup2\n        /* \"#utility.yul\":4805:4828   */\n      calldataload\n        /* \"#utility.yul\":4851:4869   */\n      0xffffffffffffffff\n        /* \"#utility.yul\":4843:4849   */\n      dup2\n        /* \"#utility.yul\":4840:4870   */\n      gt\n        /* \"#utility.yul\":4837:4887   */\n      iszero\n      tag_637\n      jumpi\n        /* \"#utility.yul\":4883:4884   */\n      0x00\n        /* \"#utility.yul\":4880:4881   */\n      dup1\n        /* \"#utility.yul\":4873:4885   */\n      revert\n        /* \"#utility.yul\":4837:4887   */\n    tag_637:\n        /* \"#utility.yul\":4906:4928   */\n      dup3\n      add\n        /* \"#utility.yul\":4959:4963   */\n      0x1f\n        /* \"#utility.yul\":4951:4964   */\n      dup2\n      add\n        /* \"#utility.yul\":4947:4974   */\n      dup5\n      sgt\n        /* \"#utility.yul\":4937:4992   */\n      tag_638\n      jumpi\n        /* \"#utility.yul\":4988:4989   */\n      0x00\n        /* \"#utility.yul\":4985:4986   */\n      dup1\n        /* \"#utility.yul\":4978:4990   */\n      revert\n        /* \"#utility.yul\":4937:4992   */\n    tag_638:\n        /* \"#utility.yul\":5011:5085   */\n      tag_400\n        /* \"#utility.yul\":5077:5084   */\n      dup5\n        /* \"#utility.yul\":5072:5074   */\n      dup3\n        /* \"#utility.yul\":5059:5075   */\n      calldataload\n        /* \"#utility.yul\":5054:5056   */\n      0x20\n        /* \"#utility.yul\":5050:5052   */\n      dup5\n        /* \"#utility.yul\":5046:5057   */\n      add\n        /* \"#utility.yul\":5011:5085   */\n      tag_584\n      jump\t// in\n        /* \"#utility.yul\":5096:5350   */\n    tag_176:\n        /* \"#utility.yul\":5161:5167   */\n      0x00\n        /* \"#utility.yul\":5169:5175   */\n      dup1\n        /* \"#utility.yul\":5222:5224   */\n      0x40\n        /* \"#utility.yul\":5210:5219   */\n      dup4\n        /* \"#utility.yul\":5201:5208   */\n      dup6\n        /* \"#utility.yul\":5197:5220   */\n      sub\n        /* \"#utility.yul\":5193:5225   */\n      slt\n        /* \"#utility.yul\":5190:5242   */\n      iszero\n      tag_641\n      jumpi\n        /* \"#utility.yul\":5238:5239   */\n      0x00\n        /* \"#utility.yul\":5235:5236   */\n      dup1\n        /* \"#utility.yul\":5228:5240   */\n      revert\n        /* \"#utility.yul\":5190:5242   */\n    tag_641:\n        /* \"#utility.yul\":5261:5290   */\n      tag_642\n        /* \"#utility.yul\":5280:5289   */\n      dup4\n        /* \"#utility.yul\":5261:5290   */\n      tag_583\n      jump\t// in\n    tag_642:\n        /* \"#utility.yul\":5251:5290   */\n      swap2\n      pop\n        /* \"#utility.yul\":5309:5344   */\n      tag_643\n        /* \"#utility.yul\":5340:5342   */\n      0x20\n        /* \"#utility.yul\":5329:5338   */\n      dup5\n        /* \"#utility.yul\":5325:5343   */\n      add\n        /* \"#utility.yul\":5309:5344   */\n      tag_580\n      jump\t// in\n    tag_643:\n        /* \"#utility.yul\":5299:5344   */\n      swap1\n      pop\n        /* \"#utility.yul\":5096:5350   */\n      swap3\n      pop\n      swap3\n      swap1\n      pop\n      jump\t// out\n        /* \"#utility.yul\":5355:6022   */\n    tag_181:\n        /* \"#utility.yul\":5450:5456   */\n      0x00\n        /* \"#utility.yul\":5458:5464   */\n      dup1\n        /* \"#utility.yul\":5466:5472   */\n      0x00\n        /* \"#utility.yul\":5474:5480   */\n      dup1\n        /* \"#utility.yul\":5527:5530   */\n      0x80\n        /* \"#utility.yul\":5515:5524   */\n      dup6\n        /* \"#utility.yul\":5506:5513   */\n      dup8\n        /* \"#utility.yul\":5502:5525   */\n      sub\n        /* \"#utility.yul\":5498:5531   */\n      slt\n        /* \"#utility.yul\":5495:5548   */\n      iszero\n      tag_645\n      jumpi\n        /* \"#utility.yul\":5544:5545   */\n      0x00\n        /* \"#utility.yul\":5541:5542   */\n      dup1\n        /* \"#utility.yul\":5534:5546   */\n      revert\n        /* \"#utility.yul\":5495:5548   */\n    tag_645:\n        /* \"#utility.yul\":5567:5596   */\n      tag_646\n        /* \"#utility.yul\":5586:5595   */\n      dup6\n        /* \"#utility.yul\":5567:5596   */\n      tag_583\n      jump\t// in\n    tag_646:\n        /* \"#utility.yul\":5557:5596   */\n      swap4\n      pop\n        /* \"#utility.yul\":5615:5653   */\n      tag_647\n        /* \"#utility.yul\":5649:5651   */\n      0x20\n        /* \"#utility.yul\":5638:5647   */\n      dup7\n        /* \"#utility.yul\":5634:5652   */\n      add\n        /* \"#utility.yul\":5615:5653   */\n      tag_583\n      jump\t// in\n    tag_647:\n        /* \"#utility.yul\":5605:5653   */\n      swap3\n      pop\n        /* \"#utility.yul\":5700:5702   */\n      0x40\n        /* \"#utility.yul\":5689:5698   */\n      dup6\n        /* \"#utility.yul\":5685:5703   */\n      add\n        /* \"#utility.yul\":5672:5704   */\n      calldataload\n        /* \"#utility.yul\":5662:5704   */\n      swap2\n      pop\n        /* \"#utility.yul\":5755:5757   */\n      0x60\n        /* \"#utility.yul\":5744:5753   */\n      dup6\n        /* \"#utility.yul\":5740:5758   */\n      add\n        /* \"#utility.yul\":5727:5759   */\n      calldataload\n        /* \"#utility.yul\":5782:5800   */\n      0xffffffffffffffff\n        /* \"#utility.yul\":5774:5780   */\n      dup2\n        /* \"#utility.yul\":5771:5801   */\n      gt\n        /* \"#utility.yul\":5768:5818   */\n      iszero\n      tag_648\n      jumpi\n        /* \"#utility.yul\":5814:5815   */\n      0x00\n        /* \"#utility.yul\":5811:5812   */\n      dup1\n        /* \"#utility.yul\":5804:5816   */\n      revert\n        /* \"#utility.yul\":5768:5818   */\n    tag_648:\n        /* \"#utility.yul\":5837:5859   */\n      dup6\n      add\n        /* \"#utility.yul\":5890:5894   */\n      0x1f\n        /* \"#utility.yul\":5882:5895   */\n      dup2\n      add\n        /* \"#utility.yul\":5878:5905   */\n      dup8\n      sgt\n        /* \"#utility.yul\":5868:5923   */\n      tag_649\n      jumpi\n        /* \"#utility.yul\":5919:5920   */\n      0x00\n        /* \"#utility.yul\":5916:5917   */\n      dup1\n        /* \"#utility.yul\":5909:5921   */\n      revert\n        /* \"#utility.yul\":5868:5923   */\n    tag_649:\n        /* \"#utility.yul\":5942:6016   */\n      tag_650\n        /* \"#utility.yul\":6008:6015   */\n      dup8\n        /* \"#utility.yul\":6003:6005   */\n      dup3\n        /* \"#utility.yul\":5990:6006   */\n      calldataload\n        /* \"#utility.yul\":5985:5987   */\n      0x20\n        /* \"#utility.yul\":5981:5983   */\n      dup5\n        /* \"#utility.yul\":5977:5988   */\n      add\n        /* \"#utility.yul\":5942:6016   */\n      tag_584\n      jump\t// in\n    tag_650:\n        /* \"#utility.yul\":5932:6016   */\n      swap2\n      pop\n      pop\n        /* \"#utility.yul\":5355:6022   */\n      swap3\n      swap6\n      swap2\n      swap5\n      pop\n      swap3\n      pop\n      jump\t// out\n        /* \"#utility.yul\":6027:6287   */\n    tag_195:\n        /* \"#utility.yul\":6095:6101   */\n      0x00\n        /* \"#utility.yul\":6103:6109   */\n      dup1\n        /* \"#utility.yul\":6156:6158   */\n      0x40\n        /* \"#utility.yul\":6144:6153   */\n      dup4\n        /* \"#utility.yul\":6135:6142   */\n      dup6\n        /* \"#utility.yul\":6131:6154   */\n      sub\n        /* \"#utility.yul\":6127:6159   */\n      slt\n        /* \"#utility.yul\":6124:6176   */\n      iszero\n      tag_652\n      jumpi\n        /* \"#utility.yul\":6172:6173   */\n      0x00\n        /* \"#utility.yul\":6169:6170   */\n      dup1\n        /* \"#utility.yul\":6162:6174   */\n      revert\n        /* \"#utility.yul\":6124:6176   */\n    tag_652:\n        /* \"#utility.yul\":6195:6224   */\n      tag_653\n        /* \"#utility.yul\":6214:6223   */\n      dup4\n        /* \"#utility.yul\":6195:6224   */\n      tag_583\n      jump\t// in\n    tag_653:\n        /* \"#utility.yul\":6185:6224   */\n      swap2\n      pop\n        /* \"#utility.yul\":6243:6281   */\n      tag_643\n        /* \"#utility.yul\":6277:6279   */\n      0x20\n        /* \"#utility.yul\":6266:6275   */\n      dup5\n        /* \"#utility.yul\":6262:6280   */\n      add\n        /* \"#utility.yul\":6243:6281   */\n      tag_583\n      jump\t// in\n        /* \"#utility.yul\":6292:6672   */\n    tag_214:\n        /* \"#utility.yul\":6371:6372   */\n      0x01\n        /* \"#utility.yul\":6367:6379   */\n      dup2\n      dup2\n      shr\n      swap1\n        /* \"#utility.yul\":6414:6426   */\n      dup3\n      and\n      dup1\n        /* \"#utility.yul\":6435:6496   */\n      tag_656\n      jumpi\n        /* \"#utility.yul\":6489:6493   */\n      0x7f\n        /* \"#utility.yul\":6481:6487   */\n      dup3\n        /* \"#utility.yul\":6477:6494   */\n      and\n        /* \"#utility.yul\":6467:6494   */\n      swap2\n      pop\n        /* \"#utility.yul\":6435:6496   */\n    tag_656:\n        /* \"#utility.yul\":6542:6544   */\n      0x20\n        /* \"#utility.yul\":6534:6540   */\n      dup3\n        /* \"#utility.yul\":6531:6545   */\n      lt\n        /* \"#utility.yul\":6511:6529   */\n      dup2\n        /* \"#utility.yul\":6508:6546   */\n      sub\n        /* \"#utility.yul\":6505:6666   */\n      tag_657\n      jumpi\n        /* \"#utility.yul\":6588:6598   */\n      0x4e487b71\n        /* \"#utility.yul\":6583:6586   */\n      0xe0\n        /* \"#utility.yul\":6579:6599   */\n      shl\n        /* \"#utility.yul\":6576:6577   */\n      0x00\n        /* \"#utility.yul\":6569:6600   */\n      mstore\n        /* \"#utility.yul\":6623:6627   */\n      0x22\n        /* \"#utility.yul\":6620:6621   */\n      0x04\n        /* \"#utility.yul\":6613:6628   */\n      mstore\n        /* \"#utility.yul\":6651:6655   */\n      0x24\n        /* \"#utility.yul\":6648:6649   */\n      0x00\n        /* \"#utility.yul\":6641:6656   */\n      revert\n        /* \"#utility.yul\":6505:6666   */\n    tag_657:\n      pop\n        /* \"#utility.yul\":6292:6672   */\n      swap2\n      swap1\n      pop\n      jump\t// out\n        /* \"#utility.yul\":7336:7463   */\n    tag_265:\n        /* \"#utility.yul\":7397:7407   */\n      0x4e487b71\n        /* \"#utility.yul\":7392:7395   */\n      0xe0\n        /* \"#utility.yul\":7388:7408   */\n      shl\n        /* \"#utility.yul\":7385:7386   */\n      0x00\n        /* \"#utility.yul\":7378:7409   */\n      mstore\n        /* \"#utility.yul\":7428:7432   */\n      0x32\n        /* \"#utility.yul\":7425:7426   */\n      0x04\n        /* \"#utility.yul\":7418:7433   */\n      mstore\n        /* \"#utility.yul\":7452:7456   */\n      0x24\n        /* \"#utility.yul\":7449:7450   */\n      0x00\n        /* \"#utility.yul\":7442:7457   */\n      revert\n        /* \"#utility.yul\":7594:8112   */\n    tag_586:\n        /* \"#utility.yul\":7696:7698   */\n      0x1f\n        /* \"#utility.yul\":7691:7694   */\n      dup3\n        /* \"#utility.yul\":7688:7699   */\n      gt\n        /* \"#utility.yul\":7685:8106   */\n      iszero\n      tag_249\n      jumpi\n        /* \"#utility.yul\":7732:7737   */\n      dup1\n        /* \"#utility.yul\":7729:7730   */\n      0x00\n        /* \"#utility.yul\":7722:7738   */\n      mstore\n        /* \"#utility.yul\":7776:7780   */\n      0x20\n        /* \"#utility.yul\":7773:7774   */\n      0x00\n        /* \"#utility.yul\":7763:7781   */\n      keccak256\n        /* \"#utility.yul\":7846:7848   */\n      0x1f\n        /* \"#utility.yul\":7834:7844   */\n      dup5\n        /* \"#utility.yul\":7830:7849   */\n      add\n        /* \"#utility.yul\":7827:7828   */\n      0x05\n        /* \"#utility.yul\":7823:7850   */\n      shr\n        /* \"#utility.yul\":7817:7821   */\n      dup2\n        /* \"#utility.yul\":7813:7851   */\n      add\n        /* \"#utility.yul\":7882:7886   */\n      0x20\n        /* \"#utility.yul\":7870:7880   */\n      dup6\n        /* \"#utility.yul\":7867:7887   */\n      lt\n        /* \"#utility.yul\":7864:7911   */\n      iszero\n      tag_664\n      jumpi\n      pop\n        /* \"#utility.yul\":7905:7909   */\n      dup1\n        /* \"#utility.yul\":7864:7911   */\n    tag_664:\n        /* \"#utility.yul\":7960:7962   */\n      0x1f\n        /* \"#utility.yul\":7955:7958   */\n      dup5\n        /* \"#utility.yul\":7951:7963   */\n      add\n        /* \"#utility.yul\":7948:7949   */\n      0x05\n        /* \"#utility.yul\":7944:7964   */\n      shr\n        /* \"#utility.yul\":7938:7942   */\n      dup3\n        /* \"#utility.yul\":7934:7965   */\n      add\n        /* \"#utility.yul\":7924:7965   */\n      swap2\n      pop\n        /* \"#utility.yul\":8015:8096   */\n    tag_665:\n        /* \"#utility.yul\":8033:8035   */\n      dup2\n        /* \"#utility.yul\":8026:8031   */\n      dup2\n        /* \"#utility.yul\":8023:8036   */\n      lt\n        /* \"#utility.yul\":8015:8096   */\n      iszero\n      tag_445\n      jumpi\n        /* \"#utility.yul\":8092:8093   */\n      0x00\n        /* \"#utility.yul\":8078:8094   */\n      dup2\n      sstore\n        /* \"#utility.yul\":8059:8060   */\n      0x01\n        /* \"#utility.yul\":8048:8061   */\n      add\n        /* \"#utility.yul\":8015:8096   */\n      jump(tag_665)\n        /* \"#utility.yul\":8288:9633   */\n    tag_277:\n        /* \"#utility.yul\":8414:8417   */\n      dup2\n        /* \"#utility.yul\":8408:8418   */\n      mload\n        /* \"#utility.yul\":8441:8459   */\n      0xffffffffffffffff\n        /* \"#utility.yul\":8433:8439   */\n      dup2\n        /* \"#utility.yul\":8430:8460   */\n      gt\n        /* \"#utility.yul\":8427:8483   */\n      iszero\n      tag_671\n      jumpi\n        /* \"#utility.yul\":8463:8481   */\n      tag_671\n      tag_257\n      jump\t// in\n    tag_671:\n        /* \"#utility.yul\":8492:8589   */\n      tag_672\n        /* \"#utility.yul\":8582:8588   */\n      dup2\n        /* \"#utility.yul\":8542:8580   */\n      tag_673\n        /* \"#utility.yul\":8574:8578   */\n      dup5\n        /* \"#utility.yul\":8568:8579   */\n      sload\n        /* \"#utility.yul\":8542:8580   */\n      tag_214\n      jump\t// in\n    tag_673:\n        /* \"#utility.yul\":8536:8540   */\n      dup5\n        /* \"#utility.yul\":8492:8589   */\n      tag_586\n      jump\t// in\n    tag_672:\n        /* \"#utility.yul\":8644:8648   */\n      0x20\n      dup1\n        /* \"#utility.yul\":8701:8703   */\n      0x1f\n        /* \"#utility.yul\":8690:8704   */\n      dup4\n      gt\n        /* \"#utility.yul\":8718:8719   */\n      0x01\n        /* \"#utility.yul\":8713:9376   */\n      dup2\n      eq\n      tag_675\n      jumpi\n        /* \"#utility.yul\":9420:9421   */\n      0x00\n        /* \"#utility.yul\":9437:9443   */\n      dup5\n        /* \"#utility.yul\":9434:9523   */\n      iszero\n      tag_676\n      jumpi\n      pop\n        /* \"#utility.yul\":9489:9508   */\n      dup6\n      dup4\n      add\n        /* \"#utility.yul\":9483:9509   */\n      mload\n        /* \"#utility.yul\":9434:9523   */\n    tag_676:\n      not(0x00)\n        /* \"#utility.yul\":8245:8246   */\n      0x03\n        /* \"#utility.yul\":8241:8252   */\n      dup7\n      swap1\n      shl\n        /* \"#utility.yul\":8237:8261   */\n      shr\n        /* \"#utility.yul\":8233:8262   */\n      not\n        /* \"#utility.yul\":8223:8263   */\n      and\n        /* \"#utility.yul\":8269:8270   */\n      0x01\n        /* \"#utility.yul\":8265:8276   */\n      dup6\n      swap1\n      shl\n        /* \"#utility.yul\":8220:8277   */\n      or\n        /* \"#utility.yul\":9536:9617   */\n      dup6\n      sstore\n        /* \"#utility.yul\":8683:9627   */\n      jump(tag_674)\n        /* \"#utility.yul\":8713:9376   */\n    tag_675:\n        /* \"#utility.yul\":7541:7542   */\n      0x00\n        /* \"#utility.yul\":7534:7548   */\n      dup6\n      dup2\n      mstore\n        /* \"#utility.yul\":7578:7582   */\n      0x20\n        /* \"#utility.yul\":7565:7583   */\n      dup2\n      keccak256\n      not(0x1f)\n        /* \"#utility.yul\":8749:8769   */\n      dup7\n      and\n      swap2\n        /* \"#utility.yul\":8867:9103   */\n    tag_679:\n        /* \"#utility.yul\":8881:8888   */\n      dup3\n        /* \"#utility.yul\":8878:8879   */\n      dup2\n        /* \"#utility.yul\":8875:8889   */\n      lt\n        /* \"#utility.yul\":8867:9103   */\n      iszero\n      tag_681\n      jumpi\n        /* \"#utility.yul\":8970:8989   */\n      dup9\n      dup7\n      add\n        /* \"#utility.yul\":8964:8990   */\n      mload\n        /* \"#utility.yul\":8949:8991   */\n      dup3\n      sstore\n        /* \"#utility.yul\":9062:9089   */\n      swap5\n      dup5\n      add\n      swap5\n        /* \"#utility.yul\":9030:9031   */\n      0x01\n        /* \"#utility.yul\":9018:9032   */\n      swap1\n      swap2\n      add\n      swap1\n        /* \"#utility.yul\":8897:8916   */\n      dup5\n      add\n        /* \"#utility.yul\":8867:9103   */\n      jump(tag_679)\n    tag_681:\n        /* \"#utility.yul\":8871:8874   */\n      pop\n        /* \"#utility.yul\":9131:9137   */\n      dup6\n        /* \"#utility.yul\":9122:9129   */\n      dup3\n        /* \"#utility.yul\":9119:9138   */\n      lt\n        /* \"#utility.yul\":9116:9317   */\n      iszero\n      tag_682\n      jumpi\n        /* \"#utility.yul\":9192:9211   */\n      dup8\n      dup6\n      add\n        /* \"#utility.yul\":9186:9212   */\n      mload\n      not(0x00)\n        /* \"#utility.yul\":9275:9276   */\n      0x03\n        /* \"#utility.yul\":9271:9285   */\n      dup9\n      swap1\n      shl\n        /* \"#utility.yul\":9287:9290   */\n      0xf8\n        /* \"#utility.yul\":9267:9291   */\n      and\n        /* \"#utility.yul\":9263:9300   */\n      shr\n        /* \"#utility.yul\":9259:9301   */\n      not\n        /* \"#utility.yul\":9244:9302   */\n      and\n        /* \"#utility.yul\":9229:9303   */\n      dup2\n      sstore\n        /* \"#utility.yul\":9116:9317   */\n    tag_682:\n      pop\n      pop\n        /* \"#utility.yul\":9363:9364   */\n      0x01\n        /* \"#utility.yul\":9354:9360   */\n      dup5\n        /* \"#utility.yul\":9351:9352   */\n      0x01\n        /* \"#utility.yul\":9347:9361   */\n      shl\n        /* \"#utility.yul\":9343:9365   */\n      add\n        /* \"#utility.yul\":9337:9341   */\n      dup6\n        /* \"#utility.yul\":9330:9366   */\n      sstore\n        /* \"#utility.yul\":8683:9627   */\n    tag_674:\n      pop\n      pop\n      pop\n      pop\n        /* \"#utility.yul\":8288:9633   */\n      pop\n      pop\n      jump\t// out\n        /* \"#utility.yul\":10665:11161   */\n    tag_358:\n        /* \"#utility.yul\":10844:10847   */\n      0x00\n        /* \"#utility.yul\":10882:10888   */\n      dup4\n        /* \"#utility.yul\":10876:10889   */\n      mload\n        /* \"#utility.yul\":10898:10964   */\n      tag_687\n        /* \"#utility.yul\":10957:10963   */\n      dup2\n        /* \"#utility.yul\":10952:10955   */\n      dup5\n        /* \"#utility.yul\":10945:10949   */\n      0x20\n        /* \"#utility.yul\":10937:10943   */\n      dup9\n        /* \"#utility.yul\":10933:10950   */\n      add\n        /* \"#utility.yul\":10898:10964   */\n      tag_581\n      jump\t// in\n    tag_687:\n        /* \"#utility.yul\":11027:11040   */\n      dup4\n      mload\n        /* \"#utility.yul\":10986:11002   */\n      swap1\n      dup4\n      add\n      swap1\n        /* \"#utility.yul\":11049:11119   */\n      tag_688\n        /* \"#utility.yul\":11027:11040   */\n      dup2\n        /* \"#utility.yul\":10986:11002   */\n      dup4\n        /* \"#utility.yul\":11096:11100   */\n      0x20\n        /* \"#utility.yul\":11084:11101   */\n      dup9\n      add\n        /* \"#utility.yul\":11049:11119   */\n      tag_581\n      jump\t// in\n    tag_688:\n        /* \"#utility.yul\":11135:11155   */\n      add\n      swap5\n        /* \"#utility.yul\":10665:11161   */\n      swap4\n      pop\n      pop\n      pop\n      pop\n      jump\t// out\n        /* \"#utility.yul\":11721:12210   */\n    tag_431:\n      sub(shl(0xa0, 0x01), 0x01)\n        /* \"#utility.yul\":11990:12005   */\n      dup6\n      dup2\n      and\n        /* \"#utility.yul\":11972:12006   */\n      dup3\n      mstore\n        /* \"#utility.yul\":12042:12057   */\n      dup5\n      and\n        /* \"#utility.yul\":12037:12039   */\n      0x20\n        /* \"#utility.yul\":12022:12040   */\n      dup3\n      add\n        /* \"#utility.yul\":12015:12058   */\n      mstore\n        /* \"#utility.yul\":12089:12091   */\n      0x40\n        /* \"#utility.yul\":12074:12092   */\n      dup2\n      add\n        /* \"#utility.yul\":12067:12101   */\n      dup4\n      swap1\n      mstore\n        /* \"#utility.yul\":12137:12140   */\n      0x80\n        /* \"#utility.yul\":12132:12134   */\n      0x60\n        /* \"#utility.yul\":12117:12135   */\n      dup3\n      add\n        /* \"#utility.yul\":12110:12141   */\n      dup2\n      swap1\n      mstore\n        /* \"#utility.yul\":11915:11919   */\n      0x00\n      swap1\n        /* \"#utility.yul\":12158:12204   */\n      tag_692\n      swap1\n        /* \"#utility.yul\":12184:12203   */\n      dup4\n      add\n        /* \"#utility.yul\":12176:12182   */\n      dup5\n        /* \"#utility.yul\":12158:12204   */\n      tag_582\n      jump\t// in\n    tag_692:\n        /* \"#utility.yul\":12150:12204   */\n      swap7\n        /* \"#utility.yul\":11721:12210   */\n      swap6\n      pop\n      pop\n      pop\n      pop\n      pop\n      pop\n      jump\t// out\n        /* \"#utility.yul\":12215:12464   */\n    tag_434:\n        /* \"#utility.yul\":12284:12290   */\n      0x00\n        /* \"#utility.yul\":12337:12339   */\n      0x20\n        /* \"#utility.yul\":12325:12334   */\n      dup3\n        /* \"#utility.yul\":12316:12323   */\n      dup5\n        /* \"#utility.yul\":12312:12335   */\n      sub\n        /* \"#utility.yul\":12308:12340   */\n      slt\n        /* \"#utility.yul\":12305:12357   */\n      iszero\n      tag_694\n      jumpi\n        /* \"#utility.yul\":12353:12354   */\n      0x00\n        /* \"#utility.yul\":12350:12351   */\n      dup1\n        /* \"#utility.yul\":12343:12355   */\n      revert\n        /* \"#utility.yul\":12305:12357   */\n    tag_694:\n        /* \"#utility.yul\":12385:12394   */\n      dup2\n        /* \"#utility.yul\":12379:12395   */\n      mload\n        /* \"#utility.yul\":12404:12434   */\n      tag_354\n        /* \"#utility.yul\":12428:12433   */\n      dup2\n        /* \"#utility.yul\":12404:12434   */\n      tag_579\n      jump\t// in\n        /* \"#utility.yul\":12601:12826   */\n    tag_551:\n        /* \"#utility.yul\":12668:12677   */\n      dup2\n      dup2\n      sub\n        /* \"#utility.yul\":12689:12700   */\n      dup2\n      dup2\n      gt\n        /* \"#utility.yul\":12686:12820   */\n      iszero\n      tag_222\n      jumpi\n        /* \"#utility.yul\":12742:12752   */\n      0x4e487b71\n        /* \"#utility.yul\":12737:12740   */\n      0xe0\n        /* \"#utility.yul\":12733:12753   */\n      shl\n        /* \"#utility.yul\":12730:12731   */\n      0x00\n        /* \"#utility.yul\":12723:12754   */\n      mstore\n        /* \"#utility.yul\":12777:12781   */\n      0x11\n        /* \"#utility.yul\":12774:12775   */\n      0x04\n        /* \"#utility.yul\":12767:12782   */\n      mstore\n        /* \"#utility.yul\":12805:12809   */\n      0x24\n        /* \"#utility.yul\":12802:12803   */\n      0x00\n        /* \"#utility.yul\":12795:12810   */\n      revert\n        /* \"#utility.yul\":12831:12958   */\n    tag_560:\n        /* \"#utility.yul\":12892:12902   */\n      0x4e487b71\n        /* \"#utility.yul\":12887:12890   */\n      0xe0\n        /* \"#utility.yul\":12883:12903   */\n      shl\n        /* \"#utility.yul\":12880:12881   */\n      0x00\n        /* \"#utility.yul\":12873:12904   */\n      mstore\n        /* \"#utility.yul\":12923:12927   */\n      0x31\n        /* \"#utility.yul\":12920:12921   */\n      0x04\n        /* \"#utility.yul\":12913:12928   */\n      mstore\n        /* \"#utility.yul\":12947:12951   */\n      0x24\n        /* \"#utility.yul\":12944:12945   */\n      0x00\n        /* \"#utility.yul\":12937:12952   */\n      revert\n\n    auxdata: 0xa264697066735822122083242804998cc95079fd06aad388fd4d850544295d40ec7eabc942da3111f35764736f6c63430008170033\n}\n",
				"bytecode": {
					"linkReferences": {},
					"object": "60806040525f600d5534801562000014575f80fd5b50604051620022383803806200223883398101604081905262000037916200025b565b336040518060400160405280600c81526020016b426c6173742050616e64617360a01b8152506040518060400160405280600381526020016214139160ea1b815250815f9081620000899190620003b3565b506001620000988282620003b3565b5050506001600160a01b038116620000ca57604051631e4fbdf760e01b81525f60048201526024015b60405180910390fd5b620000d581620000ff565b50600a805460ff60a01b19169055620000ee8162000150565b620000f86200016c565b506200047f565b600a80546001600160a01b038381166001600160a01b0319831681179093556040519116919082907f8be0079c531659141344cd1fd0a4f28419497f9722a3daafe3b4186f6b6457e0905f90a35050565b6200015a62000182565b600c620001688282620003b3565b5050565b6200017662000182565b62000180620001b1565b565b600a546001600160a01b03163314620001805760405163118cdaa760e01b8152336004820152602401620000c1565b620001bb62000214565b600a805460ff60a01b1916600160a01b1790557f62e78cea01bee320cd4e420270b5ea74000d11b0c9f74754ebdbfc544b05a258620001f73390565b6040516001600160a01b03909116815260200160405180910390a1565b62000228600a54600160a01b900460ff1690565b15620001805760405163d93c066560e01b815260040160405180910390fd5b634e487b7160e01b5f52604160045260245ffd5b5f60208083850312156200026d575f80fd5b82516001600160401b038082111562000284575f80fd5b818501915085601f83011262000298575f80fd5b815181811115620002ad57620002ad62000247565b604051601f8201601f19908116603f01168101908382118183101715620002d857620002d862000247565b816040528281528886848701011115620002f0575f80fd5b5f93505b82841015620003135784840186015181850187015292850192620002f4565b5f86848301015280965050505050505092915050565b600181811c908216806200033e57607f821691505b6020821081036200035d57634e487b7160e01b5f52602260045260245ffd5b50919050565b601f821115620003ae57805f5260205f20601f840160051c810160208510156200038a5750805b601f840160051c820191505b81811015620003ab575f815560010162000396565b50505b505050565b81516001600160401b03811115620003cf57620003cf62000247565b620003e781620003e0845462000329565b8462000363565b602080601f8311600181146200041d575f8415620004055750858301515b5f19600386901b1c1916600185901b17855562000477565b5f85815260208120601f198616915b828110156200044d578886015182559484019460019091019084016200042c565b50858210156200046b57878501515f19600388901b60f8161c191681555b505060018460011b0185555b505050505050565b611dab806200048d5f395ff3fe6080604052600436106101fc575f3560e01c80636352211e1161011357806398d5fdca1161009d578063b88d4fde1161006d578063b88d4fde14610562578063c87b56dd14610581578063d547cfb7146105a0578063e985e9c5146105b4578063f2fde38b146105d3575f80fd5b806398d5fdca146104fb578063a035b1fe1461050f578063a144819414610524578063a22cb46514610543575f80fd5b80638456cb59116100e35780638456cb591461048f578063853828b6146104a35780638da5cb5b146104ab57806391b7f5ed146104c857806395d89b41146104e7575f80fd5b80636352211e1461042a5780636a6278421461044957806370a082311461045c578063715018a61461047b575f80fd5b80633502a71611610194578063438b630011610164578063438b63001461038e5780634f6ccce7146103ba57806355f804b3146103d957806359a7715a146103f85780635c975abb1461040c575f80fd5b80633502a716146103285780633f4ba83a1461033c57806342842e0e1461035057806342966c681461036f575f80fd5b8063095ea7b3116101cf578063095ea7b3146102ad57806318160ddd146102cc57806323b872dd146102ea5780632f745c5914610309575f80fd5b806301ffc9a71461020057806302329a291461023457806306fdde0314610255578063081812fc14610276575b5f80fd5b34801561020b575f80fd5b5061021f61021a366004611840565b505f90565b60405190151581526020015b60405180910390f35b34801561023f575f80fd5b5061025361024e36600461186f565b6105f2565b005b348015610260575f80fd5b50610269610617565b60405161022b91906118d5565b348015610281575f80fd5b506102956102903660046118e7565b6106a6565b6040516001600160a01b03909116815260200161022b565b3480156102b8575f80fd5b506102536102c7366004611914565b6106cf565b3480156102d7575f80fd5b506008545b60405190815260200161022b565b3480156102f5575f80fd5b5061025361030436600461193c565b6106de565b348015610314575f80fd5b506102dc610323366004611914565b61076c565b348015610333575f80fd5b506102dc606481565b348015610347575f80fd5b506102536107cf565b34801561035b575f80fd5b5061025361036a36600461193c565b6107e1565b34801561037a575f80fd5b506102536103893660046118e7565b610800565b348015610399575f80fd5b506103ad6103a8366004611975565b61080b565b60405161022b919061198e565b3480156103c5575f80fd5b506102dc6103d43660046118e7565b6108a0565b3480156103e4575f80fd5b506102536103f3366004611a58565b6108f5565b348015610403575f80fd5b506102dc610909565b348015610417575f80fd5b50600a54600160a01b900460ff1661021f565b348015610435575f80fd5b506102956104443660046118e7565b610917565b610253610457366004611975565b610921565b348015610467575f80fd5b506102dc610476366004611975565b610a55565b348015610486575f80fd5b50610253610a9a565b34801561049a575f80fd5b50610253610aab565b610253610abb565b3480156104b6575f80fd5b50600a546001600160a01b0316610295565b3480156104d3575f80fd5b506102536104e23660046118e7565b610ae8565b3480156104f2575f80fd5b50610269610af5565b348015610506575f80fd5b50600d546102dc565b34801561051a575f80fd5b506102dc600d5481565b34801561052f575f80fd5b5061025361053e366004611914565b610b04565b34801561054e575f80fd5b5061025361055d366004611a9d565b610b16565b34801561056d575f80fd5b5061025361057c366004611ace565b610b21565b34801561058c575f80fd5b5061026961059b3660046118e7565b610b38565b3480156105ab575f80fd5b50610269610b9d565b3480156105bf575f80fd5b5061021f6105ce366004611b45565b610c29565b3480156105de575f80fd5b506102536105ed366004611975565b610c56565b6105fa610c90565b80151560010361060f5761060c610cbd565b50565b61060c610d1d565b60605f805461062590611b6d565b80601f016020809104026020016040519081016040528092919081815260200182805461065190611b6d565b801561069c5780601f106106735761010080835404028352916020019161069c565b820191905f5260205f20905b81548152906001019060200180831161067f57829003601f168201915b5050505050905090565b5f6106b082610d59565b505f828152600460205260409020546001600160a01b03165b92915050565b6106da828233610d91565b5050565b6001600160a01b03821661070c57604051633250574960e11b81525f60048201526024015b60405180910390fd5b5f610718838333610d9e565b9050836001600160a01b0316816001600160a01b031614610766576040516364283d7b60e01b81526001600160a01b0380861660048301526024820184905282166044820152606401610703565b50505050565b5f61077683610a55565b82106107a75760405163295f44f760e21b81526001600160a01b038416600482015260248101839052604401610703565b506001600160a01b03919091165f908152600660209081526040808320938352929052205490565b6107d7610c90565b6107df610d1d565b565b6107fb83838360405180602001604052805f815250610b21565b505050565b6106da5f8233610d9e565b60605f61081783610a55565b90505f8167ffffffffffffffff811115610833576108336119d1565b60405190808252806020026020018201604052801561085c578160200160208202803683370190505b5090505f5b8281101561089857610873858261076c565b82828151811061088557610885611ba5565b6020908102919091010152600101610861565b509392505050565b5f6108aa60085490565b82106108d25760405163295f44f760e21b81525f600482015260248101839052604401610703565b600882815481106108e5576108e5611ba5565b905f5260205f2001549050919050565b6108fd610c90565b600c6106da8282611bfd565b5f610912610db2565b905090565b5f6106c982610d59565b606461092b610db2565b11156109645760405162461bcd60e51b815260206004820152600860248201526714d85b1948195b9960c21b6044820152606401610703565b600a546001600160a01b031633146109c357600a54600160a01b900460ff16156109c35760405162461bcd60e51b815260206004820152601060248201526f14185d5cd8589b194e881c185d5cd95960821b6044820152606401610703565b60646109cd610db2565b1115610a065760405162461bcd60e51b815260206004820152600860248201526714d85b1948195b9960c21b6044820152606401610703565b600d54341015610a4c5760405162461bcd60e51b815260206004820152601160248201527056616c75652062656c6f7720707269636560781b6044820152606401610703565b61060c81610dbc565b5f6001600160a01b038216610a7f576040516322718ad960e21b81525f6004820152602401610703565b506001600160a01b03165f9081526003602052604090205490565b610aa2610c90565b6107df5f610e0d565b610ab3610c90565b6107df610cbd565b610ac3610c90565b4780610acd575f80fd5b61060c610ae2600a546001600160a01b031690565b82610e5e565b610af0610c90565b600d55565b60606001805461062590611b6d565b610b0c610c90565b6106da8282610ef0565b6106da338383610f09565b610b2c8484846106de565b61076684848484610fa7565b6060610b4382610d59565b505f610b4d6110cd565b90505f815111610b6b5760405180602001604052805f815250610b96565b80610b75846110dc565b604051602001610b86929190611cbd565b6040516020818303038152906040525b9392505050565b600c8054610baa90611b6d565b80601f0160208091040260200160405190810160405280929190818152602001828054610bd690611b6d565b8015610c215780601f10610bf857610100808354040283529160200191610c21565b820191905f5260205f20905b815481529060010190602001808311610c0457829003601f168201915b505050505081565b6001600160a01b039182165f90815260056020908152604080832093909416825291909152205460ff1690565b610c5e610c90565b6001600160a01b038116610c8757604051631e4fbdf760e01b81525f6004820152602401610703565b61060c81610e0d565b600a546001600160a01b031633146107df5760405163118cdaa760e01b8152336004820152602401610703565b610cc561116c565b600a805460ff60a01b1916600160a01b1790557f62e78cea01bee320cd4e420270b5ea74000d11b0c9f74754ebdbfc544b05a258610d003390565b6040516001600160a01b03909116815260200160405180910390a1565b610d25611197565b600a805460ff60a01b191690557f5db9ee0a495bf2e6ff9c91a7834c1ba4fdd244a5e8aa4e537bd38aeae4b073aa33610d00565b5f818152600260205260408120546001600160a01b0316806106c957604051637e27328960e01b815260048101849052602401610703565b6107fb83838360016111c1565b5f610daa8484846112c5565b949350505050565b5f610912600b5490565b5f610dc5610db2565b9050610dd5600b80546001019055565b610ddf8282610ef0565b60405181907f4a31f5e942beb8b597b502856d8cfb28aa9a92c5619db46a50366af439563693905f90a25050565b600a80546001600160a01b038381166001600160a01b0319831681179093556040519116919082907f8be0079c531659141344cd1fd0a4f28419497f9722a3daafe3b4186f6b6457e0905f90a35050565b5f826001600160a01b0316826040515f6040518083038185875af1925050503d805f8114610ea7576040519150601f19603f3d011682016040523d82523d5f602084013e610eac565b606091505b50509050806107fb5760405162461bcd60e51b815260206004820152601060248201526f2a3930b739b332b9103330b4b632b21760811b6044820152606401610703565b6106da828260405180602001604052805f8152506112d9565b6001600160a01b038216610f3b57604051630b61174360e31b81526001600160a01b0383166004820152602401610703565b6001600160a01b038381165f81815260056020908152604080832094871680845294825291829020805460ff191686151590811790915591519182527f17307eab39ab6107e8899845ad3d59bd9653f200f220920489ca2b5937696c31910160405180910390a3505050565b6001600160a01b0383163b1561076657604051630a85bd0160e11b81526001600160a01b0384169063150b7a0290610fe9903390889087908790600401611ceb565b6020604051808303815f875af1925050508015611023575060408051601f3d908101601f1916820190925261102091810190611d27565b60015b61108a573d808015611050576040519150601f19603f3d011682016040523d82523d5f602084013e611055565b606091505b5080515f0361108257604051633250574960e11b81526001600160a01b0385166004820152602401610703565b805181602001fd5b6001600160e01b03198116630a85bd0160e11b146110c657604051633250574960e11b81526001600160a01b0385166004820152602401610703565b5050505050565b6060600c805461062590611b6d565b60605f6110e8836112ef565b60010190505f8167ffffffffffffffff811115611107576111076119d1565b6040519080825280601f01601f191660200182016040528015611131576020820181803683370190505b5090508181016020015b5f19016f181899199a1a9b1b9c1cb0b131b232b360811b600a86061a8153600a850494508461113b57509392505050565b600a54600160a01b900460ff16156107df5760405163d93c066560e01b815260040160405180910390fd5b600a54600160a01b900460ff166107df57604051638dfc202b60e01b815260040160405180910390fd5b80806111d557506001600160a01b03821615155b15611296575f6111e484610d59565b90506001600160a01b038316158015906112105750826001600160a01b0316816001600160a01b031614155b801561122357506112218184610c29565b155b1561124c5760405163a9fbf51f60e01b81526001600160a01b0384166004820152602401610703565b81156112945783856001600160a01b0316826001600160a01b03167f8c5be1e5ebec7d5bd14f71427d1e84f3dd0314c0f7b2291e5b200ac8c7c3b92560405160405180910390a45b505b50505f90815260046020526040902080546001600160a01b0319166001600160a01b0392909216919091179055565b5f6112ce61116c565b610daa8484846113c6565b6112e38383611491565b6107fb5f848484610fa7565b5f8072184f03e93ff9f4daa797ed6e38ed64bf6a1f0160401b831061132d5772184f03e93ff9f4daa797ed6e38ed64bf6a1f0160401b830492506040015b6d04ee2d6d415b85acef81000000008310611359576d04ee2d6d415b85acef8100000000830492506020015b662386f26fc10000831061137757662386f26fc10000830492506010015b6305f5e100831061138f576305f5e100830492506008015b61271083106113a357612710830492506004015b606483106113b5576064830492506002015b600a83106106c95760010192915050565b5f806113d38585856114f2565b90506001600160a01b03811661142f5761142a84600880545f838152600960205260408120829055600182018355919091527ff3f7a9fe364faab93b216da50a3214154f22a0a2b415b23a84c8169e8b636ee30155565b611452565b846001600160a01b0316816001600160a01b0316146114525761145281856115e4565b6001600160a01b03851661146e5761146984611671565b610daa565b846001600160a01b0316816001600160a01b031614610daa57610daa8585611718565b6001600160a01b0382166114ba57604051633250574960e11b81525f6004820152602401610703565b5f6114c683835f610d9e565b90506001600160a01b038116156107fb576040516339e3563760e11b81525f6004820152602401610703565b5f828152600260205260408120546001600160a01b039081169083161561151e5761151e818486611766565b6001600160a01b03811615611558576115395f855f806111c1565b6001600160a01b0381165f90815260036020526040902080545f190190555b6001600160a01b03851615611586576001600160a01b0385165f908152600360205260409020805460010190555b5f8481526002602052604080822080546001600160a01b0319166001600160a01b0389811691821790925591518793918516917fddf252ad1be2c89b69c2b068fc378daa952ba7f163c4a11628f55a4df523b3ef91a4949350505050565b5f6115ee83610a55565b5f8381526007602052604090205490915080821461163f576001600160a01b0384165f9081526006602090815260408083208584528252808320548484528184208190558352600790915290208190555b505f9182526007602090815260408084208490556001600160a01b039094168352600681528383209183525290812055565b6008545f9061168290600190611d42565b5f83815260096020526040812054600880549394509092849081106116a9576116a9611ba5565b905f5260205f200154905080600883815481106116c8576116c8611ba5565b5f9182526020808320909101929092558281526009909152604080822084905585825281205560088054806116ff576116ff611d61565b600190038181905f5260205f20015f9055905550505050565b5f600161172484610a55565b61172e9190611d42565b6001600160a01b039093165f908152600660209081526040808320868452825280832085905593825260079052919091209190915550565b6117718383836117ca565b6107fb576001600160a01b03831661179f57604051637e27328960e01b815260048101829052602401610703565b60405163177e802f60e01b81526001600160a01b038316600482015260248101829052604401610703565b5f6001600160a01b03831615801590610daa5750826001600160a01b0316846001600160a01b0316148061180357506118038484610c29565b80610daa5750505f908152600460205260409020546001600160a01b03908116911614919050565b6001600160e01b03198116811461060c575f80fd5b5f60208284031215611850575f80fd5b8135610b968161182b565b8035801515811461186a575f80fd5b919050565b5f6020828403121561187f575f80fd5b610b968261185b565b5f5b838110156118a257818101518382015260200161188a565b50505f910152565b5f81518084526118c1816020860160208601611888565b601f01601f19169290920160200192915050565b602081525f610b9660208301846118aa565b5f602082840312156118f7575f80fd5b5035919050565b80356001600160a01b038116811461186a575f80fd5b5f8060408385031215611925575f80fd5b61192e836118fe565b946020939093013593505050565b5f805f6060848603121561194e575f80fd5b611957846118fe565b9250611965602085016118fe565b9150604084013590509250925092565b5f60208284031215611985575f80fd5b610b96826118fe565b602080825282518282018190525f9190848201906040850190845b818110156119c5578351835292840192918401916001016119a9565b50909695505050505050565b634e487b7160e01b5f52604160045260245ffd5b5f67ffffffffffffffff808411156119ff576119ff6119d1565b604051601f8501601f19908116603f01168101908282118183101715611a2757611a276119d1565b81604052809350858152868686011115611a3f575f80fd5b858560208301375f602087830101525050509392505050565b5f60208284031215611a68575f80fd5b813567ffffffffffffffff811115611a7e575f80fd5b8201601f81018413611a8e575f80fd5b610daa848235602084016119e5565b5f8060408385031215611aae575f80fd5b611ab7836118fe565b9150611ac56020840161185b565b90509250929050565b5f805f8060808587031215611ae1575f80fd5b611aea856118fe565b9350611af8602086016118fe565b925060408501359150606085013567ffffffffffffffff811115611b1a575f80fd5b8501601f81018713611b2a575f80fd5b611b39878235602084016119e5565b91505092959194509250565b5f8060408385031215611b56575f80fd5b611b5f836118fe565b9150611ac5602084016118fe565b600181811c90821680611b8157607f821691505b602082108103611b9f57634e487b7160e01b5f52602260045260245ffd5b50919050565b634e487b7160e01b5f52603260045260245ffd5b601f8211156107fb57805f5260205f20601f840160051c81016020851015611bde5750805b601f840160051c820191505b818110156110c6575f8155600101611bea565b815167ffffffffffffffff811115611c1757611c176119d1565b611c2b81611c258454611b6d565b84611bb9565b602080601f831160018114611c5e575f8415611c475750858301515b5f19600386901b1c1916600185901b178555611cb5565b5f85815260208120601f198616915b82811015611c8c57888601518255948401946001909101908401611c6d565b5085821015611ca957878501515f19600388901b60f8161c191681555b505060018460011b0185555b505050505050565b5f8351611cce818460208801611888565b835190830190611ce2818360208801611888565b01949350505050565b6001600160a01b03858116825284166020820152604081018390526080606082018190525f90611d1d908301846118aa565b9695505050505050565b5f60208284031215611d37575f80fd5b8151610b968161182b565b818103818111156106c957634e487b7160e01b5f52601160045260245ffd5b634e487b7160e01b5f52603160045260245ffdfea264697066735822122083242804998cc95079fd06aad388fd4d850544295d40ec7eabc942da3111f35764736f6c63430008170033",
					"opcodes": "PUSH1 0x80 PUSH1 0x40 MSTORE PUSH0 PUSH1 0xD SSTORE CALLVALUE DUP1 ISZERO PUSH3 0x14 JUMPI PUSH0 DUP1 REVERT JUMPDEST POP PUSH1 0x40 MLOAD PUSH3 0x2238 CODESIZE SUB DUP1 PUSH3 0x2238 DUP4 CODECOPY DUP2 ADD PUSH1 0x40 DUP2 SWAP1 MSTORE PUSH3 0x37 SWAP2 PUSH3 0x25B JUMP JUMPDEST CALLER PUSH1 0x40 MLOAD DUP1 PUSH1 0x40 ADD PUSH1 0x40 MSTORE DUP1 PUSH1 0xC DUP2 MSTORE PUSH1 0x20 ADD PUSH12 0x426C6173742050616E646173 PUSH1 0xA0 SHL DUP2 MSTORE POP PUSH1 0x40 MLOAD DUP1 PUSH1 0x40 ADD PUSH1 0x40 MSTORE DUP1 PUSH1 0x3 DUP2 MSTORE PUSH1 0x20 ADD PUSH3 0x141391 PUSH1 0xEA SHL DUP2 MSTORE POP DUP2 PUSH0 SWAP1 DUP2 PUSH3 0x89 SWAP2 SWAP1 PUSH3 0x3B3 JUMP JUMPDEST POP PUSH1 0x1 PUSH3 0x98 DUP3 DUP3 PUSH3 0x3B3 JUMP JUMPDEST POP POP POP PUSH1 0x1 PUSH1 0x1 PUSH1 0xA0 SHL SUB DUP2 AND PUSH3 0xCA JUMPI PUSH1 0x40 MLOAD PUSH4 0x1E4FBDF7 PUSH1 0xE0 SHL DUP2 MSTORE PUSH0 PUSH1 0x4 DUP3 ADD MSTORE PUSH1 0x24 ADD JUMPDEST PUSH1 0x40 MLOAD DUP1 SWAP2 SUB SWAP1 REVERT JUMPDEST PUSH3 0xD5 DUP2 PUSH3 0xFF JUMP JUMPDEST POP PUSH1 0xA DUP1 SLOAD PUSH1 0xFF PUSH1 0xA0 SHL NOT AND SWAP1 SSTORE PUSH3 0xEE DUP2 PUSH3 0x150 JUMP JUMPDEST PUSH3 0xF8 PUSH3 0x16C JUMP JUMPDEST POP PUSH3 0x47F JUMP JUMPDEST PUSH1 0xA DUP1 SLOAD PUSH1 0x1 PUSH1 0x1 PUSH1 0xA0 SHL SUB DUP4 DUP2 AND PUSH1 0x1 PUSH1 0x1 PUSH1 0xA0 SHL SUB NOT DUP4 AND DUP2 OR SWAP1 SWAP4 SSTORE PUSH1 0x40 MLOAD SWAP2 AND SWAP2 SWAP1 DUP3 SWAP1 PUSH32 0x8BE0079C531659141344CD1FD0A4F28419497F9722A3DAAFE3B4186F6B6457E0 SWAP1 PUSH0 SWAP1 LOG3 POP POP JUMP JUMPDEST PUSH3 0x15A PUSH3 0x182 JUMP JUMPDEST PUSH1 0xC PUSH3 0x168 DUP3 DUP3 PUSH3 0x3B3 JUMP JUMPDEST POP POP JUMP JUMPDEST PUSH3 0x176 PUSH3 0x182 JUMP JUMPDEST PUSH3 0x180 PUSH3 0x1B1 JUMP JUMPDEST JUMP JUMPDEST PUSH1 0xA SLOAD PUSH1 0x1 PUSH1 0x1 PUSH1 0xA0 SHL SUB AND CALLER EQ PUSH3 0x180 JUMPI PUSH1 0x40 MLOAD PUSH4 0x118CDAA7 PUSH1 0xE0 SHL DUP2 MSTORE CALLER PUSH1 0x4 DUP3 ADD MSTORE PUSH1 0x24 ADD PUSH3 0xC1 JUMP JUMPDEST PUSH3 0x1BB PUSH3 0x214 JUMP JUMPDEST PUSH1 0xA DUP1 SLOAD PUSH1 0xFF PUSH1 0xA0 SHL NOT AND PUSH1 0x1 PUSH1 0xA0 SHL OR SWAP1 SSTORE PUSH32 0x62E78CEA01BEE320CD4E420270B5EA74000D11B0C9F74754EBDBFC544B05A258 PUSH3 0x1F7 CALLER SWAP1 JUMP JUMPDEST PUSH1 0x40 MLOAD PUSH1 0x1 PUSH1 0x1 PUSH1 0xA0 SHL SUB SWAP1 SWAP2 AND DUP2 MSTORE PUSH1 0x20 ADD PUSH1 0x40 MLOAD DUP1 SWAP2 SUB SWAP1 LOG1 JUMP JUMPDEST PUSH3 0x228 PUSH1 0xA SLOAD PUSH1 0x1 PUSH1 0xA0 SHL SWAP1 DIV PUSH1 0xFF AND SWAP1 JUMP JUMPDEST ISZERO PUSH3 0x180 JUMPI PUSH1 0x40 MLOAD PUSH4 0xD93C0665 PUSH1 0xE0 SHL DUP2 MSTORE PUSH1 0x4 ADD PUSH1 0x40 MLOAD DUP1 SWAP2 SUB SWAP1 REVERT JUMPDEST PUSH4 0x4E487B71 PUSH1 0xE0 SHL PUSH0 MSTORE PUSH1 0x41 PUSH1 0x4 MSTORE PUSH1 0x24 PUSH0 REVERT JUMPDEST PUSH0 PUSH1 0x20 DUP1 DUP4 DUP6 SUB SLT ISZERO PUSH3 0x26D JUMPI PUSH0 DUP1 REVERT JUMPDEST DUP3 MLOAD PUSH1 0x1 PUSH1 0x1 PUSH1 0x40 SHL SUB DUP1 DUP3 GT ISZERO PUSH3 0x284 JUMPI PUSH0 DUP1 REVERT JUMPDEST DUP2 DUP6 ADD SWAP2 POP DUP6 PUSH1 0x1F DUP4 ADD SLT PUSH3 0x298 JUMPI PUSH0 DUP1 REVERT JUMPDEST DUP2 MLOAD DUP2 DUP2 GT ISZERO PUSH3 0x2AD JUMPI PUSH3 0x2AD PUSH3 0x247 JUMP JUMPDEST PUSH1 0x40 MLOAD PUSH1 0x1F DUP3 ADD PUSH1 0x1F NOT SWAP1 DUP2 AND PUSH1 0x3F ADD AND DUP2 ADD SWAP1 DUP4 DUP3 GT DUP2 DUP4 LT OR ISZERO PUSH3 0x2D8 JUMPI PUSH3 0x2D8 PUSH3 0x247 JUMP JUMPDEST DUP2 PUSH1 0x40 MSTORE DUP3 DUP2 MSTORE DUP9 DUP7 DUP5 DUP8 ADD ADD GT ISZERO PUSH3 0x2F0 JUMPI PUSH0 DUP1 REVERT JUMPDEST PUSH0 SWAP4 POP JUMPDEST DUP3 DUP5 LT ISZERO PUSH3 0x313 JUMPI DUP5 DUP5 ADD DUP7 ADD MLOAD DUP2 DUP6 ADD DUP8 ADD MSTORE SWAP3 DUP6 ADD SWAP3 PUSH3 0x2F4 JUMP JUMPDEST PUSH0 DUP7 DUP5 DUP4 ADD ADD MSTORE DUP1 SWAP7 POP POP POP POP POP POP POP SWAP3 SWAP2 POP POP JUMP JUMPDEST PUSH1 0x1 DUP2 DUP2 SHR SWAP1 DUP3 AND DUP1 PUSH3 0x33E JUMPI PUSH1 0x7F DUP3 AND SWAP2 POP JUMPDEST PUSH1 0x20 DUP3 LT DUP2 SUB PUSH3 0x35D JUMPI PUSH4 0x4E487B71 PUSH1 0xE0 SHL PUSH0 MSTORE PUSH1 0x22 PUSH1 0x4 MSTORE PUSH1 0x24 PUSH0 REVERT JUMPDEST POP SWAP2 SWAP1 POP JUMP JUMPDEST PUSH1 0x1F DUP3 GT ISZERO PUSH3 0x3AE JUMPI DUP1 PUSH0 MSTORE PUSH1 0x20 PUSH0 KECCAK256 PUSH1 0x1F DUP5 ADD PUSH1 0x5 SHR DUP2 ADD PUSH1 0x20 DUP6 LT ISZERO PUSH3 0x38A JUMPI POP DUP1 JUMPDEST PUSH1 0x1F DUP5 ADD PUSH1 0x5 SHR DUP3 ADD SWAP2 POP JUMPDEST DUP2 DUP2 LT ISZERO PUSH3 0x3AB JUMPI PUSH0 DUP2 SSTORE PUSH1 0x1 ADD PUSH3 0x396 JUMP JUMPDEST POP POP JUMPDEST POP POP POP JUMP JUMPDEST DUP2 MLOAD PUSH1 0x1 PUSH1 0x1 PUSH1 0x40 SHL SUB DUP2 GT ISZERO PUSH3 0x3CF JUMPI PUSH3 0x3CF PUSH3 0x247 JUMP JUMPDEST PUSH3 0x3E7 DUP2 PUSH3 0x3E0 DUP5 SLOAD PUSH3 0x329 JUMP JUMPDEST DUP5 PUSH3 0x363 JUMP JUMPDEST PUSH1 0x20 DUP1 PUSH1 0x1F DUP4 GT PUSH1 0x1 DUP2 EQ PUSH3 0x41D JUMPI PUSH0 DUP5 ISZERO PUSH3 0x405 JUMPI POP DUP6 DUP4 ADD MLOAD JUMPDEST PUSH0 NOT PUSH1 0x3 DUP7 SWAP1 SHL SHR NOT AND PUSH1 0x1 DUP6 SWAP1 SHL OR DUP6 SSTORE PUSH3 0x477 JUMP JUMPDEST PUSH0 DUP6 DUP2 MSTORE PUSH1 0x20 DUP2 KECCAK256 PUSH1 0x1F NOT DUP7 AND SWAP2 JUMPDEST DUP3 DUP2 LT ISZERO PUSH3 0x44D JUMPI DUP9 DUP7 ADD MLOAD DUP3 SSTORE SWAP5 DUP5 ADD SWAP5 PUSH1 0x1 SWAP1 SWAP2 ADD SWAP1 DUP5 ADD PUSH3 0x42C JUMP JUMPDEST POP DUP6 DUP3 LT ISZERO PUSH3 0x46B JUMPI DUP8 DUP6 ADD MLOAD PUSH0 NOT PUSH1 0x3 DUP9 SWAP1 SHL PUSH1 0xF8 AND SHR NOT AND DUP2 SSTORE JUMPDEST POP POP PUSH1 0x1 DUP5 PUSH1 0x1 SHL ADD DUP6 SSTORE JUMPDEST POP POP POP POP POP POP JUMP JUMPDEST PUSH2 0x1DAB DUP1 PUSH3 0x48D PUSH0 CODECOPY PUSH0 RETURN INVALID PUSH1 0x80 PUSH1 0x40 MSTORE PUSH1 0x4 CALLDATASIZE LT PUSH2 0x1FC JUMPI PUSH0 CALLDATALOAD PUSH1 0xE0 SHR DUP1 PUSH4 0x6352211E GT PUSH2 0x113 JUMPI DUP1 PUSH4 0x98D5FDCA GT PUSH2 0x9D JUMPI DUP1 PUSH4 0xB88D4FDE GT PUSH2 0x6D JUMPI DUP1 PUSH4 0xB88D4FDE EQ PUSH2 0x562 JUMPI DUP1 PUSH4 0xC87B56DD EQ PUSH2 0x581 JUMPI DUP1 PUSH4 0xD547CFB7 EQ PUSH2 0x5A0 JUMPI DUP1 PUSH4 0xE985E9C5 EQ PUSH2 0x5B4 JUMPI DUP1 PUSH4 0xF2FDE38B EQ PUSH2 0x5D3 JUMPI PUSH0 DUP1 REVERT JUMPDEST DUP1 PUSH4 0x98D5FDCA EQ PUSH2 0x4FB JUMPI DUP1 PUSH4 0xA035B1FE EQ PUSH2 0x50F JUMPI DUP1 PUSH4 0xA1448194 EQ PUSH2 0x524 JUMPI DUP1 PUSH4 0xA22CB465 EQ PUSH2 0x543 JUMPI PUSH0 DUP1 REVERT JUMPDEST DUP1 PUSH4 0x8456CB59 GT PUSH2 0xE3 JUMPI DUP1 PUSH4 0x8456CB59 EQ PUSH2 0x48F JUMPI DUP1 PUSH4 0x853828B6 EQ PUSH2 0x4A3 JUMPI DUP1 PUSH4 0x8DA5CB5B EQ PUSH2 0x4AB JUMPI DUP1 PUSH4 0x91B7F5ED EQ PUSH2 0x4C8 JUMPI DUP1 PUSH4 0x95D89B41 EQ PUSH2 0x4E7 JUMPI PUSH0 DUP1 REVERT JUMPDEST DUP1 PUSH4 0x6352211E EQ PUSH2 0x42A JUMPI DUP1 PUSH4 0x6A627842 EQ PUSH2 0x449 JUMPI DUP1 PUSH4 0x70A08231 EQ PUSH2 0x45C JUMPI DUP1 PUSH4 0x715018A6 EQ PUSH2 0x47B JUMPI PUSH0 DUP1 REVERT JUMPDEST DUP1 PUSH4 0x3502A716 GT PUSH2 0x194 JUMPI DUP1 PUSH4 0x438B6300 GT PUSH2 0x164 JUMPI DUP1 PUSH4 0x438B6300 EQ PUSH2 0x38E JUMPI DUP1 PUSH4 0x4F6CCCE7 EQ PUSH2 0x3BA JUMPI DUP1 PUSH4 0x55F804B3 EQ PUSH2 0x3D9 JUMPI DUP1 PUSH4 0x59A7715A EQ PUSH2 0x3F8 JUMPI DUP1 PUSH4 0x5C975ABB EQ PUSH2 0x40C JUMPI PUSH0 DUP1 REVERT JUMPDEST DUP1 PUSH4 0x3502A716 EQ PUSH2 0x328 JUMPI DUP1 PUSH4 0x3F4BA83A EQ PUSH2 0x33C JUMPI DUP1 PUSH4 0x42842E0E EQ PUSH2 0x350 JUMPI DUP1 PUSH4 0x42966C68 EQ PUSH2 0x36F JUMPI PUSH0 DUP1 REVERT JUMPDEST DUP1 PUSH4 0x95EA7B3 GT PUSH2 0x1CF JUMPI DUP1 PUSH4 0x95EA7B3 EQ PUSH2 0x2AD JUMPI DUP1 PUSH4 0x18160DDD EQ PUSH2 0x2CC JUMPI DUP1 PUSH4 0x23B872DD EQ PUSH2 0x2EA JUMPI DUP1 PUSH4 0x2F745C59 EQ PUSH2 0x309 JUMPI PUSH0 DUP1 REVERT JUMPDEST DUP1 PUSH4 0x1FFC9A7 EQ PUSH2 0x200 JUMPI DUP1 PUSH4 0x2329A29 EQ PUSH2 0x234 JUMPI DUP1 PUSH4 0x6FDDE03 EQ PUSH2 0x255 JUMPI DUP1 PUSH4 0x81812FC EQ PUSH2 0x276 JUMPI JUMPDEST PUSH0 DUP1 REVERT JUMPDEST CALLVALUE DUP1 ISZERO PUSH2 0x20B JUMPI PUSH0 DUP1 REVERT JUMPDEST POP PUSH2 0x21F PUSH2 0x21A CALLDATASIZE PUSH1 0x4 PUSH2 0x1840 JUMP JUMPDEST POP PUSH0 SWAP1 JUMP JUMPDEST PUSH1 0x40 MLOAD SWAP1 ISZERO ISZERO DUP2 MSTORE PUSH1 0x20 ADD JUMPDEST PUSH1 0x40 MLOAD DUP1 SWAP2 SUB SWAP1 RETURN JUMPDEST CALLVALUE DUP1 ISZERO PUSH2 0x23F JUMPI PUSH0 DUP1 REVERT JUMPDEST POP PUSH2 0x253 PUSH2 0x24E CALLDATASIZE PUSH1 0x4 PUSH2 0x186F JUMP JUMPDEST PUSH2 0x5F2 JUMP JUMPDEST STOP JUMPDEST CALLVALUE DUP1 ISZERO PUSH2 0x260 JUMPI PUSH0 DUP1 REVERT JUMPDEST POP PUSH2 0x269 PUSH2 0x617 JUMP JUMPDEST PUSH1 0x40 MLOAD PUSH2 0x22B SWAP2 SWAP1 PUSH2 0x18D5 JUMP JUMPDEST CALLVALUE DUP1 ISZERO PUSH2 0x281 JUMPI PUSH0 DUP1 REVERT JUMPDEST POP PUSH2 0x295 PUSH2 0x290 CALLDATASIZE PUSH1 0x4 PUSH2 0x18E7 JUMP JUMPDEST PUSH2 0x6A6 JUMP JUMPDEST PUSH1 0x40 MLOAD PUSH1 0x1 PUSH1 0x1 PUSH1 0xA0 SHL SUB SWAP1 SWAP2 AND DUP2 MSTORE PUSH1 0x20 ADD PUSH2 0x22B JUMP JUMPDEST CALLVALUE DUP1 ISZERO PUSH2 0x2B8 JUMPI PUSH0 DUP1 REVERT JUMPDEST POP PUSH2 0x253 PUSH2 0x2C7 CALLDATASIZE PUSH1 0x4 PUSH2 0x1914 JUMP JUMPDEST PUSH2 0x6CF JUMP JUMPDEST CALLVALUE DUP1 ISZERO PUSH2 0x2D7 JUMPI PUSH0 DUP1 REVERT JUMPDEST POP PUSH1 0x8 SLOAD JUMPDEST PUSH1 0x40 MLOAD SWAP1 DUP2 MSTORE PUSH1 0x20 ADD PUSH2 0x22B JUMP JUMPDEST CALLVALUE DUP1 ISZERO PUSH2 0x2F5 JUMPI PUSH0 DUP1 REVERT JUMPDEST POP PUSH2 0x253 PUSH2 0x304 CALLDATASIZE PUSH1 0x4 PUSH2 0x193C JUMP JUMPDEST PUSH2 0x6DE JUMP JUMPDEST CALLVALUE DUP1 ISZERO PUSH2 0x314 JUMPI PUSH0 DUP1 REVERT JUMPDEST POP PUSH2 0x2DC PUSH2 0x323 CALLDATASIZE PUSH1 0x4 PUSH2 0x1914 JUMP JUMPDEST PUSH2 0x76C JUMP JUMPDEST CALLVALUE DUP1 ISZERO PUSH2 0x333 JUMPI PUSH0 DUP1 REVERT JUMPDEST POP PUSH2 0x2DC PUSH1 0x64 DUP2 JUMP JUMPDEST CALLVALUE DUP1 ISZERO PUSH2 0x347 JUMPI PUSH0 DUP1 REVERT JUMPDEST POP PUSH2 0x253 PUSH2 0x7CF JUMP JUMPDEST CALLVALUE DUP1 ISZERO PUSH2 0x35B JUMPI PUSH0 DUP1 REVERT JUMPDEST POP PUSH2 0x253 PUSH2 0x36A CALLDATASIZE PUSH1 0x4 PUSH2 0x193C JUMP JUMPDEST PUSH2 0x7E1 JUMP JUMPDEST CALLVALUE DUP1 ISZERO PUSH2 0x37A JUMPI PUSH0 DUP1 REVERT JUMPDEST POP PUSH2 0x253 PUSH2 0x389 CALLDATASIZE PUSH1 0x4 PUSH2 0x18E7 JUMP JUMPDEST PUSH2 0x800 JUMP JUMPDEST CALLVALUE DUP1 ISZERO PUSH2 0x399 JUMPI PUSH0 DUP1 REVERT JUMPDEST POP PUSH2 0x3AD PUSH2 0x3A8 CALLDATASIZE PUSH1 0x4 PUSH2 0x1975 JUMP JUMPDEST PUSH2 0x80B JUMP JUMPDEST PUSH1 0x40 MLOAD PUSH2 0x22B SWAP2 SWAP1 PUSH2 0x198E JUMP JUMPDEST CALLVALUE DUP1 ISZERO PUSH2 0x3C5 JUMPI PUSH0 DUP1 REVERT JUMPDEST POP PUSH2 0x2DC PUSH2 0x3D4 CALLDATASIZE PUSH1 0x4 PUSH2 0x18E7 JUMP JUMPDEST PUSH2 0x8A0 JUMP JUMPDEST CALLVALUE DUP1 ISZERO PUSH2 0x3E4 JUMPI PUSH0 DUP1 REVERT JUMPDEST POP PUSH2 0x253 PUSH2 0x3F3 CALLDATASIZE PUSH1 0x4 PUSH2 0x1A58 JUMP JUMPDEST PUSH2 0x8F5 JUMP JUMPDEST CALLVALUE DUP1 ISZERO PUSH2 0x403 JUMPI PUSH0 DUP1 REVERT JUMPDEST POP PUSH2 0x2DC PUSH2 0x909 JUMP JUMPDEST CALLVALUE DUP1 ISZERO PUSH2 0x417 JUMPI PUSH0 DUP1 REVERT JUMPDEST POP PUSH1 0xA SLOAD PUSH1 0x1 PUSH1 0xA0 SHL SWAP1 DIV PUSH1 0xFF AND PUSH2 0x21F JUMP JUMPDEST CALLVALUE DUP1 ISZERO PUSH2 0x435 JUMPI PUSH0 DUP1 REVERT JUMPDEST POP PUSH2 0x295 PUSH2 0x444 CALLDATASIZE PUSH1 0x4 PUSH2 0x18E7 JUMP JUMPDEST PUSH2 0x917 JUMP JUMPDEST PUSH2 0x253 PUSH2 0x457 CALLDATASIZE PUSH1 0x4 PUSH2 0x1975 JUMP JUMPDEST PUSH2 0x921 JUMP JUMPDEST CALLVALUE DUP1 ISZERO PUSH2 0x467 JUMPI PUSH0 DUP1 REVERT JUMPDEST POP PUSH2 0x2DC PUSH2 0x476 CALLDATASIZE PUSH1 0x4 PUSH2 0x1975 JUMP JUMPDEST PUSH2 0xA55 JUMP JUMPDEST CALLVALUE DUP1 ISZERO PUSH2 0x486 JUMPI PUSH0 DUP1 REVERT JUMPDEST POP PUSH2 0x253 PUSH2 0xA9A JUMP JUMPDEST CALLVALUE DUP1 ISZERO PUSH2 0x49A JUMPI PUSH0 DUP1 REVERT JUMPDEST POP PUSH2 0x253 PUSH2 0xAAB JUMP JUMPDEST PUSH2 0x253 PUSH2 0xABB JUMP JUMPDEST CALLVALUE DUP1 ISZERO PUSH2 0x4B6 JUMPI PUSH0 DUP1 REVERT JUMPDEST POP PUSH1 0xA SLOAD PUSH1 0x1 PUSH1 0x1 PUSH1 0xA0 SHL SUB AND PUSH2 0x295 JUMP JUMPDEST CALLVALUE DUP1 ISZERO PUSH2 0x4D3 JUMPI PUSH0 DUP1 REVERT JUMPDEST POP PUSH2 0x253 PUSH2 0x4E2 CALLDATASIZE PUSH1 0x4 PUSH2 0x18E7 JUMP JUMPDEST PUSH2 0xAE8 JUMP JUMPDEST CALLVALUE DUP1 ISZERO PUSH2 0x4F2 JUMPI PUSH0 DUP1 REVERT JUMPDEST POP PUSH2 0x269 PUSH2 0xAF5 JUMP JUMPDEST CALLVALUE DUP1 ISZERO PUSH2 0x506 JUMPI PUSH0 DUP1 REVERT JUMPDEST POP PUSH1 0xD SLOAD PUSH2 0x2DC JUMP JUMPDEST CALLVALUE DUP1 ISZERO PUSH2 0x51A JUMPI PUSH0 DUP1 REVERT JUMPDEST POP PUSH2 0x2DC PUSH1 0xD SLOAD DUP2 JUMP JUMPDEST CALLVALUE DUP1 ISZERO PUSH2 0x52F JUMPI PUSH0 DUP1 REVERT JUMPDEST POP PUSH2 0x253 PUSH2 0x53E CALLDATASIZE PUSH1 0x4 PUSH2 0x1914 JUMP JUMPDEST PUSH2 0xB04 JUMP JUMPDEST CALLVALUE DUP1 ISZERO PUSH2 0x54E JUMPI PUSH0 DUP1 REVERT JUMPDEST POP PUSH2 0x253 PUSH2 0x55D CALLDATASIZE PUSH1 0x4 PUSH2 0x1A9D JUMP JUMPDEST PUSH2 0xB16 JUMP JUMPDEST CALLVALUE DUP1 ISZERO PUSH2 0x56D JUMPI PUSH0 DUP1 REVERT JUMPDEST POP PUSH2 0x253 PUSH2 0x57C CALLDATASIZE PUSH1 0x4 PUSH2 0x1ACE JUMP JUMPDEST PUSH2 0xB21 JUMP JUMPDEST CALLVALUE DUP1 ISZERO PUSH2 0x58C JUMPI PUSH0 DUP1 REVERT JUMPDEST POP PUSH2 0x269 PUSH2 0x59B CALLDATASIZE PUSH1 0x4 PUSH2 0x18E7 JUMP JUMPDEST PUSH2 0xB38 JUMP JUMPDEST CALLVALUE DUP1 ISZERO PUSH2 0x5AB JUMPI PUSH0 DUP1 REVERT JUMPDEST POP PUSH2 0x269 PUSH2 0xB9D JUMP JUMPDEST CALLVALUE DUP1 ISZERO PUSH2 0x5BF JUMPI PUSH0 DUP1 REVERT JUMPDEST POP PUSH2 0x21F PUSH2 0x5CE CALLDATASIZE PUSH1 0x4 PUSH2 0x1B45 JUMP JUMPDEST PUSH2 0xC29 JUMP JUMPDEST CALLVALUE DUP1 ISZERO PUSH2 0x5DE JUMPI PUSH0 DUP1 REVERT JUMPDEST POP PUSH2 0x253 PUSH2 0x5ED CALLDATASIZE PUSH1 0x4 PUSH2 0x1975 JUMP JUMPDEST PUSH2 0xC56 JUMP JUMPDEST PUSH2 0x5FA PUSH2 0xC90 JUMP JUMPDEST DUP1 ISZERO ISZERO PUSH1 0x1 SUB PUSH2 0x60F JUMPI PUSH2 0x60C PUSH2 0xCBD JUMP JUMPDEST POP JUMP JUMPDEST PUSH2 0x60C PUSH2 0xD1D JUMP JUMPDEST PUSH1 0x60 PUSH0 DUP1 SLOAD PUSH2 0x625 SWAP1 PUSH2 0x1B6D JUMP JUMPDEST DUP1 PUSH1 0x1F ADD PUSH1 0x20 DUP1 SWAP2 DIV MUL PUSH1 0x20 ADD PUSH1 0x40 MLOAD SWAP1 DUP2 ADD PUSH1 0x40 MSTORE DUP1 SWAP3 SWAP2 SWAP1 DUP2 DUP2 MSTORE PUSH1 0x20 ADD DUP3 DUP1 SLOAD PUSH2 0x651 SWAP1 PUSH2 0x1B6D JUMP JUMPDEST DUP1 ISZERO PUSH2 0x69C JUMPI DUP1 PUSH1 0x1F LT PUSH2 0x673 JUMPI PUSH2 0x100 DUP1 DUP4 SLOAD DIV MUL DUP4 MSTORE SWAP2 PUSH1 0x20 ADD SWAP2 PUSH2 0x69C JUMP JUMPDEST DUP3 ADD SWAP2 SWAP1 PUSH0 MSTORE PUSH1 0x20 PUSH0 KECCAK256 SWAP1 JUMPDEST DUP2 SLOAD DUP2 MSTORE SWAP1 PUSH1 0x1 ADD SWAP1 PUSH1 0x20 ADD DUP1 DUP4 GT PUSH2 0x67F JUMPI DUP3 SWAP1 SUB PUSH1 0x1F AND DUP3 ADD SWAP2 JUMPDEST POP POP POP POP POP SWAP1 POP SWAP1 JUMP JUMPDEST PUSH0 PUSH2 0x6B0 DUP3 PUSH2 0xD59 JUMP JUMPDEST POP PUSH0 DUP3 DUP2 MSTORE PUSH1 0x4 PUSH1 0x20 MSTORE PUSH1 0x40 SWAP1 KECCAK256 SLOAD PUSH1 0x1 PUSH1 0x1 PUSH1 0xA0 SHL SUB AND JUMPDEST SWAP3 SWAP2 POP POP JUMP JUMPDEST PUSH2 0x6DA DUP3 DUP3 CALLER PUSH2 0xD91 JUMP JUMPDEST POP POP JUMP JUMPDEST PUSH1 0x1 PUSH1 0x1 PUSH1 0xA0 SHL SUB DUP3 AND PUSH2 0x70C JUMPI PUSH1 0x40 MLOAD PUSH4 0x32505749 PUSH1 0xE1 SHL DUP2 MSTORE PUSH0 PUSH1 0x4 DUP3 ADD MSTORE PUSH1 0x24 ADD JUMPDEST PUSH1 0x40 MLOAD DUP1 SWAP2 SUB SWAP1 REVERT JUMPDEST PUSH0 PUSH2 0x718 DUP4 DUP4 CALLER PUSH2 0xD9E JUMP JUMPDEST SWAP1 POP DUP4 PUSH1 0x1 PUSH1 0x1 PUSH1 0xA0 SHL SUB AND DUP2 PUSH1 0x1 PUSH1 0x1 PUSH1 0xA0 SHL SUB AND EQ PUSH2 0x766 JUMPI PUSH1 0x40 MLOAD PUSH4 0x64283D7B PUSH1 0xE0 SHL DUP2 MSTORE PUSH1 0x1 PUSH1 0x1 PUSH1 0xA0 SHL SUB DUP1 DUP7 AND PUSH1 0x4 DUP4 ADD MSTORE PUSH1 0x24 DUP3 ADD DUP5 SWAP1 MSTORE DUP3 AND PUSH1 0x44 DUP3 ADD MSTORE PUSH1 0x64 ADD PUSH2 0x703 JUMP JUMPDEST POP POP POP POP JUMP JUMPDEST PUSH0 PUSH2 0x776 DUP4 PUSH2 0xA55 JUMP JUMPDEST DUP3 LT PUSH2 0x7A7 JUMPI PUSH1 0x40 MLOAD PUSH4 0x295F44F7 PUSH1 0xE2 SHL DUP2 MSTORE PUSH1 0x1 PUSH1 0x1 PUSH1 0xA0 SHL SUB DUP5 AND PUSH1 0x4 DUP3 ADD MSTORE PUSH1 0x24 DUP2 ADD DUP4 SWAP1 MSTORE PUSH1 0x44 ADD PUSH2 0x703 JUMP JUMPDEST POP PUSH1 0x1 PUSH1 0x1 PUSH1 0xA0 SHL SUB SWAP2 SWAP1 SWAP2 AND PUSH0 SWAP1 DUP2 MSTORE PUSH1 0x6 PUSH1 0x20 SWAP1 DUP2 MSTORE PUSH1 0x40 DUP1 DUP4 KECCAK256 SWAP4 DUP4 MSTORE SWAP3 SWAP1 MSTORE KECCAK256 SLOAD SWAP1 JUMP JUMPDEST PUSH2 0x7D7 PUSH2 0xC90 JUMP JUMPDEST PUSH2 0x7DF PUSH2 0xD1D JUMP JUMPDEST JUMP JUMPDEST PUSH2 0x7FB DUP4 DUP4 DUP4 PUSH1 0x40 MLOAD DUP1 PUSH1 0x20 ADD PUSH1 0x40 MSTORE DUP1 PUSH0 DUP2 MSTORE POP PUSH2 0xB21 JUMP JUMPDEST POP POP POP JUMP JUMPDEST PUSH2 0x6DA PUSH0 DUP3 CALLER PUSH2 0xD9E JUMP JUMPDEST PUSH1 0x60 PUSH0 PUSH2 0x817 DUP4 PUSH2 0xA55 JUMP JUMPDEST SWAP1 POP PUSH0 DUP2 PUSH8 0xFFFFFFFFFFFFFFFF DUP2 GT ISZERO PUSH2 0x833 JUMPI PUSH2 0x833 PUSH2 0x19D1 JUMP JUMPDEST PUSH1 0x40 MLOAD SWAP1 DUP1 DUP3 MSTORE DUP1 PUSH1 0x20 MUL PUSH1 0x20 ADD DUP3 ADD PUSH1 0x40 MSTORE DUP1 ISZERO PUSH2 0x85C JUMPI DUP2 PUSH1 0x20 ADD PUSH1 0x20 DUP3 MUL DUP1 CALLDATASIZE DUP4 CALLDATACOPY ADD SWAP1 POP JUMPDEST POP SWAP1 POP PUSH0 JUMPDEST DUP3 DUP2 LT ISZERO PUSH2 0x898 JUMPI PUSH2 0x873 DUP6 DUP3 PUSH2 0x76C JUMP JUMPDEST DUP3 DUP3 DUP2 MLOAD DUP2 LT PUSH2 0x885 JUMPI PUSH2 0x885 PUSH2 0x1BA5 JUMP JUMPDEST PUSH1 0x20 SWAP1 DUP2 MUL SWAP2 SWAP1 SWAP2 ADD ADD MSTORE PUSH1 0x1 ADD PUSH2 0x861 JUMP JUMPDEST POP SWAP4 SWAP3 POP POP POP JUMP JUMPDEST PUSH0 PUSH2 0x8AA PUSH1 0x8 SLOAD SWAP1 JUMP JUMPDEST DUP3 LT PUSH2 0x8D2 JUMPI PUSH1 0x40 MLOAD PUSH4 0x295F44F7 PUSH1 0xE2 SHL DUP2 MSTORE PUSH0 PUSH1 0x4 DUP3 ADD MSTORE PUSH1 0x24 DUP2 ADD DUP4 SWAP1 MSTORE PUSH1 0x44 ADD PUSH2 0x703 JUMP JUMPDEST PUSH1 0x8 DUP3 DUP2 SLOAD DUP2 LT PUSH2 0x8E5 JUMPI PUSH2 0x8E5 PUSH2 0x1BA5 JUMP JUMPDEST SWAP1 PUSH0 MSTORE PUSH1 0x20 PUSH0 KECCAK256 ADD SLOAD SWAP1 POP SWAP2 SWAP1 POP JUMP JUMPDEST PUSH2 0x8FD PUSH2 0xC90 JUMP JUMPDEST PUSH1 0xC PUSH2 0x6DA DUP3 DUP3 PUSH2 0x1BFD JUMP JUMPDEST PUSH0 PUSH2 0x912 PUSH2 0xDB2 JUMP JUMPDEST SWAP1 POP SWAP1 JUMP JUMPDEST PUSH0 PUSH2 0x6C9 DUP3 PUSH2 0xD59 JUMP JUMPDEST PUSH1 0x64 PUSH2 0x92B PUSH2 0xDB2 JUMP JUMPDEST GT ISZERO PUSH2 0x964 JUMPI PUSH1 0x40 MLOAD PUSH3 0x461BCD PUSH1 0xE5 SHL DUP2 MSTORE PUSH1 0x20 PUSH1 0x4 DUP3 ADD MSTORE PUSH1 0x8 PUSH1 0x24 DUP3 ADD MSTORE PUSH8 0x14D85B1948195B99 PUSH1 0xC2 SHL PUSH1 0x44 DUP3 ADD MSTORE PUSH1 0x64 ADD PUSH2 0x703 JUMP JUMPDEST PUSH1 0xA SLOAD PUSH1 0x1 PUSH1 0x1 PUSH1 0xA0 SHL SUB AND CALLER EQ PUSH2 0x9C3 JUMPI PUSH1 0xA SLOAD PUSH1 0x1 PUSH1 0xA0 SHL SWAP1 DIV PUSH1 0xFF AND ISZERO PUSH2 0x9C3 JUMPI PUSH1 0x40 MLOAD PUSH3 0x461BCD PUSH1 0xE5 SHL DUP2 MSTORE PUSH1 0x20 PUSH1 0x4 DUP3 ADD MSTORE PUSH1 0x10 PUSH1 0x24 DUP3 ADD MSTORE PUSH16 0x14185D5CD8589B194E881C185D5CD959 PUSH1 0x82 SHL PUSH1 0x44 DUP3 ADD MSTORE PUSH1 0x64 ADD PUSH2 0x703 JUMP JUMPDEST PUSH1 0x64 PUSH2 0x9CD PUSH2 0xDB2 JUMP JUMPDEST GT ISZERO PUSH2 0xA06 JUMPI PUSH1 0x40 MLOAD PUSH3 0x461BCD PUSH1 0xE5 SHL DUP2 MSTORE PUSH1 0x20 PUSH1 0x4 DUP3 ADD MSTORE PUSH1 0x8 PUSH1 0x24 DUP3 ADD MSTORE PUSH8 0x14D85B1948195B99 PUSH1 0xC2 SHL PUSH1 0x44 DUP3 ADD MSTORE PUSH1 0x64 ADD PUSH2 0x703 JUMP JUMPDEST PUSH1 0xD SLOAD CALLVALUE LT ISZERO PUSH2 0xA4C JUMPI PUSH1 0x40 MLOAD PUSH3 0x461BCD PUSH1 0xE5 SHL DUP2 MSTORE PUSH1 0x20 PUSH1 0x4 DUP3 ADD MSTORE PUSH1 0x11 PUSH1 0x24 DUP3 ADD MSTORE PUSH17 0x56616C75652062656C6F77207072696365 PUSH1 0x78 SHL PUSH1 0x44 DUP3 ADD MSTORE PUSH1 0x64 ADD PUSH2 0x703 JUMP JUMPDEST PUSH2 0x60C DUP2 PUSH2 0xDBC JUMP JUMPDEST PUSH0 PUSH1 0x1 PUSH1 0x1 PUSH1 0xA0 SHL SUB DUP3 AND PUSH2 0xA7F JUMPI PUSH1 0x40 MLOAD PUSH4 0x22718AD9 PUSH1 0xE2 SHL DUP2 MSTORE PUSH0 PUSH1 0x4 DUP3 ADD MSTORE PUSH1 0x24 ADD PUSH2 0x703 JUMP JUMPDEST POP PUSH1 0x1 PUSH1 0x1 PUSH1 0xA0 SHL SUB AND PUSH0 SWAP1 DUP2 MSTORE PUSH1 0x3 PUSH1 0x20 MSTORE PUSH1 0x40 SWAP1 KECCAK256 SLOAD SWAP1 JUMP JUMPDEST PUSH2 0xAA2 PUSH2 0xC90 JUMP JUMPDEST PUSH2 0x7DF PUSH0 PUSH2 0xE0D JUMP JUMPDEST PUSH2 0xAB3 PUSH2 0xC90 JUMP JUMPDEST PUSH2 0x7DF PUSH2 0xCBD JUMP JUMPDEST PUSH2 0xAC3 PUSH2 0xC90 JUMP JUMPDEST SELFBALANCE DUP1 PUSH2 0xACD JUMPI PUSH0 DUP1 REVERT JUMPDEST PUSH2 0x60C PUSH2 0xAE2 PUSH1 0xA SLOAD PUSH1 0x1 PUSH1 0x1 PUSH1 0xA0 SHL SUB AND SWAP1 JUMP JUMPDEST DUP3 PUSH2 0xE5E JUMP JUMPDEST PUSH2 0xAF0 PUSH2 0xC90 JUMP JUMPDEST PUSH1 0xD SSTORE JUMP JUMPDEST PUSH1 0x60 PUSH1 0x1 DUP1 SLOAD PUSH2 0x625 SWAP1 PUSH2 0x1B6D JUMP JUMPDEST PUSH2 0xB0C PUSH2 0xC90 JUMP JUMPDEST PUSH2 0x6DA DUP3 DUP3 PUSH2 0xEF0 JUMP JUMPDEST PUSH2 0x6DA CALLER DUP4 DUP4 PUSH2 0xF09 JUMP JUMPDEST PUSH2 0xB2C DUP5 DUP5 DUP5 PUSH2 0x6DE JUMP JUMPDEST PUSH2 0x766 DUP5 DUP5 DUP5 DUP5 PUSH2 0xFA7 JUMP JUMPDEST PUSH1 0x60 PUSH2 0xB43 DUP3 PUSH2 0xD59 JUMP JUMPDEST POP PUSH0 PUSH2 0xB4D PUSH2 0x10CD JUMP JUMPDEST SWAP1 POP PUSH0 DUP2 MLOAD GT PUSH2 0xB6B JUMPI PUSH1 0x40 MLOAD DUP1 PUSH1 0x20 ADD PUSH1 0x40 MSTORE DUP1 PUSH0 DUP2 MSTORE POP PUSH2 0xB96 JUMP JUMPDEST DUP1 PUSH2 0xB75 DUP5 PUSH2 0x10DC JUMP JUMPDEST PUSH1 0x40 MLOAD PUSH1 0x20 ADD PUSH2 0xB86 SWAP3 SWAP2 SWAP1 PUSH2 0x1CBD JUMP JUMPDEST PUSH1 0x40 MLOAD PUSH1 0x20 DUP2 DUP4 SUB SUB DUP2 MSTORE SWAP1 PUSH1 0x40 MSTORE JUMPDEST SWAP4 SWAP3 POP POP POP JUMP JUMPDEST PUSH1 0xC DUP1 SLOAD PUSH2 0xBAA SWAP1 PUSH2 0x1B6D JUMP JUMPDEST DUP1 PUSH1 0x1F ADD PUSH1 0x20 DUP1 SWAP2 DIV MUL PUSH1 0x20 ADD PUSH1 0x40 MLOAD SWAP1 DUP2 ADD PUSH1 0x40 MSTORE DUP1 SWAP3 SWAP2 SWAP1 DUP2 DUP2 MSTORE PUSH1 0x20 ADD DUP3 DUP1 SLOAD PUSH2 0xBD6 SWAP1 PUSH2 0x1B6D JUMP JUMPDEST DUP1 ISZERO PUSH2 0xC21 JUMPI DUP1 PUSH1 0x1F LT PUSH2 0xBF8 JUMPI PUSH2 0x100 DUP1 DUP4 SLOAD DIV MUL DUP4 MSTORE SWAP2 PUSH1 0x20 ADD SWAP2 PUSH2 0xC21 JUMP JUMPDEST DUP3 ADD SWAP2 SWAP1 PUSH0 MSTORE PUSH1 0x20 PUSH0 KECCAK256 SWAP1 JUMPDEST DUP2 SLOAD DUP2 MSTORE SWAP1 PUSH1 0x1 ADD SWAP1 PUSH1 0x20 ADD DUP1 DUP4 GT PUSH2 0xC04 JUMPI DUP3 SWAP1 SUB PUSH1 0x1F AND DUP3 ADD SWAP2 JUMPDEST POP POP POP POP POP DUP2 JUMP JUMPDEST PUSH1 0x1 PUSH1 0x1 PUSH1 0xA0 SHL SUB SWAP2 DUP3 AND PUSH0 SWAP1 DUP2 MSTORE PUSH1 0x5 PUSH1 0x20 SWAP1 DUP2 MSTORE PUSH1 0x40 DUP1 DUP4 KECCAK256 SWAP4 SWAP1 SWAP5 AND DUP3 MSTORE SWAP2 SWAP1 SWAP2 MSTORE KECCAK256 SLOAD PUSH1 0xFF AND SWAP1 JUMP JUMPDEST PUSH2 0xC5E PUSH2 0xC90 JUMP JUMPDEST PUSH1 0x1 PUSH1 0x1 PUSH1 0xA0 SHL SUB DUP2 AND PUSH2 0xC87 JUMPI PUSH1 0x40 MLOAD PUSH4 0x1E4FBDF7 PUSH1 0xE0 SHL DUP2 MSTORE PUSH0 PUSH1 0x4 DUP3 ADD MSTORE PUSH1 0x24 ADD PUSH2 0x703 JUMP JUMPDEST PUSH2 0x60C DUP2 PUSH2 0xE0D JUMP JUMPDEST PUSH1 0xA SLOAD PUSH1 0x1 PUSH1 0x1 PUSH1 0xA0 SHL SUB AND CALLER EQ PUSH2 0x7DF JUMPI PUSH1 0x40 MLOAD PUSH4 0x118CDAA7 PUSH1 0xE0 SHL DUP2 MSTORE CALLER PUSH1 0x4 DUP3 ADD MSTORE PUSH1 0x24 ADD PUSH2 0x703 JUMP JUMPDEST PUSH2 0xCC5 PUSH2 0x116C JUMP JUMPDEST PUSH1 0xA DUP1 SLOAD PUSH1 0xFF PUSH1 0xA0 SHL NOT AND PUSH1 0x1 PUSH1 0xA0 SHL OR SWAP1 SSTORE PUSH32 0x62E78CEA01BEE320CD4E420270B5EA74000D11B0C9F74754EBDBFC544B05A258 PUSH2 0xD00 CALLER SWAP1 JUMP JUMPDEST PUSH1 0x40 MLOAD PUSH1 0x1 PUSH1 0x1 PUSH1 0xA0 SHL SUB SWAP1 SWAP2 AND DUP2 MSTORE PUSH1 0x20 ADD PUSH1 0x40 MLOAD DUP1 SWAP2 SUB SWAP1 LOG1 JUMP JUMPDEST PUSH2 0xD25 PUSH2 0x1197 JUMP JUMPDEST PUSH1 0xA DUP1 SLOAD PUSH1 0xFF PUSH1 0xA0 SHL NOT AND SWAP1 SSTORE PUSH32 0x5DB9EE0A495BF2E6FF9C91A7834C1BA4FDD244A5E8AA4E537BD38AEAE4B073AA CALLER PUSH2 0xD00 JUMP JUMPDEST PUSH0 DUP2 DUP2 MSTORE PUSH1 0x2 PUSH1 0x20 MSTORE PUSH1 0x40 DUP2 KECCAK256 SLOAD PUSH1 0x1 PUSH1 0x1 PUSH1 0xA0 SHL SUB AND DUP1 PUSH2 0x6C9 JUMPI PUSH1 0x40 MLOAD PUSH4 0x7E273289 PUSH1 0xE0 SHL DUP2 MSTORE PUSH1 0x4 DUP2 ADD DUP5 SWAP1 MSTORE PUSH1 0x24 ADD PUSH2 0x703 JUMP JUMPDEST PUSH2 0x7FB DUP4 DUP4 DUP4 PUSH1 0x1 PUSH2 0x11C1 JUMP JUMPDEST PUSH0 PUSH2 0xDAA DUP5 DUP5 DUP5 PUSH2 0x12C5 JUMP JUMPDEST SWAP5 SWAP4 POP POP POP POP JUMP JUMPDEST PUSH0 PUSH2 0x912 PUSH1 0xB SLOAD SWAP1 JUMP JUMPDEST PUSH0 PUSH2 0xDC5 PUSH2 0xDB2 JUMP JUMPDEST SWAP1 POP PUSH2 0xDD5 PUSH1 0xB DUP1 SLOAD PUSH1 0x1 ADD SWAP1 SSTORE JUMP JUMPDEST PUSH2 0xDDF DUP3 DUP3 PUSH2 0xEF0 JUMP JUMPDEST PUSH1 0x40 MLOAD DUP2 SWAP1 PUSH32 0x4A31F5E942BEB8B597B502856D8CFB28AA9A92C5619DB46A50366AF439563693 SWAP1 PUSH0 SWAP1 LOG2 POP POP JUMP JUMPDEST PUSH1 0xA DUP1 SLOAD PUSH1 0x1 PUSH1 0x1 PUSH1 0xA0 SHL SUB DUP4 DUP2 AND PUSH1 0x1 PUSH1 0x1 PUSH1 0xA0 SHL SUB NOT DUP4 AND DUP2 OR SWAP1 SWAP4 SSTORE PUSH1 0x40 MLOAD SWAP2 AND SWAP2 SWAP1 DUP3 SWAP1 PUSH32 0x8BE0079C531659141344CD1FD0A4F28419497F9722A3DAAFE3B4186F6B6457E0 SWAP1 PUSH0 SWAP1 LOG3 POP POP JUMP JUMPDEST PUSH0 DUP3 PUSH1 0x1 PUSH1 0x1 PUSH1 0xA0 SHL SUB AND DUP3 PUSH1 0x40 MLOAD PUSH0 PUSH1 0x40 MLOAD DUP1 DUP4 SUB DUP2 DUP6 DUP8 GAS CALL SWAP3 POP POP POP RETURNDATASIZE DUP1 PUSH0 DUP2 EQ PUSH2 0xEA7 JUMPI PUSH1 0x40 MLOAD SWAP2 POP PUSH1 0x1F NOT PUSH1 0x3F RETURNDATASIZE ADD AND DUP3 ADD PUSH1 0x40 MSTORE RETURNDATASIZE DUP3 MSTORE RETURNDATASIZE PUSH0 PUSH1 0x20 DUP5 ADD RETURNDATACOPY PUSH2 0xEAC JUMP JUMPDEST PUSH1 0x60 SWAP2 POP JUMPDEST POP POP SWAP1 POP DUP1 PUSH2 0x7FB JUMPI PUSH1 0x40 MLOAD PUSH3 0x461BCD PUSH1 0xE5 SHL DUP2 MSTORE PUSH1 0x20 PUSH1 0x4 DUP3 ADD MSTORE PUSH1 0x10 PUSH1 0x24 DUP3 ADD MSTORE PUSH16 0x2A3930B739B332B9103330B4B632B217 PUSH1 0x81 SHL PUSH1 0x44 DUP3 ADD MSTORE PUSH1 0x64 ADD PUSH2 0x703 JUMP JUMPDEST PUSH2 0x6DA DUP3 DUP3 PUSH1 0x40 MLOAD DUP1 PUSH1 0x20 ADD PUSH1 0x40 MSTORE DUP1 PUSH0 DUP2 MSTORE POP PUSH2 0x12D9 JUMP JUMPDEST PUSH1 0x1 PUSH1 0x1 PUSH1 0xA0 SHL SUB DUP3 AND PUSH2 0xF3B JUMPI PUSH1 0x40 MLOAD PUSH4 0xB611743 PUSH1 0xE3 SHL DUP2 MSTORE PUSH1 0x1 PUSH1 0x1 PUSH1 0xA0 SHL SUB DUP4 AND PUSH1 0x4 DUP3 ADD MSTORE PUSH1 0x24 ADD PUSH2 0x703 JUMP JUMPDEST PUSH1 0x1 PUSH1 0x1 PUSH1 0xA0 SHL SUB DUP4 DUP2 AND PUSH0 DUP2 DUP2 MSTORE PUSH1 0x5 PUSH1 0x20 SWAP1 DUP2 MSTORE PUSH1 0x40 DUP1 DUP4 KECCAK256 SWAP5 DUP8 AND DUP1 DUP5 MSTORE SWAP5 DUP3 MSTORE SWAP2 DUP3 SWAP1 KECCAK256 DUP1 SLOAD PUSH1 0xFF NOT AND DUP7 ISZERO ISZERO SWAP1 DUP2 OR SWAP1 SWAP2 SSTORE SWAP2 MLOAD SWAP2 DUP3 MSTORE PUSH32 0x17307EAB39AB6107E8899845AD3D59BD9653F200F220920489CA2B5937696C31 SWAP2 ADD PUSH1 0x40 MLOAD DUP1 SWAP2 SUB SWAP1 LOG3 POP POP POP JUMP JUMPDEST PUSH1 0x1 PUSH1 0x1 PUSH1 0xA0 SHL SUB DUP4 AND EXTCODESIZE ISZERO PUSH2 0x766 JUMPI PUSH1 0x40 MLOAD PUSH4 0xA85BD01 PUSH1 0xE1 SHL DUP2 MSTORE PUSH1 0x1 PUSH1 0x1 PUSH1 0xA0 SHL SUB DUP5 AND SWAP1 PUSH4 0x150B7A02 SWAP1 PUSH2 0xFE9 SWAP1 CALLER SWAP1 DUP9 SWAP1 DUP8 SWAP1 DUP8 SWAP1 PUSH1 0x4 ADD PUSH2 0x1CEB JUMP JUMPDEST PUSH1 0x20 PUSH1 0x40 MLOAD DUP1 DUP4 SUB DUP2 PUSH0 DUP8 GAS CALL SWAP3 POP POP POP DUP1 ISZERO PUSH2 0x1023 JUMPI POP PUSH1 0x40 DUP1 MLOAD PUSH1 0x1F RETURNDATASIZE SWAP1 DUP2 ADD PUSH1 0x1F NOT AND DUP3 ADD SWAP1 SWAP3 MSTORE PUSH2 0x1020 SWAP2 DUP2 ADD SWAP1 PUSH2 0x1D27 JUMP JUMPDEST PUSH1 0x1 JUMPDEST PUSH2 0x108A JUMPI RETURNDATASIZE DUP1 DUP1 ISZERO PUSH2 0x1050 JUMPI PUSH1 0x40 MLOAD SWAP2 POP PUSH1 0x1F NOT PUSH1 0x3F RETURNDATASIZE ADD AND DUP3 ADD PUSH1 0x40 MSTORE RETURNDATASIZE DUP3 MSTORE RETURNDATASIZE PUSH0 PUSH1 0x20 DUP5 ADD RETURNDATACOPY PUSH2 0x1055 JUMP JUMPDEST PUSH1 0x60 SWAP2 POP JUMPDEST POP DUP1 MLOAD PUSH0 SUB PUSH2 0x1082 JUMPI PUSH1 0x40 MLOAD PUSH4 0x32505749 PUSH1 0xE1 SHL DUP2 MSTORE PUSH1 0x1 PUSH1 0x1 PUSH1 0xA0 SHL SUB DUP6 AND PUSH1 0x4 DUP3 ADD MSTORE PUSH1 0x24 ADD PUSH2 0x703 JUMP JUMPDEST DUP1 MLOAD DUP2 PUSH1 0x20 ADD REVERT JUMPDEST PUSH1 0x1 PUSH1 0x1 PUSH1 0xE0 SHL SUB NOT DUP2 AND PUSH4 0xA85BD01 PUSH1 0xE1 SHL EQ PUSH2 0x10C6 JUMPI PUSH1 0x40 MLOAD PUSH4 0x32505749 PUSH1 0xE1 SHL DUP2 MSTORE PUSH1 0x1 PUSH1 0x1 PUSH1 0xA0 SHL SUB DUP6 AND PUSH1 0x4 DUP3 ADD MSTORE PUSH1 0x24 ADD PUSH2 0x703 JUMP JUMPDEST POP POP POP POP POP JUMP JUMPDEST PUSH1 0x60 PUSH1 0xC DUP1 SLOAD PUSH2 0x625 SWAP1 PUSH2 0x1B6D JUMP JUMPDEST PUSH1 0x60 PUSH0 PUSH2 0x10E8 DUP4 PUSH2 0x12EF JUMP JUMPDEST PUSH1 0x1 ADD SWAP1 POP PUSH0 DUP2 PUSH8 0xFFFFFFFFFFFFFFFF DUP2 GT ISZERO PUSH2 0x1107 JUMPI PUSH2 0x1107 PUSH2 0x19D1 JUMP JUMPDEST PUSH1 0x40 MLOAD SWAP1 DUP1 DUP3 MSTORE DUP1 PUSH1 0x1F ADD PUSH1 0x1F NOT AND PUSH1 0x20 ADD DUP3 ADD PUSH1 0x40 MSTORE DUP1 ISZERO PUSH2 0x1131 JUMPI PUSH1 0x20 DUP3 ADD DUP2 DUP1 CALLDATASIZE DUP4 CALLDATACOPY ADD SWAP1 POP JUMPDEST POP SWAP1 POP DUP2 DUP2 ADD PUSH1 0x20 ADD JUMPDEST PUSH0 NOT ADD PUSH16 0x181899199A1A9B1B9C1CB0B131B232B3 PUSH1 0x81 SHL PUSH1 0xA DUP7 MOD BYTE DUP2 MSTORE8 PUSH1 0xA DUP6 DIV SWAP5 POP DUP5 PUSH2 0x113B JUMPI POP SWAP4 SWAP3 POP POP POP JUMP JUMPDEST PUSH1 0xA SLOAD PUSH1 0x1 PUSH1 0xA0 SHL SWAP1 DIV PUSH1 0xFF AND ISZERO PUSH2 0x7DF JUMPI PUSH1 0x40 MLOAD PUSH4 0xD93C0665 PUSH1 0xE0 SHL DUP2 MSTORE PUSH1 0x4 ADD PUSH1 0x40 MLOAD DUP1 SWAP2 SUB SWAP1 REVERT JUMPDEST PUSH1 0xA SLOAD PUSH1 0x1 PUSH1 0xA0 SHL SWAP1 DIV PUSH1 0xFF AND PUSH2 0x7DF JUMPI PUSH1 0x40 MLOAD PUSH4 0x8DFC202B PUSH1 0xE0 SHL DUP2 MSTORE PUSH1 0x4 ADD PUSH1 0x40 MLOAD DUP1 SWAP2 SUB SWAP1 REVERT JUMPDEST DUP1 DUP1 PUSH2 0x11D5 JUMPI POP PUSH1 0x1 PUSH1 0x1 PUSH1 0xA0 SHL SUB DUP3 AND ISZERO ISZERO JUMPDEST ISZERO PUSH2 0x1296 JUMPI PUSH0 PUSH2 0x11E4 DUP5 PUSH2 0xD59 JUMP JUMPDEST SWAP1 POP PUSH1 0x1 PUSH1 0x1 PUSH1 0xA0 SHL SUB DUP4 AND ISZERO DUP1 ISZERO SWAP1 PUSH2 0x1210 JUMPI POP DUP3 PUSH1 0x1 PUSH1 0x1 PUSH1 0xA0 SHL SUB AND DUP2 PUSH1 0x1 PUSH1 0x1 PUSH1 0xA0 SHL SUB AND EQ ISZERO JUMPDEST DUP1 ISZERO PUSH2 0x1223 JUMPI POP PUSH2 0x1221 DUP2 DUP5 PUSH2 0xC29 JUMP JUMPDEST ISZERO JUMPDEST ISZERO PUSH2 0x124C JUMPI PUSH1 0x40 MLOAD PUSH4 0xA9FBF51F PUSH1 0xE0 SHL DUP2 MSTORE PUSH1 0x1 PUSH1 0x1 PUSH1 0xA0 SHL SUB DUP5 AND PUSH1 0x4 DUP3 ADD MSTORE PUSH1 0x24 ADD PUSH2 0x703 JUMP JUMPDEST DUP2 ISZERO PUSH2 0x1294 JUMPI DUP4 DUP6 PUSH1 0x1 PUSH1 0x1 PUSH1 0xA0 SHL SUB AND DUP3 PUSH1 0x1 PUSH1 0x1 PUSH1 0xA0 SHL SUB AND PUSH32 0x8C5BE1E5EBEC7D5BD14F71427D1E84F3DD0314C0F7B2291E5B200AC8C7C3B925 PUSH1 0x40 MLOAD PUSH1 0x40 MLOAD DUP1 SWAP2 SUB SWAP1 LOG4 JUMPDEST POP JUMPDEST POP POP PUSH0 SWAP1 DUP2 MSTORE PUSH1 0x4 PUSH1 0x20 MSTORE PUSH1 0x40 SWAP1 KECCAK256 DUP1 SLOAD PUSH1 0x1 PUSH1 0x1 PUSH1 0xA0 SHL SUB NOT AND PUSH1 0x1 PUSH1 0x1 PUSH1 0xA0 SHL SUB SWAP3 SWAP1 SWAP3 AND SWAP2 SWAP1 SWAP2 OR SWAP1 SSTORE JUMP JUMPDEST PUSH0 PUSH2 0x12CE PUSH2 0x116C JUMP JUMPDEST PUSH2 0xDAA DUP5 DUP5 DUP5 PUSH2 0x13C6 JUMP JUMPDEST PUSH2 0x12E3 DUP4 DUP4 PUSH2 0x1491 JUMP JUMPDEST PUSH2 0x7FB PUSH0 DUP5 DUP5 DUP5 PUSH2 0xFA7 JUMP JUMPDEST PUSH0 DUP1 PUSH19 0x184F03E93FF9F4DAA797ED6E38ED64BF6A1F01 PUSH1 0x40 SHL DUP4 LT PUSH2 0x132D JUMPI PUSH19 0x184F03E93FF9F4DAA797ED6E38ED64BF6A1F01 PUSH1 0x40 SHL DUP4 DIV SWAP3 POP PUSH1 0x40 ADD JUMPDEST PUSH14 0x4EE2D6D415B85ACEF8100000000 DUP4 LT PUSH2 0x1359 JUMPI PUSH14 0x4EE2D6D415B85ACEF8100000000 DUP4 DIV SWAP3 POP PUSH1 0x20 ADD JUMPDEST PUSH7 0x2386F26FC10000 DUP4 LT PUSH2 0x1377 JUMPI PUSH7 0x2386F26FC10000 DUP4 DIV SWAP3 POP PUSH1 0x10 ADD JUMPDEST PUSH4 0x5F5E100 DUP4 LT PUSH2 0x138F JUMPI PUSH4 0x5F5E100 DUP4 DIV SWAP3 POP PUSH1 0x8 ADD JUMPDEST PUSH2 0x2710 DUP4 LT PUSH2 0x13A3 JUMPI PUSH2 0x2710 DUP4 DIV SWAP3 POP PUSH1 0x4 ADD JUMPDEST PUSH1 0x64 DUP4 LT PUSH2 0x13B5 JUMPI PUSH1 0x64 DUP4 DIV SWAP3 POP PUSH1 0x2 ADD JUMPDEST PUSH1 0xA DUP4 LT PUSH2 0x6C9 JUMPI PUSH1 0x1 ADD SWAP3 SWAP2 POP POP JUMP JUMPDEST PUSH0 DUP1 PUSH2 0x13D3 DUP6 DUP6 DUP6 PUSH2 0x14F2 JUMP JUMPDEST SWAP1 POP PUSH1 0x1 PUSH1 0x1 PUSH1 0xA0 SHL SUB DUP2 AND PUSH2 0x142F JUMPI PUSH2 0x142A DUP5 PUSH1 0x8 DUP1 SLOAD PUSH0 DUP4 DUP2 MSTORE PUSH1 0x9 PUSH1 0x20 MSTORE PUSH1 0x40 DUP2 KECCAK256 DUP3 SWAP1 SSTORE PUSH1 0x1 DUP3 ADD DUP4 SSTORE SWAP2 SWAP1 SWAP2 MSTORE PUSH32 0xF3F7A9FE364FAAB93B216DA50A3214154F22A0A2B415B23A84C8169E8B636EE3 ADD SSTORE JUMP JUMPDEST PUSH2 0x1452 JUMP JUMPDEST DUP5 PUSH1 0x1 PUSH1 0x1 PUSH1 0xA0 SHL SUB AND DUP2 PUSH1 0x1 PUSH1 0x1 PUSH1 0xA0 SHL SUB AND EQ PUSH2 0x1452 JUMPI PUSH2 0x1452 DUP2 DUP6 PUSH2 0x15E4 JUMP JUMPDEST PUSH1 0x1 PUSH1 0x1 PUSH1 0xA0 SHL SUB DUP6 AND PUSH2 0x146E JUMPI PUSH2 0x1469 DUP5 PUSH2 0x1671 JUMP JUMPDEST PUSH2 0xDAA JUMP JUMPDEST DUP5 PUSH1 0x1 PUSH1 0x1 PUSH1 0xA0 SHL SUB AND DUP2 PUSH1 0x1 PUSH1 0x1 PUSH1 0xA0 SHL SUB AND EQ PUSH2 0xDAA JUMPI PUSH2 0xDAA DUP6 DUP6 PUSH2 0x1718 JUMP JUMPDEST PUSH1 0x1 PUSH1 0x1 PUSH1 0xA0 SHL SUB DUP3 AND PUSH2 0x14BA JUMPI PUSH1 0x40 MLOAD PUSH4 0x32505749 PUSH1 0xE1 SHL DUP2 MSTORE PUSH0 PUSH1 0x4 DUP3 ADD MSTORE PUSH1 0x24 ADD PUSH2 0x703 JUMP JUMPDEST PUSH0 PUSH2 0x14C6 DUP4 DUP4 PUSH0 PUSH2 0xD9E JUMP JUMPDEST SWAP1 POP PUSH1 0x1 PUSH1 0x1 PUSH1 0xA0 SHL SUB DUP2 AND ISZERO PUSH2 0x7FB JUMPI PUSH1 0x40 MLOAD PUSH4 0x39E35637 PUSH1 0xE1 SHL DUP2 MSTORE PUSH0 PUSH1 0x4 DUP3 ADD MSTORE PUSH1 0x24 ADD PUSH2 0x703 JUMP JUMPDEST PUSH0 DUP3 DUP2 MSTORE PUSH1 0x2 PUSH1 0x20 MSTORE PUSH1 0x40 DUP2 KECCAK256 SLOAD PUSH1 0x1 PUSH1 0x1 PUSH1 0xA0 SHL SUB SWAP1 DUP2 AND SWAP1 DUP4 AND ISZERO PUSH2 0x151E JUMPI PUSH2 0x151E DUP2 DUP5 DUP7 PUSH2 0x1766 JUMP JUMPDEST PUSH1 0x1 PUSH1 0x1 PUSH1 0xA0 SHL SUB DUP2 AND ISZERO PUSH2 0x1558 JUMPI PUSH2 0x1539 PUSH0 DUP6 PUSH0 DUP1 PUSH2 0x11C1 JUMP JUMPDEST PUSH1 0x1 PUSH1 0x1 PUSH1 0xA0 SHL SUB DUP2 AND PUSH0 SWAP1 DUP2 MSTORE PUSH1 0x3 PUSH1 0x20 MSTORE PUSH1 0x40 SWAP1 KECCAK256 DUP1 SLOAD PUSH0 NOT ADD SWAP1 SSTORE JUMPDEST PUSH1 0x1 PUSH1 0x1 PUSH1 0xA0 SHL SUB DUP6 AND ISZERO PUSH2 0x1586 JUMPI PUSH1 0x1 PUSH1 0x1 PUSH1 0xA0 SHL SUB DUP6 AND PUSH0 SWAP1 DUP2 MSTORE PUSH1 0x3 PUSH1 0x20 MSTORE PUSH1 0x40 SWAP1 KECCAK256 DUP1 SLOAD PUSH1 0x1 ADD SWAP1 SSTORE JUMPDEST PUSH0 DUP5 DUP2 MSTORE PUSH1 0x2 PUSH1 0x20 MSTORE PUSH1 0x40 DUP1 DUP3 KECCAK256 DUP1 SLOAD PUSH1 0x1 PUSH1 0x1 PUSH1 0xA0 SHL SUB NOT AND PUSH1 0x1 PUSH1 0x1 PUSH1 0xA0 SHL SUB DUP10 DUP2 AND SWAP2 DUP3 OR SWAP1 SWAP3 SSTORE SWAP2 MLOAD DUP8 SWAP4 SWAP2 DUP6 AND SWAP2 PUSH32 0xDDF252AD1BE2C89B69C2B068FC378DAA952BA7F163C4A11628F55A4DF523B3EF SWAP2 LOG4 SWAP5 SWAP4 POP POP POP POP JUMP JUMPDEST PUSH0 PUSH2 0x15EE DUP4 PUSH2 0xA55 JUMP JUMPDEST PUSH0 DUP4 DUP2 MSTORE PUSH1 0x7 PUSH1 0x20 MSTORE PUSH1 0x40 SWAP1 KECCAK256 SLOAD SWAP1 SWAP2 POP DUP1 DUP3 EQ PUSH2 0x163F JUMPI PUSH1 0x1 PUSH1 0x1 PUSH1 0xA0 SHL SUB DUP5 AND PUSH0 SWAP1 DUP2 MSTORE PUSH1 0x6 PUSH1 0x20 SWAP1 DUP2 MSTORE PUSH1 0x40 DUP1 DUP4 KECCAK256 DUP6 DUP5 MSTORE DUP3 MSTORE DUP1 DUP4 KECCAK256 SLOAD DUP5 DUP5 MSTORE DUP2 DUP5 KECCAK256 DUP2 SWAP1 SSTORE DUP4 MSTORE PUSH1 0x7 SWAP1 SWAP2 MSTORE SWAP1 KECCAK256 DUP2 SWAP1 SSTORE JUMPDEST POP PUSH0 SWAP2 DUP3 MSTORE PUSH1 0x7 PUSH1 0x20 SWAP1 DUP2 MSTORE PUSH1 0x40 DUP1 DUP5 KECCAK256 DUP5 SWAP1 SSTORE PUSH1 0x1 PUSH1 0x1 PUSH1 0xA0 SHL SUB SWAP1 SWAP5 AND DUP4 MSTORE PUSH1 0x6 DUP2 MSTORE DUP4 DUP4 KECCAK256 SWAP2 DUP4 MSTORE MSTORE SWAP1 DUP2 KECCAK256 SSTORE JUMP JUMPDEST PUSH1 0x8 SLOAD PUSH0 SWAP1 PUSH2 0x1682 SWAP1 PUSH1 0x1 SWAP1 PUSH2 0x1D42 JUMP JUMPDEST PUSH0 DUP4 DUP2 MSTORE PUSH1 0x9 PUSH1 0x20 MSTORE PUSH1 0x40 DUP2 KECCAK256 SLOAD PUSH1 0x8 DUP1 SLOAD SWAP4 SWAP5 POP SWAP1 SWAP3 DUP5 SWAP1 DUP2 LT PUSH2 0x16A9 JUMPI PUSH2 0x16A9 PUSH2 0x1BA5 JUMP JUMPDEST SWAP1 PUSH0 MSTORE PUSH1 0x20 PUSH0 KECCAK256 ADD SLOAD SWAP1 POP DUP1 PUSH1 0x8 DUP4 DUP2 SLOAD DUP2 LT PUSH2 0x16C8 JUMPI PUSH2 0x16C8 PUSH2 0x1BA5 JUMP JUMPDEST PUSH0 SWAP2 DUP3 MSTORE PUSH1 0x20 DUP1 DUP4 KECCAK256 SWAP1 SWAP2 ADD SWAP3 SWAP1 SWAP3 SSTORE DUP3 DUP2 MSTORE PUSH1 0x9 SWAP1 SWAP2 MSTORE PUSH1 0x40 DUP1 DUP3 KECCAK256 DUP5 SWAP1 SSTORE DUP6 DUP3 MSTORE DUP2 KECCAK256 SSTORE PUSH1 0x8 DUP1 SLOAD DUP1 PUSH2 0x16FF JUMPI PUSH2 0x16FF PUSH2 0x1D61 JUMP JUMPDEST PUSH1 0x1 SWAP1 SUB DUP2 DUP2 SWAP1 PUSH0 MSTORE PUSH1 0x20 PUSH0 KECCAK256 ADD PUSH0 SWAP1 SSTORE SWAP1 SSTORE POP POP POP POP JUMP JUMPDEST PUSH0 PUSH1 0x1 PUSH2 0x1724 DUP5 PUSH2 0xA55 JUMP JUMPDEST PUSH2 0x172E SWAP2 SWAP1 PUSH2 0x1D42 JUMP JUMPDEST PUSH1 0x1 PUSH1 0x1 PUSH1 0xA0 SHL SUB SWAP1 SWAP4 AND PUSH0 SWAP1 DUP2 MSTORE PUSH1 0x6 PUSH1 0x20 SWAP1 DUP2 MSTORE PUSH1 0x40 DUP1 DUP4 KECCAK256 DUP7 DUP5 MSTORE DUP3 MSTORE DUP1 DUP4 KECCAK256 DUP6 SWAP1 SSTORE SWAP4 DUP3 MSTORE PUSH1 0x7 SWAP1 MSTORE SWAP2 SWAP1 SWAP2 KECCAK256 SWAP2 SWAP1 SWAP2 SSTORE POP JUMP JUMPDEST PUSH2 0x1771 DUP4 DUP4 DUP4 PUSH2 0x17CA JUMP JUMPDEST PUSH2 0x7FB JUMPI PUSH1 0x1 PUSH1 0x1 PUSH1 0xA0 SHL SUB DUP4 AND PUSH2 0x179F JUMPI PUSH1 0x40 MLOAD PUSH4 0x7E273289 PUSH1 0xE0 SHL DUP2 MSTORE PUSH1 0x4 DUP2 ADD DUP3 SWAP1 MSTORE PUSH1 0x24 ADD PUSH2 0x703 JUMP JUMPDEST PUSH1 0x40 MLOAD PUSH4 0x177E802F PUSH1 0xE0 SHL DUP2 MSTORE PUSH1 0x1 PUSH1 0x1 PUSH1 0xA0 SHL SUB DUP4 AND PUSH1 0x4 DUP3 ADD MSTORE PUSH1 0x24 DUP2 ADD DUP3 SWAP1 MSTORE PUSH1 0x44 ADD PUSH2 0x703 JUMP JUMPDEST PUSH0 PUSH1 0x1 PUSH1 0x1 PUSH1 0xA0 SHL SUB DUP4 AND ISZERO DUP1 ISZERO SWAP1 PUSH2 0xDAA JUMPI POP DUP3 PUSH1 0x1 PUSH1 0x1 PUSH1 0xA0 SHL SUB AND DUP5 PUSH1 0x1 PUSH1 0x1 PUSH1 0xA0 SHL SUB AND EQ DUP1 PUSH2 0x1803 JUMPI POP PUSH2 0x1803 DUP5 DUP5 PUSH2 0xC29 JUMP JUMPDEST DUP1 PUSH2 0xDAA JUMPI POP POP PUSH0 SWAP1 DUP2 MSTORE PUSH1 0x4 PUSH1 0x20 MSTORE PUSH1 0x40 SWAP1 KECCAK256 SLOAD PUSH1 0x1 PUSH1 0x1 PUSH1 0xA0 SHL SUB SWAP1 DUP2 AND SWAP2 AND EQ SWAP2 SWAP1 POP JUMP JUMPDEST PUSH1 0x1 PUSH1 0x1 PUSH1 0xE0 SHL SUB NOT DUP2 AND DUP2 EQ PUSH2 0x60C JUMPI PUSH0 DUP1 REVERT JUMPDEST PUSH0 PUSH1 0x20 DUP3 DUP5 SUB SLT ISZERO PUSH2 0x1850 JUMPI PUSH0 DUP1 REVERT JUMPDEST DUP2 CALLDATALOAD PUSH2 0xB96 DUP2 PUSH2 0x182B JUMP JUMPDEST DUP1 CALLDATALOAD DUP1 ISZERO ISZERO DUP2 EQ PUSH2 0x186A JUMPI PUSH0 DUP1 REVERT JUMPDEST SWAP2 SWAP1 POP JUMP JUMPDEST PUSH0 PUSH1 0x20 DUP3 DUP5 SUB SLT ISZERO PUSH2 0x187F JUMPI PUSH0 DUP1 REVERT JUMPDEST PUSH2 0xB96 DUP3 PUSH2 0x185B JUMP JUMPDEST PUSH0 JUMPDEST DUP4 DUP2 LT ISZERO PUSH2 0x18A2 JUMPI DUP2 DUP2 ADD MLOAD DUP4 DUP3 ADD MSTORE PUSH1 0x20 ADD PUSH2 0x188A JUMP JUMPDEST POP POP PUSH0 SWAP2 ADD MSTORE JUMP JUMPDEST PUSH0 DUP2 MLOAD DUP1 DUP5 MSTORE PUSH2 0x18C1 DUP2 PUSH1 0x20 DUP7 ADD PUSH1 0x20 DUP7 ADD PUSH2 0x1888 JUMP JUMPDEST PUSH1 0x1F ADD PUSH1 0x1F NOT AND SWAP3 SWAP1 SWAP3 ADD PUSH1 0x20 ADD SWAP3 SWAP2 POP POP JUMP JUMPDEST PUSH1 0x20 DUP2 MSTORE PUSH0 PUSH2 0xB96 PUSH1 0x20 DUP4 ADD DUP5 PUSH2 0x18AA JUMP JUMPDEST PUSH0 PUSH1 0x20 DUP3 DUP5 SUB SLT ISZERO PUSH2 0x18F7 JUMPI PUSH0 DUP1 REVERT JUMPDEST POP CALLDATALOAD SWAP2 SWAP1 POP JUMP JUMPDEST DUP1 CALLDATALOAD PUSH1 0x1 PUSH1 0x1 PUSH1 0xA0 SHL SUB DUP2 AND DUP2 EQ PUSH2 0x186A JUMPI PUSH0 DUP1 REVERT JUMPDEST PUSH0 DUP1 PUSH1 0x40 DUP4 DUP6 SUB SLT ISZERO PUSH2 0x1925 JUMPI PUSH0 DUP1 REVERT JUMPDEST PUSH2 0x192E DUP4 PUSH2 0x18FE JUMP JUMPDEST SWAP5 PUSH1 0x20 SWAP4 SWAP1 SWAP4 ADD CALLDATALOAD SWAP4 POP POP POP JUMP JUMPDEST PUSH0 DUP1 PUSH0 PUSH1 0x60 DUP5 DUP7 SUB SLT ISZERO PUSH2 0x194E JUMPI PUSH0 DUP1 REVERT JUMPDEST PUSH2 0x1957 DUP5 PUSH2 0x18FE JUMP JUMPDEST SWAP3 POP PUSH2 0x1965 PUSH1 0x20 DUP6 ADD PUSH2 0x18FE JUMP JUMPDEST SWAP2 POP PUSH1 0x40 DUP5 ADD CALLDATALOAD SWAP1 POP SWAP3 POP SWAP3 POP SWAP3 JUMP JUMPDEST PUSH0 PUSH1 0x20 DUP3 DUP5 SUB SLT ISZERO PUSH2 0x1985 JUMPI PUSH0 DUP1 REVERT JUMPDEST PUSH2 0xB96 DUP3 PUSH2 0x18FE JUMP JUMPDEST PUSH1 0x20 DUP1 DUP3 MSTORE DUP3 MLOAD DUP3 DUP3 ADD DUP2 SWAP1 MSTORE PUSH0 SWAP2 SWAP1 DUP5 DUP3 ADD SWAP1 PUSH1 0x40 DUP6 ADD SWAP1 DUP5 JUMPDEST DUP2 DUP2 LT ISZERO PUSH2 0x19C5 JUMPI DUP4 MLOAD DUP4 MSTORE SWAP3 DUP5 ADD SWAP3 SWAP2 DUP5 ADD SWAP2 PUSH1 0x1 ADD PUSH2 0x19A9 JUMP JUMPDEST POP SWAP1 SWAP7 SWAP6 POP POP POP POP POP POP JUMP JUMPDEST PUSH4 0x4E487B71 PUSH1 0xE0 SHL PUSH0 MSTORE PUSH1 0x41 PUSH1 0x4 MSTORE PUSH1 0x24 PUSH0 REVERT JUMPDEST PUSH0 PUSH8 0xFFFFFFFFFFFFFFFF DUP1 DUP5 GT ISZERO PUSH2 0x19FF JUMPI PUSH2 0x19FF PUSH2 0x19D1 JUMP JUMPDEST PUSH1 0x40 MLOAD PUSH1 0x1F DUP6 ADD PUSH1 0x1F NOT SWAP1 DUP2 AND PUSH1 0x3F ADD AND DUP2 ADD SWAP1 DUP3 DUP3 GT DUP2 DUP4 LT OR ISZERO PUSH2 0x1A27 JUMPI PUSH2 0x1A27 PUSH2 0x19D1 JUMP JUMPDEST DUP2 PUSH1 0x40 MSTORE DUP1 SWAP4 POP DUP6 DUP2 MSTORE DUP7 DUP7 DUP7 ADD GT ISZERO PUSH2 0x1A3F JUMPI PUSH0 DUP1 REVERT JUMPDEST DUP6 DUP6 PUSH1 0x20 DUP4 ADD CALLDATACOPY PUSH0 PUSH1 0x20 DUP8 DUP4 ADD ADD MSTORE POP POP POP SWAP4 SWAP3 POP POP POP JUMP JUMPDEST PUSH0 PUSH1 0x20 DUP3 DUP5 SUB SLT ISZERO PUSH2 0x1A68 JUMPI PUSH0 DUP1 REVERT JUMPDEST DUP2 CALLDATALOAD PUSH8 0xFFFFFFFFFFFFFFFF DUP2 GT ISZERO PUSH2 0x1A7E JUMPI PUSH0 DUP1 REVERT JUMPDEST DUP3 ADD PUSH1 0x1F DUP2 ADD DUP5 SGT PUSH2 0x1A8E JUMPI PUSH0 DUP1 REVERT JUMPDEST PUSH2 0xDAA DUP5 DUP3 CALLDATALOAD PUSH1 0x20 DUP5 ADD PUSH2 0x19E5 JUMP JUMPDEST PUSH0 DUP1 PUSH1 0x40 DUP4 DUP6 SUB SLT ISZERO PUSH2 0x1AAE JUMPI PUSH0 DUP1 REVERT JUMPDEST PUSH2 0x1AB7 DUP4 PUSH2 0x18FE JUMP JUMPDEST SWAP2 POP PUSH2 0x1AC5 PUSH1 0x20 DUP5 ADD PUSH2 0x185B JUMP JUMPDEST SWAP1 POP SWAP3 POP SWAP3 SWAP1 POP JUMP JUMPDEST PUSH0 DUP1 PUSH0 DUP1 PUSH1 0x80 DUP6 DUP8 SUB SLT ISZERO PUSH2 0x1AE1 JUMPI PUSH0 DUP1 REVERT JUMPDEST PUSH2 0x1AEA DUP6 PUSH2 0x18FE JUMP JUMPDEST SWAP4 POP PUSH2 0x1AF8 PUSH1 0x20 DUP7 ADD PUSH2 0x18FE JUMP JUMPDEST SWAP3 POP PUSH1 0x40 DUP6 ADD CALLDATALOAD SWAP2 POP PUSH1 0x60 DUP6 ADD CALLDATALOAD PUSH8 0xFFFFFFFFFFFFFFFF DUP2 GT ISZERO PUSH2 0x1B1A JUMPI PUSH0 DUP1 REVERT JUMPDEST DUP6 ADD PUSH1 0x1F DUP2 ADD DUP8 SGT PUSH2 0x1B2A JUMPI PUSH0 DUP1 REVERT JUMPDEST PUSH2 0x1B39 DUP8 DUP3 CALLDATALOAD PUSH1 0x20 DUP5 ADD PUSH2 0x19E5 JUMP JUMPDEST SWAP2 POP POP SWAP3 SWAP6 SWAP2 SWAP5 POP SWAP3 POP JUMP JUMPDEST PUSH0 DUP1 PUSH1 0x40 DUP4 DUP6 SUB SLT ISZERO PUSH2 0x1B56 JUMPI PUSH0 DUP1 REVERT JUMPDEST PUSH2 0x1B5F DUP4 PUSH2 0x18FE JUMP JUMPDEST SWAP2 POP PUSH2 0x1AC5 PUSH1 0x20 DUP5 ADD PUSH2 0x18FE JUMP JUMPDEST PUSH1 0x1 DUP2 DUP2 SHR SWAP1 DUP3 AND DUP1 PUSH2 0x1B81 JUMPI PUSH1 0x7F DUP3 AND SWAP2 POP JUMPDEST PUSH1 0x20 DUP3 LT DUP2 SUB PUSH2 0x1B9F JUMPI PUSH4 0x4E487B71 PUSH1 0xE0 SHL PUSH0 MSTORE PUSH1 0x22 PUSH1 0x4 MSTORE PUSH1 0x24 PUSH0 REVERT JUMPDEST POP SWAP2 SWAP1 POP JUMP JUMPDEST PUSH4 0x4E487B71 PUSH1 0xE0 SHL PUSH0 MSTORE PUSH1 0x32 PUSH1 0x4 MSTORE PUSH1 0x24 PUSH0 REVERT JUMPDEST PUSH1 0x1F DUP3 GT ISZERO PUSH2 0x7FB JUMPI DUP1 PUSH0 MSTORE PUSH1 0x20 PUSH0 KECCAK256 PUSH1 0x1F DUP5 ADD PUSH1 0x5 SHR DUP2 ADD PUSH1 0x20 DUP6 LT ISZERO PUSH2 0x1BDE JUMPI POP DUP1 JUMPDEST PUSH1 0x1F DUP5 ADD PUSH1 0x5 SHR DUP3 ADD SWAP2 POP JUMPDEST DUP2 DUP2 LT ISZERO PUSH2 0x10C6 JUMPI PUSH0 DUP2 SSTORE PUSH1 0x1 ADD PUSH2 0x1BEA JUMP JUMPDEST DUP2 MLOAD PUSH8 0xFFFFFFFFFFFFFFFF DUP2 GT ISZERO PUSH2 0x1C17 JUMPI PUSH2 0x1C17 PUSH2 0x19D1 JUMP JUMPDEST PUSH2 0x1C2B DUP2 PUSH2 0x1C25 DUP5 SLOAD PUSH2 0x1B6D JUMP JUMPDEST DUP5 PUSH2 0x1BB9 JUMP JUMPDEST PUSH1 0x20 DUP1 PUSH1 0x1F DUP4 GT PUSH1 0x1 DUP2 EQ PUSH2 0x1C5E JUMPI PUSH0 DUP5 ISZERO PUSH2 0x1C47 JUMPI POP DUP6 DUP4 ADD MLOAD JUMPDEST PUSH0 NOT PUSH1 0x3 DUP7 SWAP1 SHL SHR NOT AND PUSH1 0x1 DUP6 SWAP1 SHL OR DUP6 SSTORE PUSH2 0x1CB5 JUMP JUMPDEST PUSH0 DUP6 DUP2 MSTORE PUSH1 0x20 DUP2 KECCAK256 PUSH1 0x1F NOT DUP7 AND SWAP2 JUMPDEST DUP3 DUP2 LT ISZERO PUSH2 0x1C8C JUMPI DUP9 DUP7 ADD MLOAD DUP3 SSTORE SWAP5 DUP5 ADD SWAP5 PUSH1 0x1 SWAP1 SWAP2 ADD SWAP1 DUP5 ADD PUSH2 0x1C6D JUMP JUMPDEST POP DUP6 DUP3 LT ISZERO PUSH2 0x1CA9 JUMPI DUP8 DUP6 ADD MLOAD PUSH0 NOT PUSH1 0x3 DUP9 SWAP1 SHL PUSH1 0xF8 AND SHR NOT AND DUP2 SSTORE JUMPDEST POP POP PUSH1 0x1 DUP5 PUSH1 0x1 SHL ADD DUP6 SSTORE JUMPDEST POP POP POP POP POP POP JUMP JUMPDEST PUSH0 DUP4 MLOAD PUSH2 0x1CCE DUP2 DUP5 PUSH1 0x20 DUP9 ADD PUSH2 0x1888 JUMP JUMPDEST DUP4 MLOAD SWAP1 DUP4 ADD SWAP1 PUSH2 0x1CE2 DUP2 DUP4 PUSH1 0x20 DUP9 ADD PUSH2 0x1888 JUMP JUMPDEST ADD SWAP5 SWAP4 POP POP POP POP JUMP JUMPDEST PUSH1 0x1 PUSH1 0x1 PUSH1 0xA0 SHL SUB DUP6 DUP2 AND DUP3 MSTORE DUP5 AND PUSH1 0x20 DUP3 ADD MSTORE PUSH1 0x40 DUP2 ADD DUP4 SWAP1 MSTORE PUSH1 0x80 PUSH1 0x60 DUP3 ADD DUP2 SWAP1 MSTORE PUSH0 SWAP1 PUSH2 0x1D1D SWAP1 DUP4 ADD DUP5 PUSH2 0x18AA JUMP JUMPDEST SWAP7 SWAP6 POP POP POP POP POP POP JUMP JUMPDEST PUSH0 PUSH1 0x20 DUP3 DUP5 SUB SLT ISZERO PUSH2 0x1D37 JUMPI PUSH0 DUP1 REVERT JUMPDEST DUP2 MLOAD PUSH2 0xB96 DUP2 PUSH2 0x182B JUMP JUMPDEST DUP2 DUP2 SUB DUP2 DUP2 GT ISZERO PUSH2 0x6C9 JUMPI PUSH4 0x4E487B71 PUSH1 0xE0 SHL PUSH0 MSTORE PUSH1 0x11 PUSH1 0x4 MSTORE PUSH1 0x24 PUSH0 REVERT JUMPDEST PUSH4 0x4E487B71 PUSH1 0xE0 SHL PUSH0 MSTORE PUSH1 0x31 PUSH1 0x4 MSTORE PUSH1 0x24 PUSH0 REVERT INVALID LOG2 PUSH5 0x6970667358 0x22 SLT KECCAK256 DUP4 0x24 0x28 DIV SWAP10 DUP13 0xC9 POP PUSH26 0xFD06AAD388FD4D850544295D40EC7EABC942DA3111F35764736F PUSH13 0x63430008170033000000000000 "
				},
				"gasEstimates": {
					"creation": {
						"codeDepositCost": "1519000",
						"executionCost": "infinite",
						"totalCost": "infinite"
					},
					"external": {
						"MAX_ELEMENTS()": "240",
						"approve(address,uint256)": "31487",
						"balanceOf(address)": "2675",
						"baseTokenURI()": "infinite",
						"burn(uint256)": "infinite",
						"getApproved(uint256)": "infinite",
						"getPrice()": "2336",
						"isApprovedForAll(address,address)": "infinite",
						"mint(address)": "infinite",
						"name()": "infinite",
						"owner()": "2419",
						"ownerOf(uint256)": "infinite",
						"pause()": "infinite",
						"pause(bool)": "infinite",
						"paused()": "2442",
						"price()": "2361",
						"renounceOwnership()": "infinite",
						"safeMint(address,uint256)": "infinite",
						"safeTransferFrom(address,address,uint256)": "infinite",
						"safeTransferFrom(address,address,uint256,bytes)": "infinite",
						"setApprovalForAll(address,bool)": "infinite",
						"setBaseURI(string)": "infinite",
						"setPrice(uint256)": "24597",
						"supportsInterface(bytes4)": "391",
						"symbol()": "infinite",
						"tokenByIndex(uint256)": "6777",
						"tokenOfOwnerByIndex(address,uint256)": "5036",
						"tokenURI(uint256)": "infinite",
						"totalMint()": "infinite",
						"totalSupply()": "2348",
						"transferFrom(address,address,uint256)": "infinite",
						"transferOwnership(address)": "28465",
						"unpause()": "infinite",
						"walletOfOwner(address)": "infinite",
						"withdrawAll()": "infinite"
					},
					"internal": {
						"_baseURI()": "infinite",
						"_increaseBalance(address,uint128)": "infinite",
						"_mintAnElement(address)": "infinite",
						"_totalSupply()": "2137",
						"_update(address,uint256,address)": "infinite",
						"_widthdraw(address,uint256)": "infinite"
					}
				},
				"methodIdentifiers": {
					"MAX_ELEMENTS()": "3502a716",
					"approve(address,uint256)": "095ea7b3",
					"balanceOf(address)": "70a08231",
					"baseTokenURI()": "d547cfb7",
					"burn(uint256)": "42966c68",
					"getApproved(uint256)": "081812fc",
					"getPrice()": "98d5fdca",
					"isApprovedForAll(address,address)": "e985e9c5",
					"mint(address)": "6a627842",
					"name()": "06fdde03",
					"owner()": "8da5cb5b",
					"ownerOf(uint256)": "6352211e",
					"pause()": "8456cb59",
					"pause(bool)": "02329a29",
					"paused()": "5c975abb",
					"price()": "a035b1fe",
					"renounceOwnership()": "715018a6",
					"safeMint(address,uint256)": "a1448194",
					"safeTransferFrom(address,address,uint256)": "42842e0e",
					"safeTransferFrom(address,address,uint256,bytes)": "b88d4fde",
					"setApprovalForAll(address,bool)": "a22cb465",
					"setBaseURI(string)": "55f804b3",
					"setPrice(uint256)": "91b7f5ed",
					"supportsInterface(bytes4)": "01ffc9a7",
					"symbol()": "95d89b41",
					"tokenByIndex(uint256)": "4f6ccce7",
					"tokenOfOwnerByIndex(address,uint256)": "2f745c59",
					"tokenURI(uint256)": "c87b56dd",
					"totalMint()": "59a7715a",
					"totalSupply()": "18160ddd",
					"transferFrom(address,address,uint256)": "23b872dd",
					"transferOwnership(address)": "f2fde38b",
					"unpause()": "3f4ba83a",
					"walletOfOwner(address)": "438b6300",
					"withdrawAll()": "853828b6"
				}
			},
			"storageLayout": {
				"storage": [
					{
						"astId": 317,
						"contract": "contracts/BlastPandas.sol:BlastPandas",
						"label": "_name",
						"offset": 0,
						"slot": "0",
						"type": "t_string_storage"
					},
					{
						"astId": 319,
						"contract": "contracts/BlastPandas.sol:BlastPandas",
						"label": "_symbol",
						"offset": 0,
						"slot": "1",
						"type": "t_string_storage"
					},
					{
						"astId": 323,
						"contract": "contracts/BlastPandas.sol:BlastPandas",
						"label": "_owners",
						"offset": 0,
						"slot": "2",
						"type": "t_mapping(t_uint256,t_address)"
					},
					{
						"astId": 327,
						"contract": "contracts/BlastPandas.sol:BlastPandas",
						"label": "_balances",
						"offset": 0,
						"slot": "3",
						"type": "t_mapping(t_address,t_uint256)"
					},
					{
						"astId": 331,
						"contract": "contracts/BlastPandas.sol:BlastPandas",
						"label": "_tokenApprovals",
						"offset": 0,
						"slot": "4",
						"type": "t_mapping(t_uint256,t_address)"
					},
					{
						"astId": 337,
						"contract": "contracts/BlastPandas.sol:BlastPandas",
						"label": "_operatorApprovals",
						"offset": 0,
						"slot": "5",
						"type": "t_mapping(t_address,t_mapping(t_address,t_bool))"
					},
					{
						"astId": 1476,
						"contract": "contracts/BlastPandas.sol:BlastPandas",
						"label": "_ownedTokens",
						"offset": 0,
						"slot": "6",
						"type": "t_mapping(t_address,t_mapping(t_uint256,t_uint256))"
					},
					{
						"astId": 1480,
						"contract": "contracts/BlastPandas.sol:BlastPandas",
						"label": "_ownedTokensIndex",
						"offset": 0,
						"slot": "7",
						"type": "t_mapping(t_uint256,t_uint256)"
					},
					{
						"astId": 1483,
						"contract": "contracts/BlastPandas.sol:BlastPandas",
						"label": "_allTokens",
						"offset": 0,
						"slot": "8",
						"type": "t_array(t_uint256)dyn_storage"
					},
					{
						"astId": 1487,
						"contract": "contracts/BlastPandas.sol:BlastPandas",
						"label": "_allTokensIndex",
						"offset": 0,
						"slot": "9",
						"type": "t_mapping(t_uint256,t_uint256)"
					},
					{
						"astId": 8,
						"contract": "contracts/BlastPandas.sol:BlastPandas",
						"label": "_owner",
						"offset": 0,
						"slot": "10",
						"type": "t_address"
					},
					{
						"astId": 2049,
						"contract": "contracts/BlastPandas.sol:BlastPandas",
						"label": "_paused",
						"offset": 20,
						"slot": "10",
						"type": "t_bool"
					},
					{
						"astId": 3946,
						"contract": "contracts/BlastPandas.sol:BlastPandas",
						"label": "_tokenIdTracker",
						"offset": 0,
						"slot": "11",
						"type": "t_struct(Counter)1972_storage"
					},
					{
						"astId": 3951,
						"contract": "contracts/BlastPandas.sol:BlastPandas",
						"label": "baseTokenURI",
						"offset": 0,
						"slot": "12",
						"type": "t_string_storage"
					},
					{
						"astId": 3954,
						"contract": "contracts/BlastPandas.sol:BlastPandas",
						"label": "price",
						"offset": 0,
						"slot": "13",
						"type": "t_uint256"
					}
				],
				"types": {
					"t_address": {
						"encoding": "inplace",
						"label": "address",
						"numberOfBytes": "20"
					},
					"t_array(t_uint256)dyn_storage": {
						"base": "t_uint256",
						"encoding": "dynamic_array",
						"label": "uint256[]",
						"numberOfBytes": "32"
					},
					"t_bool": {
						"encoding": "inplace",
						"label": "bool",
						"numberOfBytes": "1"
					},
					"t_mapping(t_address,t_bool)": {
						"encoding": "mapping",
						"key": "t_address",
						"label": "mapping(address => bool)",
						"numberOfBytes": "32",
						"value": "t_bool"
					},
					"t_mapping(t_address,t_mapping(t_address,t_bool))": {
						"encoding": "mapping",
						"key": "t_address",
						"label": "mapping(address => mapping(address => bool))",
						"numberOfBytes": "32",
						"value": "t_mapping(t_address,t_bool)"
					},
					"t_mapping(t_address,t_mapping(t_uint256,t_uint256))": {
						"encoding": "mapping",
						"key": "t_address",
						"label": "mapping(address => mapping(uint256 => uint256))",
						"numberOfBytes": "32",
						"value": "t_mapping(t_uint256,t_uint256)"
					},
					"t_mapping(t_address,t_uint256)": {
						"encoding": "mapping",
						"key": "t_address",
						"label": "mapping(address => uint256)",
						"numberOfBytes": "32",
						"value": "t_uint256"
					},
					"t_mapping(t_uint256,t_address)": {
						"encoding": "mapping",
						"key": "t_uint256",
						"label": "mapping(uint256 => address)",
						"numberOfBytes": "32",
						"value": "t_address"
					},
					"t_mapping(t_uint256,t_uint256)": {
						"encoding": "mapping",
						"key": "t_uint256",
						"label": "mapping(uint256 => uint256)",
						"numberOfBytes": "32",
						"value": "t_uint256"
					},
					"t_string_storage": {
						"encoding": "bytes",
						"label": "string",
						"numberOfBytes": "32"
					},
					"t_struct(Counter)1972_storage": {
						"encoding": "inplace",
						"label": "struct Counters.Counter",
						"members": [
							{
								"astId": 1971,
								"contract": "contracts/BlastPandas.sol:BlastPandas",
								"label": "_value",
								"offset": 0,
								"slot": "0",
								"type": "t_uint256"
							}
						],
						"numberOfBytes": "32"
					},
					"t_uint256": {
						"encoding": "inplace",
						"label": "uint256",
						"numberOfBytes": "32"
					}
				}
			},
			"userdoc": {
				"kind": "user",
				"methods": {},
				"version": 1
			}
		}
	}
}